:10000000F8FF002011040000D70F0000D70F0000F8
:10001000D70F0000D70F0000D70F0000D70F000048
:10002000D70F0000D70F0000D70F0000D70F000038
:10003000D70F0000D70F0000D70F0000D70F000028
:10004000D70F0000D70F0000D70F0000D70F000018
:10005000D70F0000D70F0000D70F0000D70F000008
:10006000D70F0000D70F0000D70F0000D70F0000F8
:10007000D70F0000D70F0000D70F0000D70F0000E8
:10008000D70F0000D70F0000D70F0000D70F0000D8
:10009000D70F0000D70F0000D70F0000D70F0000C8
:1000A000D70F0000D70F0000D70F0000D70F0000B8
:1000B000D70F0000D70F0000D70F0000D70F0000A8
:1000C000D70F0000D70F0000D70F0000D70F000098
:1000D000D70F0000D70F0000D70F0000D70F000088
:1000E000D70F0000D70F0000D70F0000D70F000078
:1000F000D70F0000D70F0000D70F0000D70F000068
:10010000D70F0000D70F0000D70F0000D70F000057
:10011000D70F0000D70F0000D70F0000D70F000047
:10012000D70F0000D70F0000D70F0000D70F000037
:10013000D70F0000D70F0000D70F0000D70F000027
:10014000D70F0000D70F0000D70F0000D70F000017
:100150008D290000D70F0000D70F0000D70F000037
:10016000D70F0000D70F0000D70F0000D70F0000F7
:10017000D70F0000D70F0000D70F0000D70F0000E7
:10018000D70F0000D70F0000D70F0000D70F0000D7
:10019000D70F0000D70F0000D70F0000D70F0000C7
:1001A000D70F0000D70F0000D70F00009F290000D5
:1001B000D70F0000D70F0000D70F0000D70F0000A7
:1001C000D70F0000D70F0000D70F0000D70F000097
:1001D000D70F0000D70F0000D70F0000D70F000087
:1001E000D70F0000D70F0000D70F0000D70F000077
:10040000FFFFFFFFFFFFFFFFFFFFFFFFFEFFFFFFFD
:1004100062B64FF000004FF000014FF000024FF0C5
:1004200000034FF000044FF000054FF000064FF0BE
:1004300000074FF000084FF000094FF0000A4FF09E
:10044000000B4FF0000C02F015FBFEE7F8B5DFF8EB
:10045000584800F0A9FC00F02BFD606000F0B7FCEC
:100460000546208800F024FD616800F041FD064645
:10047000284600F01DFD0546608800F019FD014684
:10048000284600F035FD05463046DFF8201800F01C
:10049000A3FDA56098BFDFF8186805D9DFF8141828
:1004A00000F0ACFD38BF0E466660304600F0B8FD87
:1004B000DFF80428DFF8043800F0DAFD00F0AAFEC7
:1004C000DFF8FC670746F760A06A394600F0EAFEED
:1004D000A062284600F0A4FDDFF8E827DFF8E8373F
:1004E00000F0C6FD00F096FEE0603069394600F08D
:1004F000D9FE2061A169E06900F0D4FE054665617E
:10050000206A294600F0CEFE0146284600F00CFF86
:1005100000F086FD00F086FF00F07CFE2569606239
:100520000746E068294600F0E3FC394600F0F2FF98
:10053000294600F0B7FE30614FF07E50394600F09A
:10054000D7FC616900F0E6FFA061F1BD30B5DFF8CE
:1005500070476069216900F0CBFC216A00F0DAFF86
:100560000546E168606A00F0D5FF0146284600F0C4
:10057000BFFCA06130BDF8B5DFF84447A169E06970
:1005800000F0C8FF0546E16C206D00F0C3FF29466E
:1005900000F088FEE66D0546314600F083FE074612
:1005A0002846314600F0A4FC02462069DFF81C17FB
:1005B00000F012FD9CBF00270022DFF8141700F0A6
:1005C0001DFD3CBF002700221046002100F004FD65
:1005D0006266A76610D8DFF8FC1600F0FDFC9CBF31
:1005E000DFF8F4066066606E01F000F880B201F09A
:1005F0007BF8002001F07CF8606E002100F0FEFC2A
:1006000010D2DFF8D81600F0F9FC38BF6166606ED2
:1006100080F0004000F0EAFF80B201F069F80020AD
:1006200001F062F8A06E002100F0D6FC10D8DFF8CF
:10063000A41600F0D1FC9CBFDFF89C06A066A06E5B
:1006400000F0D4FF80B201F05DF8002001F056F810
:10065000A06E002100F0D2FC12D2DFF8801600F06C
:10066000CDFC38BFA166A06E80F0004000F0BEFF58
:1006700080B201F043F8BDE8F240002001F042B83A
:10068000F1BD0000F0B5DFF85806DFF83446016828
:1006900047F23155E18000210160DFF8480601682A
:1006A000218100210160E088A84206D3DFF83816D6
:1006B00011FA80F000F0F2FB01E000F0F9FBA0621B
:1006C00020890146A84226BF4FF6FF70401A4842D3
:1006D00000F0E4FBE062A16AE06A00F0E3FD4FF0A5
:1006E0007C5100F017FF266B01466163304600F035
:1006F000FFFB002100F070FC0546E56638BF217065
:1007000028D33046DFF8E41500F066FC22D82078C4
:100710004FF04141421C284600F05EFC227004D894
:10072000D2B20F2A01D300BF0BE0206C00F078FC9E
:10073000DFF8BC25DFF8BC3501F040F800F06AFDB9
:100740002064206CDFF8B01500F058FC3CBFDFF8E7
:10075000AC052064DFF8A815284600F04FFC38BF30
:10076000E166E66EA06B314600F0D4FE05463046E9
:10077000DFF8901500F042FC276C0CD2DFF88815EA
:1007800000F02AFC07D8E06B314600F0C3FE394682
:1007900000F088FD07463046DFF85C1500F01CFCD1
:1007A0000BD8384600F03CFCDFF86025DFF86035F8
:1007B00001F004F800F02EFD0746606C2764A06489
:1007C0003846294600F06EFD6064F0BDF0B5DFF8F4
:1007D000F064B76C706C394600F08AFBDFF83415B2
:1007E00000F0FAFB98BFDFF8300505D9DFF82C15CB
:1007F00000F004FC38BF084600F012FC0022DFF8CD
:10080000203500F035FC04460D46384600F008FC63
:1008100022462B4600F0D2FF00F0FCFCF064F0BD55
:1008200080B5002301221221022001F03BF8BDE82F
:100830000050002301221321022001F033B838B503
:10084000DFF8E044A068016841F48021016001F014
:1008500087F8A068016841F40021016001F080F888
:10086000A068016821F48021016001F079F801F0AD
:1008700071F8A068016821F40021016001F070F8AE
:100880007F25A068016841F40021016001F062F851
:10089000A068016821F40021016001F061F86D1E7B
:1008A000EFD1A068016841F40021016001F058F81F
:1008B000A068016821F40021016031BD70B5DFF846
:1008C0006444A068016841F48021016001F048F8A7
:1008D000A068016841F40021016001F041F8A068BE
:1008E000016821F48021016001F03AF8A0680168F4
:1008F00021F40021016001F033F80425A0680168AB
:1009000041F40021016001F025F8A068016821F49C
:100910000021016001F024F86D1EEFD1DFF80854CA
:100920007826A068016841F40021016001F018F800
:1009300000F036FA25F8020BA068016821F40021C6
:10094000016001F00DF8761EEBD10425A068016866
:1009500041F40021016000F0FDFFA068016821F46E
:100960000021016000F0FCFF6D1EEFD1A06801685E
:1009700041F40021016000F0F3FFA068016821F458
:100980000021016070BD2DE9F84F002000248DF892
:10099000000005468146DFF890130F220B884F8830
:1009A00017FA83F38F8813FA87F3CF8813FA87F344
:1009B0000F8913FA87F34F8913FA87F38F8913FA94
:1009C00087F3CF89103113FA87F31818521EE5D137
:1009D0007821DFF8EC72B0FBF1F000F069FA78678B
:1009E000B86F00F01DFB80460E46386F796F00F03F
:1009F0007FFA00F015FBDFF83423DFF8343300F022
:100A000037FB4246334600F0D9FE00F003FCDFF826
:100A1000081300F0E1FAB86798BFB96707D9DFF8A3
:100A2000141300F0EBFA3CBF4FF07E50B867DFF8CC
:100A3000F8827826B8F800A0504600F039FA8346CC
:100A4000786FDFF8F41200F02DFC594600F0C4FA7C
:100A50009CBF15FA8AF5641C786FDFF8E01200F08D
:100A600021FC594600F0CAFA06D29DF8000019FA96
:100A70008AF9401C8DF800009DF80010E4B2B5FB27
:100A8000F4F0B9FBF1F10818400808F10208761EED
:100A9000D0D17881DFF89002B0F874107889814263
:100AA0003EBFDFF89C225388834253D2938883420F
:100AB0003CBFD38883424DD23A21148832F8023C9D
:100AC000A04238BF984202D25022BA700AE0491EB2
:100AD00098423CBF32F8043C9842F5D3491E121F9D
:100AE0000129EADA3C24DFF85C2215885388A84201
:100AF00038BF984202D25020F87023E0641C9588D9
:100B0000984238BFA842F6D3641CD388A84238BFA5
:100B10009842F0D3641C1589984238BFA842EAD3A2
:100B2000641C5389A84238BF9842E4D3641C98429D
:100B30003CBF93899842DED3641CE4B202F20C02FB
:100B4000782CD2D329294ADAE4B2502C47D3012099
:100B5000387144E0DFF8E8213B235488844238BFF1
:100B6000814208D33A2311460D8831F8024C854260
:100B700038BF844203D2C3F13B01B9700AE05B1E67
:100B800084423CBF31F8044C8442F4D35B1E091FFD
:100B9000012BE9DA022BBCBF3C21B97093883C21C0
:100BA00083423CBFD288824207D33D21664A1488E3
:100BB0005388844238BF834203D208463C38F870D9
:100BC00009E0491C83423CBF93888342F5D3491C0A
:100BD000121D7729EBDB7629A4BF3C20F870786DD5
:100BE000FC78BD78B865601900F058F90646FE67D4
:100BF000281B00F053F90146C7F88010386E00F04A
:100C000089FC314600F090FB7865BDE8F18F70B546
:100C10002B4CA56D606D294600F06AF94B4900F038
:100C2000DBF9064698BF4FF0834604D9484900F0E7
:100C3000E5F938BF0E466078401C00F02FF93146C8
:100C400000F068FC434900F06FFB294600F02AFBE6
:100C5000E06570BD38B5FFF7F9FBFFF777FCFFF7EC
:100C6000B5FDFFF7D4FF164C6078451C6570EDB2FA
:100C7000A06F00F0BBFCC0B2C0F11300854208BFFA
:100C8000FFF7DDFD6078132808BFFFF717FE6078D7
:100C9000142805D1FFF777FEFFF7F4FC0020607001
:100CA000BDE8314067E40000C804FF1F0180D44460
:100CB0000080D4440080D4C41F317A6EA12B313F10
:100CC000F404FF1F53CBD6FA22A1AD3F01007042BE
:100CD000000070C20100164300001643000016C356
:100CE0000490034004800B400100FFFF01003442E8
:100CF0007B14AE47E17AE4BF0100204100002041AF
:100D0000000070C10000F041FFFFEFC19A9999996E
:100D10009999D93F0100904100009041000090C195
:100D20000000E03F2804FF1F8005FF1FFCA9F1D24F
:100D30004D62403F0100803F0000A0C00000A04085
:100D4000F405FF1FF805FF1FFA05FF1F0100804192
:100D5000000080C10000A0414A480022416A41F0E1
:100D600000614162016821F0900101600021016091
:100D7000016A41F40051016243490A60016A41F489
:100D80008061016241490A60826942F000628261C9
:100D9000026822F410420260002202604A62704738
:100DA00001220F2101202BE038B5394C0020606072
:100DB000142503220C21002000F022F82080606816
:100DC00021886D1E10FA81F06060F2D111E038B513
:100DD000304C00206060142501221121002000F019
:100DE0000FF82080606821886D1E10FA81F0606025
:100DF000F2D160681421B0FBF1F02080208832BD70
:100E000010B5044600F012F8234800F1100151F823
:100E1000241009680906F8D500EB84000169086907
:100E20000A6880B222F080020A6010BD1A4B01F0FD
:100E30001F0141F040011972910001F00C0141F0D5
:100E4000500119700421597041F2342145F2786241
:100E500059809A8003EB800093F800C00069C0F8C5
:100E600008C04FF0040CC0F80CC08161C2619979D0
:100E70000162D9794162D9680165197A0160597AAC
:100E8000416070471880044060D0044008A00440CE
:100E9000B804FF1FC004FF1F1004FF1F002840F10B
:100EA0000980F446404200F005F850F000406047E9
:100EB000002800BF0AD0B0FA80F18840D1F19D012E
:100EC000C905020672F1004241EB1020704750F84C
:100ED000041B61B150F8042BD30744BFA9F10103EF
:100EE0009A18002342F8043B091FFAD1EFE7704734
:100EF00090EA010F44BF81F0004100F0DBB900BF70
:100F0000431A4FF000423EBF5340C01AC91800BFF9
:100F1000D3095FEAD05C13EB400F34BFB3EB410F52
:100F200040E07CEBD1530CD342EA012122D8D1EB33
:100F3000402009D3400A28BF5FEA500140EBCC5063
:100F40007047401A15D04002B0FA80F2521C90400F
:100F5000400A4FEA3C23B3EB026384BF00EB73000B
:100F600007E040F400001A16DB07C2F10102D0408E
:100F700018437047182BFCDC31FA03F202FA03F332
:100F8000591A38BF42F00102D2EB40203CBF40006A
:100F9000ACF1010C5FEACC5CC20572F100414CEB94
:100FA0005020704713EB400F0FD24B0009D0ACEB31
:100FB000D153022B03DB4902172BDDDD7047914330
:100FC000401A4300D5D10020704713EB410FD0D316
:100FD0006FF00000704770474FF0807C1CEB400FB3
:100FE00094BF1CEB410F05E040EA010C5FEA4C0C9A
:100FF00001D28142704718BF884270474FF0807C11
:101000001CEB400F94BF1CEB410F05E040EA010CC4
:101010005FEA4C0C01D28842704718BF814270478A
:101020005FF0FF0C1CEAD05114BF614506E0C1100F
:10103000400721F0E04101F16051704779B900F0BB
:10104000004100020AD0B0FA80FC00FA0CF001F175
:101050006051A1EB0C5101EBD021400570474102DA
:101060000CBF40F4E0016FF0000100207047000069
:10107000B0B581EA030C0CF0004C40F2FF7515EAA4
:1010800011541DBF15EA1357AC42AF4239E0E419C1
:1010900023EA455343F48013C90241F0004141EA79
:1010A000505EC7021100A7FB020200284FF00000AB
:1010B000EEFB01204FF00001E3FB072118BF42F0D7
:1010C0000102401800214941E3FB0E01A4F58064B0
:1010D0000F0302D252004041494154F101046CDD3A
:1010E000470872F1004250F1000051EB0451A1F5A4
:1010F00080115CBF41EA0C01B0BD4CEA05510020F3
:10110000B0BD05EA1357AC4214BFAF4241E050EA0C
:10111000410E1CBF52EA430E02E061460020B0BD02
:1011200024423C441BD15FEA070EF6D0090302BFFC
:1011300001460020AEF1140EB1FA81F7AEEB0704C0
:1011400001FA07FE0C37C7F1200100FA07F7C84083
:101150004EEA000E23EA455343F48013A2E733F02E
:101160000043B3FA83F704BFB2FA82FE77440B3F21
:10117000E41BB7F1200E2FBF02FA0EF3BB40C7F1FC
:10118000200E22FA0EFE38BF43EA0E03BA40641C5A
:1011900082E750EA410E14BF52EA430E6FF000019D
:1011A0004FF4001717EB430F8ABF194617EB410F97
:1011B000B5E74CEA05510020B0BDD4F10104B4F10B
:1011C00020070FDAC4F12007520828BF42F00102BD
:1011D00010FA07F501FA07F7E1BF2A43E040384368
:1011E000E1400FE0352C98DCC7F1200452EA4002C0
:1011F00020FA07F218BF42F0010231FA07F0A140CD
:101200000A43002172F1004250F1000051EB0C0141
:10121000B0BD00004FEAF17CBCF1E04C2CBFBCF546
:10122000001F11E05FEA4C0C34BFBCF17F5F2EE081
:101230005FEA9C0C4FEA0C1C4FEA3C0CC10071F1B8
:1012400000414CEB50707047C90241EA5051C00256
:1012500018BF41F0010141F000414FEA6C50C0F16C
:101260000900212810D240EACC7CCCF1200C11FAE4
:101270000CF070F10040CCF1200C21FA0CF00CF0D5
:10128000004C40EB0C0070474FEACC7070474900AF
:1012900011F5001F04D84FEACC10FF30C00570478D
:1012A000C817704790EA010F44BF81F00041FFF773
:1012B00027BE00BF421A3CBF801A89184FF0004C6D
:1012C000C0F3C752FF2A24D0C1F3C75313B3D21AB5
:1012D000D2F1190327DD4CEA01214CFA03F321EA8C
:1012E0000303D140C20D4CEA0020401834BF20EA6D
:1012F0000C004CEA5000D20553EA006373EB0C0C6F
:1013000052EB1020420012F1807F38BF7047C00DB1
:10131000C0057047490212BF9A4200EB5120F8E71E
:10132000D2F11703D9D5704710B5FF2313EAD05473
:101330001DBF13EAD1529C429A4239E0A41ADA073F
:1013400080EA0103134042EA012142EA0020421AE6
:101350003CBF641E01EB4202090AB2FBF1FE01FB35
:101360001E221202B2FBF1F001FB10226EF30F20DD
:101370001202B2FBF1FE4EEA00207F3406DDFE2CA5
:1013800024DA53EA500050EBC45010BDD4F10204EB
:1013900001FB1E2240F08071192C1DDC21FA04F0A3
:1013A000C4F12004A140114371F10042584110BD25
:1013B0009C421ABF03EAD1529A420FE080EA010E22
:1013C0000EF00043400004D0490016D143F0FF4026
:1013D00010BD490008BFD343180010BD9C4205D181
:1013E000D21AF7D001F00041484010BD4A0212BFA6
:1013F0000846484000F0004010BD4AB90902B1FA61
:1014000081F2914044B1A418C00140F000409EE731
:10141000C90141F0004152420002B0FA80F4A040FC
:10142000141B94E740F2FF7C0B0D4DD0634566D250
:1014300030B421EA035141F4801103F2FD3C5FEA2C
:101440005C0C01D300184941890041EA9071800089
:101450004FF440140023E202D50AB1F5100107D47D
:101460006D081DD2091B641900184941491BF7D5A5
:101470006D080AD20919641B00184941491BEFD5B0
:101480006D08F7D301E0520817D0C01861419B1ACC
:10149000AC4100184941801AA941F4D452080AD03D
:1014A000C01AA1419B186C4100184941801AA941FA
:1014B000E9D45208F4D15B1C6C4161084FEA330057
:1014C00001EB0C5130BC704750EA0103FBD030B443
:1014D000B1FA81F311B9B0FA80F41B190B3BB3F1E7
:1014E00020042FBF00FA04F19940C3F1200420FA30
:1014F00004F438BF21439840D3F101039DE76345CD
:10150000E1D011F5801FDED850EA4101DBD0D9438C
:1015100000F02CBAFF2212EAD05C1DBF12EAD153B0
:10152000944593422BE09C44D30780EA01021A4081
:1015300043EA002043EA0121A1FB0030410038BF0B
:1015400040007CF17F010BDBFE294ADA5B0842EAAE
:10155000C15153EA006373F1004C51EB1020704706
:10156000D1F1080CDCF120012FDB5B0810FA01F14E
:101570000B4373F1004120FA0CF050417047944541
:101580001CBF02EAD153934280EA010202F00042FA
:101590001DD0400019D0490017D05BB9634514D065
:1015A0000902B1FA81F39940BCEB030CC00140F091
:1015B0000040C1E70002B0FA80FC10FA0CF0B3EB77
:1015C0000C0CC90141F00041B6E710007047400023
:1015D0000AD0490008D010F1807F94BF11F1807FBC
:1015E00002E042F0FF407047D04370474100090ECF
:1015F0007F3915D4D1F11F0114D4400007D2C001A6
:1016000040F00040C84048BF6FF000407047C00144
:1016100040F00040C8404CBF4FF00040404270478F
:101620000020704700424FF0004058BFC043704751
:1016300056484FF48061016041608160C160544848
:10164000016841F0807101605248416D41F0040130
:101650004165C16841F00801C160C16821F0040121
:10166000C160C16841F02001C160416941F00801D9
:101670004161416921F004014161416941F020016A
:101680004161C16941F00801C161C16921F00401F2
:10169000C161C16941F02001C161416A41F00801A5
:1016A0004162416A21F004014162416A41F0200136
:1016B00041620C210160416D490849004165F021FA
:1016C000016635490A68520852000A6000214166E5
:1016D000C16440F257218160002101618161016292
:1016E000816264214160704700EB40002B4902E0B9
:1016F00000EB40002A4980B20860704700EB4000D0
:101700002849F8E700EB40002749F4E730B42748C0
:101710004FF4C0618160264AC160136843F0807352
:101720001360244B1C6D44F004041C65DC6F44F012
:101730000804DC6700249C644FF6FF745C60DD6F76
:1017400045F00105DD671D6D45F001051D650025AE
:101750001D6001604160D06840F00070D0601648A4
:10176000016D41F004010165C16F41F00801C167DD
:1017700085644460C16F41F00101C167016D41F0B2
:1017800001010165056030BC7047000004B00440F1
:101790003C80044000800340808003402080034060
:1017A00028800340188003401080034020900440AC
:1017B0003080044004800B400490034070B44FF02C
:1017C000004591EA030C44BF6B4000F0D5B800BF60
:1017D000841A71EB030603D2001BB1411219734145
:1017E0004FF4001C1CEB410F34BF7CEB430443E07F
:1017F0000C0DA4EB1356352E50DC45EAC323DB0A4F
:1018000045EAC121C912B6F120050DDD63FA05F6DE
:10181000EB4086EA0305124218BF45F00105C018E7
:1018200051F100010CD213E062FA06F5F240554086
:10183000F3415A40B340F3405A408018594107D30E
:1018400049085FEA30005FEA350528BF45F0010529
:1018500001F58011420875F1004250F1000041EBA2
:10186000045170BC4FF4001C1CEB410F38BF704793
:101870000020090D090570471CEB410F10D252EAF8
:1018800043060BD0BCEB410F05D80C0DAB43661ED5
:10189000342EB5DD02E0AB438018594170BC70476F
:1018A00070BC704770B4234C4FF4807604EB800515
:1018B0006D69164345F82160D50703D5032A18BF83
:1018C000132A09D154F820000123426903FA01F1D7
:1018D00022EA0101416114E054F820000122446928
:1018E0008A4014434461D443012B02BF0168214064
:1018F000114305D002680023224003FA01F111438D
:10190000016070BC70470B4B53F8200001238B40E3
:101910006FEA030C012A02BF01680CEA01011943B6
:1019200006D0026800230CEA020203FA01F1114317
:10193000016070472804FF1F48B10549096849083C
:101940000A0002D000BF521EFCD1401EF8D17047E1
:101950007806FF1F502000BF401EFCD170470000DA
:1019600000BF00BF00BF00BF704700001FB500F000
:10197000B9F8212101601FBD841A71EB030604D25E
:101980006E40001BB141121973414FF4001C1CEB57
:10199000410F34BF7CEB430684E00C0DA4EB1356DF
:1019A000362E7DDC012E43DC45EAC32343EA525345
:1019B00012BFD20292025B08240545EAC12141EA26
:1019C0005051D2EBC020994125D407D1B0FA80F60E
:1019D00010FA06F164D00020203608E0B1FA81F652
:1019E000B140C6F1200220FA02F21143B0404FEAA2
:1019F000F474B4EB465434F001064FEA74040AD888
:101A0000D6F50016760D04F00044F04061FA06F2B7
:101A10005040F1404840C00A40EA415021F00041A6
:101A200028BF5FEA500550F1000044EBD12137E0B8
:101A300045EAC323DB0A45EAC121C90AB6F12005FC
:101A40000EDD42EA0242120CC5F1200603FA06F648
:101A5000EB4042EA06056D42984161F100010DE05C
:101A600062FA06F5F240554063FA06FC82EA0C027F
:101A7000F3405A406D42904161EB030111F4801F25
:101A800005D1641E620502D06D004041494121F438
:101A90008011430875F1004350F1000041EB0451FF
:101AA00070BC70471CEB410F15D223F0004352EA83
:101AB00043060BD04FEA4C0CBCEB410F04D80C0D85
:101AC000661E342EB7DDEBE7801A994150EA4106D5
:101AD00008BF0021E4E708BF1CEB430F28BF6FF0ED
:101AE0000001DDE7014800F003B800008406FF1F95
:101AF0007047000010B50C461168012902D0022978
:101B000004D008E0C0B25168884704E091680870CA
:101B10009068401C90602068401C206010BD30B46C
:101B2000002400F8014B002A096812D091B191FB02
:101B3000F3F203FB1211002946BFC94301F131053D
:101B400001F130051146641C00F8015B0029EED15B
:101B500014E019B93021017001240FE0B1FBF3F258
:101B600003FB12110A2934BF01F1300501F13705D9
:101B70001146641C00F8015B0029EFD1204630BCFF
:101B800070472DE9F04F80468FB0002092460090BC
:101B90000D4604E0424600A9FFF7ACFF6D1C287813
:101BA000010000F0998125280AD00A28F2D1424686
:101BB00000A90D20FFF79EFF424600A90A20EBE78F
:101BC000002601E046F0100615F8010F20280ED07F
:101BD0002328F7D02B2807D02D2802D0302809D071
:101BE0000BE046F00106EFE746F00206ECE746F0B0
:101BF0000406E9E746F00806E6E7691E4FF000092B
:101C000005E009EB890200EB4200A0F1300911F870
:101C1000010F0246303A092AF3D92E2804D111F8CF
:101C2000010F30380928FAD94D1E15F8010F4C283C
:101C300018BF682802D06C2818BF6D1E15F8010F58
:101C4000582862D0622800F0C080632800F00C8120
:101C5000642818BF692811D06E2800F038816F28D9
:101C600000F0AE80702800F0B580732800F000818D
:101C7000752800F0B480782847D08BE75AF8040B19
:101C80000A230390012203A905A8FFF748FF044691
:101C900005A8201802900398002848BF2D2706D4D5
:101CA000B00748BF2B2702D4700702D52027641C39
:101CB00000E00027300711D5384618B1424600A988
:101CC000FFF718FF4C4507DA424600A93020FFF71E
:101CD00011FF641C4C45F7DB4C46A9E0F0070BD420
:101CE000A3464C4508DA424600A92020FFF702FF30
:101CF0000BF1010BCB45F6DB3846002800F098804D
:101D0000424600A9FFF7F6FE92E05AF8040B1023B2
:101D10000190002201A905A8FFF701FF044605A8CC
:101D2000201802900027300718D5F0060AD5424641
:101D300000A93020FFF7DEFE424600A97820FFF719
:101D4000D9FE01274C4507DA424600A93020FFF7AB
:101D5000D1FE641C4C45F7DB4C4621E0F0071FD454
:101D600006F010008DF8100000B1A41CA346CB456E
:101D700008DA424600A92020FFF7BCFE0BF1010B58
:101D8000CB45F6DB9DF8100050B1424600A930204B
:101D9000FFF7B0FE424600A97820FFF7ABFE01270F
:101DA000F00645D5002F43D1424600A93020FFF769
:101DB000A1FE424600A97820FFF79CFEA41C37E054
:101DC0005AF8040B082301900DE05AF8040B022383
:101DD000019008E05AF8040B1023019003E05AF830
:101DE000040B0A230190002201A905A8FFF797FE22
:101DF000044605A82018029030070CD54C45BFF6C4
:101E00006BAF424600A93020FFF774FE641C4C45BE
:101E1000F7DB4C460CE0F0070AD427464C4507DABE
:101E2000424600A92020FFF765FE7F1C4F45F7DBE7
:101E30000298007848B102A8076842467B1E0360FA
:101E400000A93878FFF756FEF2E7F0077FF5A6AE57
:101E50004C45BFF6A3AE424600A92020FFF74AFE3C
:101E6000641C4C45F7DB99E65AF8040BC0B291E6C6
:101E70005AF8047B002F3FF491AE384600F042F848
:101E80000446F0070BD4A3464C4508DA424600A9A5
:101E90002020FFF72FFE0BF1010BCB45F6DB387846
:101EA00030B1424600A917F8010BFFF723FEF6E711
:101EB000F0077FF573AE4C45BFF670AE424600A901
:101EC0002020FFF717FE641C4C45F7DB66E65AF846
:101ED000040B0099016061E600980FB0BDE8F08F37
:101EE0000EB400B584B001210091054905AA019105
:101EF000014600A8FFF745FE04B05DF810FB0000A6
:101F0000952A0000002138B1027822B110F8012F83
:101F1000491C002AFAD108467047000076487749E4
:101F200001607748774901607748784901607848CF
:101F300000210160774801607047774800210180E7
:101F400076484FF07E510160754800210160754868
:101F50007549016075487649016076480021016045
:101F6000754801607548016075480160754876499B
:101F70000160764876490160764800210160764824
:101F80000160764876490160764877490160774874
:101F9000002101607648017076480160704770B595
:101FA00075480021017075480024016074480D4691
:101FB00001607448016000F04CF90A20FFF7BCFC96
:101FC00000F086F900F09AF96420FFF7B5FCFEF7FF
:101FD000C3FE0A20FFF7B0FCC826FEF7E5FE14FAA0
:101FE00080F4FEF7F4FE15FA80F5761EF5D1C820D0
:101FF000654AB4FBF0F111806449B5FBF0F008804C
:10200000FEF70EFC4BF68031002000F0A5F96420AD
:10201000FFF792FC0021112000F08BF9FFF708FB7D
:10202000BDE87040FFF772BB70B5594800210180D0
:10203000584801805848018072B6FFF77EFFFFF7CD
:102040006DFFFFF7ACFF62B64FF47A70FFF774FCD8
:102050004FF47A70FFF770FC304C5048304D2060E0
:102060004F4828606420FFF767FC4E4E3E482660CC
:1020700028606420FFF760FC4B4820604B482860D4
:102080006420FFF759FC4A4820604FF07C502860DC
:102090006420FFF751FC4FF07D5020602E606420DB
:1020A000FFF74AFC2C4C434820604FF4FA70FFF7CE
:1020B00043FC304D4FF084463F482E6020604FF483
:1020C000FA70FFF739FC3D4820604FF4FA70FFF7D3
:1020D00033FC3B4820604FF4FA70FFF72DFC394881
:1020E00020604FF4FA70FFF727FC0021102000F069
:1020F00020F92E60FEE70000E004FF1F0AD7233C12
:10210000E404FF1F17B7D138E804FF1F0050C3478E
:102110000405FF1FD804FF1F7C06FF1F1005FF1FCB
:102120004405FF1F1405FF1F9A99F9401805FF1F6A
:102130000000A0420805FF1F4805FF1F4C05FF1FB8
:102140005005FF1F6405FF1F00007A446C05FF1F48
:102150000000A0403405FF1F2405FF1F2C05FF1FB2
:102160003333333F3005FF1FCDCC4C3E4005FF1FBE
:10217000F504FF1F5405FF1FF404FF1F7805FF1F20
:102180007C05FF1F6005FF1FC804FF1FCA04FF1F57
:102190008206FF1F8006FF1F7E06FF1F3333733F3B
:1021A000CDCCCC3D6666663F9A99593F9A99993E47
:1021B000CDCC4C3F000070410000F04100003442A3
:1021C0000000704200008C4238B504460D460022E3
:1021D0001C210020FFF797FB1DB101221B210020CD
:1021E00002E000221B210020FFF78DFB08252006BE
:1021F00042BF01221A21002002D400221A2100200D
:10220000FFF781FB002219210020FFF77CFB64000F
:10221000012219210020FFF776FB6D1EE7D1BDE8F2
:10222000384001221C210020FFF76DBB10B50021B2
:102230008020FFF7C9FF00214020FFF7C5FF4FF4C2
:10224000FC74FFE701210020FFF7BEFF641EF9D1F7
:1022500010BD80B50123012219210020FFF722FBC8
:1022600001231A461A210020FFF71CFB01231A46FE
:102270001B210020FFF716FB01231A461C2100201A
:10228000FFF710FB00221D211046FFF73CFB012247
:102290001D210020FFF737FB00212120FFF794FFCD
:1022A0000021CC20FFF790FF00212020FFF78CFFBA
:1022B00000210C20FFF788FF00214020FFF784FF5A
:1022C00000218020FFF780FFBDE80140AEE700005D
:1022D000084840F203118068816181630648806884
:1022E000416921F040014161416921F4804141612E
:1022F000704700003C04FF1F2804FF1F80B5012326
:1023000001220E210020FFF7CDFA01231A460F21EA
:102310000020FFF7C7FA01231A4610210020FFF71B
:10232000C1FABDE8005001231A4611210020FFF731
:10233000B9BA084A4FF0010C12680CFA00FC136895
:1023400001F0010123EA0C0301FA00F018431060C8
:10235000704700002804FF1F0D4A136843F4000370
:1023600013600C4A13689B089B00FFE713600A4B3D
:102370000201D150D118CA68443042F00102CA604B
:102380008A6842F003028A6000F00BB80000000087
:102390003C8004400070034000710340184908600D
:1023A000704710B504465C2CA4BF0FF26000FFF725
:1023B00097FD201104EBD060401103D0022815D006
:1023C0000AD310BD0121A4EB401001FA00F00D4921
:1023D00008600D49086010BD0121A4EB401001FA0E
:1023E00000F0084948600849486010BD0121A4EB8D
:1023F000401001FA00F0034988600349886010BD6D
:1024000008ED00E080E200E000E100E00A45525201
:102410002120496E76616C696420495251207661B1
:102420006C75652070617373656420746F20656ED0
:1024300061626C65206972712066756E6374696F84
:102440006E210A00DFF800F07D04FF1F70B5002840
:1024500000F0918030281ED0322826D0602827D066
:1024600064284DD06E2826D0782827D07D2828D003
:10247000822829D08C282AD096282BD0A0282CD08E
:10248000AA282DD0B4282ED0C8282FD0E12830D0AB
:10249000FA2831D033E018210022594C2170002154
:1024A0006270A17031282ED239E018210122F4E7A0
:1024B00018211822F1E718211F22EEE71321182214
:1024C000EBE713211A22E8E713211C22E5E70E218E
:1024D0001222E2E70E211522DFE70E211822DCE7A7
:1024E0000E211B22D9E70E211E22D6E70C211C2229
:1024F000D3E70B211E22D0E70A211F22CDE764205B
:1025000018211A22C9E7612838BF012107D3912871
:1025100038BF022103D3C12834BF03210F21E1704A
:10252000E1781928217138BF002023D3312838BF22
:1025300001201FD3492838BF02201BD3612838BF90
:10254000032017D3792838BF042013D3912838BF2C
:1025500005200FD3A92838BF06200BD3C12838BFC8
:10256000072007D3D92838BF082003D3F12834BF68
:1025700009200F206071224C32216078214E1830E2
:1025800080B248432178491C89B290FBF1F50020C4
:1025900070701D48016841F0805101601B4801784E
:1025A00041F08001017098203070B079C006FCD4F1
:1025B000B079C0F381000228FAD1207800F01F0022
:1025C00030710020707163792279E178A078FFF78B
:1025D00039FF607800F01F0040F040007071B07962
:1025E0008006FCD5B0794006FCD5307800F03F007D
:1025F0003070B079C0F381000328FAD1E8B270BD21
:102600005004FF1F004006403480044008C00740CB
:10261000F0B4052844D8DFE800F0030E19242F3960
:102620003E4A4FF44073136153613D4AD36843F40B
:102630008063D36034E03B4A4FF4407313605360CF
:10264000374AD36843F40063D36029E0334A4FF438
:10265000407353601360324AD36843F48053D360AD
:102660001EE0304A4FF44073536393632C4AD3689F
:1026700043F40053D36013E02B4A4FF44073536488
:102680001364274A136843F4806308E0264A4FF432
:10269000407353601360224A136843F4006313606D
:1026A000224B024653F82240E57805F0F305E57029
:1026B00053F822400025A57000281ABF01281C48A5
:1026C0001C4800684FF47A74604353F822500901A3
:1026D000B0FBF1F42F782604360E66F304072F7052
:1026E00053F8225040016C7053F82240B0FBF1F0D7
:1026F000A17A60F30401A17253F82200C17841F07D
:102700000C01C170F0BC7047084A52F8203093F8B1
:1027100004C05FEA0C6CFAD5D971704708C0044058
:10272000288004400CB0044020D004406404FF1F03
:102730007806FF1F7006FF1F10B51649164C8C4215
:1027400004D04FF48252204600F038F82046FFF7BC
:1027500025FE1249124A1348521A05D011F8013BBE
:10276000521E00F8013BF9D10F481049091A05D053
:10277000491E002200F8012B0029F9D10C490D4A0D
:102780000D48521A05D011F8013B521E00F8013BCA
:10279000F9D110BD000000000000FF1F1428000048
:1027A000802800001004FF1FB804FF1F8406FF1FCD
:1027B000502900008C2900007C04FF1F103A07D329
:1027C00030B4B1E83810103AA0E83810F9D230BC73
:1027D000530724BFB1E80810A0E8081044BF51F81F
:1027E000043B40F8043BD20724BF31F8022B20F809
:1027F000022B44BF0B7803707047083A07D3B1E847
:102800000810083A40F8043B40F804CBF7D25307CD
:10281000E4E70000000000000000000000000000ED
:102820000000000000B0034000B00B4000F00F407B
:1028300040F00F4080F00F40C0F00F4000F10F401B
:102840000090044000A0044000B0044000C00440D8
:1028500000D004400B1F00000009000000C002402F
:1028600000D0024000C00A4000A0064000B0064070
:1028700000C0064000D0064000A00E4000B00E4050
:1028800070B5134D0C4629690A6822F080620A600F
:1028900000F020F80646204600F01CF82869016880
:1028A00041F080610160304670BD10B5084C21696F
:1028B0000A6822F080620A6000F00CF8FF2000F045
:1028C00009F821690A6842F080620A6010BD0000C0
:1028D0002804FF1F0B498968CA6A0B4ACA620B6841
:1028E00043F440630B60CB6A9B03F7D440F0006075
:1028F0004863C86A8003FCD5886BCA6AD200FCD5DD
:10290000C0B270475804FF1F00000A1A38B50E4DB8
:102910000E4C286840F4785028606020FFF796FD40
:1029200060604FF47A7111FB00F02060E968C1F338
:102930000361491CB0FBF1F0A060BDE834404FF4E6
:1029400096410320FFF764BE388004407006FF1FE5
:1029500070B4090601F0706141EA00701105094C7C
:1029600001F47001084325681904266801F47021F8
:10297000084346F47F06044926600860256070BC61
:10298000704700BF00F001404480044080B5FEF76E
:1029900061F90A48016841F00101016001BD80B59B
:1029A0000748016841F0007101600720FFF77DFFD3
:1029B000BDE8044001462720FFF762BF0C710340C9
:1029C000A0D0044080B500F007F808484FF6FE722A
:1029D00001881140018001BD72B605484CF22051BA
:1029E00001804DF62811018062B670470020054035
:1029F0000E20054010B5084979441C31074C7C4431
:102A00001A34A14206D0081D0A68511888470146A9
:102A1000A142F8D110BD00BF080000001C0000005A
:102A2000AFE4FFFFCC010000B804FF1F040000006A
:102A30008406FF1F000000000120C046002801D0CE
:102A4000FFF7D8FF0020FFF7EFFA00F000F800F0E2
:102A500001B800000746384600F002F8FBE7000026
:102A600080B5C046C046024A11001820ABBEFBE745
:102A70002600020080B5FFF7A5FFFFF75DFEFFF718
:102A800045FFFFF7D1FAFEE7C046C046C046C04644
:0C2A9000FFF7D2FF01460320FFF736BE1F
:0400000500002A8944
:00000001FF
