:020000040800F2
:10000000600700208901000895050008B904000870
:100010009105000831020008BB0B00080000000039
:100020000000000000000000000000005D09000862
:10003000350200080000000039090008710A0008B4
:10004000A3010008A3010008A3010008A301000800
:10005000A3010008A3010008A3010008A3010008F0
:10006000A3010008A3010008A3010008A3010008E0
:10007000A3010008A3010008A3010008A3010008D0
:10008000A3010008A3010008A3010008A3010008C0
:10009000A3010008A3010008A3010008A3010008B0
:1000A000A3010008A3010008A3010008A3010008A0
:1000B000A3010008A3010008A3010008A301000890
:1000C000A3010008A3010008A3010008A301000880
:1000D000A3010008D50A0008A3010008A301000835
:1000E000A3010008A3010008A301000800F002F822
:1000F00000F03AF80AA090E8000C82448344AAF188
:100100000107DA4501D100F02FF8AFF2090EBAE885
:100110000F0013F0010F18BFFB1A43F0010318473B
:10012000181C0000381C0000103A24BF78C878C1A1
:10013000FAD8520724BF30C830C144BF04680C60ED
:10014000704700000023002400250026103A28BF35
:1001500078C1FBD8520728BF30C148BF0B60704739
:100160001FB51FBD10B510BD00F033F81146FFF7E5
:10017000F7FF00F0EDFD00F051F803B4FFF7F2FFD8
:1001800003BC00F04DFD00000948804709480047C6
:10019000FEE7FEE7FEE7FEE7FEE7FEE7FEE7FEE737
:1001A000FEE7FEE704480549054A064B7047000094
:1001B000750A0008ED0000086001002060070020BB
:1001C000600300206003002070477047704770474D
:1001D0007047754600F028F8AE460500694653465C
:1001E00020F00700854618B020B5FFF7DBFFBDE81B
:1001F00020404FF000064FF000074FF000084FF08E
:10020000000B21F00701AC46ACE8C009ACE8C0091E
:10021000ACE8C009ACE8C0098D4670470446AFF3AE
:1002200000802046FFF7A9FF00487047FC0000202F
:1002300000BFFEE770472DE9F04102460025002689
:10024000002000230024002791F803C00CF00F05C4
:1002500091F803C00CF0100CBCF1000F03D091F822
:1002600002C04CEA050591F800C0BCF1000F31D086
:10027000146800202BE04FF0010C0CFA00F3B1F8E9
:1002800000C00CEA03069E4220D183004FF00F0C01
:100290000CFA03F7BC4305FA03FC4CEA040491F89A
:1002A00003C0BCF1280F06D14FF0010C0CFA00FC82
:1002B000C2F814C00AE091F803C0BCF1480F05D1A0
:1002C0004FF0010C0CFA00FCC2F810C0401C0828CA
:1002D000D1D31460B1F800C0BCF1FF0F34DD546815
:1002E00000202EE000F1080C4FF0010808FA0CF392
:1002F000B1F800C00CEA03069E4221D183004FF002
:100300000F0C0CFA03F7BC4305FA03FC4CEA040497
:1003100091F803C0BCF1280F05D100F1080C08FAD0
:100320000CF8C2F8148091F803C0BCF1480F07D153
:1003300000F1080C4FF0010808FA0CF8C2F8108020
:10034000401C0828CED35460BDE8F081016170479D
:1003500000B500F07DF805490860084600680449CA
:100360000968401A0149086000BD0000280000200B
:100370002000002070B500F0C5FC1F490860084649
:1003800000681E490968401A1D4908601A4800683B
:10039000002827DB0846006800F05EFE0546194984
:1003A00000F05CFD044600F037FE15490860124875
:1003B000006800F051FE0546124900F04FFD04466A
:1003C00000F02AFE0C4908600846006841F224311A
:1003D000884203DD01200C4908700BE000200A4927
:1003E000087007E0012008490870002004490860EF
:1003F0000149086070BD0000240000202800002092
:100400002C0000200000B9433000002008B5012175
:10041000082000F093FA10208DF803008020ADF83A
:10042000000003208DF8020069460848FFF703FF2B
:1004300004208DF803004020ADF8000003208DF863
:10044000020069460148FFF7F6FE08BD000C0140B6
:1004500000B50122164B1A6000F030F80022154B4F
:10046000C3F89C21002000BF114A1268002AFBD16A
:1004700000210EE001220E4B84331A60400000225E
:100480000C4BC3F89C210A4A126802B1401C4A1C5A
:10049000D1B21829EEDB0122054B84331A6080F4B7
:1004A000000000F00BF80022024BC3F89C2100BDB5
:1004B000188121420080214200BFFEE700BF704743
:1004C00010B50120074908600749C1F8B80100F0DC
:1004D000F3FB00200349091F08600349C1F8BC0170
:1004E00010BD0000BC0122420000224210B50020D5
:1004F000074908600749C1F8B801012000F0DCFB9A
:100500000120034908600349C1F8B80110BD00008B
:10051000BC0122420000224208B501210C2000F05B
:100520000DFA3020ADF8000048208DF80300694630
:100530000A48FFF780FE10210848FFF707FF202137
:100540000648FFF703FF0120ADF8000028208DF8D2
:10055000030069460248FFF76EFE08BD000C01402B
:100560000008014008B50121102000F0E7F9102033
:100570008DF803004002ADF8000003208DF8020062
:1005800069460248FFF757FE08BD00000010014011
:1005900000BFFEE77047000010B508A2022100204E
:1005A00000F0BEF808A20421002000F0B9F809A26A
:1005B0000621002000F0B4F810BD00004E5F573A4D
:1005C0002020202020206700496E632047726F732F
:1005D00073000000415F573A202020202020670050
:1005E00070B50646002415E004F1B001C8B200F071
:1005F00083F9012000F080F9102000F07DF900253A
:1006000004E0304600F088F9681CC5B2802DF8DBA4
:10061000601CC4B2082CE7DB70BD000008B50121E6
:10062000102000F08BF94FF44040ADF8000010208E
:100630008DF8030003208DF8020069460448FFF797
:10064000FAFD0120034908600349C1F8BC0108BD57
:1006500000100140B80122420000224210B54FF4C0
:10066000FA7000F003FBAE2000F046F9002000F025
:1006700043F9102000F040F9402000F03DF98120BE
:1006800000F03AF9CF2000F037F9A12000F034F95A
:10069000C82000F031F9A62000F02EF9A82000F0C3
:1006A0002BF93F2000F028F9D32000F025F9002095
:1006B00000F022F9D52000F01FF9802000F01CF98D
:1006C000D92000F019F9F12000F016F9DA2000F035
:1006D00013F9122000F010F9DB2000F00DF9402092
:1006E00000F00AF9202000F007F9022000F004F9D8
:1006F0008D2000F001F9142000F0FEF8A42000F095
:10070000FBF8A62000F0F8F8AF2000F0F5F8002084
:10071000FFF766FF0021084600F046F810BD000014
:100720002DE9F04706460F46904600250024A146D5
:1007300031E018F809002038C5B2782E02DD002615
:10074000781CC7B23946304600F02EF8002407E086
:1007500004EB0511134A505C00F0DEF8601CC4B2D3
:10076000082CF5DB781CC1B2304600F01DF80024DF
:1007700008E004EB051108310A4A505C00F0CCF89F
:10078000601CC4B2082CF4DB06F10800C6B209F103
:10079000010000F0FF0918F809000028C9D1BDE8E0
:1007A000F08700004617000870B504460D4605F1B5
:1007B000B001C8B200F0A0F8102141EA141000F016
:1007C0009BF804F00F0141F0010000F095F870BDB6
:1007D0002DE9F04780460E4691461F46002500242D
:1007E000A9F12000C5B2B8F17F0F02DDA046B01C10
:1007F000C6B2102F22D131464046FFF7D5FF002464
:1008000007E004EB0511184A505C00F085F8601C05
:10081000C4B2082CF5DB701CC1B24046FFF7C4FF20
:10082000002408E004EB051108310F4A505C00F089
:1008300073F8601CC4B2082CF4DB13E0082F11D14C
:1008400031464046FFF7B0FF002409E005EB4501C3
:10085000064A02EB4101085D00F05EF8601CC4B27C
:10086000062CF3DBBDE8F087461700081E150008CC
:100870002DE9FF5F074691461E460E9D4FF0000A88
:10088000002435E0301B401EC1B20A2000F0DAFA25
:10089000B9FBF0F00A21B0FBF1F201FB1208BAF14A
:1008A000000F14D1701EA04211DDB8F1000F0CD161
:1008B000AB4605EBDB71491001FB0471C8B22B4656
:1008C00030220199FFF784FF10E04FF0010AAB4698
:1008D00005EBDB71491001FB0471C8B208F130016E
:1008E000CAB22B460199FFF773FF00BF601CC4B268
:1008F000B442C7DBBDE8FF9F10B50446FFF7E0FD3B
:10090000782000F05DF9002000F05AF9204600F050
:1009100057F9FFF7EBFD10BD10B50446FFF7D0FD0A
:10092000782000F04DF9402000F04AF9204600F010
:1009300047F9FFF7DBFD10BD7047000029B1064AFB
:1009400092690243044B9A6104E0034A926982432C
:10095000014B9A617047000000100240704710B5CB
:1009600000F002F810BD00000CB5002001900090CE
:100970003348006840F480303149086000BF304897
:10098000006800F4003000900198401C019000982D
:1009900018B90198B0F5A06FF1D12948006800F4AA
:1009A000003010B10120009001E00020009000987C
:1009B000012843D12348006840F010002149086015
:1009C0000846006820F0030008600846006840F010
:1009D000020008601A4840681949486008464068A3
:1009E00048600846406840F48060486008464068B7
:1009F00020F47C1048600846406840F4E8104860E5
:100A00000846006840F08070086000BF0C4800682D
:100A100000F000700028F9D00948406820F0030079
:100A2000074948600846406840F00200486000BF3F
:100A30000348406800F00C000828F9D10CBD000004
:100A40000010024000200240042808D14FF0E021AD
:100A5000096941F004014FF0E022116107E04FF015
:100A6000E021096921F004014FF0E0221161704793
:100A70007047000010B51348006840F001001149AC
:100A8000086008464068104908400E49486008461A
:100A900000680E4908400B4908600846006820F4C9
:100AA000802008600846406820F4FE0048604FF44B
:100AB0001F008860FFF753FF4FF000600449086093
:100AC00010BD0000001002400000FFF8FFFFF6FE1E
:100AD00008ED00E010B540F225511D4800F03EF849
:100AE00010B31B4800F064F8C4B21A48008800F440
:100AF0000040C8B91748008800F4804060B10A2C53
:100B000003D000201349088020E01248008840F4F8
:100B100000401049088019E00D2C06D10D480088CE
:100B200040F480400B49088010E00A480088C0F378
:100B30000D0009490C5407480088401C05490880ED
:100B400008460088C72801DD0020088010BD00008D
:100B5000003801401C0000203400002070B502461F
:100B6000002400230025002040F66A16B14200D17F
:100B700000BFC1F3421501F01F03012606FA03F37B
:100B8000012D02D19689334006E0022D02D1168A4A
:100B9000334001E0968A33400C12012606FA04F431
:100BA0001688344013B10CB1012000E0002070BD64
:100BB00001468888C0F30800704700BFFEE70000C8
:100BC00070B50446002517E004F0800018B101203C
:100BD0001149086002E000200F49086001200E4919
:100BE000091D086000F068F800200C49C1F8BC013C
:100BF0006006040E681CC5B2082DE5DB012006491D
:100C000008600649C1F8BC0100F056F8002002490E
:100C1000091D086070BD0000B80122420000224298
:100C2000014600BF7047000010B56FF00400FFF7E9
:100C30000BFF0A4800680A49B0FBF1F00949087047
:100C40000846007800EB4001C1EBC0104FF6FF7181
:100C500001EAC0000449088010BD00000000002027
:100C600000127A0014000020160000200146114AEC
:100C700012884A434FF0E0235A6100229A611A46D3
:100C8000126942F001021A6100BF4FF0E0221069C0
:100C900000F001021AB100F48032002AF5D04FF0C2
:100CA000E022126922F001024FF0E0231A610022D3
:100CB0009A617047160000200146114A12784A4393
:100CC0004FF0E0235A6100229A611A46126942F0FD
:100CD00001021A6100BF4FF0E022106900F001022A
:100CE0001AB100F48032002AF5D04FF0E0221269E8
:100CF00022F001024FF0E0231A6100229A6170474E
:100D0000140000202DE9F0470025002400260027CC
:100D10000DE0FFF79DFB0D490968441A002C02DA2B
:100D2000002D00DB2C4626442546781CC7B2022F36
:100D3000EFDB304600F090F981464FF0804100F043
:100D40008DF8804600F04CF9BDE8F08720000020C7
:100D500008B5FFF769FFFFF705FCFFF75FFCFFF73A
:100D60007DFCFFF7D9FBFFF751FB4FF47A70FFF7DB
:100D70007DFFFFF7EDFA264800682649086000204D
:100D800023490860FFF708FC40E0FFF7F3FA102062
:100D9000042300902048022102682020FFF768FD0C
:100DA0001020042300901D48062102682020FFF730
:100DB0005FFD1B48007818B100201A49086002E066
:100DC0000120184908601848006868B93220FFF708
:100DD0004DFF15480068C8B9FFF7BAFA13A20421FD
:100DE0000020FFF79DFC11E00F48001F006868B964
:100DF0003220FFF73BFF0C48001F006830B900208D
:100E0000034908600CA20421FFF78AFCBDE700003B
:100E100028000020200000202C00002024000020BA
:100E200030000020B40122421481214244656C202C
:100E300047726F7373000000496E632047726F73CF
:100E40007300000010B50246012000E050430B0083
:100E5000A1F10104E1B2F9D110BD00004FF47F0C03
:100E60001CEAD0121EBF1CEAD11392EA0C0F93EABF
:100E70000C0F00F0858090EA010F48BF42F48072A9
:100E800040F4000C41F400002CF07F4120F07F4042
:100E900000B58142A2EB03020FF2081CACEB504EEE
:100EA000C0F100009EF800E04FEA4E0E00FB0EFC81
:100EB00038BF49004FEA2C1C02F5FA020CFB0EF376
:100EC0004FEACE1E4FEA112C4FEAC1210EEB635EB2
:100ED00042EB22420EFB0CFC4FEA1C5300FB0311B9
:100EE0004FEA112C4FEA01310EFB0CFC4FEADC4CAF
:100EF00000FB0C11C14228BF09184CEB03335DF80D
:100F000004EB10EB410143EBC250B2F57C0F38BF4C
:100F1000704729D512F0F00F1CBF00F1C04000F05F
:100F200000407047008182838485868788898B8C06
:100F30008D8E8F919293959697999A9C9D9FA0A242
:100F4000A3A5A7A8AAACAEB0B2B3B5B7B9BCBEC092
:100F5000C2C5C7C9CCCED1D4D7D9DCDFE2E6E9EC33
:100F6000F0F3F7FAFE0000004FEA400C0CF1807C31
:100F7000BCF17E4F28BF7047B0F1C04000F0CAB846
:100F800090EA010F0CEAD11348BF42F48072624527
:100F900038BF634507D213F47F0F16D080EA0100F3
:100FA00000F00040704710B500F06EF8097EFC3E7E
:100FB00000F005B880EA010000F00040704780EAC8
:100FC000010000F0004000F0A5B812F47F0F04BF4C
:100FD0000248704780EA010000F09CB80000C07F22
:100FE00041000B0ED3F19E0208D950F400034FEAE2
:100FF000032323FA02F048BF4042704710B500F0C7
:1010000043F800BF49922480002070476FF00042EF
:1010100082EA200070470000C10DD1F19E0206DB7C
:101020004FEA002343F0004323FA02F070470042E6
:1010300007D54FEA4001B1F1FE4F02D24FF0000058
:10104000704710B500F020F84992248000207047C6
:101050006FEA20007047000010F0004148BF404296
:10106000B0FA80F310FA03F2C3F19D030BD051EAFA
:10107000C35101EB1220530638BF704700F1010045
:1010800008BF20F0010070470EF1020E2EF0030E93
:101090005EF8044B244204D44FEA4102B2F17F4F80
:1010A00011D84FEA4003B3F17F4F0CD80ED14FEA6D
:1010B000D07CB2F17F4F0CEB4C0C0CF1020C08BF52
:1010C0004CEBD17C04E04FF0080C01E04FEAD17CFE
:1010D0000CEB4C0324FA03F404F00704B4F1040C01
:1010E00006D20EEB840CBDE810404CF0010C6047BA
:1010F000DFE80CF0070802024FF00040A0F5800086
:1011000010BD0846420018BFD2F1807288BF00F0BF
:10111000004010BDFF2141EAD050C00570470000DB
:1011200000000000000000000000000000000000BF
:1011300000000000000000000000000000000002AD
:1011400002FAFAAAAAFFFFAAAAFAFA0202000042C9
:1011500072723A7A424B5B52626213776600203CAD
:101160001CFFFFB0B424243F3FE4E4242420020207
:1011700003FFFF0001051D59C1FF7F0101010000B0
:1011800000F8F8484C4F4B4A4848F8F80000000077
:1011900000FFFF44444444444444FFFF0000202433
:1011A00024E4E42424243010FFFF10F0F000081C95
:1011B0001F0B0C0D4F6E341C0F23607F3F0080C04F
:1011C00060F8FF070200FFFFE0703C1C0800000011
:1011D000007F7F0406033F7F404040787800000096
:1011E00000000000000000000000000000000000FF
:1011F00000000000000000000000000000000000EF
:1012000000000000000000000000000000000000DE
:10121000000000000000000000000000000010219D
:101220008670007E4A4A4A4A4A7E0000000002FE5A
:1012300001407F41417F41417F41417F40000000AB
:10124000FC042424FCA5A6A4FC242424040080601F
:101250001F808042462A12122A2642C040000808F7
:1012600008FF8848009848280A2C48D808000242FD
:10127000817F0000404242427E4242424000005094
:101280004F4A48FF48484800FC0000FF00000000AB
:101290003F0101FF21613F000F40807F000000906F
:1012A0008CA4A4A4A5A6A4A4A4A4948C0400008047
:1012B000402018070000003F40404070000000043C
:1012C00074D4FFD47404100CB744B40C040000426E
:1012D000437A4342437E4B4B4A4A4243010008084B
:1012E00008080808F94A4C4848C80808080040405F
:1012F00020100C0300002040403F000000000020B0
:101300002C246474ADA6E43424242C24000000248E
:10131000242515150DFE040D171424642400000067
:1013200000F848484C4B4A484848F8000000000084
:1013300000FF4444444444444444FF00000020244B
:1013400024E4242424201010FF1010F00000081CB6
:101350000B080C054E24100C0320403F0000080829
:1013600008FF8848009848280A2C48D808000242FC
:10137000817F0000404242427E4242424000005093
:101380004F4A48FF48484800FC0000FF00000000AA
:101390003F0101FF21613F000F40807F00000807EF
:1013A000FAAAAEAAAAA8ACABAAFE0A0202000808D2
:1013B0008B6A1E0A0A0A0AFE0A0B08080800106057
:1013C00001C63000101010FF1010101000000404AF
:1013D000FE01004161514D43414151E10100404155
:1013E000CE04008040BE828282BEC0404000000029
:1013F0007F20908040432C10102C43C040002021BF
:101400002EE4000020202020FF20202020000000CB
:10141000007F201008000000FF0000000000000016
:10142000F848484848FF48484848F800000000008D
:101430000F040404043F444444444F40700000003F
:101440000202020202E2120A06020080000001010A
:1014500001010141817F0101010101010100002021
:10146000202222E2222222E2222222202000004008
:1014700020100C030000003F40404040700040201E
:10148000F80F82601E1410FF1010101000000000F2
:10149000FF000101010101FF010101010100000044
:1014A00000007E4848484848484848CC08000004A6
:1014B00004040404040404244644201F000084940B
:1014C00094FF949480242424FC121312000020180A
:1014D00006FF021C0A0202023F4141417100101046
:1014E000D0FE509000101010D0FE10101000080612
:1014F00001FF000110080443807F00000000908875
:10150000A7A2A6BAA2F8A7A2A6BAA2828000000447
:101510000404040C340444847F0404040000000028
:10152000000000000000002F00000000070007007E
:1015300000147F147F1400242A7F2A12006264089A
:101540001323003649552250000005030000000017
:101550001C224100000041221C000014083E081417
:101560000008083E0808000000A060000008080805
:101570000808000060600000002010080402003E1F
:101580005149453E0000427F4000004261514946BA
:10159000002141454B31001814127F1000274545AA
:1015A0004539003C4A4949300001710905030036BC
:1015B0004949493600064949291E000036360000CF
:1015C00000005636000000081422410000141414D4
:1015D00014140000412214080002015109060032CF
:1015E0004959513E007C1211127C007F494949360D
:1015F000003E41414122007F4141221C007F494978
:101600004941007F09090901003E4149497A007FAB
:101610000808087F0000417F4100002040413F0151
:10162000007F08142241007F40404040007F020CB0
:10163000027F007F0408107F003E4141413E007F51
:1016400009090906003E4151215E007F091929461A
:101650000046494949310001017F0101003F4040F6
:10166000403F001F2040201F003F4038403F0063A4
:1016700014081463000708700807006151494543C6
:1016800000007F41410000552A552A550000414184
:101690007F0000040201020400404040404000007E
:1016A00001020400002054545478007F4844443818
:1016B00000384444442000384444487F003854549F
:1016C000541800087E0901020018A4A4A47C007F1D
:1016D000080404780000447D4000004080847D00C0
:1016E000007F102844000000417F4000007C041867
:1016F0000478007C0804047800384444443800FC32
:10170000242424180018242418FC007C080404084D
:1017100000485454542000043F444020003C4040C2
:10172000207C001C2040201C003C4030403C0044F9
:1017300028102844001CA0A0A07C004464544C4401
:101740001414141414140000000000000000000021
:10175000000000000000000000F800000000000091
:1017600000333000000000100C06100C06000000D2
:1017700000000000000040C07840C0784000043FF6
:1017800004043F040400007088FC083000000018C6
:1017900020FF211E0000F008F000E01800000021EA
:1017A0001C031E211E0000F00888700000001E218E
:1017B00023241927211010160E000000000000003D
:1017C000000000000000000000E01804020000001B
:1017D00000071820400000020418E000000000404C
:1017E000201807000000404080F0804040000202C6
:1017F000010F01020200000000F0000000000101E2
:10180000011F01010100000000000000000080B085
:101810007000000000000000000000000000000157
:101820000101010101010000000000000000003082
:10183000300000000000000000008060180400601C
:1018400018060100000000E010080810E000000F7A
:10185000102020100F00001010F8000000000020E1
:10186000203F202000000070080808887000003029
:1018700028242221300000300888884830000018D1
:10188000202020110E000000C02010F800000007EA
:101890000424243F240000F8088888080800001960
:1018A000212020110E0000E0108888180000000F91
:1018B000112020110E0000380808C8380800000068
:1018C000003F000000000070880808887000001CBD
:1018D000222121221C0000E010080810E000000076
:1018E000312222110F00000000C0C00000000000E3
:1018F0000030300000000000008000000000000008
:1019000080600000000000008040201008000001FE
:1019100002040810200040404040404040000404C1
:10192000040404040400000810204080000000208B
:10193000100804020100007048080808F0000000C8
:10194000003036010000C030C828E810E000071859
:10195000272423140B000000C038E0000000203CC6
:1019600023020227382008F8888888700000203F6A
:10197000202020110E00C030080808083800071881
:1019800020202010080008F808080810E000203F78
:10199000202020100F0008F88888E8081000203F59
:1019A00020202320180008F88888E8081000203F2D
:1019B000200003000000C0300808083800000718A5
:1019C0002020221E020008F808000008F808203F26
:1019D000210101213F20000808F80808000000202C
:1019E000203F2020000000000808F8080800C08000
:1019F00080807F00000008F888C028180800203F79
:101A000020012638200008F8080000000000203FD0
:101A100020202020300008F8F800F8F80800203FC7
:101A2000003F003F200008F830C00008F808203FC1
:101A3000200007183F00E01008080810E0000F1011
:101A4000202020100F0008F808080808F000203FA8
:101A5000210101010000E01008080810E0000F1843
:101A6000242438504F0008F8888888887000203F68
:101A70002000030C30200070880808083800003867
:101A8000202121221C00180808F80808180000006E
:101A9000203F2000000008F808000008F808001F98
:101AA000202020201F000878880000C83808000087
:101AB00007380E010000F80800F80008F800033CA1
:101AC0000700073C03000818688080681808203069
:101AD0002C03032C30200838C800C8380800000048
:101AE000203F2000000010080808C83808002038EF
:101AF000262120201800000000FE02020200000043
:101B0000007F40404000000C30C00000000000009A
:101B100000010638C00000020202FE000000004082
:101B200040407F00000000000402020204000000A8
:101B300000000000000000000000000000008080A5
:101B4000808080808080000202040000000000008D
:101B5000000000000000000080808080000000196C
:101B6000242222223F2008F8008080000000003F4D
:101B7000112020110E000000008080800000000E67
:101B8000112020201100000000808088F800000E45
:101B9000112020103F200000808080800000001F66
:101BA000222222221300008080F0888888180020DA
:101BB000203F202000000000808080808000006B9B
:101BC00094949493600008F8008080800000203F87
:101BD000210000203F200080989800000000002095
:101BE000203F20200000000000809898000000C0E6
:101BF0008080807F000008F8000080808000203F07
:101C000024022D302000000808F800000000002009
:101C1000203F202000008080808080808000203F46
:101C200020003F20003F8080008080800000203F17
:101C3000210000203F200000808080800000001FE5
:101C4000202020201F00808000808000000080FF76
:101C5000A12020110E000000008080808000000E76
:101C6000112020A0FF8080808000808080002020C4
:101C70003F21200001000000808080808000003330
:101C8000242424241900008080E0808000000000CB
:101C9000001F202000008080000000808000001FC6
:101CA000202020103F208080800000808080000164
:101CB0000E300806010080800080008080800F3098
:101CC0000C030C300F00008080008080800000201A
:101CD000312E0E3120008080800000808080808145
:101CE0008E701806010000808080808080000021B6
:101CF000302C2221300000000000807C0202000015
:101D00000000003F404000000000FF000000000015
:101D10000000FF0000000002027C80000000004084
:101D2000403F000000000006010102020404000020
:101D30000000000000000000581D00080000002006
:101D400034000000280100088C1D00083400002029
:101D50002C0700004401000800A24A040000000013
:101D6000000000000102030406070809000000004B
:101D70000000000000000000000000000000000063
:0C1D800000000000000000000000000057
:040000050800018965
:00000001FF
