:020000040800F2
:1000000090130020450100086D18000895150008A0
:100010006918000861090008B92F000800000000F5
:100020000000000000000000000000004D1E00085D
:100030001512000800000000A51A00082D2800086D
:100040005F0100085F0100085F0100085F01000810
:100050005F0100085F0100085F0100085F01000800
:100060005F0100085F0100085F0100085F010008F0
:100070005F0100085F0100085F0100085F010008E0
:100080005F0100085F0100085F0100085F010008D0
:10009000152F00085F0100085F0100085F010008DC
:1000A0005F0100085F0100085F0100085F010008B0
:1000B0005F0100085F0100085F0100085F010008A0
:1000C0005F0100085F0100085F0100085F01000890
:1000D0005F010008B9290008412A00085F010008F3
:1000E0005F0100085F010008912C00085F01000813
:1000F0005F0100085F0100085F0100085F01000860
:100100005F0100085F0100085F0100085F0100084F
:100110005F0100085F0100085F0100085F0100083F
:100120005F0100085F0100085F0100085F0100082F
:10013000DFF80CD000F0A6FB00480047F93B0008B0
:10014000901300200648804706480047FEE7FEE778
:10015000FEE7FEE7FEE7FEE7FEE7FEE7FEE7FEE777
:10016000C928000831010008F0B480EA0102D40F68
:100170004200B2EB410F02D20246084611464A0045
:1001800042D0C30DDDB2C1F3C752AD1A202D35DA0E
:10019000C1F3160141F4000204B15242C5F1200638
:1001A00002FA06F12A411044B3EBD05F23D0C4B168
:1001B000012DA0EBC35009DCF0BC4FF0004202EA75
:1001C000C352DBB200F5000000F087B9400000F137
:1001D000807000EBC350A0F1807040EAD1704900FC
:1001E00009E0490841EAC071A0EBC35000F50000E6
:1001F000400800EBC350F0BC00F066B96142012238
:1002000002EB4101001BF6E7F0BC704781F00041B2
:10021000AAE780F00040A7E780EA010210B502F0EB
:100220000043400022D04A001FD0010E01EB1261B2
:10023000C0F35600C2F3560240F4000042F400023C
:10024000A0FB022000047F39140400D0401C50EAB7
:10025000124001D44000491EC2B20C0604EBD0107B
:10026000401C4008802A02D003E0002010BD20F08E
:100270000100002900DA0020184310BD30B480EAE4
:10028000010202F0004530F0004221F0004013D09E
:1002900090B1C30DD40DC2F31601C0F31600E41AD9
:1002A00041F4000140F400027D34914201D3641C0A
:1002B00000E04900002C02DA30BC002070474FF407
:1002C00000000023914201D3891A034340084FEAFA
:1002D0004101F7D151B1914202D14FF0004105E007
:1002E00002D24FF0010101E06FF0010103EBC450B5
:1002F000284430BC00F0E8B82DE9F04D81EA030451
:1003000004F0004B21F0004514464FF0000A23F0A2
:10031000004150EA050220D054EA01021DD0C5F385
:100320000A570246C5F31303C1F31300C1F30A567B
:1003300040F4801543F48013A7EB0608101BD64643
:1003400008F2FD3873EB050002D308F1010801E063
:1003500092185B41B8F1000F03DA00200146BDE8B6
:10036000F08D00204FF48011064684460EE0171BE6
:1003700073EB050705D3121B63EB050306434CEA39
:10038000010C49084FEA300092185B4150EA01071E
:10039000EDD152EA030012D082EA040083EA05019B
:1003A000084305D0101BAB4106D20122002306E012
:1003B00000224FF0004302E06FF0010253101AEBED
:1003C00006004CEB085110EB0A0041EB0B01BDE8B5
:1003D000F04D00F0B0B8C10F80EAE0700844CA07E1
:1003E0009623002100F079B896230022114600F0F0
:1003F00074B80EB5C10F80EAE0700844CA07002146
:1004000040F233438DE80E000A460B4600F0A2F896
:1004100003B000BD00F0004230F000400AD0C10D32
:1004200001F56071C0F3160042EA0151C2084007AD
:100430001143704700200146704730B50B46014616
:1004400000202022012409E021FA02F59D4205D373
:1004500003FA02F5491B04FA02F52844151EA2F11D
:100460000102F1DC30BD2DE9F05F05460020924627
:100470009B4688460646814640241BE02846414666
:100480004746224600F01FFA53465A46C01A914189
:1004900010D311461846224600F006FA2D1A67EBD3
:1004A00001084F4622460120002100F0FDF917EB1C
:1004B00000094E41201EA4F10104DFDC484631460C
:1004C0002A464346BDE8F09F0029A8BF7047401C5C
:1004D000490008BF20F00100704710B4B0FA80FC5A
:1004E00000FA0CF050EA010404BF10BC704749B197
:1004F000CCF1200421FA04F411FA0CF118BF012107
:1005000021430843A3EB0C01CB1D4FEA00614FEAE6
:10051000102042BF002010BC704700EBC3501044B5
:100520000029A4BF10BC7047401C490008BF20F040
:10053000010010BC704710B5141E73F1000408DAF6
:10054000401C41F1000192185B411A4301D120F097
:10055000010010BD2DE9F04D92469B4611B1B1FA54
:1005600081F202E0B0FA80F22032904600F09CF96D
:1005700004460F4640EA0A0041EA0B0153465A4638
:10058000084313D0114653EA010019D0C8F14002C4
:10059000504600F098F905460E46504659464246E8
:1005A00000F082F9084305D0012004E020463946D6
:1005B000BDE8F08D0020054346EAE0762C43374342
:1005C0000A986305E40AA0EB08000022FD0A44EA49
:1005D00047540A3002D500200146E9E70105101909
:1005E0006941DDE9084500196941BDE8F04DA2E720
:1005F0002DE9FE4F804681EA0300C00F0C460090B3
:1006000021F0004123F00045B8EB0200A94105D2DA
:100610004046214690461C460B46024623F00040C9
:10062000104347D0270DC7F30A00C3F30A510290C5
:10063000401A019040286BDAC3F3130040F4801B8A
:100640000098924620B10023D2EB030A63EB0B0B18
:1006500001985946C0F14002504600F025F906467F
:100660000D4650465946019A00F03DF910EB08003E
:100670006141002487EA115284EAE7731A4340D0AB
:10068000009A62B3019A012A4FEA075215DC001B57
:1006900061EB02014FF0004202EA0752CDE900424D
:1006A000001C41F5801132462B46FFF753FF03B083
:1006B000BDE8F08F40462146F9E7001B61EB0201DF
:1006C000001C41F5801300185B412018A2F50017AB
:1006D00047EB030140EAD570B6196D4111E06D0892
:1006E0004FEA360645EAC0754FEA0752001B61EB38
:1006F0000201001C41F5801149084FEA3000001941
:10070000514132462B4603B0BDE8F04FFFF713BF0F
:100710000098012240000023D0EB020263EBE0735B
:10072000009821464FEAE074B8EB000061EB040149
:10073000E9E783F000435BE781F0004158E72DE9EA
:10074000FE4F81EA030404F0004421F000410094CC
:100750004FF0000B23F0004350EA01045ED052EA50
:1007600003045BD0C3F30A54C1F30A552C44A4F22A
:10077000F3340194A0FB0254C1F3130141F480113E
:10078000C3F3130343F4801301FB024400FB034E45
:10079000840A970A44EA815447EA8357A4FB07680E
:1007A00002958D0A05FB07854FEA932C04FB0C5438
:1007B0002705029D4FEA065847EA1637B5EB0805AC
:1007C0006EEB070C870E920E47EA811742EA8312FE
:1007D000A7FB0201B6EB0B0164EB00042B0D43EA0F
:1007E0000C335E1844EB1C50DA465146E7FB02011D
:1007F000C5F313044FEA0B3343EA14534FEA0432B0
:10080000019C43EA0603A4F10C040294009CCDE988
:1008100000B4FFF79FFE03B0BDE8F08F0020014653
:10082000F9E7C1F30A52C1F3130140F2FF3341F477
:1008300080119A4202DA00200146704740F23343A9
:100840009A42A2F2334202DC524200F03CB800F07D
:100850002BB8000030B5041E71F1000404DB4FF02A
:100860000044404264EB0101141E73F1000405DBF7
:100870001C464FF00043524263EB0403994208BF09
:10088000904230BD064C074D06E0E06840F00103A1
:1008900094E8070098471034AC42F6D3FFF74CFCBD
:1008A0001842000838420008202A04DB203A00FAE7
:1008B00002F1002070479140C2F1200320FA03F3B7
:1008C000194390407047202A04DB203A21FA02F0B5
:1008D0000021704721FA02F3D040C2F1200291407A
:1008E000084319467047202A06DBCB17203A41FA05
:1008F00002F043EAE07306E041FA02F3D040C2F1AD
:100900002002914008431946704770B58C1810F8C2
:10091000015B15F0070301D110F8013B2A1106D144
:1009200010F8012B03E010F8016B01F8016B5B1E5E
:10093000F9D12B0705D40023521E0DD401F8013B39
:10094000FAE710F8013BCB1A921C03E013F8015BA5
:1009500001F8015B521EF9D5A142D8D3002070BD29
:1009600000BFFEE70146CAB20B1243EA02207047FD
:1009700008B50020009022E19748008800F00F00A1
:10098000964908700846007800287CD19448006891
:10099000944908800846008800F030009249088099
:1009A0009048008800F440508E4908808C490968BE
:1009B0004BF6BF7201EA020080F4005080F0200084
:1009C00040F4004141F08001854A1160824800886E
:1009D00000F0100090BB1046006848F60F71084008
:1009E0001146086000F0D8FD7D4909684BF6BF72DA
:1009F00001EA02007B49098801F4805109B180F4C1
:100A000080507849098801F4005109B180F4005000
:100A10007549098801F0100109B180F01000724990
:100A2000098801F0200109B180F0200081B241F471
:100A3000004141F080016A4A116008BDFFE7684843
:100A4000006880B20090BDF8000000F40060B0B310
:100A500063480068C0F30E0048F68F710840604993
:100A6000086001F0BBFB5E4909684BF6BF7201EA02
:100A700002005C49098801F4805109B180F480507A
:100A80005849098800E056E001F4005109B180F4AA
:100A900000505549098801F0100109B180F010009B
:100AA0005149098801F0200109B180F0200081B28C
:100AB00041F4004141F08001494A1160BDE7FFE780
:100AC000BDF8000000F40040002878D044480068D9
:100AD000C0F30E0048F68F7108404149086000F0ED
:100AE000A5FF3F4909684BF6BF7201EA02003D4984
:100AF000098801F4805109B180F48050394909888E
:100B000001F4005109B180F400503749098801F01F
:100B1000100109B180F010003349098801F020016B
:100B200009B180F0200081B241F4004141F0800120
:100B30002B4A116081E7294800782C4901EB80009D
:100B4000D0F8000C80B20090BDF8000000F4004026
:100B5000C0B12248007801EB8000D0F8000CC0F34F
:100B60000E0048F68F7108401C4909781F4A02EBB5
:100B70008101C1F8000C19490978491E1C4A52F834
:100B800021008047BDF8000000F08000B8B1134894
:100B90000078164901EB8000D0F8000C48F60F7180
:100BA00008400E490978114A02EB8101C1F8000C96
:100BB0000A490978491E0F4A52F82100804708481F
:100BC0004430006880B20449088000F400400028E6
:100BD0007FF4D2AE00BF30E7A800002090010020D3
:100BE000005C0040A4010020A6010020005000404D
:100BF000D0000020B40000200B4A02EB8001D1F8A5
:100C0000001C01F4804171B102EB8001D1F8001C9D
:100C100048F68F7211404CF280021143024B03EBF5
:100C20008002C2F8001C7047005000400B4A02EBE3
:100C30008001D1F8001C01F0400171B102EB80018C
:100C4000D1F8001C48F68F72114048F2C0021143DF
:100C5000024B03EB8002C2F8001C704700500040BA
:100C6000084A02EB8001D1F8001C48F68F6211405F
:100C700048F280021143034B03EB8002C2F8001CD0
:100C8000704700000050004010B50446204601F0B7
:100C90007BFE10BD01B500F0BBFD0121684602F0EE
:100CA0007FF99DF80010374802780078401C354BDA
:100CB0001870354881540078552803D00020194613
:100CC000087008BD2F4800780B2800DAF9E72E4895
:100CD0004078503809284ED2DFE800F0050D151D88
:100CE000252D353D450029482749891C0A680260A1
:100CF000496841603FE026482349891C0A68026030
:100D00004968416037E023481F49891C0A6802602E
:100D1000496841602FE020481B49891C0A6802602D
:100D20004968416027E01D481749891C0A6802602C
:100D3000496841601FE01A481349891C0A6802602B
:100D40004968416017E017480F49891C0A6802602A
:100D5000496841600FE014480B49891C0A68026029
:100D60004968416007E011480749891C0A68026028
:100D70004968416000BF00BF00200249087000BF01
:100D80009FE7000048000020A8010020000000208C
:100D90000800002010000020180000202000002083
:100DA00028000020300000203800002040000020F3
:100DB000F8B507460C4615461E460121042000F0F2
:100DC000F9FE0121082000F0F5FE0121102000F0BD
:100DD000F1FE0121202000F0EDFE0121802000F035
:100DE000E9FE684600F081FB8DF803508DF8026043
:100DF000A0B2ADF800006946384600F095FAF8BD9B
:100E00002DE9F0472848006800F110052E88264893
:100E10000068077AD6B9042F18D124480078012831
:100E20000FD100212248006880B2801C214A42F87C
:100E3000101030202049088000BF00201B49087096
:100E400003E0072710201C49088027E0AC88A64251
:100E500001D8042000E002200746B44200D93446FD
:100E6000A0B2A96888478046002000F069FB81464F
:100E7000A2B24946404602F0A1F8A1B2002001F01A
:100E800099F82888001B28806888204468803020D2
:100E90000949088000020949088000BF0249096821
:100EA0000F72BDE8F0870000940100208E01002041
:100EB000505C004000600040A6010020A40100201A
:100EC0002DE9F0412848006800F110042688A06848
:100ED000C0B1BEB1A588B54200D93546A8B2A16857
:100EE000884707462088401B20806088284460800F
:100EF000002000F003FB8046AAB24146384600F0CD
:100F0000BDFD00BF208850B14FF440501749088004
:100F10000021084601F04EF830201549088020884D
:100F2000A188884204DB03200F490968087218E091
:100F30002088002804DD05200B490968087210E0AC
:100F4000208870B9062008490968087200210948FC
:100F5000006880B2801C084A42F810103020044912
:100F60000880BDE8F081000094010020A401002069
:100F7000A6010020505C0040006000402DE9F84FC1
:100F80009B48006845780027BA46062D1BD1984833
:100F90000068007800F07F00002813D194490968A8
:100FA0008878012803D193490968CF690AE00228AB
:100FB00003D1904909680F6A04E0032802D18D49E2
:100FC00009684F6A94E0002D64D189480068408820
:100FD00000285FD186480068C08802285AD184481A
:100FE00000680079002855D181480068007800F039
:100FF0007F0028B97E480068808808B97E4F77E076
:101000007B480068007800F07F00012810D1784903
:1010100009684879774909688A690021904700285A
:1010200066D173480068807A002861D0724F5FE013
:101030006F480068007800F07F00022858D16C48A3
:101040000068407900F00F0669480068407900F0B8
:10105000700967480068407900F0800038B167493E
:1010600001EB8600D0F8000C00F0300806E0634980
:1010700001EB8600D0F8000C00F44058604800787E
:10108000B04235D9B9F1000F32D1B8F1000F2FD0ED
:10109000594F2DE0082D07D155480068007800F021
:1010A0007F0028BB574F23E00A2D21D1504800680C
:1010B000007800F07F0001281AD14D480068807A3E
:1010C000B0B14B480068408890B949480068007941
:1010D00070B947480068C088012809D144490968A7
:1010E0004879444909688A690021904700B9464F08
:1010F00057B13F480068A0F812A03D4800688761DA
:101100000020B84700240FE0394A12685078394A65
:101110001268116988470446032C05D10920344917
:1011200009680872BDE8F88F31480068008A4FF6F8
:10113000FF71884204D109202D4909680872F1E73E
:10114000022C03D02A480068008A20B908202849C8
:1011500009680872E6E726480068007800F0800019
:10116000E0B323480068C088009021480068008AE6
:101170000099884204D91E4900980968088223E032
:101180001B480068008A1A490968C98888421BDA26
:1011900017480068008A1749096891F82C1088429E
:1011A00003DA0020194908700EE011480068008A2F
:1011B0001049096891F82C1090FBF1F201FB120024
:1011C00010B90120114908700A48006890F82C10E5
:1011D000074800688182FFF713FE07E0FFE703205E
:1011E00003490968087200030949088000BF99E7AC
:1011F00094010020980100207D2400080050004048
:10120000F800002001240008512400088E0100206D
:10121000A40100207047000010B500240F4800789A
:10122000012819D140210E4801F0AEFE84B2002CF5
:101230000FDD2246C0210A4801F0C0FE21460120F0
:1012400000F0B8FE012000F0E3FE00200549086030
:1012500002E000200149087010BD0000A00000203D
:10126000D40E0020A400002010B50649032001F090
:1012700073FE84B22146034801F050FE032000F0C3
:101280006FFE10BD140F0020014908607047000078
:1012900014040140002123498279002A3AD00A46E9
:1012A000126803689A430B461A600A1D12680368A5
:1012B0009A430B1D1A60027911440A6803681A43A5
:1012C0000A60184A0832126803689A43154B0833BB
:1012D0001A601A1D126803689A43124B0C331A6085
:1012E0004279102A0ED11A1F126803681A430D4B57
:1012F00008331A601A1D126803681A43094B0C332D
:101300001A600DE00749427911440A6803681A43DC
:101310000A6005E0027911440A6803689A430A608A
:1013200070470000000401402DE9F041024600250D
:101330000026002000230024002791F803C00CF0B1
:101340000F0591F803C00CF0100CBCF1000F03D096
:1013500091F802C04CEA050591F800C0BCF1000FFD
:1013600031D0146800202BE04FF0010C0CFA00F390
:10137000B1F800C00CEA03069E4220D183004FF072
:101380000F0C0CFA03F7BC4305FA03FC4CEA040407
:1013900091F803C0BCF1280F06D14FF0010C0CFAF4
:1013A00000FCC2F814C00AE091F803C0BCF1480F79
:1013B00005D14FF0010C0CFA00FCC2F810C0401C23
:1013C0000828D1D31460B1F800C0BCF1FF0F34DDA0
:1013D000546800202EE000F1080C4FF0010808FAD4
:1013E0000CF3B1F800C00CEA03069E4221D1830041
:1013F0004FF00F0C0CFA03F7BC4305FA03FC4CEA60
:10140000040491F803C0BCF1280F05D100F1080CC9
:1014100008FA0CF8C2F8148091F803C0BCF1480F28
:1014200007D100F1080C4FF0010808FA0CF8C2F8D7
:101430001080401C0828CED35460BDE8F081000025
:10144000F0B50A46002300240021002500F00046E4
:10145000B6F1004F02D11D4EF16901E01B4E7168DB
:10146000C0F3034583B200F44016B6F5401F08D11F
:1014700021F07061154E766826F07066134F7E601D
:1014800012E000F48016B6F5801F06D1032606FA96
:1014900005F4A14341F0706106E0460D360103FA00
:1014A00006F6B14341F0706122B1460D360103FAF0
:1014B00006F6314300F00046B6F1004F02D1034E6C
:1014C000F16101E0014E7160F0BD000000000140DB
:1014D00002460020D3680B400BB1012000E0002041
:1014E000704741617047016170474FF6FF7101809D
:1014F000022181700421C170704700000146054837
:10150000006880B200EBC100001D034A32F81000F1
:1015100080B27047505C00400060004001460648C1
:10152000006880B200EBC100801D044A32F8100050
:10153000C0F3090070470000505C004000600040AC
:1015400001460548006880B200EBC100034A32F84A
:10155000100080B270470000505C00400060004006
:1015600070B50A480468001D0568001D066834440B
:1015700054B108220649204600F0FCF80422044930
:101580001031284600F0F6F870BD0000E8F7FF1FA4
:101590007A00002000BFFEE710B518480068047A02
:1015A000022C01D0042C05D1FFF72AFC1348006857
:1015B000047A1CE0062C19D11048006840780528F0
:1015C0000ED10E480068007800F07F0040B90B494A
:1015D0000968C87800F044FC09490968086A80472E
:1015E0000849096888688047082400E008240349FE
:1015F00009680C7200F058FA10BD00009401002038
:10160000A00100209801002010B586B004460121F9
:1016100044F2040000F0EEFA4FF40070ADF814004C
:1016200018208DF8170003208DF8160005A9224810
:10163000FFF77AFE4FF48060ADF8140004208DF8B7
:10164000170005A91C48FFF76FFE01940020ADF8B4
:101650000800ADF80A00ADF80C00ADF810000C2041
:10166000ADF80E0001A9154801F0A2FA002240F2DF
:101670002771124801F076FA012240F225510F48F5
:1016800001F070FA40210D4801F01EFA01210B48CB
:1016900001F032FA25208DF8000001208DF80100BC
:1016A00007208DF8020001208DF80300684600F045
:1016B000DFF806B010BD000000080140003801400E
:1016C00010B586B004460121274800F083FA0420B3
:1016D000ADF8140018208DF8170003208DF81600BF
:1016E00005A92248FFF720FE0820ADF814000420C9
:1016F0008DF8170005A91D48FFF716FE019400207C
:10170000ADF80800ADF80A00ADF80C00ADF8100017
:101710000C20ADF80E0001A9154801F049FA00228D
:1017200040F22771124801F01DFA012240F22551C2
:101730000F4801F017FA40210D4801F0C5F90121C9
:101740000B4801F0D9F926208DF8000001208DF812
:10175000010008208DF8020001208DF80300684682
:1017600000F086F806B010BD040002000008014039
:101770000044004030B50B46002100BF16E00A24AB
:10178000B4EB107F05D9302404EB107403F811403A
:1017900005E0412404EB10740A3C03F811400001F9
:1017A00000254C00641C1D554C1CE1B29142E6DB47
:1017B00030BD000010B50121084600F01BFA0121E0
:1017C0000848FFF73DFE0121042000F0F3F9012352
:1017D0001022D1020448FFF7EBFA012003490870F8
:1017E00010BD00000002300000080140540000203D
:1017F00010B50548007808B9FFF7DCFF4FF4004149
:101800000248FFF770FE10BD5400002000080140A0
:1018100010B50B48007808B9FFF7CCFF4FF4004132
:101820000848FFF755FE28B14FF400410548FFF77F
:1018300058FE04E04FF400410248FFF754FE10BD8B
:1018400054000020000801400548817A19B10521A3
:10185000044A116002E00121024A11607047000051
:10186000740F00208001002000BFFEE77047704722
:1018700070B5002100230F22C47804B3154C2468EE
:1018800004F4E064C4F5E064210AC1F10403CA4031
:10189000447804FA03F184781440214309010E4C82
:1018A0000678A155047804F01F050124AC400578A2
:1018B0006D11AD0005F1E025C5F8004109E004789F
:1018C00004F01F050124AC40044D0678761145F85C
:1018D000264070BD0CED00E000E400E080E100E097
:1018E00002490143024A1160704700000000FA05F6
:1018F0000CED00E070B50226474800684478464881
:101900000068007800F07F00002844D1092C03D142
:1019100000F034FE06465FE0052C14D13E48006816
:10192000C0787F280BDC3C480068807838B93A489A
:101930000068808818B938480068807A08B108259E
:1019400065E0002648E0032C0ED133480068C078DB
:10195000012807D130480068808818B900F032FEAD
:10196000064639E0022637E0012C35D12A480068C6
:10197000C07801280DD128480068808848B92648D9
:101980000068407A00F0200018B100F083FC0646A1
:1019900022E0022620E020480068007800F07F0066
:1019A000012805D10B2C17D100F088FE064613E064
:1019B00019480068007800F07F0002280BD1012C44
:1019C00003D100F067FC064606E0032C04D100F0CA
:1019D0000DFE064600E002264EB1E0B20F4A126844
:1019E000516988470646032E01D109250FE00EB143
:1019F00008250CE0062500210948006880B2801CFB
:101A0000084A42F8101030200749088000BF0249F8
:101A100009680D7270BD000094010020980100203B
:101A2000505C004000600040A601002010B5114845
:101A30000068047A022C01D0042C01D1082412E0A1
:101A4000032C01D0052C05D1FFF73AFA09480068AC
:101A5000047A08E0072C05D107490968C86880475F
:101A6000082400E00824034909680C7200F01CF8FF
:101A700010BD00009401002098010020F0B5561C14
:101A80007510074E06EB41042B4605E034F8047B45
:101A900020F8017B401C5B1E002BF7D1F0BD00003D
:101AA000006000407047000010B50D4890F82C1001
:101AB000002000F00FFA0B480068007A082805D1D2
:101AC000400209490880102008490880054800683C
:101AD000007A092801D1012010BD0020FCE7000098
:101AE000FC00002094010020A4010020A601002099
:101AF00010B5012001F0D2F801240B480460002049
:101B00000A49088008460088074908600020091D26
:101B100008604FF4E05005490880084600880249F3
:101B20000860002010BD0000405C00409E010020C5
:101B300003461A60D960596099600020704770B5FB
:101B400003461446002200209A6800BF11E0DD68B9
:101B50001E682E44551C2A46AE4200D8DA685D68DD
:101B6000954200D107E011F8015B9E6835709A60DC
:101B7000401CA042EBD300BF70BDF0B5034600206F
:101B80000EE05C68651C5D6027780546401C4F557B
:101B9000DC681D682C445D68AC4201D8DC685C6080
:101BA0005C689D68AC4204D0904202D21C688442BA
:101BB000E7D8F0BD29B1064A52690243044B5A6185
:101BC00004E0034A52698243014B5A6170470000A6
:101BD0000010024029B1064AD2690243044BDA617F
:101BE00004E0034AD2698243014BDA617047000086
:101BF0000010024029B1064A92690243044B9A61DF
:101C000004E0034A92698243014B9A6170470000E5
:101C10000010024030B500210022002400232D4D89
:101C20006D6805F00C0121B1042905D0082923D1E4
:101C300005E0294D056022E0274D05601FE0254D98
:101C40006D6805F47012234D6D6805F4803402252B
:101C500005EB92421CB9214D554305600BE01D4D2B
:101C60006D6805F400351DB11C4D5543056002E05B
:101C7000194D5543056002E0174D056000BF00BFD8
:101C8000144D6D6805F0F0010909154D6B5C056890
:101C9000DD4045600F4D6D6805F4E061090A104DA7
:101CA0006B5C4568DD4085600A4D6D6805F46051E8
:101CB000C90A0B4D6B5C4568DD40C560054D6D681C
:101CC00005F44041890B074D6B5CC568B5FBF3F526
:101CD000056130BD0010024000127A0000093D008D
:101CE0005500002065000020014908607047000091
:101CF000D800424270B50546072D01D02E48057028
:101D00002D48007808284ED2DFE800F004111A2090
:101D10002B384E4F2948006828B900F053F80620A8
:101D20002549087002E005202349087041E000F0D1
:101D300049F804202049087001202049086038E053
:101D400002201D4948700320087032E01A4840788C
:101D5000401E194948700846407808B904200870A8
:101D600027E01748006884B244F010041448046067
:101D70000520114908700A2048701AE00E48407882
:101D8000401E0D4948700846407858B90C48006814
:101D900084B224F010040A48046006200870002071
:101DA0000649086005E000BF00BF06200249087030
:101DB00000BF00BF70BD0000850100208801002029
:101DC000405C004010B50748006884B224F0040469
:101DD00004480460FFF738FD4FF43F4001490860B4
:101DE00010BD0000405C004010B50024134800689E
:101DF000052822D112480078F8B912490868411C18
:101E0000104A1160052818D10020114608604021B1
:101E10000D4801F0B9F884B2002C0EDD2246C02135
:101E2000094801F0CBF82146012000F0C3F8012059
:101E300000F0EEF801200249087010BD800100207A
:101E4000A0000020A4000020D40E00207047000055
:101E50004FF6F8710140014A11607047505C004034
:101E600030B501460F4B1A78002014E003060E4CE3
:101E700004EB9353D3F8003C48F68F74234048F2A8
:101E800080042343C4B223430406074D05EB945456
:101E9000C4F8003C401C9042E8D341F08003034C5E
:101EA000236030BDF8000020005000404C5C004032
:101EB00010B54A105300054A126892B202EBC002F4
:101EC000121D034C44F8123010BD0000505C00405D
:101ED0000060004010B502460F48006880B200EB79
:101EE000C200801D0D4C04EB40033E290BDD481160
:101EF00001F01F040CB9441EA0B24FF4004444EAA0
:101F000080241C6007E0481001F001040CB1441C5F
:101F1000A0B284021C6010BD505C00400060004014
:101F200030B50E4C04EB8003D3F8003C4BF68F74B5
:101F300003EA040201F480530BB182F4805201F4ED
:101F400000530BB182F4005242F4004343F080038B
:101F5000024D05EB8004C4F8003C30BD0050004049
:101F600010B50B4B03EB8002D2F8002C4BF68F73AD
:101F700002EA030181F4805181F4005141F40042EE
:101F800042F08002024C04EB8003C3F8002C10BD29
:101F90000050004010B54A105200044B1B689BB221
:101FA00003EBC003024C44F8132010BD505C00400A
:101FB00000600040044A126892B202EBC002921C18
:101FC000024B43F812107047505C00400060004024
:101FD00030B50E4C04EB8003D3F8003C48F6BF74D8
:101FE00003EA040201F010030BB182F0100201F0C9
:101FF00020030BB182F0200242F4004343F080033F
:10200000024D05EB8004C4F8003C30BD0050004098
:1020100010B50B4B03EB8002D2F8002C48F6BF73CF
:1020200002EA030181F0100181F0200141F4004235
:1020300042F08002024C04EB8003C3F8002C10BD78
:102040000050004010B5074B03EB8002D2F8002C83
:1020500048F68F131A400A43024C04EB8003C3F87E
:10206000002C10BD0050004010B500F001F810BD6C
:102070000CB50020019000903348006840F4803097
:102080003149086000BF3048006800F4003000901B
:102090000198401C0190009818B90198B0F5A06F04
:1020A000F1D12948006800F4003010B101200090FF
:1020B00001E0002000900098012843D123480068E7
:1020C00040F01000214908600846006820F0030035
:1020D00008600846006840F0020008601A4840683E
:1020E000194948600846406848600846406840F41E
:1020F000806048600846406820F47C1048600846CC
:10210000406840F4E81048600846006840F080707D
:10211000086000BF0C48006800F000700028F9D08B
:102120000948406820F003000749486008464068B5
:1021300040F00200486000BF0348406800F00C0017
:102140000828F9D10CBD0000001002400020024018
:1021500008B54FF4A06216491648FFF7E9FC4FF4A2
:10216000A06215491548FFF7E3FC01210802FFF7BB
:1021700041FD4FF40060ADF8000003208DF802002F
:1021800010208DF8030069460D48FFF7CDF84FF495
:102190008020FFF779F84FF480200A490860082072
:1021A0004871012088710846FFF774F808BD0000E7
:1021B000D4040020B4040020D4090020C40400206A
:1021C000002001407000002010B50020FFF78CFDBA
:1021D0000121C805FFF7FEFC10BD000038B5012441
:1021E0002948006880B2001D284931F8100080B2EB
:1021F00001EB4000009026480068007A092832D0A0
:10220000009800782249096808700098401C0090E6
:10221000009800781E49096848700098401C00909A
:10222000009800EB44000090009931F8020B0091F7
:10223000FEF798FB164909684880009800EB4400B7
:102240000090009931F8020B0091FEF78BFB1049CA
:1022500009688880009800EB44000090009800888E
:102260000B490968C88001200949096808720848B3
:102270000068C08810B9FFF73DFB01E0FEF77EFE65
:10228000FFF712FC38BD0000505C004000600040C9
:10229000940100202DE9F04754480068007800F0D0
:1022A0007F08B8F1000F0AD150480068407A00F06A
:1022B000DF004E49096848720020BDE8F087B8F198
:1022C000020F7CD149480068408818B94748006827
:1022D000007908B10220F0E7DFF814914348006864
:1022E000477927F080052C4640480068407900F087
:1022F000800038B13F4901EB8400D0F8000C00F0B9
:10230000300606E03B4901EB8400D0F8000C00F4F5
:10231000405699F80000A84204D91EB1334800681D
:10232000807A08B90220C8E707F0800080B13149FF
:1023300001EB8400D0F8000C00F0300010284BD1E5
:10234000E0B2FEF773FCE0B23021FFF741FE43E05C
:10235000284901EB8400D0F8000C00F44050B0F59F
:10236000805F39D1E4B9244A92F82C10E0B2FFF72B
:10237000B1FD204A02EB8401D1F8001C4BF68F72AC
:1023800001EA020080F4805080F4005040F40041E3
:1023900041F08001174B03EB8402C2F8001C1BE0E4
:1023A000E0B2FEF729FC134A02EB8401D1F8001CCD
:1023B0004BF68F7201EA020080F4805000E011E0D9
:1023C00080F4005040F4004141F08001094B03EBE0
:1023D0008402C2F8001C00BF0849096848698047A8
:1023E00000206AE700BF022067E700009401002098
:1023F000F800002000500040FC000020A001002058
:1024000010B504462CB9012006490968088200204D
:1024100010BD0549096808688047024800680A300D
:10242000F6E7000094010020A001002010B502464C
:1024300006480068438A32B98888C01A034C246869
:102440002082002010BD08681844FBE7940100209A
:1024500010B504462CB901200649096808820020FD
:1024600010BD0549096888688047024800680C303B
:10247000F6E7000094010020A001002010B50446FA
:102480002CB90220394909680882002010BD0020BB
:102490003749088035480068007800F07F0018BB95
:1024A00032490968487A00F0200131B13049097891
:1024B00041F002012E4A117005E02D49097801F022
:1024C000FD012B4A117000F0400131B12849097813
:1024D00041F00101264A117005E02549097801F013
:1024E000FE01234A11703AE020480068007800F0AD
:1024F0007F00012801D11E48C8E71C480068007809
:1025000000F07F00022828D1184A1268517901F0A2
:102510000F0001F080027AB1164B03EB8002D2F873
:10252000002C02F03002102A16D1114A127842F023
:1025300001020F4B1A700FE00E4B03EB8002D2F832
:10254000002C02F44052B2F5805F05D1084A12789F
:1025500042F00102064B1A7001E0002096E706499E
:10256000096808698047024890E70000940100204C
:102570008C01002000500040A001002010B50E4842
:102580000068C0780D494978884213DC0A48006821
:10259000807878B908480068808858B9064800688B
:1025A000C078054909688872054909684868804704
:1025B000002010BD0220FCE794010020F80000205C
:1025C000A001002010B507480068407A40F02000C4
:1025D00004490968487204490968C86980470020AD
:1025E00010BD000094010020A00100202DE9F04161
:1025F0002E480068467926F080073C462B48006844
:10260000407900F0800038B1294901EB8400D0F80E
:10261000000C00F0300506E0254901EB8400D0F8FD
:10262000000C00F4405523480078A04208D91F4808
:102630000068408820B91DB11C480068807A10B934
:102640000220BDE8F08106F08000A0B1184A02EB3C
:102650008401D1F8001C48F6BF7201EA020080F044
:10266000100040F4004141F08001114B03EB840263
:10267000C2F8001C14E00E4A02EB8401D1F8001CE1
:102680004BF68F7201EA020080F4805040F4004162
:1026900041F08001064B03EB8402C2F8001C00BF2E
:1026A00005490968886980470020CAE7940100202D
:1026B00000500040F8000020A001002010B5174B8A
:1026C0001B68D978154B1B685879154B1B689A699C
:1026D0009047044611480068807AE8B13CB90F4839
:1026E0000068007918B90D480068807808B10220A8
:1026F00010BD8CB90B490968C86880470748006855
:10270000407906490968C87204480068C0780349DE
:10271000096808730020EBE70220E9E79401002034
:1027200098010020A001002038B5002100220023DC
:102730000093394B1B6898B200BF09E0374C04EB9B
:102740008103D3F8003C9BB2354C44F82130491C3E
:102750000829F3D340F480602F4B186040F001004B
:10276000186020F00100186000BF2B4B1B1D1B6878
:1027700003F48063002BF8D04FF6FF33264C241D62
:102780002360002109E0264B53F821309BB2234DF2
:1027900005EB8104C4F8003C491C0829F3D340F040
:1027A00008001D4B18601B6898B240F004001A4BDB
:1027B00018601C4B1B6800931A4B1A6822F0030226
:1027C00042F001021A60184B1B6843F00403164CD8
:1027D0002360114B1B1D1B6803F480532BB9234648
:1027E0001B6823F00403236014E04EF6FF730A4CC9
:1027F000241D2360231F1B6898B220F00800231FAC
:102800001860084C009B2360074B1B6823F00403EF
:10281000054C236038BD0000405C00400050004083
:10282000540F00200070004010ED00E00120054929
:1028300008700548007820B103480078401E02491E
:10284000087070474E0000204F00002038B5044645
:102850000D4600204FF0E021886105FB04F000EBFD
:102860004001C1EBC0104FF0E02148610320086136
:10287000E11704EB5171C1F3C701114A1170104601
:10288000007800EB4001C1EBC0104FF6FF7101EA88
:10289000C0000C4908804FF4C060FFF721F8FF200A
:1028A0008DF8000003208DF8010000208DF8020053
:1028B00001208DF803006846FEF7DAFF38BD0000FE
:1028C0004A0000204C00002010B51348006840F07A
:1028D00001001149086008464068104908400E4947
:1028E0004860084600680E4908400B4908600846E1
:1028F000006820F4802008600846406820F4FE004C
:1029000048604FF41F008860FFF7AEFB4FF0006097
:102910000449086010BD0000001002400000FFF8EC
:10292000FFFFF6FE08ED00E010B504460748017809
:102930000078401C054A107005484454012240F2BA
:102940002771044800F00EF910BD0000510000206E
:10295000A20200200038014010B504460FE02078A4
:102960000D2802D1FFF7E0FF08E020780A2802D105
:10297000FFF7DAFF02E02078FFF7D6FF641C20782B
:102980000028ECD110BD000010B5044607480178BE
:102990000078401C054A107005484454012240F25A
:1029A0002771044800F0DEF810BD0000530000203D
:1029B000A20300200044004010B540F227711C48DB
:1029C00000F0A6F8E0B11B4802780078401C194BD3
:1029D00018701948815C164800F056F915480078BF
:1029E00016490978884205D1002240F22771104823
:1029F00000F0B8F840F227710D4800F06EF810E0D2
:102A000040F225510A4800F083F850B10849091DE9
:102A10000988C8B2FEF738F940F22551044800F0A1
:102A20005CF84FF45871024800F057F810BD0000F0
:102A30000038014050000020A20200205100002078
:102A400010B540F227711C4800F062F8E0B11B4855
:102A500002780078401C194B18701948815C1648A0
:102A600000F012F940F22771134800F036F81348CD
:102A7000007814490978884217D1002240F2277162
:102A80000D4800F06FF810E040F225510A4800F0C0
:102A90003FF850B10849091D0988C8B2FEF7FAF895
:102AA00040F22551044800F018F84FF458710248DC
:102AB00000F013F810BD0000004400405200002058
:102AC000A20300205300002001F40072B2F5007F41
:102AD00000D100BFCA430280704710B50022002316
:102AE00040F66A14A14200D100BF0A1201249440AA
:102AF000A3B2DC43048010BD21B1828942F40052AC
:102B0000828104E082894DF6FF731A40828170470A
:102B100070B50246002400230025002040F66A1606
:102B2000B14200D100BFC1F3421501F01F030126DD
:102B300006FA03F3012D02D19689334006E0022DF7
:102B400002D1168A334001E0968A33400C120126E6
:102B500006FA04F41688344013B10CB1012000E0E9
:102B6000002070BDF0B5034600240026002500209B
:102B700040F66A17B94200D100BF1846C1F34214AB
:102B800001F01F06012707FA06F5012C01D10C30D0
:102B900004E0022C01D1103000E014301AB10768B3
:102BA0002F43076002E00768AF430760F0BD0000F5
:102BB0002DE9F04786B005460E460024A24600BF28
:102BC000A1460027B08900B100BF2F462C8A4CF6E1
:102BD000FF700440F08804432C82AC894EF6F31059
:102BE0000440B08831890843718908430443AC81AB
:102BF000AC8A4FF6FF400440B0890443AC8201A880
:102C0000FFF708F81F48874202D1DDF810A001E065
:102C1000DDF80CA0A88900F4004040B10AEBCA001E
:102C200000EB0A1031684900B0FBF1F807E00AEB4D
:102C3000CA0000EB0A1031688900B0FBF1F864208B
:102C4000B8FBF0F004012009642101FB1089A88978
:102C500000F4004040B1322000EBC900B0FBF1F0BD
:102C600000F00700044308E0322000EB0910642163
:102C7000B0FBF1F000F00F0004432C8106B0BDE87A
:102C8000F087000000380140C1F3080282807047DD
:102C900010B54FF48020FEF7F7FA10BD10B50446CA
:102CA0002CB94FF400610548FEF71BFC04E04FF41B
:102CB00000610248FEF717FC10BD00000020014033
:102CC00010B5FFF745FAFFF77FFA00F021F800F0A2
:102CD00001F810BD10B508480849086002200968CD
:102CE000087207480749086007480849086005490D
:102CF00009680868804710BD740F00209401002007
:102D0000FC000020980100202C010020A0010020E0
:102D100008B514208DF8000002208DF80100002075
:102D20008DF8020001208DF803006846FEF7A0FD33
:102D30002A208DF8000000208DF801006846FEF77B
:102D400097FD08BD10B588B000246948006869493E
:102D500008800846008800F4007067490988084028
:102D600050B14FF6FF506249086064480078401C3B
:102D700062490870FFF738F85E48008800F40040A8
:102D80005D490988084008B1FDF7F2FD59480088FF
:102D900000F4806058490988084030B14FF6FF3090
:102DA000534908605649486880475248008800F4F3
:102DB000005051490988084018B14DF6FF704C4940
:102DC00008604C48008800F480504B49098808404E
:102DD00030B14EF6FF70464908600020FEF78AFFCA
:102DE0004448008800F4006043490988084060B105
:102DF0004448007810B1FFF797FC02E00220FEF78C
:102E000079FF4FF2FF703A4908603A48008800F4B1
:102E10008070394909880840002866D04FF6FF6065
:102E200033490860081D006800F40040002856D0AF
:102E300035480068401C344908600846006803288B
:102E400050D92B48001F006800F00800002849D125
:102E50002748001F006880B22C490860002408E061
:102E60002B4901EB8400D0F8000C80B24DF824000F
:102E7000641C082CF4D32548006840F00100234965
:102E800008600846006880B21949091F08601F4899
:102E9000006820F001001D4908600846006880B203
:102EA0001349091F086000BF1148006800F48060E2
:102EB0000028F9D04FF6FF300D490860002408E0E3
:102EC0005DF8240080B2124A02EB8401C1F8000CC4
:102ED000641C082CF4D300200B49086002E0002099
:102EE000094908600720FEF705FF08B010BD000083
:102EF000445C0040A80000209E010020AA000020A1
:102F0000FC00002084010020AC000020B000002064
:102F10000050004010B5FFF715FF10BD70B5044616
:102F20000D462A4621460248FEF709FE70BD000004
:102F3000B40400200020064908604FF43F400549D2
:102F40000880084600880249091F08600020704771
:102F5000445C00409E0100202DE9F04104460E46ED
:102F6000002504F07F00FEF7D9FA054604F07F0043
:102F7000FEF7C4FA07462A4639463046FEF77EFD7C
:102F80002846BDE8F081000070B504460D462A468B
:102F900021460248FEF7F1FD70BD0000C404002088
:102FA00070B504460D462A4621460248FEF7C7FD85
:102FB00070BD0000C404002000BFFEE7F0B5144659
:102FC00004F1010C4FEA6C07DFF824C00CEB41035D
:102FD0003D460AE00678401C90F800C046EA0C2204
:102FE00023F8022B9B1C401C6D1E002DF2D1F0BD5E
:102FF0000060004070B504460025212C08D112481D
:103000000068007800F07F0021280ED10F4D0CE001
:10301000202C0AD10C480068007800F07F0021289D
:1030200000D10B4D20200B4908700DB9022070BD56
:10303000054800688561002103480068418200203E
:10304000A8470020F3E70000940100208130000829
:1030500011320008EC00002010B504460249204659
:10306000FFF7E4F910BD00005801002010B5044638
:1030700002492046FFF7DAF910BD00005001002098
:10308000014629B90820034A1268108200207047BF
:103090000148FCE794010020F000002070B50546CF
:1030A00006480068C478042C01DD002070BD044887
:1030B00000EBC4012846FFF7B9F9F7E794010020B7
:1030C000600100200246002901DD02207047012A2C
:1030D00001DD0220FAE70020F8E700000146084879
:1030E0000068007800F07F00212807D1022901D173
:1030F00000207047222901D10020FAE70220F8E7DA
:103100009401002010B500203449096888723448C1
:10311000C079324909684872002030490968C8728C
:10312000FEF796FE4FF400710020FEF78BFF102192
:103130000020FEF74DFF40210020FEF7B9FE802160
:103140000020FEF727FF0020FDF78AFD254890F8B4
:103150002C100020FEF7BEFE0020FEF701FF00212C
:103160000120FEF76FFFC0210120FEF713FF202191
:103170000120FEF72DFF00210120FEF7D1FE4FF4C4
:10318000C0610220FEF75EFF4FF480710220FEF75F
:1031900001FF00210220FEF7C3FE20210220FEF7DE
:1031A00017FF00210320FEF74DFF4FF48871032025
:1031B000FEF77EFE40210320FEF78CFE4FF44051C7
:1031C0000320FEF7ADFE00210320FEF701FF0020E3
:1031D000FEF746FE01200449086010BD940100205E
:1031E00092410008FC000020800100200348817A01
:1031F00011B10521024A116070470000740F0020D0
:1032000080010020042001490860704780010020EF
:10321000014629B90820034A12681082002070472D
:103220000148FCE794010020F000002003480078EA
:10323000202802D10020014908707047EC000020CE
:103240007047000010B5FEF78BF9002005490968AA
:103250008872FEF74DFCFFF76DFE00200249086002
:1032600010BD000094010020800100200FB4084B25
:1032700010B504A902AA039800F0CEF8044602A9EA
:10328000002000F060FC204610BC5DF814FB00003C
:10329000473B000802E008C8121F08C1002AFAD103
:1032A00070477047002001E001C1121F002AFBD1C6
:1032B000704700002DE9FF5FDDE90220010DDDF818
:1032C00038B0024318D044F61050A1F2FF31414308
:1032D0000D140F98012820D0A5EB0B00401C5FEACD
:1032E000000A4FF00004474EDFF81C91A0465046FC
:1032F00016D5CAF1000728E00F98012443A201283F
:1033000008D0002100980F9BC0E90021C0E90243CA
:10331000BDE8FF9F6FEA0B01F4E7CBF10000DEE7A9
:10332000074612E0F80707D0224633464046494692
:10333000FDF705FA8046894622463346104619466F
:10334000FDF7FDF904460E467F10002FEAD1DDE9B6
:103350000201BAF1000F42464B4602DAFDF7EFF9DF
:1033600001E0FCF7C9FF04460E460022284BFDF79A
:1033700071FA03D84FF0FF30014607E00022254BD9
:1033800020463146FDF734F9FDF74BFA102409E0E9
:10339000002C0ADB0A220023FDF765F8019B30327E
:1033A0001A55641E50EA0102F2D1641C019AC4F15C
:1033B000110314440F9A012A03D0012208430DD1AE
:1033C0000AE0084304D000204FF0110B0F9080E773
:1033D000A3EB0B056D1E0DE05B4504DD4FF0000215
:1033E00005F1010504E003DA4FF00002A5F1010543
:1033F000002AECD000980F99C0E90231C0E90045DD
:1034000086E70000000024400000F03F300000008C
:103410000000F0430000E03F2DE9FF4F95B09B46D0
:103420008946064600250FE2252877D10024274645
:10343000F84A0121059400E0044316F8013F203BBF
:1034400001FA03F01042F7D130782A2811D06FF03A
:103450002F033078A0F13002092A16D8059A44F0DB
:10346000020402EB820203EB42021044761C059038
:10347000EFE759F8042B0592002A03DA504244F48E
:103480000054059044F00204761C30782E2816D1A2
:1034900016F8010F44F004042A280DD06FF02F0213
:1034A0003078A0F13003092B09D807EB870302EB32
:1034B0004303C718761CF3E759F8047B761C307871
:1034C0006C280FD006DC4C2817D068280DD06A284D
:1034D00014D104E0742810D07A280FD10DE044F400
:1034E00000140AE044F4801401E044F440147278BB
:1034F000824202D104F58014761C761C307866284E
:103500000BD013DC582877D009DC002875D045286B
:10351000F6D04628F4D047281AD19DE118E0632858
:1035200035D0642879D0652812D195E1702873D000
:1035300008DC6728F1D069286FD06E280DD06F287D
:1035400006D1B5E073282CD0752875D0782874D0B2
:103550005A46179990476D1C75E1C4F30250022832
:1035600009D003280DD0D9F8001004280DD00D6023
:1035700009F1040967E1D9F80010EA17C1E900521E
:10358000F6E7D9F800100D80F2E70D70F0E719F8B2
:10359000041B8DF8001000208DF80100EA46012080
:1035A00003E059F804AB4FF0FF3061074FF0000122
:1035B00002D40DE008F101018846B9420FDA8045D6
:1035C000F8DB1AF808100029F4D108E008F101012D
:1035D00088468142FADB1AF808100029F6D10598CE
:1035E0005B46A0EB080721463846179A00F094FA8C
:1035F000284400EB080507E04DE029E10DE01AF84A
:10360000010B5A4617999047B8F10108F7D25B466B
:1036100021463846179A13E142E00A220092C4F389
:1036200002524FF0000A022A08D059F804CB032AAC
:103630004FEAEC710AD00DE029E02AE009F1070118
:1036400021F00702F2E802C1914609E00FFA8CFC72
:103650004FEAEC71042A03D14FFA8CFC4FEAEC716B
:10366000002907DA0A460021DCF1000C61EB0201B7
:103670002D2202E0220504D52B228DF80420012200
:1036800003E0E20701D02022F7E7904659E00A2143
:1036900002E010220DE010214FF0000A00910BE033
:1036A00010224FF0000A44F004040827009203E0BF
:1036B00008224FF0000A0092C4F30252022A05D0F9
:1036C00059F804CB0021032A08D009E009F10701C9
:1036D00021F00702F2E802C1914605E01FFA8CFCD6
:1036E000042A01D10CF0FF0C4FF00008220728D566
:1036F000702806D0009B83F0100353EA0A0305D01C
:103700000EE040228DF80420012208E05CEA01026C
:1037100006D030228DF804208DF805000222904654
:10372000009B83F0080353EA0A030AD15CEA010212
:1037300001D1620705D530228DF804204FF0010831
:103740007F1E582804D034A003900EA802900DE0EC
:1037500036A0F9E753466046009AFCF784FE84469B
:103760000398825C0298401E029002705CEA01009D
:10377000F0D1029806A9081A00F1200A600702D5C4
:1037800024F4803400E00127574502DDA7EB0A004E
:1037900000E0002000EB0A01009005984144401A27
:1037A0000590E00306D45B462146179A059800F081
:1037B000B3F90544002706E001A85A46C05D1799F1
:1037C00090476D1C7F1C4745F6DBE0030CD55B463C
:1037D0002146179A059800F09FF9054404E030202F
:1037E0005A46179990476D1C0099481E0090002971
:1037F000F5DC08E0029802995A460078491C0291CB
:10380000179990476D1CBAF10001AAF1010AF1DC89
:1038100065E1000009280100303132333435363794
:10382000383961626364656600000000303132330C
:1038300034353637383941424344454600000000AC
:1038400000F058F90544761C307800287FF4ECAD80
:1038500019B02846BDE8F08F620700D4062709F1A9
:10386000070222F0070CFCE80223E14603F00048BF
:103870005FEA080C02D00FF2702C0DE05FEA045CE6
:1038800002D50FF2682C07E05FEAC47C02D00FF289
:10389000602C01E0AFF2700C4FF0FF3823F00043D2
:1038A000CDF850C065280CD006DC452809D0462844
:1038B0001DD047283DD13DE0662818D067287ED12D
:1038C00038E00021112F01DB112000E0781CCDE948
:1038D000000106A90EA8FFF7EDFCDDE90F010E9A25
:1038E00003910021009207F1010A04914DE04FF08D
:1038F00000400097CDE9011006A90EA8FFF7DAFCF9
:10390000DDE90F0203920E9B11990022DDF80CA055
:103910000093049211B9791C00EB010AB7EB0A007D
:1039200004D4C0F1FF3007F1010A0490AAEB0700AC
:10393000019044E0012F00DA01270021112F01DD61
:10394000112000E03846CDE9000106A90EA8FFF7D6
:10395000B1FCDDE90F010E9A039100210491009260
:10396000BA4621070CD40399514500DA8A46BAF1C8
:10397000010F05DD009AAAF10101515C302908D040
:10398000B84202DA10F1040F06DA0121CDE9011084
:1039900015E0AAF10101E9E7002805DC04990144DA
:1039A0000491AAEB000102E0411C514500DD8A466A
:1039B0000499401A401C01904FF0004002902007EB
:1039C00004D40198504501DBCDF8048000208DF827
:1039D0004F0002980DF14F07B0F1004F25D02B207A
:1039E0000E9002984FF0020800280CDA4042029034
:1039F0002D200E9007E00A210298FCF71EFD3031C1
:103A0000029007F8011DB8F10001A8F10108F2DCED
:103A100002980028EFD1791E0E980870307800F0D7
:103A2000200040F0450007F8020D12A8C01B00F16D
:103A300007081498007800B1012000EB0A010198F2
:103A400001EBE07105984144401A401E0590E003E7
:103A500006D45B462146179A059800F05DF80544A8
:103A60001498007818B15A46179990476D1CE003D6
:103A700024D55B462146179A059800F04DF8054479
:103A80001CE00498002807DBDDE90301884203DD20
:103A90000098405C179901E0179930205A469047EA
:103AA000049805F10105401C04900198401E019006
:103AB00004D12E205A46179990476D1CBAF1000187
:103AC000AAF1010ADDDC05E017F8010B5A46179947
:103AD00090476D1CB8F10001A8F10108F4DC5B46C9
:103AE0002146179A0598ABE62D0000002B00000038
:103AF000200000002DE9F041044600251E4617462F
:103B0000880404D405E039462020B0476D1C641EAB
:103B1000F9D52846BDE8F0812DE9F041044600259D
:103B20001E469046C80301D5302700E020278804B0
:103B300004D505E041463846B0476D1C641EF9D5F2
:103B40002846BDE8F0810A68531C0B60107070476E
:103B500030B503464FF0E024A169254C248803FBCF
:103B600004F200204FF0E0246469B2FBF4F4214D2C
:103B70002C704FF0E0246469B2FBF4F504FB1520CF
:103B8000814215D9081A00BF1A4C2478002CFBD1A9
:103B90000A2806D200BF4FF0E024A4690A2CFAD804
:103BA00024E000BF4FF0E024A4698442FAD81DE06D
:103BB000104C2478641C0F4D2C704FF0E024646985
:103BC0000C44201A00BF0B4C2478002CFBD10A288F
:103BD00006D200BF4FF0E024A4690A2CFAD805E011
:103BE00000BF4FF0E024A4698442FAD830BD000041
:103BF0004C0000204F000020A8B0FFF761F80A2118
:103C00004820FEF723FE4FF4E130FDF7FDFC4FF4B2
:103C1000E130FDF755FDFDF7EBFD4FF47A70FFF74E
:103C200097FF91E24FF4FA70FFF792FFF948C088CE
:103C30000790FCF7D9FBF8490890FCF71FFB0A90A6
:103C4000F44840790890FCF7CFFB09900A99FCF7FB
:103C50008BFA0B90FCF7DEFBCDE90C01CDE90401FA
:103C6000EC480079EB49C978EA4A9278CDE900211D
:103C70000290E84840780B90E64800780A900246A7
:103C8000E6A10EA80B9BFFF7F1FA0EA8FEF764FE63
:103C90000A20FFF75DFFE948B0F904000490FCF743
:103CA0009AFB4FF08E410590FCF7E8FA4FF0834104
:103CB0000690FCF7B1FA0790FCF7ACFBCDE90C01DC
:103CC000DE48B0F902000490FCF785FB4FF08E410E
:103CD0000590FCF7D3FA4FF083410690FCF79CFA6D
:103CE0000790FCF797FBCDE90A01D448B0F9000032
:103CF0000490FCF770FB4FF08E410590FCF7BEFA84
:103D00004FF083410690FCF787FA0790FCF782FB9F
:103D1000CDE90801DDE90C01CDE90201DDE90A0187
:103D2000CDE90001C6A10EA8DDE90823FFF79EFA40
:103D30000EA8FEF711FE0A20FFF70AFFC648B0F9E9
:103D400004000490FCF747FB4FF08E410590FCF710
:103D500095FAC2490690FCF75FFA0790FCF75AFB08
:103D6000CDE90C01BC48B0F902000490FCF733FB2C
:103D70004FF08E410590FCF781FAB8490690FCF7A8
:103D80004BFA0790FCF746FBCDE90A01B248B0F9BF
:103D900000000490FCF71FFB4FF08E410590FCF7EC
:103DA0006DFAAE490690FCF737FA0790FCF732FB44
:103DB000CDE90801DDE90C01CDE90201DDE90A01E7
:103DC000CDE90001A6A10EA8DDE90823FFF74EFA10
:103DD0000EA8FEF7C1FD0A20FFF7BAFEA648B0F90B
:103DE00004000490FCF7F7FA4FF08E410590FCF7C1
:103DF00045FAA2490690FCF70FFA0790FCF70AFB78
:103E0000CDE90C019C48B0F902000490FCF7E3FAFC
:103E10004FF08E410590FCF731FA98490690FCF777
:103E2000FBF90790FCF7F6FACDE90A019248B0F9E0
:103E300000000490FCF7CFFA4FF08E410590FCF79C
:103E40001DFA8E490690FCF7E7F90790FCF7E2FAB5
:103E5000CDE90801DDE90C01CDE90201DDE90A0146
:103E6000CDE9000186A10EA8DDE90823FFF7FEF9E0
:103E70000EA8FEF771FD0A20FFF76AFE8648B0F92A
:103E8000040000908448B0F902000D908248B0F917
:103E900000000C90024681A10EA80D9BFFF7E6F9E9
:103EA0000EA8FEF759FD0A20FFF752FE7F48406832
:103EB0000990FCF790FA7E490A90FCF7DFF90B9025
:103EC000FCF7A8FACDE90C01CDE9000177480068BC
:103ED000024678A10B900EA8FFF7C8F90EA8FEF7CE
:103EE0003BFD0A20FFF734FE7948B0F90600784917
:103EF000B1F90410CDE900107548B0F902000D9039
:103F00007348B0F900000C90024672A10EA80D9BF8
:103F1000FFF7ACF90EA8FEF71FFD0A20FFF718FE09
:103F200072484068724990FBF1F201FB1200039065
:103F3000FCF75FFA00226F4BCDE90401FCF7DCF9D6
:103F4000CDE90C0169484068694990FBF1F00B909C
:103F50006648006890FBF1F201FB12000390FCF749
:103F600048FA0022634BCDE90401FCF7C5F9CDE91D
:103F700008015E4800685E4990FBF1F00790DDE9BA
:103F80000C01CDE904010B980290DDE90801CDE9AF
:103F9000000159A10EA8079AFFF768F90EA8FEF7CD
:103FA000DBFC0A20FFF7D4FD5F4840680590FCF772
:103FB00012FA19490690FCF761F90790FCF72AFA02
:103FC000CDE90C015848B0F902000590FCF703FA5E
:103FD00056490690FCF752F90790FCF71BFACDE919
:103FE0000A015148B0F900000590FCF7F4F94F4977
:103FF0000690FCF743F90790FCF70CFACDE90801AD
:10400000DDE90C01CDE90201DDE90A01CDE900019C
:104010008EE000000000002000007A4454696D65C5
:104020003A323025642D25642D25642025643A25F7
:10403000643A252E33660D0A0000000008000020B7
:104040004163633A252E336620252E336620252EC4
:1040500033660D0A00000000100000200000FA4442
:104060004779726F3A252E336620252E3366202538
:104070002E33660D0A0000001800002000003443B3
:10408000416E676C653A252E336620252E336620F7
:10409000252E33660D0A0000200000204D61673A8E
:1040A00025642025642025640D0A000030000020CE
:1040B0000000C84250726573737572653A256C646E
:1040C00020486569676874252E32660D0A00000075
:1040D00028000020445374617475733A25642025C8
:1040E000642025642025640D0A00000038000020AB
:1040F00080969800006AF8404C6F6E67697475642A
:10410000653A256C64446567252E35666D204C61E3
:10411000747469747564653A256C64446567252E0A
:1041200035666D0D0A0000004000002000002041AF
:1041300006A10EA8DDE90823FFF798F80EA8FEF700
:104140000BFC0A20FFF704FD6CE5000047505348C4
:1041500065696768743A252E31666D20475053595A
:1041600061773A252E316644656720475053563AA9
:10417000252E33666B6D2F680D0A0D0A00000000B6
:1041800012010002020000408304405700020102B5
:10419000030109024300020100C0320904000001CA
:1041A000020201000524001001052401000104247D
:1041B00002020524060001070582030800FF090426
:1041C0000100020A00000007050302400000070585
:1041D0008102400000040309041803480069006BD1
:1041E0000065007200200073007500640069006FB4
:1041F0000026035600690072007400750061006CAF
:1042000000200043004F004D00200050006F00725E
:104210000074002000200000384200080000002048
:10422000A80100000A090008D8420008A8010020DF
:10423000E8110000A432000801592D010203040412
:10424000F009060708090204060814260356126935
:104250001272127412751261126C12201243124FF4
:104260001A4D0812503A6F181A200201161319122B
:104270000C1C086F18040A1169245133C20112087A
:104280001A0407134532140805311B082D081A417A
:104290000413F52F1408DD301B08C5041A6D041A29
:1042A00059041A9D0441324029441AED300916740C
:1042B0001A05441380413308121A920832431AD562
:1042C0000832041AD90832181AF108322622782A3C
:0842D0002008412992012000A1
:0400000508000131BD
:00000001FF
