:03000D00000000F0
:0205D1008F0D8C
:1005D300780E7C007D007BFF7A00790D7E007F031F
:1005E3001200F6750EA5850D0F7B007A00790E7D3E
:0405F30003020550AA
:1004E900E4F509F50AF50BF50C7F807E25FDFC1274
:1004F90005A37F451205D1E54760FCE4F509F50A36
:10050900E54B2404FFE433FEC3E50A9FEE6480F85B
:10051900748098500E7448250AF8E62509F50905EE
:100529000A80DD7448250AF8E6B50916E54CF50B8D
:10053900E54DF50C7B007A00794C7511157D031298
:07054900047DE4F54780B0DA
:0F05F700015900015100075200000000000000F0
:03001300020010D8
:0100100032BD
:0300230002035085
:10035000C0E0C0F0C083C082C0D075D000C000C073
:0D03600001C002C003C004C005C006C007F4
:10036D00750800309905C29975500030985BAF51F2
:10037D00055174522FF8A699C298E552645A60033C
:10038D00755100E551B40209E553645A6003755186
:10039D0000E551D394034031E5552405FFE433FEC8
:1003AD00E551B50724E4B50620E55424EB7017E5B7
:1003BD0047701378487C00FDFB7A007952FE7F0868
:0903CD001200F67547017551009C
:1003D600D007D006D005D004D003D002D001D0007B
:0B03E600D0D0D082D083D0F0D0E03225
:1006170000000000000000000000000000000000D3
:0E0627000000000000000000000000000000C5
:1006060001500001470008480000000000000000FB
:1005A3008F108E0F8D0E8C0D759850438920AB10D4
:1005B300AA0FA90EA80DE47F807E70FDFC1201F046
:0E05C300EFF404F58DF58B43884043A8902299
:0A000300E55070FC8F997550012242
:060550008B308A31893274
:10055600E4F533E533C39D5043ED14FFE533C39F04
:100566005022AB30AA31A93285338275830012013D
:100576001CFFED75830024FFF582E58334FFF583C8
:10058600EF120149AB30AA31A932AF3305338F825E
:0C05960075830012011CFF12000380B7E7
:0105A2002236
:08047D008B0D8A0E890F8D1012
:1004850078127C007D007BFF7A0679177E007F1E3F
:100495001200F6E4FF0F2412F8765A0F74122401A5
:1004A500F8765A0F74122402F8A6110F7412240359
:1004B500F8A610E4FEEEC39510501BAB0DAA0EA9CD
:1004C5000F8E8275830012011CFDAC070F74122C70
:1004D500F8A6050E80DF7B007A007912E510240569
:0404E500FD020550BF
:0802AE008B348A3589368D3747
:1002B600E4F546FDE53775F002A42405FFE435F0C4
:1002C600FE7B007A007939120282AF460546743900
:1002D6002FF8765AAF46054674392FF8765AAF4648
:1002E600054674392FF8A638E53725E0FFAE4605F2
:1002F6004674392EF8A607E4FDEDC39537503BAB9F
:1003060034AA35A93675F002EDA4F58285F083127C
:10031600017CE5F0FFAE46054674392EF8A6077552
:10032600F002EDA4F58285F08312017CFFAE46054E
:100336004674392EF8A6070D80BF7B007A007939FE
:0A034600E53725E02405FD0205500F
:030000000203F107
:0C03F100787FE4F6D8FD758159020438CD
:10002600E709F608DFFA8046E709F208DFFA803EBC
:1000360088828C83E709F0A3DFFA8032E309F608A9
:10004600DFFA8078E309F208DFFA807088828C8311
:10005600E309F0A3DFFA806489828A83E0A3F608C5
:10006600DFFA805889828A83E0A3F208DFFA804C9F
:1000760080D280FA80C680D4806980F28033801076
:1000860080A680EA809A80A880DA80E280CA8033DF
:1000960089828A83ECFAE493A3C8C582C8CCC58357
:1000A600CCF0A3C8C582C8CCC583CCDFE9DEE78027
:1000B6000D89828A83E493A3F608DFF9ECFAA9F0A6
:1000C600EDFB2289828A83ECFAE0A3C8C582C8CCFC
:1000D600C583CCF0A3C8C582C8CCC583CCDFEADE15
:1000E600E880DB89828A83E493A3F208DFF980CC77
:1000F60088F0EF60010E4E60C388F0ED2402B40470
:100106000050B9F582EB2402B4040050AF23234516
:06011600822390007673C5
:10011C00BB010CE58229F582E5833AF583E0225098
:10012C0006E92582F8E622BBFE06E92582F8E222E2
:0D013C00E58229F582E5833AF583E49322FC
:10014900BB010FF8E58229F582E5833AF583E028BA
:10015900F0225009C58229F8E58226F622BBFE095C
:10016900C58229F8E22582F222F8EA2583F583E996
:03017900932822A6
:10017C00BB0110E58229F582E5833AF583E0F5F0C1
:10018C00A3E0225009E92582F886F008E622BBFE9E
:10019C000AE92582F8E2F5F008E222E5832AF583E4
:0801AC00E993F5F0A3E99322A9
:1001B40075F008758200EF2FFFEE33FECD33CDCC02
:1001C40033CCC58233C5829BED9AEC99E582984085
:1001D4000CF582EE9BFEED9AFDEC99FC0FD5F0D662
:1001E400E4CEFBE4CDFAE4CCF9A88222B800C1B98C
:1001F4000059BA002DEC8BF084CFCECDFCE5F0CBCA
:10020400F97818EF2FFFEE33FEED33FDEC33FCEB02
:1002140033FB10D703994004EB99FB0FD8E5E4F9BD
:10022400FA227818EF2FFFEE33FEED33FDEC33FCAA
:10023400C933C910D7059BE99A4007EC9BFCE99A9E
:10024400F90FD8E0E4C9FAE4CCFB2275F010EF2FE3
:10025400FFEE33FEED33FDCC33CCC833C810D707E3
:100264009BEC9AE899400AED9BFDEC9AFCE899F81E
:0E0274000FD5F0DAE4CDFBE4CCFAE4C8F922B1
:10028200EF4E6012EF60010EEDBB010B89828A8393
:10029200F0A3DFFCDEFA2289F05007F709DFFCA9A0
:0C02A200F022BBFEFCF309DFFCA9F022F7
:1003FD000204E9E493A3F8E493A34003F68001F229
:10040D0008DFF48029E493A3F85407240CC8C33300
:10041D00C4540F4420C8834004F456800146F6DFCF
:10042D00E4800B01020408102040809005F7E47E63
:10043D00019360BCA3FF543F30E509541FFEE493C4
:10044D00A360010ECF54C025E060A840B8E493A38B
:10045D00FAE493A3F8E493A3C8C582C8CAC583CAB6
:10046D00F0A3C8C582C8CAC583CADFE9DEE780BE6E
:0106160000E3
:00000001FF
