:020000040800F2
:10000000E0040020450100085D1500084F140008B9
:10001000591500088D010008691E00080000000045
:10002000000000000000000000000000251900088A
:10003000A1020008000000000516000827190008AA
:100040005F0100085F0100085F0100085F01000810
:100050005F0100085F0100085F0100085F01000800
:100060005F0100085F0100085F0100085F010008F0
:100070005F0100085F0100085F0100085F010008E0
:100080005F0100085F0100085F0100085F010008D0
:100090005F0100085F0100085F0100085F010008C0
:1000A0005F0100085F0100085F0100085F010008B0
:1000B0005F0100085F0100085F0100085F010008A0
:1000C0005F0100085F0100085F0100085F01000890
:1000D0005F010008B91D00085F0100085F0100080A
:1000E0005F0100085F0100085F0100085F01000870
:1000F0005F0100085F0100085F0100085F01000860
:100100005F0100085F0100085F0100085F0100084F
:100110005F0100085F0100085F0100085F0100083F
:100120005F0100085F0100085F0100085F0100082F
:10013000DFF80CD000F018F800480047011F000855
:10014000E00400200648804706480047FEE7FEE737
:10015000FEE7FEE7FEE7FEE7FEE7FEE7FEE7FEE777
:10016000C919000831010008064C074D06E0E06897
:1001700040F0010394E8070098471034AC42F6D3EE
:10018000FFF7DAFF702000089020000800BFFEE7AC
:1001900070B504463E48C079002878D13C48007AC2
:1001A000A04274D1601E3B49085C40BB012C04D1C5
:1001B0000022A102384800F0F1FA022C04D10022FA
:1001C0000821354800F0EAFA032C04D1002204216A
:1001D000314800F0E3FA042C04D1002201212E481A
:1001E00000F0DCFA052C05D100224FF400512A481A
:1001F00000F0D4FA0121601E264A11542BE0601E43
:100200002449085C012826D1012C04D10122810255
:10021000214800F0C3FA022C04D1012208211E4813
:1002200000F0BCFA032C04D1012204211A4800F08A
:10023000B5FA042C04D101221146174800F0AEFA99
:10024000052C04D101225103134800F0A7FA002124
:10025000601E104A1154002504E0FF200C49485547
:10026000681CC5B2092DF8DB002505E00948405D92
:100270000A494855681CC5B2052DF7DB0522002147
:100280004FF4805001F088F9322001F02AFE70BD51
:1002900078000020030000200010014064000020CE
:1002A0007047000070B50446002594F8210002282C
:1002B00003D00420A0630125C1E02068006820F07D
:1002C0000E00216808602068006820F001002168A5
:1002D00008605C492068884252D95A4978392068B8
:1002E000884201D1012047E056496439206888429C
:1002F00001D1102040E0534950392068884201D193
:10030000801539E04F493C392068884201D180147A
:1003100032E04C4928392068884202D14FF48030BD
:100320002AE0484914392068884202D14FF48010ED
:1003300022E044492068884201D140041CE042493F
:100340002068884201D1012016E03F49143120681D
:10035000884201D110200FE03B49283120688842B3
:1003600001D1801508E038493C312068884201D12C
:10037000801401E04FF480303349091F086051E0D8
:10038000304978392068884201D1012047E02D4961
:1003900064392068884201D1102040E02949503951
:1003A0002068884201D1801539E026493C3920680F
:1003B000884201D1801432E02249283920688842DD
:1003C00002D14FF480302AE01E4914392068884257
:1003D00002D14FF4801022E01A492068884201D1EE
:1003E00040041CE018492068884201D1012016E031
:1003F000154914312068884201D110200FE01249BC
:1004000028312068884201D1801508E00E493C312E
:100410002068884201D1801401E04FF480300949FE
:1004200080394860012084F8210000BF002084F852
:10043000200000BF606B10B12046616B88472846E2
:1004400070BD000080000240080402402DE9F8471A
:1004500002460024002000258446002700237BE17B
:100460004FF0010808FA03F4D1F8008008EA04000C
:10047000A0427DD1DFF8ECA2D1F80480A8EB0A09F4
:10048000D0453AD014DCB8F1030F50D009DCB8F1F4
:10049000000F31D0B8F1010F1CD0B8F1020F49D1D3
:1004A00020E0B8F1110F18D0B8F1120F42D11EE0C0
:1004B000B9F5881F25D006DCB9F5803F20D0B9F505
:1004C000801F37D11AE0B9F5001F18D0B9F5041F05
:1004D00030D117E0D1F80CC02DE0D1F80C8008F134
:1004E000040C28E0D1F80C8008F1080C23E0D1F8C6
:1004F0000C8008F10C0C1EE000BF00BF00BF00BF65
:1005000000BF00BFD1F80880B8F1000F02D14FF052
:10051000040C0BE0D1F80880B8F1010F03D14FF0C3
:10052000080C146102E04FF0080C546103E04FF036
:10053000000C00E000BF00BFFF2801D8904601E09A
:1005400002F104084646FF2802D84FEA830803E078
:10055000A3F108084FEA88084746D6F800804FF014
:100560000F0909FA07F928EA09080CFA07F900E067
:100570007AE048EA0908C6F80080D1F8048008F05B
:100580008058B8F1805F6FD100BFDFF8DC81D8F808
:10059000188048F00108DFF8D091C9F81880C846E3
:1005A000D8F8188008F00108CDF8008000BF00BF1F
:1005B0004FEAB9384FEA930958F829504FEA83783F
:1005C0004FEA18794FF00F0808FA09F825EA0805EC
:1005D000DFF89881424502D14FF0000824E0DFF8AF
:1005E0009081424502D14FF001081DE0DFF884817F
:1005F000424502D14FF0020816E0DFF87C81424507
:1006000002D14FF003080FE0DFF87081424502D1BC
:100610004FF0040808E0DFF86881424502D14FF04E
:10062000050801E04FF006084FEA83794FEA19798F
:1006300008FA09F848EA0505DFF848814FEA930906
:1006400048F82950D1F8048008F48038B8F5803F84
:100650000BD1DFF83481D8F8008048EA0008DFF8D1
:100660002891C9F800800AE075E0DFF81C81D8F80D
:10067000008028EA0008DFF81091C9F80080D1F85E
:10068000048008F40038B8F5003F0ED1DFF8F88098
:1006900008F10408D8F8008048EA0008DFF8E8907C
:1006A00009F10409C9F800800DE0DFF8DC8008F1E9
:1006B0000408D8F8008028EA0008DFF8CC9009F197
:1006C0000409C9F80080D1F8048008F48018B8F54E
:1006D000801F0ED1DFF8B08008F10808D8F800803C
:1006E00048EA0008DFF8A09009F10809C9F800807D
:1006F0000DE0DFF8948008F10808D8F8008028EAB7
:100700000008DFF8849009F10809C9F80080D1F8E1
:10071000048008F40018B8F5001F0ED1DFF86880D7
:1007200008F10C08D8F8008048EA0008DFF8589073
:1007300009F10C09C9F800800DE0DFF84C8008F1E0
:100740000C08D8F8008028EA0008DFF83C9009F18E
:100750000C09C9F800805B1C102BFFF481AEBDE8CA
:10076000F88700000000111000100240000801404E
:10077000000C01400010014000140140001801402D
:10078000001C01400800014000040140024693683B
:100790000B400BB1012000E0002070470AB101615D
:1007A00001E00B04036170470148006870470000D6
:1007B00014000020034800680349097808440149EF
:1007C00008607047140000201C00002010B5084885
:1007D000006840F0100006490860032000F0CEF8E1
:1007E000002000F007F800F02BF8002010BD0000FA
:1007F0000020024070B504460E4800784FF47A712C
:10080000B1FBF0F00C490968B1FBF0F5284600F0A7
:1008100040FC08B1012070BD102C07D200222146F7
:10082000501E00F06CF80548046001E00120F2E77A
:100830000020F0E71C00002020000020180000200D
:1008400008B500BF2548806940F001002349886150
:100850000846806900F00100009000BF00BF00BFA3
:100860000846C06940F08050C8610846C06900F081
:100870008050009000BF00BF032000F07FF80022EE
:1008800011466FF00B0000F03AF8002211466FF0AD
:100890000A0000F034F8002211466FF0090000F061
:1008A0002EF800221146501F00F029F800221146B0
:1008B000101F00F024F800221146901E00F01FF8CF
:1008C00000221146501E00F01AF800BF0449486883
:1008D00020F0E06000BF486000BF08BD001002408B
:1008E0000000014000BF00F01F02012191404209B9
:1008F000920002F1E022C2F8001100BF70472DE91A
:10090000F05F80460D461646002700F029FE074698
:1009100039462A46334601F00700C0F1070ABAF10A
:10092000040F02D94FF0040A01E0C0F1070AD146D2
:1009300000F1040ABAF1070F02D24FF0000A01E0F9
:10094000A0F1030AD4464FF0010A0AFA09FAAAF103
:10095000010A0AEA020A0AFA0CFA4FF0010B0BFA32
:100960000CFBABF1010B0BEA030B4AEA0B0421462B
:10097000404600F0FDFDBDE8F09F000000BF00F024
:100980000702064B19684FF6FF031940044B0B434F
:1009900043EA0221014B196000BF70470CED00E0F3
:1009A0000000FA0570B504460D460026624800684E
:1009B00000F00700A8420ED25F48006820F0070050
:1009C00028435D4908600846006800F00700A84217
:1009D00001D0012070BD207800F00200022807D16C
:1009E0005648406820F0F000A16808435349486029
:1009F000207800F0010000285DD06068012806D151
:100A00004E48006800F4003090B90120E2E76068C9
:100A1000022806D14948006800F0007040B9012062
:100A2000D8E74648006800F0020008B90120D1E785
:100A30004248406820F00300616808433F4948602D
:100A4000FFF7B2FE06466068012810D108E0FFF704
:100A5000ABFE801B41F28831884201D90320B9E7FF
:100A60003648406800F00C000428F0D123E06068AC
:100A7000022810D108E0FFF797FE801B41F2883171
:100A8000884201D90320A5E72C48406800F00C00FB
:100A90000828F0D10FE008E0FFF786FE801B41F246
:100AA0008831884201D9032094E72448406800F047
:100AB0000C000028F0D12048006800F00700A84290
:100AC0000ED91D48006820F0070028431A49086025
:100AD0000846006800F00700A84201D0012079E72D
:100AE000207800F00400042807D11448406820F45E
:100AF000E060E168084311494860207800F0080090
:100B0000082808D10D48406820F46050216940EA67
:100B1000C1000A49486000F03DF808494968C1F33E
:100B20000311074A515CC840064908600020FFF7DE
:100B300061FE00204EE7000000200240001002404D
:100B4000582000082000002001480068704700007D
:100B50002000002000B5FFF7F7FF04494968C1F302
:100B60000221034A515CC84000BD00000010024051
:100B70006820000800B5FFF7E7FF04494968C1F3A2
:100B8000C221034A515CC84000BD00000010024071
:100B900068200008F0B585B00FF26C0C9CE8E010FE
:100BA00001A8A0E8E0101CA52D68009500210022F6
:100BB000002300240020194D696801F00C05F5B1EF
:100BC000042D02D0082D19D101E0154819E001AD1E
:100BD000C1F38346AC5D01F4803555B10F4D6D68AE
:100BE000C5F340451DF805200D4D6543B5FBF2F3F7
:100BF00002E00C4D04FB05F3184602E000BF084874
:100C000000BF00BF05B0F0BD0203040506070809D8
:100C10000A0B0C0D0E0F1010010200000010024014
:100C200000127A0000093D00F8B50446002520783E
:100C300000F00100002878D0F848406800F00C006F
:100C400004280CD0F548406800F00C00082811D1A9
:100C5000F248406800F48030B0F5803F0AD1EF4898
:100C6000006800F4003000285FD0606800285CD184
:100C70000120F8BD00BF6068B0F5803F06D1E748AD
:100C8000006840F48030E549086028E0606858B9A1
:100C9000E248006820F48030E049086008460068B7
:100CA00020F4802008601AE06068B0F5A02F0BD116
:100CB000DA48006840F48020D84908600846006897
:100CC00040F4803008600AE0D448006820F48030A6
:100CD000D24908600846006820F48020086000BF00
:100CE000606888B1FFF760FD054606E0FFF75CFD30
:100CF000401B642801D90320BBE7C848006800F402
:100D000000300028F2D010E0FFF74EFD054606E067
:100D1000FFF74AFD401B642801D90320A9E7BF481B
:100D2000006800F400300028F2D1207800F00200C2
:100D3000022857D1B948406800F00C0050B1B748BC
:100D4000406800F00C00082818D1B448406800F44E
:100D5000803098B9B148006800F0020020B12069E5
:100D6000012801D0012084E7AC48006820F0F80099
:100D7000616940EAC100A949086033E02069E8B12F
:100D80000120A7490860FFF70FFD054606E0FFF7C1
:100D90000BFD401B022801D903206AE79F48006829
:100DA00000F002000028F2D09C48006820F0F80013
:100DB000616940EAC1009949086013E00020984940
:100DC0000860FFF7F1FC054606E0FFF7EDFC401B6D
:100DD000022801D903204CE79048006800F0020087
:100DE0000028F2D1207800F0080008282DD1A06951
:100DF000B8B101208B490860FFF7D6FC054606E034
:100E0000FFF7D2FC401B022801D9032031E78348B9
:100E1000406A00F002000028F2D0012000F0F4FB4C
:100E200013E000207F490860FFF7BEFC054606E09E
:100E3000FFF7BAFC401B022801D9032019E77748C5
:100E4000406A00F002000028F2D1207800F004008F
:100E5000042873D100267148C06900F0805070B931
:100E600000BF6E48C06940F080506C49C8610846B8
:100E7000C06900F08050009000BF00BF01266A48A2
:100E8000006800F48070B0B96748006840F4807072
:100E900065490860FFF788FC054606E0FFF784FC1B
:100EA000401B642801D90320E3E65F48006800F492
:100EB00080700028F2D000BFE068012806D15748B2
:100EC000006A40F001005549086227E0E06858B91F
:100ED0005248006A20F00100504908620846006A42
:100EE00020F00400086219E0E06805280BD14B48A7
:100EF000006A40F00400494908620846006A40F070
:100F0000010008620AE04548006A20F001004349F8
:100F100008620846006A20F00400086200BFE0682A
:100F2000A0B1FFF741FC054609E0FFF73DFC401B7F
:100F300041F28831884202D903209AE622E03748FC
:100F4000006A00F002000028EFD012E0FFF72CFC4E
:100F5000054608E0FFF728FC401B41F28831884233
:100F600001D9032085E62D48006A00F00200002820
:100F7000F0D1012E05D12948C06920F080502749C1
:100F8000C86100BFE069C8B32448406800F00C00A5
:100F9000082860D0E069022848D10020204908666E
:100FA000FFF702FC054606E0FFF7FEFB401B0228A8
:100FB00001D903205DE61948006800F000700028A0
:100FC000F2D1206AB0F5803F07D11448406820F480
:100FD0000030A168084311494860D4E9080108437A
:100FE0000E49496821F4741108430C4948600120F6
:100FF0000B490866FFF7D8FB054607E02DE0FFF731
:10100000D3FB401B022801D9032032E603480068C5
:1010100000F000700028F2D01FE000000010024035
:1010200000004242800442420070004000200C490F
:101030000866FFF7B9FB054606E0FFF7B5FB401B66
:10104000022801D9032014E60648006800F0007069
:101050000028F2D101E001200BE6002009E60000A3
:101060000000424200100240042808D14FF0E02165
:10107000096941F004014FF0E022116107E04FF0EF
:10108000E021096921F004014FF0E022116170476D
:10109000704770B504462546681EB0F1807F01D3C5
:1010A00001200FE0681E4FF0E02148610F214FF052
:1010B000FF3000F05DFA00204FF0E021886107204A
:1010C0000861002070BD10B5FFF7E2FF10BD70474A
:1010D0002DE9F0470446206805682068C668206846
:1010E00047694FF00008C14605F00F08B8F1000F3E
:1010F0000AD105F0200038B106F0200020B12046CA
:1011000000F0B8FCBDE8F087B8F1000F6DD007F033
:10111000010018B906F49070002866D005F00100AF
:1011200030B106F4807018B1E06B40F00100E0636C
:1011300005F0040030B107F0010018B1E06B40F099
:101140000200E06305F0020030B107F0010018B1C1
:10115000E06B40F00400E06305F0080030B107F0F8
:10116000010018B1E06B40F00800E063E06B68B389
:1011700005F0200028B106F0200010B1204600F054
:1011800079FC20684069C0F38019E06B00F008002A
:1011900010B9B9F1000F22D0204600F04BFC2068B6
:1011A000406900F04000B0B12068406920F0400084
:1011B00021684861606B50B11748616B4863606B90
:1011C000FFF770F810B1606B416B88470CE0204668
:1011D000FFF77DFF08E02046FFF779FF04E0204697
:1011E000FFF775FF0020E0638CE705F0800030B169
:1011F00006F0800018B1204600F074FD82E705F08B
:10120000400030B106F0400018B1204600F022FC4A
:1012100078E700BF76E70000211A000810B5044601
:101220000CB9012010BDA06900B100E000BF94F826
:10123000390028B9002084F83800204600F028F84A
:10124000242084F839002068C06820F40050216808
:10125000C860204600F062FC2068006920F49040DD
:10126000216808612068406920F02A0021684861EF
:101270002068C06840F400502168C8600020E06326
:10128000202084F8390084F83A000020CAE70000E2
:1012900010B586B0044618492068884229D100BF9D
:1012A0001648806940F48040144988610846806986
:1012B00000F48040019000BF00BF4815029002205A
:1012C00003900320059002A90D48FFF7BFF84FF4E3
:1012D0008060029000200390049002A90848FFF764
:1012E000B5F8002211462520FFF709FB2520FFF75E
:1012F000F9FA06B010BD00000038014000100240AD
:101300000008014010B5034693F83A0020282FD179
:1013100001B10AB9012010BD00BF93F838000128BF
:1013200001D10220F7E7012083F8380000BF99625D
:101330009A85DA850020D863222083F83A0000BF1E
:10134000002083F8380000BF1868C06840F480703F
:101350001C68E0601868406940F001001C6860612A
:101360001868C06840F020001C68E0600020D2E7E8
:101370000220D0E770472DE9F84304460D46164693
:101380001F464FF0000994F8390020285CD105B1C0
:1013900016B90120BDE8F88300BF94F83800012891
:1013A00001D10220F6E7012084F8380000BF0020B8
:1013B000E063212084F83900FFF7F6F98146A6841E
:1013C000E6842BE0E08C401EE084A068B0F5805FEE
:1013D00016D14B46002280212046009700F0B6FC33
:1013E00008B10320D6E7A846B8F80000C0F308000B
:1013F00021684860206908B9AD1C0FE06D1C0DE044
:101400004B46002280212046009700F09FFC08B147
:101410000320BFE715F8010B21684860E08C002825
:10142000D0D14B46002240212046009700F08EFC90
:1014300008B10320AEE7202084F8390000BF002067
:1014400084F8380000BFA5E70220A3E7704700BF7B
:10145000FEE7000000B585B000BF2948806940F074
:101460001000274988610846806900F0100000904C
:1014700000BF00BF00BF0846806940F020008861BF
:101480000846806900F02000009000BF00BF00BF48
:101490000846806940F0080088610846806900F0CD
:1014A0000800009000BF00BF00BF0846806940F000
:1014B000040088610846806900F00400009000BFC5
:1014C00000BF012242F20D410E48FFF767F942F2D8
:1014D0000D40019001200290002003900220049012
:1014E00001A90848FEF7B2FF4FF47C4001900020AC
:1014F0000290039001A90448FEF7A8FF05B000BDC3
:101500000010024000100140000C014010B50C48D2
:101510000C4908604FF4E1304860002109488160BF
:10152000C16001610C21416100218161C161FFF74E
:1015300075FE20B14FF4FA7103A000F0C1FC10BD9C
:1015400000380140240000202E2E2F5372632F6D8F
:1015500061696E2E6300000000BFFEE77047000067
:1015600002480068C0F30220704700000CED00E064
:1015700010B5002807DA0A07140E054A00F00F0319
:101580001B1FD45403E00A07130E024A135410BD64
:1015900018ED00E000E400E02DE9F04106460F46BA
:1015A00015465A2014490870A5204870032000EB06
:1015B000450088708220C870300A08714E7100247E
:1015C0000EE00020062101EB44010B4A5054E019C3
:1015D0000A49085C072101EB44015054601CC4B265
:1015E000AC42EEDB062000EB45020A230249044828
:1015F000FFF7C1FEBDE8F081AA00002064000020D2
:10160000240000207047000008B508490968C9088F
:101610004FF47A72B1FBF2F14143009100BF00BF79
:1016200000994A1E00920029F9D108BD200000202F
:1016300070B504460D465A2009490870A520487027
:10164000042088708320C870200A08714C710846F5
:101650008571142307220348FFF78DFE70BD00003B
:10166000AA000020240000207CB505464FF48061CC
:10167000A448FFF78BF8002834D1962000F031FC05
:101680004FF480619F48FFF781F8F8B99E480078D1
:1016900060B9012000210B460A46CDE900108220E6
:1016A00000F0E4FB0120984908700FE096480078AC
:1016B00001280BD100210B460A46CDE90010642118
:1016C000822000F0D3FB00208F490870002404E042
:1016D00000208E490855601CC4B2322CF8DB002073
:1016E0008B4908704FF400618648FFF74FF818BB2C
:1016F000962000F0F6FB4FF400618248FFF746F8B1
:1017000070B984480078401C824908700846007807
:10171000814908700122002141F21010FFF73CFFBF
:10172000002404E0002079490855601CC4B2322C22
:10173000F8DB0020764908704FF480517148FFF7BC
:1017400025F818BB962000F0CCFB4FF480516D4873
:10175000FFF71CF870B96F480078401E6D4908709B
:10176000084600786C4908700122002141F21010EF
:10177000FFF712FF002404E0002064490855601CB4
:10178000C4B2322CF8DB0020614908704FF40051DC
:101790005C48FEF7FBFF98BB962000F0A2FB4FF4DD
:1017A00000515848FEF7F2FFF0B95C48008860B974
:1017B000012000210B460E22CDE90010A02000F0F0
:1017C00055FB0120554908800EE054480088012847
:1017D0000AD100210B460A46CDE90010A02000F0F6
:1017E00045FB00204D490880002404E000204749C3
:1017F0000855601CC4B2322CF8DB00204449087044
:101800004FF480413F48FEF7C1FF70BB962000F0C7
:1018100068FB4FF480413B48FEF7B8FF18BB4048D7
:101820000078FA281FDA3E4800780A303C490870F0
:10183000022000210B460A46CDE900103848017805
:10184000A12000F013FB322000F04BFB344800785D
:10185000314908700122002141F21020FFF79CFE5F
:10186000322000F03EFB002405E009E0002027497B
:101870000855601CC4B2322CF8DB002024490870E3
:101880004FF400411F48FEF781FF70BB962000F027
:1018900028FB4FF400411B48FEF778FF18BB204897
:1018A00000780A281FDB1E4800780A381C49087097
:1018B000022000210B460A46CDE9001018480178A5
:1018C000A12000F0D3FA322000F00BFB144800787E
:1018D000114908700122002141F21020FFF75CFE3F
:1018E000322000F0FEFA002405E009E0002007495C
:1018F0000855601CC4B2322CF8DB00200449087083
:101900007CBD0000000C0140080000207800002091
:10191000000000200E0000206400002010000020C5
:101920000F000020704710B5FEF744FFFFF7CBFB18
:1019300010BD000010B590B0012006900004079083
:101940000020089001200A9002200D90C1030E9102
:101950004FF4E0110F9106A8FFF766F920B140F2AD
:10196000C91115A000F0ACFA0F20019002200290DE
:10197000002003904FF48060049000200590022125
:1019800001A8FFF70FF820B140F2D7110AA000F02C
:1019900097FAFFF7D9F84FF47A71B0FBF1F42046CB
:1019A000FFF777FB0420FFF75FFB00221146501E74
:1019B000FEF7A5FF10B010BD2E2E2F5372632F6DB2
:1019C00061696E2E630000001148006840F001005C
:1019D0000F490860084640680E4908400C494860B5
:1019E000084600680C490840094908600846006834
:1019F00020F4802008600846406820F4FE0048601B
:101A00004FF41F008860C803044908607047000055
:101A1000001002400000FFF8FFFFF6FE08ED00E0B6
:101A200070B505466C6A0020E085E0842046FFF72B
:101A30004EFB70BD0168C96821F490710268D160E5
:101A40000168496921F0010102685161202180F893
:101A50003A10704710B504462068C06820F0400076
:101A60002168C860202084F839002046FFF7EEFC8A
:101A7000002010BD70B5044694F83A0022284AD1DF
:101A8000A068B0F5805F13D1A56A206940B92068CD
:101A90004068C0F308002880A06A801CA06219E09A
:101AA00020684068C0B22880A06A401CA06211E093
:101AB000206938B920684068C1B2A26A501CA0628F
:101AC000117007E02068406800F07F01A26A501C96
:101AD000A0621170E08D401E80B2E085C8B9206818
:101AE000C06820F020002168C8602068C06820F429
:101AF00080702168C8602068406920F0010021687A
:101B00004861202084F83A002046FFF733FC00208B
:101B100070BD0020FCE70220FAE700002DE9F0414B
:101B2000044600252068006920F44050E16808431D
:101B3000216808612169A068084361690843054379
:101B40002068C06841F20C61884328432168C8605E
:101B50002068406920F44070A16908432168486109
:101B60005F49206888425CD1FFF704F800EBC001B0
:101B700001EB001061688900B0FBF1F6FEF7FAFF97
:101B800000EBC00101EB001061688900B0FBF1F0CF
:101B90006421B0FBF1F000EBC00101EB0010A6EBFB
:101BA0008000322101EB00106421B0FBF1F000F065
:101BB000F006FEF7DFFF00EBC00101EB00106168EB
:101BC0008900B0FBF1F06421B0FBF1F006EB0016E8
:101BD000FEF7D0FF00EBC00101EB00106168890047
:101BE000B0FBF1F7FEF7C6FF00EBC00101EB001000
:101BF00061688900B0FBF1F06421B0FBF1F000EB0B
:101C0000C00101EB0010A7EB8000322101EB0010B6
:101C10006421B0FBF1F000F00F00304421688860CF
:101C20005BE0FEF797FF00EBC00101EB001061687D
:101C30008900B0FBF1F6FEF78DFF00EBC00101EB70
:101C4000001061688900B0FBF1F06421B0FBF1F095
:101C500000EBC00101EB0010A6EB8000322101EB8C
:101C600000106421B0FBF1F000F0F006FEF772FF07
:101C700000EBC00101EB001061688900B0FBF1F0DE
:101C80006421B0FBF1F006EB0016FEF763FF00EBFA
:101C9000C00101EB001061688900B0FBF1F7FEF7AD
:101CA00059FF00EBC00101EB001061688900B0FB37
:101CB000F1F06421B0FBF1F000EBC00101EB00108A
:101CC000A7EB8000322101EB00106421B0FBF1F0A2
:101CD00000F00F00304421688860BDE8F08100000A
:101CE00000380140014691F8390021282CD188683C
:101CF000B0F5805F0FD10A6A1088C0F308000B6846
:101D00005860086918B9086A801C086209E0086A06
:101D1000401C086205E00B6A581C086218780B68C2
:101D20005860C88C401E80B2C88458B90868C06822
:101D300020F080000B68D8600868C06840F0400060
:101D40000B68D860002070470220FCE72DE9F041C5
:101D500004460D4617469846069E21E0701CF8B1D1
:101D60002EB1FEF721FDA0EB0800B04218D9206883
:101D7000C06820F4D0702168C8602068406920F0F5
:101D8000010021684861202084F8390084F83A0075
:101D900000BF002084F8380000BF0320BDE8F081B8
:101DA000206800682840A84201D1012000E00020FE
:101DB000B842D3D00020F1E710B52648FFF788F9E4
:101DC000254800785A282AD123484078A52826D1CA
:101DD0002148807818B321480078032811DB1E4879
:101DE0008078C01C1D49097888420ADD1C480078AB
:101DF00019491A4A1278885418480078401C174923
:101E0000087016480078032809DB13488078C01C46
:101E100012490978884202DC0120124908700F48F3
:101E2000007803280ADA0E4801780B480B4A12782A
:101E300081540A480078401C084908700948007815
:101E400010B1002005490870012205490148FFF73B
:101E500059FA10BD24000020780000200000002066
:101E6000010000200200002000BFFEE72DE9F0473E
:101E700005460E4617469846DDE908945A200E4955
:101E80000870A5204870032000EB44008870822071
:101E9000C870280A08714D7108468671C77180F8AC
:101EA000088080F80990062000EB440214230348C0
:101EB000FFF761FABDE8F087AA00002024000020A7
:101EC00000BFFEE702E008C8121F08C1002AFAD1CD
:101ED00070477047002001E001C1121F002AFBD1AA
:101EE0007047002109E0002201E0531C9AB242F23F
:101EF00010739A42F9DB4B1C99B28142F3DB7047B5
:101F00001CB5FEF763FCFFF715FDFFF7A3FAFFF71B
:101F1000FDFA8CE0012246494648FFF7F3F94648AE
:101F2000007800283FD101204349087043480078D9
:101F3000434908700122002141F21010FFF72CFBE9
:101F40006420FFF7CEFF3F4800783D49087001222A
:101F5000002141F21020FFF71FFB6420FFF7C1FFB3
:101F6000022000210B460A46CDE9001035480178D1
:101F7000A120FFF77BFF6420FFF7B3FF002404E0FC
:101F800000202F490855601CC4B2052CF8DB002442
:101F900004E000202C490855601CC4B2142CF8DB66
:101FA00000202A4908702A48008801281BD10121F5
:101FB000A120FFF73DFB6420FFF793FF2348007843
:101FC00088B12148007A70B9002021490880002496
:101FD00004E000201C490855601CC4B2322CF8DB18
:101FE00000201C4908700020FFF73EFB17480078CE
:101FF000E8B10020154908700120FEF7C9F8022059
:10200000FEF7C6F80320FEF7C3F80420FEF7C0F879
:102010000520FEF7BDF8002404E000200A49085519
:10202000601CC4B2322CF8DB00200A49087071E74A
:102030000100002024000020130000200E000020DA
:10204000640000200F000020780000200200002023
:102050001000002000000020000000000000000030
:10206000010203040607080900000000010203043E
:10207000902000080000002024000000C41E00087A
:10208000B420000824000020BC040000D41E000876
:1020900000000000000000000000000000001932F5
:1020A000000000000000000010000000010000001F
:0420B00000A24A043C
:0400000508000131BD
:00000001FF
