:020000040800F2
:10000000D807002089010008BB060008ED0400089D
:10001000B706000831020008DB18000800000000E5
:10002000000000000000000000000000491400086B
:10003000BD020008000000005F100008091600085B
:10004000A3010008A3010008A3010008A301000800
:10005000A3010008A3010008A3010008A3010008F0
:10006000A3010008A3010008A3010008A3010008E0
:10007000A3010008A3010008A3010008A3010008D0
:10008000A3010008A3010008A3010008A3010008C0
:10009000A3010008A3010008A3010008A3010008B0
:1000A000A3010008A3010008A3010008A3010008A0
:1000B0006D160008A3010008A3010008A3010008B1
:1000C000A3010008A3010008A3010008A301000880
:1000D000A3010008F5170008A3010008A301000808
:1000E000A3010008A3010008A301000800F002F822
:1000F00000F03AF80AA090E8000C82448344AAF188
:100100000107DA4501D100F02FF8AFF2090EBAE885
:100110000F0013F0010F18BFFB1A43F0010318473B
:10012000AC250000CC250000103A24BF78C878C167
:10013000FAD8520724BF30C830C144BF04680C60ED
:10014000704700000023002400250026103A28BF35
:1001500078C1FBD8520728BF30C148BF0B60704739
:100160001FB51FBD10B510BD00F033F81146FFF7E5
:10017000F7FF01F073FC00F051F803B4FFF7F2FF52
:1001800003BC01F0F9FB000009488047094800471B
:10019000FEE7FEE7FEE7FEE7FEE7FEE7FEE7FEE737
:1001A000FEE7FEE704480549054A064B7047000094
:1001B0000D160008ED000008D8010020D807002027
:1001C000D8030020D803002070477047704770475D
:1001D0007047754600F028F8AE460500694653465C
:1001E00020F00700854618B020B5FFF7DBFFBDE81B
:1001F00020404FF000064FF000074FF000084FF08E
:10020000000B21F00701AC46ACE8C009ACE8C0091E
:10021000ACE8C009ACE8C0098D4670470446AFF3AE
:1002200000802046FFF7A9FF0048704774010020B6
:1002300000BFFEE72DE9F041074688461546042138
:10024000052000F02DF80021012001F049FB80215C
:100250000A2001F0FAF8002405E0395D092001F0D8
:100260003FFB601CC4B24445F7DB0321012001F0D1
:1002700037FBFF2400BF052001F004F80646601E8E
:10028000C4B21CB106F004000028F4D0222000F013
:10029000F9FF2870212000F0F5FF6870BDE8F081BB
:1002A00070B505460C460026284600F0EBFF0646D2
:1002B00026EA0401284601F013FB70BD70470000D8
:1002C0003948007839490978884215D1364840784C
:1002D0003649497888420FD1334880783349897844
:1002E000884209D13048C0783049C978884203D162
:1002F00001202F49087056E02B4800782D490978D5
:10030000884215D1284840782A49497888420FD137
:100310002548807827498978884209D12248C078C1
:100320002449C978884203D10220214908703AE063
:100330001D48007820490978884215D11A4840782C
:100340001D49497888420FD1174880781A49897821
:10035000884209D11448C0781749C978884203D126
:100360000320134908701EE00F48007813490978EC
:10037000884215D10C4840781049497888420FD1FD
:10038000094880780D498978884209D10648C078A3
:100390000A49C978884203D104200549087002E05F
:1003A0000020034908707047220000202C00002024
:1003B00050000020300000203400002038000020D1
:1003C0002DE9F041024600250026002000230024EC
:1003D000002791F803C00CF00F0591F803C00CF052
:1003E000100CBCF1000F03D091F802C04CEA0505D7
:1003F00091F800C0BCF1000F31D0146800202BE050
:100400004FF0010C0CFA00F3B1F800C00CEA03063F
:100410009E4220D183004FF00F0C0CFA03F7BC432F
:1004200005FA03FC4CEA040491F803C0BCF1280F60
:1004300006D14FF0010C0CFA00FCC2F814C00AE01F
:1004400091F803C0BCF1480F05D14FF0010C0CFA34
:1004500000FCC2F810C0401C0828D1D31460B1F8C9
:1004600000C0BCF1FF0F34DD546800202EE000F125
:10047000080C4FF0010808FA0CF3B1F800C00CEAC0
:1004800003069E4221D183004FF00F0C0CFA03F7B4
:10049000BC4305FA03FC4CEA040491F803C0BCF128
:1004A000280F05D100F1080C08FA0CF8C2F81480E6
:1004B00091F803C0BCF1480F07D100F1080C4FF0D0
:1004C000010808FA0CF8C2F81080401C0828CED3A6
:1004D0005460BDE8F0810246002093680B400BB1E8
:1004E000012000E0002070470161704700BFFEE777
:1004F00010B50120074908600749C1F8B80101F0AB
:1005000087FA00200349091F08600349C1F8BC01AC
:1005100010BD0000BC0122420000224210B50020A4
:10052000074908600749C1F8B801012001F070FAD5
:100530000120034908600349C1F8B80110BD00005B
:10054000BC0122420000224208B501210C2000F02B
:10055000A3FD3020ADF8000048208DF80300694667
:100560000A48FFF72DFF10210848FFF7BDFF2021A3
:100570000648FFF7B9FF0120ADF8000028208DF8EC
:10058000030069460248FFF71BFF08BD000C01404D
:100590000008014010B5044614B101201E4908703E
:1005A0001D48007828B31D48006848B101211C4847
:1005B000FFF791FF012803D01848001D0068C0B95B
:1005C000322001F0FFF90020134908701348006839
:1005D00008B9012010BD1148001D006808B90320AA
:1005E000F8E701210E48FFF776FF012811D102201C
:1005F000F0E70A48006801280BD101210848FFF7FD
:100600006AFF30B90548001D0068012801D1024980
:1006100008700020DEE700001E000020108121424B
:100620000008014008B50121102000F035FD102020
:100630008DF803004002ADF8000003208DF80200A1
:1006400069460448FFF7BCFE4FF400510148FFF72C
:100650004BFF08BD0010014010B50446412C26D1C7
:1006600008210846FFF71CFE3D21112001F038F952
:100670008621172001F034F97F21262001F030F97E
:100680001E212D2001F02CF900212C2001F028F949
:100690008D212A2001F024F93E212B2001F020F9A0
:1006A0004FF47A7001F0B4F900F03CFA01E0012057
:1006B00010BD0020FCE700BFFEE7704770B50021C9
:1006C00000230F22C47804B3154C246804F4E064BA
:1006D000C4F5E064210AC1F10403CA40447804FA75
:1006E00003F184781440214309010E4C0678A1558A
:1006F000047804F01F050124AC4005786D11AD00AD
:1007000005F1E025C5F8004109E0047804F01F0573
:100710000124AC40044D0678761145F8264070BDA2
:100720000CED00E000E400E080E100E0024901435C
:10073000024A1160704700000000FA050CED00E06D
:1007400010B50A4A0021232000F0DAF8074A0221F6
:100750002D2000F0D5F8054A04212D2000F0D0F816
:10076000024A0621102000F0CBF810BD7F000020C7
:1007700010B50AA20021084600F0C2F809A2022121
:10078000002000F0BDF809A20421002000F0B8F814
:1007900008A20621002000F0B3F810BD5469703A99
:1007A00000000000547970653A0000005246494448
:1007B0003A000000243A202020202020202024007D
:1007C00070B50646002415E004F1B001C8B200F08F
:1007D00083F9012000F080F9102000F07DF9002558
:1007E00004E0304600F088F9681CC5B2802DF8DBC3
:1007F000601CC4B2082CE7DB70BD000008B5012105
:10080000102000F049FC4FF44040ADF800001020EB
:100810008DF8030003208DF8020069460448FFF7B5
:10082000CFFD0120034908600349C1F8BC0108BDA0
:1008300000100140B80122420000224210B54FF4DE
:10084000FA7001F0BFF8AE2000F046F9002000F089
:1008500043F9102000F040F9402000F03DF98120DC
:1008600000F03AF9CF2000F037F9A12000F034F978
:10087000C82000F031F9A62000F02EF9A82000F0E1
:100880002BF93F2000F028F9D32000F025F90020B3
:1008900000F022F9D52000F01FF9802000F01CF9AB
:1008A000D92000F019F9F12000F016F9DA2000F053
:1008B00013F9122000F010F9DB2000F00DF94020B0
:1008C00000F00AF9202000F007F9022000F004F9F6
:1008D0008D2000F001F9142000F0FEF8A42000F0B3
:1008E000FBF8A62000F0F8F8AF2000F0F5F80020A3
:1008F000FFF766FF0021084600F046F810BD000033
:100900002DE9F04706460F46904600250024A146F3
:1009100031E018F809002038C5B2782E02DD002633
:10092000781CC7B23946304600F02EF8002407E0A4
:1009300004EB0511134A505C00F0DEF8601CC4B2F1
:10094000082CF5DB781CC1B2304600F01DF80024FD
:1009500008E004EB051108310A4A505C00F0CCF8BD
:10096000601CC4B2082CF4DB06F10800C6B209F121
:10097000010000F0FF0918F809000028C9D1BDE8FE
:10098000F0870000DA20000870B504460D4605F136
:10099000B001C8B200F0A0F8102141EA141000F034
:1009A0009BF804F00F0141F0010000F095F870BDD4
:1009B0002DE9F04780460E4691461F46002500244B
:1009C000A9F12000C5B2B8F17F0F02DDA046B01C2E
:1009D000C6B2102F22D131464046FFF7D5FF002482
:1009E00007E004EB0511184A505C00F085F8601C24
:1009F000C4B2082CF5DB701CC1B24046FFF7C4FF3F
:100A0000002408E004EB051108310F4A505C00F0A7
:100A100073F8601CC4B2082CF4DB13E0082F11D16A
:100A200031464046FFF7B0FF002409E005EB4501E1
:100A3000064A02EB4101085D00F05EF8601CC4B29A
:100A4000062CF3DBBDE8F087DA200008B21E0008B0
:100A50002DE9FF5F074691461E460E9D4FF0000AA6
:100A6000002435E0301B401EC1B20A2001F016F808
:100A7000B9FBF0F00A21B0FBF1F201FB1208BAF168
:100A8000000F14D1701EA04211DDB8F1000F0CD17F
:100A9000AB4605EBDB71491001FB0471C8B22B4674
:100AA00030220199FFF784FF10E04FF0010AAB46B6
:100AB00005EBDB71491001FB0471C8B208F130018C
:100AC000CAB22B460199FFF773FF00BF601CC4B286
:100AD000B442C7DBBDE8FF9F10B50446FFF708FD31
:100AE000782000F019FF002000F016FF204600F0EB
:100AF00013FFFFF713FD10BD10B50446FFF7F8FC18
:100B0000782000F009FF402000F006FF204600F0AA
:100B100003FFFFF703FD10BD10B503211420FFF7FD
:100B2000BFFB10BD10B5142000F0ACFB044604F070
:100B3000030018B90321142000F087FC10BDF0B5A4
:100B400087B00546002708210846FFF7A9FB0021CA
:100B50000D2000F0C5FE80210E20FFF7A1FB9320A1
:100B60008DF8040020208DF8050006A801AB0222B4
:100B700001A900900C2000F045F8064686B9002433
:100B800007E001A8005D285501A8005D4740601CF2
:100B9000C4B2042CF5DB01A8005DB84200D00226E7
:100BA00080210E2000F051FC304607B0F0BD2DE949
:100BB000F04188B004460D4616461F468DF80840A1
:100BC0008DF809503068CDF80A00B088ADF80E00F5
:100BD0003868049007A802AB0C2202A900900E20EE
:100BE00000F010F88046B8F1000F05D1082000F0A1
:100BF00049FB00F0080008B94FF00208404608B071
:100C0000BDE8F0812DE9FE4F0646884691469A469A
:100C1000DDF830B0022002900020019000900C2EF0
:100C200006D00E2E09D1122001901020009005E070
:100C3000772001903020009000E000BF00BF0198B5
:100C400040F08001022000F04BFE80210420FFF7DD
:100C500027FB0021012000F043FE80210A2000F044
:100C6000F4FB002505E018F80510092000F038FE17
:100C70006D1C4D45F7DB3146012000F031FE0C2E96
:100C800003D180210D2000F0E0FB2C4D00BF04209B
:100C900000F0F8FA04466D1E35B104F0010018B9F1
:100CA000009820400028F2D080210D20FFF7F8FAAC
:100CB000002D37D0062000F0E5FA00F01B0070BBD5
:100CC000002002900198204000F0010008B10120AE
:100CD00002900C2E26D10A2000F0D4FA04460C20F3
:100CE00000F0D0FA00F007072FB1601E07EBC0003C
:100CF0008BF8000003E0E006000E8BF8000004B95A
:100D00000124122C00DD1224002505E0092000F04A
:100D1000B9FA0AF805006D1CA542F7DB02E0FFE70F
:100D20000220029080210C2000F08FFB0021012086
:100D300000F0D6FD0298BDE8FE8F0000A0860100FD
:100D400010B588B050208DF8080000208DF80900FB
:100D50000DF10A02022102A8FFF76CFA07A802AB04
:100D6000042202A900900C20FFF74CFF044600204B
:100D700008B010BDF0B587B005460E4630208DF89E
:100D800004008DF805500DF10602022101A8FFF7BD
:100D900051FA06A801AB042201A900900C20FFF72C
:100DA00031FF07466FB99DF81800902809D100243B
:100DB00004E001A8005D3055601CC4B2102CF8DBC3
:100DC00000E00227384607B0F0BD70B588B0054690
:100DD0000C4608210846FFF763FA07210D2000F0B2
:100DE0007FFD0321142000F030FB8DF8085007A888
:100DF00002AB012202A900900C20FFF703FF064678
:100E000056B99DF81C00102806D19DF808002070E6
:100E10009DF80900607000E00226304608B070BD01
:100E200010B501201A49086000F0F2FD00201949B0
:100E3000C1F88001012000F0EBFD01201449086099
:100E400000F0E6FD0F21012000F04AFD0F210120F6
:100E500000F046FD012000F0DBFD3D21112000F0F7
:100E60003FFD1E212D2000F03BFD00212C2000F035
:100E700037FD8D212A2000F033FD3E212B2000F08C
:100E80002FFD4021152000F02BFD002010BD00009B
:100E9000808121420080214270B588B005469320B0
:100EA0008DF8080070208DF8090000208DF80E00E4
:100EB00000240BE0295D02AAA01C11549DF80E002D
:100EC000295D48408DF80E00601CC4B2042CF1DB93
:100ED0000DF10F02072102A8FFF7ACF9082108461F
:100EE000FFF7DEF907A802AB092202A900900C2047
:100EF000FFF788FE06462EB99DF81C00182801D180
:100F0000002600E00226304608B070BDF0B587B07C
:100F100006460D4617468DF804608DF805500DF114
:100F20000602022101A8FFF785F906A801AB0422F9
:100F300001A900900C20FFF765FE04464CB99DF80E
:100F40001800042805D19DF8040000F00F000A28BD
:100F500000D00224A4B93868019002AA042101A893
:100F6000FFF768F90020069006A801AB062201A948
:100F700000900C20FFF746FE0446022C00D000240F
:100F8000FCB9B0208DF804008DF805500DF1060273
:100F9000022101A8FFF74EF906A801AB042201A91E
:100FA00000900C20FFF72EFE04464CB99DF8180067
:100FB000042805D19DF8040000F00F000A2800D095
:100FC0000224204607B0F0BDF0B587B006460F46B4
:100FD000A0208DF804008DF805600DF106020221B5
:100FE00001A8FFF727F906A801AB042201A9009088
:100FF0000C20FFF707FE05464DB99DF818000428A0
:1010000005D19DF8040000F00F000A2800D0022549
:1010100015BB002404E0385D01A90855601CC4B26A
:10102000102CF8DB05AA102101A8FFF703F906A888
:1010300001AB122201A900900C20FFF7E3FD054649
:101040004DB99DF81800042805D19DF8040000F062
:101050000F000A2800D00225284607B0F0BD7047CF
:1010600010B500F033F900F029F94120FFF7F4FA48
:10107000FFF766FE10BD000029B1064AD26902439F
:10108000044BDA6104E0034AD2698243014BDA611E
:10109000704700000010024029B1064A92690243DD
:1010A000044B9A6104E0034A92698243014B9A61BE
:1010B00070470000001002401CB504460020FFF7F6
:1010C00069FA0190002C00DC1CBD5D495220FFF73D
:1010D0007CFE5C4908700846007800287ED15A489A
:1010E000FFF72DFD5749087008460078002833D1D6
:1010F0005548FFF7D1FE534908700846007800288C
:10110000F5D1FFF7DDF800F04FFA00F021FAA00664
:10111000010E4D4B4D4A6020FFF749FD49490870CB
:10112000084600780028E2D1494908709DF804007B
:10113000012818D143480078A8B9A106080E4549EE
:10114000FFF742FF3F4908700846007828B9424A35
:1011500000212320FFF7D4FB6FE0404A0021232029
:10116000FFF7CEFB69E037480078002865D13C489E
:101170000078002861D0A006010E3A4AC020FFF78F
:10118000C5FE304908700020354908702D480078A8
:10119000002852D1A106080E3349FFF7EBFD29497B
:1011A00008700846007800BB2F48007800062E49DA
:1011B000497840EA01402C49897840EA01202A49CF
:1011C000C978084329490860102006230090084682
:1011D000194602681020FFF73BFC00E00BE0244AB0
:1011E00006214020FFF78CFB27E0224A06212D2014
:1011F000FFF786FB21E016480078401C1449087070
:101200000846007803280AD101201B490860FFF72F
:1012100097FA00200E49087001201149087000203B
:1012200016490870401E16490860FFF7F9FDFFF7E0
:1012300073FCFFF777FCFFF783FD00BF44E7000076
:10124000200000208C00002022000020260000202A
:10125000980000203C000020630000206C0000206B
:10126000990000204C000020640100209400002020
:101270008A00002051000020B40122429A00002080
:101280009000002070B5044600260020094908603F
:101290007E2000EA440040F08005284600F072F805
:1012A000002000F06FF8064601200349C1F8B001A4
:1012B000304670BDB08121420080214210B5FFF759
:1012C000AFFDFFF729FCFFF72DFC10BD00B587B07F
:1012D00001210820FFF7E0FE01218803FFF7CCFE83
:1012E00041F20100ADF8180010208DF81B0003201A
:1012F0008DF81A0006A92048FFF762F84FF4604005
:10130000ADF8180018208DF81B0003208DF81A0086
:1013100006A91948FFF754F84FF460411648FFF743
:10132000E3F80020ADF804004FF48270ADF8060039
:101330000020ADF80800ADF80A00ADF80C004FF43D
:101340000070ADF80E001020ADF810000020ADF8D0
:1013500012000720ADF8140001A9084800F056F863
:101360000121064800F038F8FF2000F00BF80120BA
:101370000349086007B000BD000C01400038004080
:10138000B081214270B50546002405E0601CC4B25E
:10139000C82C01DD002070BD02210E4800F028F8A5
:1013A0000028F3D029460B4800F02EF8002405E071
:1013B000601CC4B2C82C01DD0020ECE70121054807
:1013C00000F016F80028F3D0024800F01AF8C0B276
:1013D000E1E700000038004021B1028842F04002FD
:1013E000028004E002884FF6BF731A400280704703
:1013F0000246002013890B400BB1012000E00020C1
:1014000070470146888970478181704710B5002276
:10141000028802F441520B884C8823438C88234372
:10142000CC8823430C8923434C8923438C89234351
:10143000CC8923431A430280838B4FF2FF742340ED
:1014400083830B8A038210BD704770B505460C4636
:1014500000262846FFF716FF064646EA04012846FE
:1014600000F03EFA70BD10B500F002F810BD0000AB
:101470000CB50020019000903348006840F48030A3
:101480003149086000BF3048006800F40030009027
:101490000198401C0190009818B90198B0F5A06F10
:1014A000F1D12948006800F4003010B1012000900B
:1014B00001E0002000900098012843D123480068F3
:1014C00040F01000214908600846006820F0030041
:1014D00008600846006840F0020008601A4840684A
:1014E000194948600846406848600846406840F42A
:1014F000806048600846406820F47C1048600846D8
:10150000406840F4E81048600846006840F0807089
:10151000086000BF0C48006800F000700028F9D097
:101520000948406820F003000749486008464068C1
:1015300040F00200486000BF0348406800F00C0023
:101540000828F9D10CBD0000001002400020024024
:1015500008B51148007818B901201049087004E056
:1015600000200E4908700E4908600E4800680A49BC
:1015700091F90010884209D01020032300900648FA
:1015800090F9002004212D20FFF762FA024890F91B
:1015900000000449086008BD500000209A000020A7
:1015A000B40122429000002010B50A4800780428B7
:1015B00005D1094A02212D20FFF7A2F908E00548CC
:1015C0000078022804D1054A02212D20FFF798F95E
:1015D00010BD000020000020770000207B000020CC
:1015E000042808D14FF0E021096941F004014FF0CF
:1015F000E022116107E04FF0E021096921F00401C8
:101600004FF0E022116170477047000010B5134899
:10161000006840F001001149086008464068104920
:1016200008400E494860084600680E4908400B49CA
:1016300008600846006820F480200860084640687A
:1016400020F4FE0048604FF41F008860FFF70BFF96
:101650004FF000600449086010BD00000010024017
:101660000000FFF8FFFFF6FE08ED00E010B50121D5
:10167000880700F052F870B10748007838B1074881
:10168000006808B9012000E0002004490860012139
:10169000880700F033F810BD9A000020B401224200
:1016A0007FB505460C4601210846FFF7E5FC002002
:1016B000ADF80A00ADF80600ADF80850ADF80440EA
:1016C00001A94FF0804000F043F801221146900735
:1016D00000F034F81C208DF8000001208DF8030084
:1016E00000208DF8010003208DF802006846FEF707
:1016F000E5FF0121880700F004F87FBDCA4302829C
:10170000704721B1028842F00102028004E00288A1
:101710004FF6FE731A400280704730B50246002033
:1017200000230024158A05EA0103958905EA0104CE
:1017300013B10CB1012000E0002030BD1AB1838943
:101740000B43838102E083898B43838170470000D0
:10175000002202881D4B98420ED01D4B98420BD0A0
:10176000B0F1804F08D01B4B984205D01A4B9842DD
:1017700002D01A4B984204D14FF68F731A404B880F
:101780001A43174B984207D0164B984204D04FF695
:10179000FF431A40CB881A4302808B8883850B88CD
:1017A00003850A4B98420BD0094B984208D00E4B48
:1017B000984205D00D4B984202D00D4B984201D172
:1017C0000B7A03860123838270470000002C0140BE
:1017D000003401400004004000080040000C0040BC
:1017E000001000400014004000400140004401404F
:1017F0000048014010B540F225511D4800F03EF868
:1018000010B31B4800F064F8C4B21A48008800F412
:101810000040C8B91748008800F4804060B10A2C25
:1018200003D000201349088020E01248008840F4CB
:1018300000401049088019E00D2C06D10D480088A1
:1018400040F480400B49088010E00A480088C0F34B
:101850000D0009490C5407480088401C05490880C0
:1018600008460088C72801DD0020088010BD000060
:10187000003801401C0000209C00002070B502468A
:10188000002400230025002040F66A16B14200D152
:1018900000BFC1F3421501F01F03012606FA03F34E
:1018A000012D02D19689334006E0022D02D1168A1D
:1018B000334001E0968A33400C12012606FA04F404
:1018C0001688344013B10CB1012000E0002070BD37
:1018D00001468888C0F30800704700BFFEE700009B
:1018E00070B504460D460020094908607E2000EAD4
:1018F00044063046FFF746FD2846FFF743FD01202A
:101900000449C1F8B0010F2000F082F870BD00005A
:10191000B08121420080214270B50446002517E0C5
:1019200004F0800018B101201149086002E0002095
:101930000F49086001200E49091D086000F068F891
:1019400000200C49C1F8BC016006040E681CC5B239
:10195000082DE5DB0120064908600649C1F8BC01F5
:1019600000F056F800200249091D086070BD000013
:10197000B801224200002242014600BF7047000029
:1019800010B56FF00400FFF72BFE0A4800680A4903
:10199000B0FBF1F0094908700846007800EB4001FF
:1019A000C1EBC0104FF6FF7101EAC0000449088086
:1019B00010BD00000000002000127A00140000207A
:1019C000160000200146114A12884A434FF0E023D6
:1019D0005A6100229A611A46126942F001021A61A4
:1019E00000BF4FF0E022106900F001021AB100F4CC
:1019F0008032002AF5D04FF0E022126922F0010275
:101A00004FF0E0231A6100229A617047160000200F
:101A10000146114A12784A434FF0E0235A610022EE
:101A20009A611A46126942F001021A6100BF4FF032
:101A3000E022106900F001021AB100F48032002A9D
:101A4000F5D04FF0E022126922F001024FF0E023BE
:101A50001A6100229A617047140000204FF4A060C0
:101A6000FEF764FEFFF78CFFFEF7DCFDFEF7C6FE17
:101A7000FEF7E4FEFEF768FD00BFFFF7F1FA00286D
:101A8000FBD1FEF775FE41F61F4140F2CF70FFF724
:101A900007FE02E00220FFF70FFBFBE710B502464E
:101AA000012000E050430B00A1F10104E1B2F9D1A3
:101AB00010BD000000000000000000000000000059
:101AC0000000000000000000000000000000000016
:101AD0000000000202FAFAAAAAFFFFAAAAFAFA0272
:101AE0000200004272723A7A424B5B526262137792
:101AF0006600203C1CFFFFB0B424243F3FE4E424F4
:101B00002420020203FFFF0001051D59C1FF7F01D0
:101B10000101000000F8F8484C4F4B4A4848F8F8DB
:101B20000000000000FFFF44444444444444FFFFDD
:101B30000000202424E4E42424243010FFFF10F0CB
:101B4000F000081C1F0B0C0D4F6E341C0F23607F20
:101B50003F0080C060F8FF070200FFFFE0703C1C00
:101B600008000000007F7F0406033F7F404040786C
:101B700078000000000000000000000000000000ED
:101B80000000000000000000000000000000000055
:101B90000000000000000000000000000000000045
:101BA0000000000000000000000000000000000035
:101BB000000010218670007E4A4A4A4A4A7E000090
:101BC000000002FE01407F41417F41417F41417F52
:101BD00040000000FC042424FCA5A6A4FC2424242A
:101BE000040080601F808042462A12122A2642C0CA
:101BF0004000080808FF8848009848280A2C48D860
:101C000008000242817F0000404242427E4242423E
:101C1000400000504F4A48FF48484800FC0000FF81
:101C2000000000003F0101FF21613F000F40807F65
:101C3000000000908CA4A4A4A5A6A4A4A4A4948CA1
:101C400004000080402018070000003F4040407022
:101C50000000000474D4FFD47404100CB744B40C16
:101C600004000042437A4342437E4B4B4A4A42437C
:101C70000100080808080808F94A4C4848C808083C
:101C80000800404020100C0300002040403F0000AE
:101C9000000000202C246474ADA6E43424242C24F9
:101CA00000000024242515150DFE040D17142464CE
:101CB0002400000000F848484C4B4A484848F800C7
:101CC0000000000000FF4444444444444444FF00F6
:101CD0000000202424E4242424201010FF1010F0FD
:101CE0000000081C0B080C054E24100C0320403F7C
:101CF0000000080808FF8848009848280A2C48D89F
:101D000008000242817F0000404242427E4242423D
:101D1000400000504F4A48FF48484800FC0000FF80
:101D2000000000003F0101FF21613F000F40807F64
:101D300000000807FAAAAEAAAAA8ACABAAFE0A023B
:101D4000020008088B6A1E0A0A0A0AFE0A0B080823
:101D50000800106001C63000101010FF10101010A5
:101D600000000404FE01004161514D43414151E135
:101D700001004041CE04008040BE828282BEC0404D
:101D8000400000007F20908040432C10102C43C066
:101D9000400020212EE4000020202020FF202020D1
:101DA00020000000007F201008000000FF0000005D
:101DB00000000000F848484848FF48484848F800F4
:101DC000000000000F040404043F444444444F4016
:101DD000700000000202020202E2120A0602008003
:101DE0000000010101010141817F010101010101A7
:101DF00001000020202222E2222222E222222220AE
:101E00002000004020100C030000003F40404040F4
:101E100070004020F80F82601E1410FF1010101088
:101E200000000000FF000101010101FF01010101AB
:101E30000100000000007E4848484848484848CC17
:101E40000800000404040404040404244644201F7D
:101E50000000849494FF949480242424FC12131290
:101E60000000201806FF021C0A0202023F41414105
:101E700071001010D0FE509000101010D0FE101005
:101E80001000080601FF000110080443807F0000D5
:101E900000009088A7A2A6BAA2F8A7A2A6BAA2821A
:101EA000800000040404040C340444847F0404040B
:101EB00000000000000000000000002F00000000F3
:101EC0000700070000147F147F1400242A7F2A12C1
:101ED00000626408132300364955225000000503B0
:101EE000000000001C224100000041221C000014E0
:101EF000083E08140008083E0808000000A0600022
:101F000000080808080800006060000000201008B1
:101F10000402003E5149453E0000427F400000421D
:101F200061514946002141454B31001814127F1080
:101F3000002745454539003C4A49493000017109AF
:101F4000050300364949493600064949291E000063
:101F5000363600000000563600000008142241000A
:101F6000001414141414000041221408000201513A
:101F7000090600324959513E007C1211127C007F43
:101F800049494936003E41414122007F4141221CDE
:101F9000007F49494941007F09090901003E414943
:101FA000497A007F0808087F0000417F4100002037
:101FB00040413F01007F08142241007F40404040E3
:101FC000007F020C027F007F0408107F003E414129
:101FD000413E007F09090906003E4151215E007F14
:101FE000091929460046494949310001017F01018B
:101FF000003F4040403F001F2040201F003F40382E
:10200000403F00631408146300070870080700616C
:102010005149454300007F41410000552A552A554A
:10202000000041417F0000040201020400404040E2
:102030004040000001020400002054545478007F06
:102040004844443800384444442000384444487FDD
:1020500000385454541800087E0901020018A4A442
:10206000A47C007F080404780000447D4000004008
:1020700080847D00007F102844000000417F4000E4
:10208000007C04180478007C080404780038444478
:10209000443800FC242424180018242418FC007C54
:1020A0000804040800485454542000043F444020CD
:1020B000003C4040207C001C2040201C003C403064
:1020C000403C004428102844001CA0A0A07C0044F0
:1020D00064544C4414141414141400000000000040
:1020E00000000000000000000000000000F80000F8
:1020F0000000000000333000000000100C06100C3F
:102100000600000000000000000040C07840C078D9
:102110004000043F04043F040400007088FC0830C1
:102120000000001820FF211E0000F008F000E01859
:10213000000000211C031E211E0000F00888700012
:1021400000001E2123241927211010160E00000064
:1021500000000000000000000000000000E0180483
:102160000200000000071820400000020418E000F0
:1021700000000040201807000000404080F0804030
:1021800040000202010F01020200000000F0000006
:1021900000000101011F010101000000000000001A
:1021A000000080B07000000000000000000000008F
:1021B0000000000101010101010100000000000018
:1021C00000000030300000000000000000008060CF
:1021D0001804006018060100000000E01008081054
:1021E000E000000F102020100F00001010F8000079
:1021F00000000020203F2020000000700808088810
:1022000070000030282422213000003008888848DF
:1022100030000018202020110E000000C02010F80F
:10222000000000070424243F240000F808888808E0
:1022300008000019212020110E0000E010888818E5
:102240000000000F112020110E0000380808C838C7
:1022500008000000003F00000000007088080888A7
:102260007000001C222121221C0000E01008081030
:10227000E0000000312222110F00000000C0C00069
:10228000000000000030300000000000008000006E
:10229000000000008060000000000000804020106E
:1022A0000800000102040810200040404040404067
:1022B00040000404040404040400000810204080CA
:1022C00000000020100804020100007048080808FF
:1022D000F0000000003036010000C030C828E810CF
:1022E000E0000718272423140B000000C038E0008A
:1022F0000000203C23020227382008F888888870D4
:102300000000203F202020110E00C03008080808DF
:102310003800071820202010080008F808080810C6
:10232000E000203F202020100F0008F88888E808EF
:102330001000203F20202320180008F88888E80893
:102340001000203F200003000000C03008080838BB
:10235000000007182020221E020008F808000008CC
:10236000F808203F210101213F20000808F8080853
:1023700000000020203F2020000000000808F8088E
:102380000800C08080807F00000008F888C02818FE
:102390000800203F20012638200008F8080000002F
:1023A0000000203F20202020300008F8F800F8F836
:1023B0000800203F003F003F200008F830C0000820
:1023C000F808203F200007183F00E0100808081018
:1023D000E0000F10202020100F0008F8080808085F
:1023E000F000203F210101010000E0100808081062
:1023F000E0000F18242438504F0008F88888888897
:102400007000203F2000030C30200070880808086E
:1024100038000038202121221C00180808F808087C
:1024200018000000203F2000000008F80800000805
:10243000F808001F202020201F000878880000C80E
:102440003808000007380E010000F80800F80008FE
:10245000F800033C0700073C030008186880806808
:10246000180820302C03032C30200838C800C83846
:1024700008000000203F2000000010080808C838AD
:1024800008002038262120201800000000FE02024B
:1024900002000000007F40404000000C30C00000FF
:1024A0000000000000010638C00000020202FE0029
:1024B0000000004040407F000000000004020202D3
:1024C0000400000000000000000000000000000008
:1024D00000008080808080808080000202040000F4
:1024E00000000000000000000000000080808080EC
:1024F00000000019242222223F2008F800808000DA
:102500000000003F112020110E000000008080809C
:102510000000000E112020201100000000808088A3
:10252000F800000E112020103F20000080808080E5
:102530000000001F222222221300008080F08888E1
:1025400088180020203F202000000000808080802C
:102550008000006B94949493600008F80080808061
:102560000000203F210000203F20008098980000BC
:1025700000000020203F20200000000000809898EC
:10258000000000C08080807F000008F8000080808C
:102590008000203F24022D302000000808F80000B1
:1025A00000000020203F202000008080808080806C
:1025B0008000203F20003F20003F808000808080FE
:1025C0000000203F210000203F200000808080800C
:1025D0000000001F202020201F008080008080003D
:1025E000000080FFA12020110E00000000808080EC
:1025F0008000000E112020A0FF808080800080805D
:10260000800020203F212000010000008080808089
:1026100080000033242424241900008080E080807E
:1026200000000000001F20200000808000000080CB
:102630008000001F202020103F208080800000802C
:10264000808000010E30080601008080008000803C
:1026500080800F300C030C300F00008080008080E1
:1026600080000020312E0E3120008080800000800C
:10267000808080818E7018060100008080808080BC
:1026800080000021302C2221300000000000807CDE
:10269000020200000000003F404000000000FF0078
:1026A000000000000000FF0000000002027C80002B
:1026B00000000040403F000000000006010102024F
:1026C000040400000000000000000000EC260008E8
:1026D000000000209C000000280100088827000856
:1026E0009C0000203C0700004401000800A24A04AE
:1026F00000000000000000000102030406070809B2
:1027000000000000000000000000010000000000C8
:102710000000FFFFFFFFFFFFF0D977897BB9A10D14
:10272000000000000000000000000178FFFFFE87AD
:102730000000017801FE01FE000000010052656109
:1027400064204661696C0052656164204F4B0057FC
:1027500072697465204F4B0057726974655F4661FA
:10276000696C005335300053373000202020202082
:102770002020202020002400020000000000000093
:08278000000000000001000050
:040000050800018965
:00000001FF
