:020000040800F2
:10000000F008002091010008C509000877050008E4
:10001000C109000845040008231100080000000081
:10002000000000000000000000000000F50B0008C8
:1000300049040008000000004D0A0008090D0008EE
:10004000AB010008AB010008AB010008AB010008E0
:10005000AB010008AB010008AB010008AB010008D0
:10006000AB010008AB010008AB010008AB010008C0
:10007000AB010008AB010008AB010008AB010008B0
:10008000AB010008AB010008AB010008AB010008A0
:10009000AB010008AB010008AB010008AB01000890
:1000A000AB010008AB010008AB010008AB01000880
:1000B000AB010008AB010008AB010008AB01000870
:1000C000AB010008AB010008AB010008AB01000860
:1000D000AB0100086D0D0008F50D0008AB0100082C
:1000E000AB010008AB010008AB01000800F002F80A
:1000F00000F03FF80AA090E8000C82448344AAF183
:100100000107DA4501D100F034F8AFF2090EBAE880
:100110000F0013F0010F18BFFB1A43F0010318473B
:100120006812000088120000103A24BF78C878C115
:10013000FAD8520724BF30C830C144BF04680C60ED
:10014000704700000023002400250026103A28BF35
:1001500078C1FBD8520728BF30C148BF0B60704739
:10016000642900F07780002070471FB51FBD10B5CF
:1001700010BD00F037F91146FFF7F7FF01F052F814
:1001800000F055F903B4FFF7F2FF03BC00F0CBFF1A
:100190000948804709480047FEE7FEE7FEE7FEE71B
:1001A000FEE7FEE7FEE7FEE7FEE7FEE70448054957
:1001B000054A064B704700000D0D0008ED000008D1
:1001C000F0020020F0080020F0040020F0040020DD
:1001D000704700000FB4044910B503AA029800F05C
:1001E000D3F810BC5DF814FB180000202DE9F04195
:1001F0000E460446002020622046E168884730B35E
:10020000252805D0D4E901219047206A401CF2E757
:10021000E168204600278847050018D0A5F1410075
:10022000192802D820354FF4006732462946204667
:100230002760FFF795FF40B1012804D0F61D26F096
:1002400007060836D8E7361DD6E72846DAE7206ADB
:10025000BDE8F0812DE9F0410646002410687529BB
:10026000314616A510D0AFF30080002802DA4042D4
:1002700013A507E031688A0701D512A502E04907F6
:1002800004D511A5012401E0AFF3008000210A226A
:1002900006F1240709E0B0FBF2FCB0FBF2F302FB2D
:1002A0001C00303078541846491C0028F3D12346EE
:1002B0002A463046BDE8F04100F00CB800000000CE
:1002C0002D0000002B000000200000007047704748
:1002D000704770472DE9F0470D469946924604460F
:1002E00000F124080168880604D5E06921F01001B6
:1002F000216000E00120A84201DD471B00E000274B
:10030000A1697A1902EB0900081AA0612078C006D9
:1003100002D42046AFF30080002608E0D4E9012192
:100320001AF806009047206A401C761C20624E4551
:10033000F4DB2078C0060AD52046AFF3008006E043
:10034000D4E9012130209047206A401C2062381EE9
:10035000A7F10107F4DC07E0D4E9012118F8050052
:100360009047206A401C2062281EA5F10105F3DC9D
:100370002046AFF300802078000602D50220BDE8B9
:10038000F0870120FBE70000074B70B50D467B446A
:1003900000F011F80446284600F020F810B14FF0A4
:1003A000FF3070BD204670BD770E000001694A1C09
:1003B00002610878704700B58FB0CDE901310021A6
:1003C000059105497944CDE9031011466846FFF7C8
:1003D0000DFF0FB000BD0000E5FFFFFF007B00F048
:1003E00080007047754600F029F8AE460500694662
:1003F000534620F00700854618B020B5FFF7D6FE1B
:10040000BDE820404FF000064FF000074FF0000815
:100410004FF0000B21F00701AC46ACE8C009ACE896
:10042000C009ACE8C009ACE8C0098D467047044675
:10043000AFF300802046FFF7A5FE0000004870479C
:100440009002002000BFFEE770472DE9F041024610
:1004500000250026002000230024002791F803C077
:100460000CF00F0591F803C00CF0100CBCF1000F5C
:1004700003D091F802C04CEA050591F800C0BCF128
:10048000000F31D0146800202BE04FF0010C0CFA63
:1004900000F3B1F800C00CEA03069E4220D18300AD
:1004A0004FF00F0C0CFA03F7BC4305FA03FC4CEABF
:1004B000040491F803C0BCF1280F06D14FF0010CE1
:1004C0000CFA00FCC2F814C00AE091F803C0BCF1B9
:1004D000480F05D14FF0010C0CFA00FCC2F810C017
:1004E000401C0828D1D31460B1F800C0BCF1FF0F44
:1004F00034DD546800202EE000F1080C4FF00108B4
:1005000008FA0CF3B1F800C00CEA03069E4221D1B0
:1005100083004FF00F0C0CFA03F7BC4305FA03FC01
:100520004CEA040491F803C0BCF1280F05D100F196
:10053000080C08FA0CF8C2F8148091F803C0BCF15A
:10054000480F07D100F1080C4FF0010808FA0CF829
:10055000C2F81080401C0828CED35460BDE8F0815A
:100560000246002093680B400BB1012000E0002000
:1005700070470161704700BFFEE7000010B5002022
:100580000F4908600F48006820F070400D4908606E
:100590000846006840F04050086000200A49C1F851
:1005A0009C010A2000F00AFE0120054908600A208B
:1005B00000F004FE00200449C1F8980110BD0000BD
:1005C00098812142000C01400080214208B50121A0
:1005D000082000F05DFA10208DF80300C020ADF86F
:1005E000000003208DF8020069460448FFF72DFF44
:1005F000C0210248FFF7BDFF08BD0000000C01400C
:1006000010B500200F4908600F48006820F07040C6
:100610000D4908600846006840F04050086001201D
:100620000A49C1F89C010A2000F0C8FD01200549D3
:1006300008600A2000F0C2FD00200449C1F89801BA
:1006400010BD000098812142000C01400080214231
:1006500070B5054600241748006820F07040154921
:1006600008600846006840F000400860002616E078
:100670000020114908600A2000F0A0FD01200F4968
:10068000C1F898016006040E0B487C38006808B178
:10069000601CC4B2052000F091FD701CC6B2082E8B
:1006A000E6DB15B9FFF7ACFF01E0FFF767FF204677
:1006B00070BD0000000C0140988121420080214261
:1006C00070B504461948006820F07040174908606A
:1006D0000846006840F04050086000201449086057
:1006E000002520E004F08000C00120B10120104965
:1006F000091D086003E000200D49091D086060061F
:10070000040E022000F05AFD012009490860022071
:1007100000F054FD00200749C1F89801022000F0C4
:100720004DFD681CC5B2082DDCDB70BD000C01401E
:10073000988121420080214210B51048006820F0C5
:1007400070400E4908600846006840F0405008605C
:1007500001200B4908600B49C1F89C010A2000F0F8
:100760002DFD00200649091D08600A2000F026FD25
:1007700000200449C1F8980110BD0000000C0140A0
:10078000988121420080214210B50F48006820F076
:1007900070400D4908600846006840F0405008600D
:1007A00000200A4908600A49C1F89C010A2000F0AB
:1007B00005FD0120054908600549C1F89C010A2092
:1007C00000F0FCFC10BD0000000C014098812142AB
:1007D0000080214210B500241548006820F07040C8
:1007E000134908600846006840F000400860012096
:1007F00010490860062000F0E1FC01200E49C1F814
:100800009801062000F0DAFC07E0601CC4B2FA2C64
:1008100003DDFFF7B9FF012010BD064880380068EE
:100820000028F2D10349091F086000BFF4E7000067
:10083000000C01409C8121420080214208B5012129
:100840000C2000F025F92020ADF8000048208DF89C
:10085000030069460648FFF7F8FD0120ADF80000E7
:1008600028208DF8030069460148FFF7EEFD08BD1A
:100870000008014010B5044614B101201A4908705F
:1008800019480078F8B120211848FFF769FE28B10F
:1008900001211648FFF764FE012814D1322000F030
:1008A00067FC00201049087020211048FFF758FE0F
:1008B00008B9012010BD01210C48FFF751FE0128A5
:1008C0000FD10220F6E720210848FFF749FE012852
:1008D00007D101210548FFF743FE10B90120024965
:1008E00008700020E6E70000340000200008014006
:1008F00010B5FFF76BFE10BD70B504460D4600261F
:10090000FFF71AFF2046FFF7DBFE00BFFFF762FF8D
:100910000028FBD12846FFF7D3FE00BFFFF75AFFA0
:100920000028FBD1FFF708FF611CC8B2FFF7C8FE23
:1009300000BFFFF74FFF0028FBD1322000F03EFC44
:100940000020FFF785FE0646FFF71EFF304670BD0C
:1009500070B506460C461546FFF7EEFE3046FFF72B
:10096000AFFE00BFFFF736FF0028FBD12046FFF7A0
:10097000A7FE00BFFFF72EFF0028FBD12846FFF798
:100980009FFE00BFFFF726FF0028FBD1FFF7FCFE0C
:1009900070BD000008B50121102000F079F810208A
:1009A0008DF803004002ADF8000003208DF802002E
:1009B00069460248FFF749FD08BD000000100140EC
:1009C00000BFFEE77047000070B5002100230F2232
:1009D000C47804B3154C246804F4E064C4F5E064FE
:1009E000210AC1F10403CA40447804FA03F184786F
:1009F0001440214309010E4C0678A155047804F0F7
:100A00001F050124AC4005786D11AD0005F1E0250E
:100A1000C5F8004109E0047804F01F050124AC404A
:100A2000044D0678761145F8264070BD0CED00E0C7
:100A300000E400E080E100E002490143024A116065
:100A4000704700000000FA050CED00E07047000060
:100A500029B1064AD2690243044BDA6104E0034A31
:100A6000D2698243014BDA617047000000100240F6
:100A700029B1064A12690243044B1A6104E0034A91
:100A800012698243014B1A61704700000010024056
:100A900029B1064A92690243044B9A6104E0034A71
:100AA00092698243014B9A61704700000010024036
:100AB00029B1064AD2680243044BDA6004E0034AD3
:100AC000D2688243014BDA60704700000010024098
:100AD00030B500210022002400232D4D6D6805F063
:100AE0000C0121B1042905D0082923D105E0294DA5
:100AF000056022E0274D05601FE0254D6D6805F477
:100B00007012234D6D6805F48034022505EB924286
:100B10001CB9214D554305600BE01D4D6D6805F472
:100B200000351DB11C4D5543056002E0194D55437C
:100B3000056002E0174D056000BF00BF144D6D68F1
:100B400005F0F0010909154D6B5C0568DD40456055
:100B50000F4D6D6805F4E061090A104D6B5C456846
:100B6000DD4085600A4D6D6805F46051C90A0B4D82
:100B70006B5C4568DD40C560054D6D6805F440411E
:100B8000890B074D6B5CC568B5FBF3F5056130BD9E
:100B90000010024000127A0000093D001E000020F3
:100BA0002E0000202DE9F04106460D4600244FF4AA
:100BB00048772A4602213046FFF7CAFE5A2000F045
:100BC000D7FA00BF781E0700FCD10948006800284A
:100BD000F8D002213046FFF78FFE0446240203219D
:100BE0003046FFF789FE04442046BDE8F08100004E
:100BF00098812142704710B500F002F810BD000046
:100C00000CB50020019000903348006840F480301B
:100C10003149086000BF3048006800F4003000909F
:100C20000198401C0190009818B90198B0F5A06F88
:100C3000F1D12948006800F4003010B10120009083
:100C400001E0002000900098012843D1234800686B
:100C500040F01000214908600846006820F00300B9
:100C600008600846006840F0020008601A484068C2
:100C7000194948600846406848600846406840F4A2
:100C8000806048600846406820F47C104860084650
:100C9000406840F4E81048600846006840F0807002
:100CA000086000BF0C48006800F000700028F9D010
:100CB0000948406820F0030007494860084640683A
:100CC00040F00200486000BF0348406800F00C009C
:100CD0000828F9D10CBD000000100240002002409D
:100CE000042808D14FF0E021096941F004014FF0D8
:100CF000E022116107E04FF0E021096921F00401D1
:100D00004FF0E022116170477047000010B51348A2
:100D1000006840F001001149086008464068104929
:100D200008400E494860084600680E4908400B49D3
:100D300008600846006820F4802008600846406883
:100D400020F4FE0048604FF41F008860FFF753FF57
:100D50004FF000600449086010BD00000010024020
:100D60000000FFF8FFFFF6FE08ED00E010B540F2CE
:100D700025511D4800F014F910B31B4800F0CCF9C0
:100D8000C4B21A48008800F40040C8B91748008867
:100D900000F4804060B10A2C03D000201349088081
:100DA00020E01248008840F400401049088019E013
:100DB0000D2C06D10D48008840F480400B49088076
:100DC00010E00A480088C0F30D0009490C54074898
:100DD0000088401C0549088008460088C72801DDB6
:100DE0000020088010BD0000003801401C000020D9
:100DF0003800002010B540F225510F4800F0D0F81F
:100E0000C8B10D4800F088F9C4B20C480088022827
:100E10000BDA0A480088C0F30E0009490C54074851
:100E20000088401C0549088005E00448008840F41B
:100E300000400249088010BD0044004032000020FC
:100E4000C801002010B586B0044601210420FFF738
:100E50001FFE01214804FFF7FBFD224800F052F875
:100E600018208DF813000420ADF8100003208DF831
:100E7000120004A91C48FFF7E8FA04208DF81300BB
:100E80000820ADF8100004A91748FFF7DEFA009417
:100E90000020ADF80400ADF80600ADF80800ADF88C
:100EA0000C000C20ADF80A0069460E4800F0C8F8A6
:100EB00001210C4800F01AF8012240F2255109489E
:100EC00000F098F826208DF8140002208DF8150007
:100ED0008DF8160001208DF8170005A8FFF774FDA6
:100EE00006B010BD004400400008014021B18289D5
:100EF00042F40052828104E082894DF6FF731A4069
:100F00008281704710B504462048844209D10121EE
:100F10008803FFF7CDFD00214FF48040FFF7C8FDA7
:100F200032E01B48844209D101214804FFF7A0FDAB
:100F300000214FF40030FFF79BFD25E01548844267
:100F400009D101218804FFF793FD00214FF480208F
:100F5000FFF78EFD18E01048844209D10121C80432
:100F6000FFF786FD00214FF40020FFF781FD0BE025
:100F70000A48844208D101210805FFF779FD0021C4
:100F80004FF48010FFF774FD10BD000000380140E1
:100F90000044004000480040004C00400050004029
:100FA00070B50246002400230025002040F66A1692
:100FB000B14200D100BFC1F3421501F01F03012669
:100FC00006FA03F3012D02D19689334006E0022D83
:100FD00002D1168A334001E0968A33400C12012672
:100FE00006FA04F41688344013B10CB1012000E075
:100FF000002070BDF0B50346002400260025002027
:1010000040F66A17B94200D100BF1846C1F3421436
:1010100001F01F06012707FA06F5012C01D10C305B
:1010200004E0022C01D1103000E014301AB107683E
:101030002F43076002E00768AF430760F0BD000080
:101040002DE9F04786B005460E460024A24600BFB3
:10105000A1460027B08900B100BF2F462C8A4CF66C
:10106000FF700440F08804432C82AC894EF6F310E4
:101070000440B08831890843718908430443AC8136
:10108000AC8A4FF6FF400440B0890443AC8201A80B
:10109000FFF71EFD1F48874202D1DDF810A001E0D6
:1010A000DDF80CA0A88900F4004040B10AEBCA00AA
:1010B00000EB0A1031684900B0FBF1F807E00AEBD9
:1010C000CA0000EB0A1031688900B0FBF1F8642017
:1010D000B8FBF0F004012009642101FB1089A88904
:1010E00000F4004040B1322000EBC900B0FBF1F049
:1010F00000F00700044308E0322000EB09106421EF
:10110000B0FBF1F000F00F0004432C8106B0BDE805
:10111000F08700000038014001468888C0F30800CD
:10112000704700BFFEE7014600BF704710B56FF083
:101130000400FFF7D5FD0A4800680A49B0FBF1F04A
:10114000094908700846007800EB4001C1EBC01067
:101150004FF6FF7101EAC0000449088010BD00008D
:101160000000002000127A00140000201600002069
:101170000146114A12884A434FF0E0235A61002287
:101180009A611A46126942F001021A6100BF4FF0DB
:10119000E022106900F001021AB100F48032002A46
:1011A000F5D04FF0E022126922F001024FF0E02367
:1011B0001A6100229A617047160000200146114A08
:1011C00012784A434FF0E0235A6100229A611A468E
:1011D000126942F001021A6100BF4FF0E02210696B
:1011E00000F001021AB100F48032002AF5D04FF06D
:1011F000E022126922F001024FF0E0231A6100227E
:101200009A6170471400002000BF054A128802F05E
:101210004002002AF9D0C2B2014B1B1D1A80704750
:101220000038014000250026FFF780FFFFF7B2FBE2
:10123000FFF75EFBFFF702FB71220221E820FFF7B8
:1012400087FB4FF4FA60FFF793FF4FF4A060FFF7BE
:10125000F3FB4FF4E13000F047F84FF41650FFF77E
:10126000F1FD28E00020FFF705FB0446012C03D127
:1012700005B900E00020054675B1B421E820FFF76C
:1012800091FCC0B1B421E820FFF78CFC0646314642
:1012900009A0FEF79FFF0EE0B021E820FFF782FCD7
:1012A000B04208D0B021E820FFF77CFC064631466A
:1012B00007A0FEF78FFFD5E74949435F59543A64C9
:1012C000697374616E63653D25646D6D0D0A000080
:1012D0004949435F4E543A64697374616E63653D76
:1012E00025646D6D0D0A000010B586B0044601211D
:1012F00044F20400FFF7CCFB4FF40070ADF814008B
:1013000003208DF8160018208DF8170005A91C4839
:10131000FFF79BF84FF48060ADF8140004208DF8BF
:10132000170005A91648FFF790F825208DF8000052
:1013300003208DF801008DF8020001208DF80300D4
:101340006846FFF741FB01940020ADF80800ADF8B6
:101350000A00ADF80C00ADF810000C20ADF80E003E
:1013600001A90848FFF76CFE012240F2255105480B
:10137000FFF740FE01210348FFF7B8FD06B010BD9E
:101380000008014000380140A813000800000020B8
:101390003800000028010008E01300083800002091
:1013A000B80800004401000800A24A040000000040
:1013B0000000000001020304060708090000000005
:1013C0000000000000000000000001020304010210
:1013D00003040607080902040608000001000000D3
:04000005080001915D
:00000001FF
