:020000040800F2
:100000001808002029020008B10C0008670C00083D
:10001000AD0C0008D1020008EB120008000000003F
:100020000000000000000000000000006D0E00084D
:100030008B0B000800000000410D0008850F000830
:10004000430200084302000843020008430200087C
:10005000430200084302000843020008430200086C
:10006000430200084302000843020008430200085C
:10007000430200084302000843020008430200084C
:10008000430200084302000843020008430200083C
:10009000D50200084302000843020008430200089A
:1000A000430200084302000843020008430200081C
:1000B000430200084302000843020008430200080C
:1000C00043020008430200084302000843020008FC
:1000D00043020008F10F00087910000843020008ED
:1000E00043020008430200084302000843020008DC
:1000F00043020008430200084302000843020008CC
:1001000043020008430200084302000843020008BB
:1001100043020008430200084302000843020008AB
:10012000430200084302000843020008430200089B
:10013000430200084302000843020008430200088B
:10014000430200084302000843020008430200087B
:10015000430200084302000843020008430200086B
:10016000430200084302000843020008430200085B
:10017000430200084302000843020008430200084B
:10018000430200084302000800F002F800F03CF8C7
:100190000AA090E8000C82448344AAF10107DA45E2
:1001A00001D100F031F8AFF2090EBAE80F0013F0F8
:1001B000010F18BFFB1A43F001031847901200000B
:1001C000B0120000103A24BF78C878C1FAD852079C
:1001D00024BF30C830C144BF04680C6070470000C1
:1001E0000023002400250026103A28BF78C1FBD840
:1001F000520728BF30C148BF0B6070471FB501F0E0
:100200001FF91FBD10B510BD00F033F81146FFF700
:10021000F5FF01F08DF800F051F803B4FFF7F2FF9D
:1002200003BC01F064F80000094880470948004712
:10023000FEE7FEE7FEE7FEE7FEE7FEE7FEE7FEE796
:10024000FEE7FEE704480549054A064B70470000F3
:10025000890F0008890100081802002018080020F2
:10026000180400201804002070477047704770473A
:100270007047754600F028F8AE46050069465346BB
:1002800020F00700854618B020B5FFF7DBFFBDE87A
:1002900020404FF000064FF000074FF000084FF0ED
:1002A000000B21F00701AC46ACE8C009ACE8C0097E
:1002B000ACE8C009ACE8C0098D4670470446AFF30E
:1002C00000802046FFF7A9FF00487047B4010020D6
:1002D00000BFFEE710B586B0002402211B4800F0E5
:1002E00015F9012830D101AA0021184800F0B2FA0E
:1002F00000BF0DE00DF10F00015D154800F0F1FFAA
:1003000000BF4021124800F020FF0128F9D1641CF1
:10031000104800888442EDDB0E4801880C4800F04C
:10032000E0FF00BF40210A4800F00FFF0128F9D18B
:100330000948006808B9012000E00020064908606B
:100340000221024800F00AF806B010BD0064004027
:100350000044004002000020BC024342B1F5007F8F
:100360003AD00FDC202928D006DC01291CD0042932
:100370001DD0082940D11DE0402921D0B1F5807F52
:100380003AD126E0B1F5004F31D006DCB1F5806FEF
:1003900025D0B1F5006F2FD124E0B1F5803F12D008
:1003A000B1F5003F28D111E0154A826025E008220E
:1003B000C26022E01022C2601FE0082202611CE03D
:1003C0001022026119E00822426016E01022426009
:1003D00013E00422426010E0042242600DE0042297
:1003E00042600AE0002282610422426005E00022AD
:1003F00082610422426000E000BF00BF704700003D
:100400000101010010B50021837A012202FA03F1F3
:100410003D4A126842F001023B4B1A603A4A1C32D4
:1004200012688A43384B1C331A60027BCAB9364AB9
:100430000C3212688A43344B0C331A604288C388EA
:1004400042EA0343304A4032847A42F83430028828
:10045000838842EA03432C4A4032847A02EBC40286
:100460005360027B012A19D1274A0C3212680A43D1
:10047000254B0C331A604288038842EA0343224A20
:100480004032847A42F83430C288838842EA034397
:100490001D4A4032847A02EBC4025360C27A3AB9F0
:1004A000194A121D12688A43174B1B1D1A6006E079
:1004B000154A121D12680A43134B1B1D1A6002894C
:1004C00032B9114A143212688A430F4B14331A603E
:1004D0000289012A06D10C4A143212680A430A4BD7
:1004E00014331A60427B012A06D1074A1C32126873
:1004F0000A43054B1C331A60034A126822F00102BA
:10050000014B1A6010BD00000066004070B5044643
:100510000D46002660692840002871D0B5F5807F1F
:100520005CD010DC082D35D006DC012D20D0022D4A
:1005300024D0042D72D127E0102D31D0202D35D0BC
:10054000402D6BD138E0B5F5004F60D009DCB5F532
:10055000007F49D0B5F5806F4CD0B5F5006F5DD107
:100560004FE0B5F5803F2DD0B5F5003F56D12FE0D7
:10057000A0682D4900F000FB064651E0E068032129
:1005800000F0FAFA06464BE0E068082100F0F4FAC1
:10059000064645E0E068102100F0EEFA06463FE02E
:1005A0002069032100F0E8FA064639E020690821B5
:1005B00000F0E2FA064633E02069102100F0DCFA90
:1005C00006462DE06068082100F0D6FA064627E0CE
:1005D0006068102100F0D0FA064621E0A0690121F0
:1005E00000F0CAFA06461BE0A069022100F0C4FA36
:1005F000064615E0A069042100F0BEFA06460FE0A9
:100600000FE0A069702100F0B7FA064608E06068C4
:10061000042100F0B1FA064602E0FFE7002600BF21
:1006200000E00026304670BD010101001AB14369A7
:100630000B43436102E043698B434361704730B52C
:10064000024600200023146824F002041460146899
:1006500044F00104146000E05B1C546804F00104E1
:100660001CB94FF6FF74A342F6D1546804F001049C
:100670000CB900206CE08C79012C04D1146844F092
:100680008004146003E0146824F080041460CC79C2
:10069000012C04D1146844F04004146003E0146891
:1006A00024F0400414600C7A012C04D1146844F046
:1006B0002004146003E0146824F0200414604C7AD1
:1006C000012C04D1146844F01004146003E0146891
:1006D00024F0100414608C7A012C04D1146844F0C6
:1006E0000804146003E0146824F008041460CC7A51
:1006F000012C04D1146844F00404146003E014686D
:1007000024F0040414608C78A407CD7844EA0564CE
:100710000D7944EA05444D7944EA05540D886D1E6F
:100720002C43D461146824F001041460002300E019
:100730005B1C546804F001041CB14FF6FF74A34223
:10074000F6D1546804F001040CB1002000E001204F
:1007500030BD00002DE9F0418AB004460D46164632
:100760001F46DDF840800121084600F0EBFA012128
:10077000480600F0F7FA02208DF818004FF4C05038
:10078000059000208DF81A0001208DF81B00032031
:100790008DF8190005A92D4800F0F8F909220F215C
:1007A0002A4800F03BFA00208DF823008DF8240041
:1007B0008DF81E8001208DF8250000208DF8260080
:1007C0008DF822008DF827008DF820608DF82150DB
:1007D000ADF81C708DF81F4007A91D48FFF72FFFCB
:1007E00000208DF80E008DF80F0001208DF810000C
:1007F0000020ADF8040040F26F30ADF80600002094
:10080000ADF808004FF4FC70ADF80A000020ADF818
:100810000C0001208DF8110001A8FFF7F3FD012263
:1008200002210B48FFF702FF14208DF80000012081
:100830008DF801008DF802008DF80300684600F085
:1008400039FA00200AB0BDE8F08100000000024043
:100850000064004010B500F5D87303EB01131B686A
:1008600003F004031372137A53B900F5D87303EB42
:1008700001131B6840F2FF7404EA5353136009E04C
:1008800000F5D87303EB01131B686FF0604404EAB2
:10089000D303536000F5D87303EB01131B6803F017
:1008A0000203537200F5D87303EB01135B6803F086
:1008B0000F03937200F5D87303EB01135B681B0AF7
:1008C000D37400F5D87303EB01139B68D37200F562
:1008D000D87303EB01139B681C0A147300F5D873DB
:1008E00003EB01139B681C0C547300F5D87303EBE6
:1008F00001139B681B0E937300F5D87303EB011370
:10090000DB68D37300F5D87303EB0113DB681C0AB3
:10091000147400F5D87303EB0113DB681C0C5474DA
:1009200000F5D87303EB0113DB681B0E937421B938
:10093000C36843F02003C36003E0036943F020036E
:10094000036110BD10B502460020936803F0806378
:10095000B3F1806F00D110E0936803F00063B3F14E
:10096000006F01D1012008E0936803F08053B3F1D8
:10097000805F01D1022000E00420042874D002F539
:10098000C07303EB00131B6803F0010402F5C0738E
:1009900003EB00131C600B7A7BB94B7A0C8843EA9B
:1009A000445302F5C07404EB00142468234302F599
:1009B000C07404EB0014236010E00B7A4C6843EA27
:1009C000C4034C7A234302F5C07404EB001424687A
:1009D000234302F5C07404EB001423608B7A03F008
:1009E0000F038B7202F5C07303EB00135B6823F0F7
:1009F0000F0402F5C07303EB00135C6002F5C073D3
:100A000003EB00135B688C7A234302F5C07404EB9C
:100A1000001463608B7B1C064B7B44EA03440B7B16
:100A200044EA0323CC7A234302F5C07404EB001498
:100A3000A3608B7C1C064B7C44EA03440B7C44EA99
:100A40000323CC7B234302F5C07404EB0014E36062
:100A500002F5C07303EB00131B6843F0010402F5B9
:100A6000C07303EB00131C6010BD000010B50246FC
:100A7000002321B1012907D002290FD109E0906894
:100A80001D4C00EA04030BE090681C4C00EA0403D0
:100A900006E090681A4C00EA040301E0002300BF5E
:100AA00000BF184C181BA34216D007DC83B16FF0AF
:100AB0008060184470B1022818D111E0B0F5007FB1
:100AC00010D0114C204448B1B0F5003F0ED10BE0DE
:100AD00002230DE000230BE0002309E0002307E0E0
:100AE000012305E0012303E0012301E0002300BF0F
:100AF00000BFD8B210BD00000300000400030008CE
:100B000000000310000100080001FFF7F0B585B0F8
:100B100007460D4600240020019000908DF8090042
:100B20008DF808008DF80A5000BF05E0395D0DF121
:100B30000B000155601C84B2AC42F7DB69460D48DE
:100B4000FFF700FF0646002401E0601C84B2314636
:100B50000848FFF78BFF18B940F6FF708442F4DBBA
:100B600040F6FF70844202DB012005B0F0BD00209A
:100B7000FBE70000006400400246002002EA010397
:100B80000BB1012000E0002070477047F0B50A4625
:100B900000210023002400BF3DE0012505FA01F3F8
:100BA000156805EA03049C4234D105684F0003260A
:100BB000BE40B543056015794E00B5400668354323
:100BC00005601579012D02D01579022D16D18568A1
:100BD0004F000326BE40B543856055794E00B540B1
:100BE000866835438560456801268E40B54345607B
:100BF000456896798E40B6B235434560C5684F006A
:100C00000326BE40B543C560D5794E00B540C668E1
:100C10003543C560491C1029BFD3F0BDF0B5002392
:100C200000244D07ED0E02FA05F3CE1000F1200569
:100C300055F826504E07F70E0F26BE40B543CF108D
:100C400000F1200646F82750CE1000F1200555F897
:100C5000265045EA0304CE1000F1200545F8264051
:100C6000F0BD0183704700BFFEE700001CB5012105
:100C7000402000F067F84FF40040009001208DF80C
:100C8000040000208DF8060003208DF805000120E7
:100C90008DF8070069460448FFF778FF4FF40041DC
:100CA0000148FFF7DEFF1CBD0018024000BFFEE751
:100CB0007047000070B5002100230F22C4781CB3D8
:100CC000174C246804F4E064C4F5E064C4F307211D
:100CD000C1F10404E3B20A4144789C40E1B2847853
:100CE000144021430C07210E0E4C05786155047801
:100CF00004F01F050124AC4005786D11AD0005F12D
:100D0000E025C5F8004109E0047804F01F0501243E
:100D1000AC40054D0678761145F8264070BD0000C0
:100D20000CED00E000E400E080E100E00249014356
:100D3000024A1160704700000000FA050CED00E067
:100D40007047000029B1064A12680243044B1A603A
:100D500004E0034A12688243014B1A6070470000A6
:100D60003038024029B1064A12680243044B1A6027
:100D700004E0034A12688243014B1A607047000086
:100D800040380240F0B50021002200240225002650
:100D90000223324F3F6807F00C0121B1042905D02E
:100DA000082937D105E02E4F076036E02D4F076048
:100DB00033E02A4F3F1F3F68C7F38056274F3F1F3E
:100DC0003F6807F03F036EB1264FB7FBF3F7DFF83C
:100DD0008CC0ACF1040CDCF800C0CCF3881C07FB21
:100DE0000CF40CE01E4FB7FBF3F7DFF870C0ACF16A
:100DF000040CDCF800C0CCF3881C07FB0CF4174F84
:100E00003F1F3F68C7F301477F1C7D00B4FBF5F728
:100E1000076002E0124F076000BF00BF0F4F3F683E
:100E200007F0F0010909104F7A5C0768D740476066
:100E30000A4F3F6807F4E051890A0B4F7A5C476814
:100E4000D7408760054F3F6807F46041490B064F64
:100E50007A5C4768D740C760F0BD000008380240A0
:100E60000024F40040787D0112000020704700004B
:100E70000CB50020019000903448006840F48030A8
:100E80003249086000BF3148006800F4003000902B
:100E90000198401C0190009818B90198B0F5A04F36
:100EA000F1D12A48006800F4003010B10120009010
:100EB00001E0002000900098012846D123484030EE
:100EC000006840F0805021494031086020480068A7
:100ED00040F440401E4908601C48083000681B4927
:100EE000083108600846006840F400400860084681
:100EF000006840F4A05008601648091F0860081FE9
:100F0000006840F08070091F086000BF0F4800684B
:100F100000F000700028F9D040F205700E4908601A
:100F20000A480830006820F00300084908310860CA
:100F30000846006840F00200086000BF034808301F
:100F4000006800F00C000828F8D10CBD0038024001
:100F50000070004019544007003C0240042808D1AA
:100F60004FF0E021096941F004014FF0E0221161E6
:100F700007E04FF0E021096921F004014FF0E02281
:100F8000116170477047000010B51548006840F4C3
:100F90007000134908601348006840F001001149CF
:100FA000086000200F49083108600E4800680E49AB
:100FB00008400C4908600D48091D0860081F0068BA
:100FC00020F48020091F0860002006490C310860C9
:100FD000FFF74EFF4FF0006001498039086010BDF7
:100FE00088ED00E000380240FFFFF6FE10300024DC
:100FF00010B540F225511D4800F0B4F810B31B485D
:1010000000F06AF9C4B21A48008800F40040C8B978
:101010001748008800F4804060B10A2C03D00020FB
:101020001349088020E01248008840F4004010492D
:10103000088019E00D2C06D10D48008840F480404E
:101040000B49088010E00A480088C0F30D000949E8
:101050000C5407480088401C054908800846008851
:10106000C72801DD0020088010BD000000100140ED
:1010700010000020EC00002010B540F2255120485F
:1010800000F070F800283AD01D4800F025F9C4B2ED
:101090001C48007878B91C480088C0F30E001B4932
:1010A0000C5419480088401C80B217490880C0F3CE
:1010B0000E001749088015480078AA2803D00020A0
:1010C000114908800AE0552C08D101200D4908700B
:1010D0000D48008840F400400B4908800A48008809
:1010E000C0F30E00C82805DD0748008840F4004022
:1010F0000549088040F22551014800F00BF810BD69
:1011000000440040040000200000002024000020D3
:101110000200002010B50022002340F66A14A1420C
:1011200000D100BF0A1201249440A3B2DC43048022
:1011300010BD21B1828942F40052828104E082898B
:101140004DF6FF731A408281704702460020B1F5C8
:10115000007F00D100BF13880B400BB1012000E0DD
:101160000020704770B502460024002300250020AF
:1011700040F66A16B14200D100BFC1F3421501F03A
:101180001F03012606FA03F3012D02D1968933408D
:1011900006E0022D02D1168A334001E0968A3340E0
:1011A0000C12012606FA04F41688344013B10CB16F
:1011B000012000E0002070BDF0B5034600240026A9
:1011C0000025002040F66A17B94200D100BF18463A
:1011D000C1F3421401F01F06012707FA06F5012C9E
:1011E00001D10C3004E0022C01D1103000E01430A9
:1011F0001AB107682F43076002E00768AF43076032
:10120000F0BD00002DE9FF4705460E460024A1462B
:1012100000BFA046B08900B100BF2C8A24F440541E
:10122000F08804432C82AC8941F20C608443B0887E
:1012300031890843718908430443AC81AC8A24F4A2
:101240004074B0890443AC826846FFF79BFD204898
:10125000854202D01F48854202D1DDF80C9001E0A2
:10126000DDF80890A88900F4004040B109EBC900FE
:1012700000EB091031684900B0FBF1F707E009EB1A
:10128000C90000EB091031688900B0FBF1F7642058
:10129000B7FBF0F004012009642101FB1078A88954
:1012A00000F4004040B1322000EBC800B0FBF1F088
:1012B00000F00700044308E0322000EB081064212E
:1012C000B0FBF1F000F00F0004432C81BDE8FF8774
:1012D000001001400014014001468888C0F3080056
:1012E0007047C1F308028280704700BFFEE70146E5
:1012F00000BF704710B504466FF00400FFF72EFEE4
:10130000E11704EB5171C1F3C701074A1170104690
:10131000007800EB4001C1EBC0104FF6FF7101EA0D
:10132000C0000249088010BD06000020080000200F
:1013300008B5A820FFF7DEFF4FF4A060FFF7F6FC2A
:10134000FFF794FC4FF4E13000F022F8012006236F
:101350001A46052100900020FFF7FCF90EE008482E
:10136000008800F4004048B1064801780648FFF7BD
:10137000CDFB00200249088004490870EFE7000017
:1013800000000020020000202400002004000020B3
:1013900010B588B0044601210820FFF7D3FC0121D5
:1013A0004804FFF7DFFC072205212348FFF736FC3E
:1013B000072206212048FFF731FC02208DF81C008F
:1013C0006020069001208DF81F0000208DF81E007F
:1013D00003208DF81D0006A91748FFF7D7FB0294DC
:1013E0000020ADF814000C20ADF812000020ADF87C
:1013F0001000ADF80E00ADF80C0002A90F48FFF781
:1014000001FF01210D48FFF794FE012240F2255112
:101410000A48FFF7D1FE26208DF8040001208DF840
:10142000050000208DF8060001208DF8070001A8B6
:10143000FFF740FC08B010BD000C02400044004023
:101440004FF04070E1EE100A704700006C14000885
:101450000000002024000000C401000890140008CF
:1014600024000020F4070000E00100080000000054
:10147000000000000000000000000000000000006C
:10148000000001020304010203040607080900002A
:040000050800018965
:00000001FF
