:020000040800F2
:10000000A00D0020DD010008E1010008E301000867
:10001000E5010008E7010008E90100080000000010
:10002000000000000000000000000000EB010008DC
:10003000ED01000800000000EF010008F1010008D8
:10004000F3010008F3010008F3010008F3010008C0
:10005000F3010008F3010008F3010008F3010008B0
:10006000F3010008F3010008F3010008F3010008A0
:10007000F3010008F3010008F3010008F301000890
:10008000F3010008F3010008F3010008F301000880
:10009000F3010008F3010008F3010008F301000870
:1000A000F3010008F3010008F3010008F301000860
:1000B000FD1400080B250008E5140008F3010008F2
:1000C000F3010008F3010008F3010008F301000840
:1000D000F3010008F3010008F3010008191B0008F0
:1000E000F3010008F3010008F301000800F002F832
:1000F00000F05FF80AA090E8000C82448344AAF163
:100100000107DA4501D100F054F8AFF2090EBAE860
:100110000F0013F0010F18BFFB1A43F0010318473B
:10012000A8990000C89900000A444FF0000C10F88C
:10013000013B13F0070408BF10F8014B1D1108BF65
:1001400010F8015B641E05D010F8016B641E01F805
:10015000016BF9D113F0080F1EBF10F8014BAD1C55
:100160000C1B09D16D1E58BF01F801CBFAD505E073
:1001700014F8016B01F8016B6D1EF9D59142D6D3CD
:10018000704700000023002400250026103A28BFF5
:1001900078C1FBD8520728BF30C148BF0B607047F9
:1001A000642906F06981002070471FB51FBD10B596
:1001B00010BD06F02FFB1146FFF7F7FF00F02AF8FD
:1001C00006F04DFB03B4FFF7F2FF03BC00F010FA9A
:1001D00030BF72B662B680F308887047084800479F
:1001E000FEE7FEE7FEE7FEE7FEE7FEE7FEE7FEE7E7
:1001F000FEE7FEE703480449044A054B7047000048
:10020000ED000008A0070020A00D0020A00900209C
:10021000A0090020092000F092F9482000F032F8EF
:10022000022000F077F9012000F074F900F070FA74
:1002300000F0A8FA00F0DDFC4FF4E131482000F0B6
:1002400000FA4FF41651242001F0F4FB002141F68E
:100250001F4000F0EFFF01F053F801F0AEF800F09E
:10026000D7FD01F061F905F05CFB05F06EFB00F0D5
:10027000AEFE41F61F41312000F064FF01E005F0C1
:10028000DEFDFCE74FF0E021096921F004014FF0A9
:10029000E0221161C21700EB5272C2F3C702234B76
:1002A0001A701946097801EB4102C2EBC1114FF6F1
:1002B000FF7202EAC1011E4A1180704701461B4AC3
:1002C00012784A434FF0E0235A6100229A610122DA
:1002D0001A6100BF4FF0E022106900F001021AB16C
:1002E00000F48032002AF5D000224FF0E0231A619A
:1002F0009A61704701460E4A12884A434FF0E02344
:100300005A6100229A6101221A6100BF4FF0E02277
:10031000106900F001021AB100F48032002AF5D011
:1003200000224FF0E0231A619A6170473E000020DE
:1003300040000020A34A0A400243A34B1A607047C2
:100340000146072323EA010212029F4B1B1D186876
:100350004FF6FF0318409D4B184310439A4B1B1D4B
:10036000186070472DE9F0410746884614461D463F
:100370002846FFF7E5FFC5F1040007FA00F60F2055
:10038000284100EA0800064306F00F06E21704EBD6
:10039000D2625211920002F1E022D2F800212146ED
:1003A000E31704EBD3635B11A4EB431C012303FAB3
:1003B0000CF31A432046E31704EBD3635B119B0055
:1003C00003F1E023C3F800218148005D40EA0610F4
:1003D0007F490855BDE8F08170B504460B46CE173D
:1003E00001EB9676C6F38700CE1701EB9676B61032
:1003F000A1EB8606B606350E764B9B6943F00103EA
:10040000744EB3614FEAB63353F820300F26AE4036
:10041000B343714E46F82030334653F8203004FA87
:1004200005F61E436C4B43F820606C4B1B6801269D
:100430008E403343694E336002F0010343B1674B92
:100440000C331B6801268E403343644E0C363360F8
:1004500002F0020343B1614B08331E6801238B4055
:100460001E435E4B08331E6070BD00B50020594925
:100470000861C8601420486100208861C86108468E
:10048000006840F001000860084640685449084090
:100490005049486008460068524908404D49086084
:1004A0000846006820F4802008600846406820F470
:1004B000FE0048600020886000214FF00060FFF7D8
:1004C00039FF00BD10B540480830006840F0040016
:1004D0003D49083108603F48C06940F080503D49BF
:1004E000C8614148406840F480703F494860084610
:1004F000006840F0040008600846006840F0020010
:100500000860FFF765FE10BD3048001D2E49091D2B
:1005100008607047014649062E4A926942F001027E
:100520002C4B9A612C4A083A526822F0E0622A4B1E
:10053000083B5A601A4652680A435A60704730B501
:1005400004460025FFF791FF2248006840F4803000
:100550002049086000BF1F480068400C0028FAD0FE
:100560004FF480601B494860A01EC4B20846406832
:1005700040EA844048600846406840F48030486063
:100580001A48006840F032001849086011480068B5
:1005900040F080700F49086000BF0E480068400EB0
:1005A0000028FAD00B48406840F002000949486032
:1005B00005E008484068C0F3870505F00305022DF3
:1005C000F7D130BD80FFFF1F08ED00E00000FA0505
:1005D00000E400E000100240080001400004014077
:1005E0000000FFF8FFFFF6FE007000400020024010
:1005F000014600BF7047404A12785AB900BF3F4ACF
:10060000128802F04002002AF9D0C2B23B4B1B1DF7
:100610001A800AE000BF3A4A128802F04002002A1B
:10062000F9D0C2B2364B1B1D1A8070473449091DE0
:10063000088000BF3249098801F040010029F9D043
:1006400070472DE9F05F05460E46300107F006FCC5
:1006500081462C4905FB01F007F000FC8246494623
:1006600007F0B2FA0746384607F0C0FB84B22046CE
:1006700007F0F4FB8346394607F035FD82464FF01C
:10068000834107F033FC814607F0B0FB80464FF60C
:10069000FF7000EA041404EB080084B21A48806971
:1006A00040F00400184988610846806940F48040A1
:1006B00088611648006820F47F6014490860084685
:1006C000006840F40B6008600F48C06840F4804048
:1006D0000D49C8600846C06820F48040C8600848DA
:1006E00008300480001D008842F20C0108430449D0
:1006F0000C310880BDE8F09F070000200048004052
:100700000038014040420F00001002400408014040
:100710001748806940F00400154988611548006851
:1007200020F47F20134908600846006840F44C30EC
:10073000086010480C30006840F010000D490C3182
:100740000860704718B900210B4A11600FE00B498F
:100750000968491C094A1160814208D106490968A3
:10076000C943074AC2F890110021044A116070473A
:100770000010024000080140900121424800002082
:10078000000021425648806940F0040054498861C5
:100790005448006820F47000524908600846006818
:1007A00040F4000008604F480C30006840F0200022
:1007B0004C490C310860704701464B48006828B925
:1007C0004A480088401C494A108002E00020474AFD
:1007D00010804548006828B94548007810B90120C4
:1007E000434A107043480078B0B941480078012866
:1007F00007D141480078401C3F4A107001203D4A13
:1008000010703D480078022806D100203A4A107046
:100810003A4A10800220704733480068012804D10A
:100820000020334A1070334A107033480078012892
:100830001CD132480088401C304A10801046008885
:1008400088420ADD29480088884206DA00202A4AC0
:1008500010702A4A10800120DDE724480088884271
:1008600004DD0020244A1070244A10800020D2E7C2
:100870002348007838B11C48006820B9002020497E
:1008800008700120704718480068012801D11C49F0
:1008900008700020F6E71B48008840B9124800683D
:1008A00028B919480088401C1749088002E0002038
:1008B0001549088014480088C82807DD012011491F
:1008C0000880002010490880012070470D480088EA
:1008D000012802D100200B4908800020F5E7000024
:1008E0000010024000080140140121425200002083
:1008F0004C0000204D0000204E0000205000002041
:1009000054000020580000205600002010B50A4670
:100910001AB10123FE4C236002E00023FC4C23604B
:10092000002114E00023FB4C236000F080031BB186
:100930000123241F236003E00023F64C241F2360BF
:100940000123F44C23604306180E4B1CD9B208292E
:10095000E8DB0123EE4C236010BD30B500241CE021
:1009600004F1B001C8B20021FFF7D0FF0021084612
:10097000FFF7CCFF00211020FFF7C8FF002508E09B
:10098000E54901EBC501085D0121FFF7BFFF681CC8
:10099000C5B2802DF4DB601CC4B2082CE0DB30BD96
:1009A00000B500218D20FFF7B1FF00211420FFF7D3
:1009B000ADFF0021AF20FFF7A9FF00BD00B500216A
:1009C0008D20FFF7A3FF00211020FFF79FFF0021DC
:1009D000AE20FFF79BFF00BD30B500240CE00025E2
:1009E00006E00020CC4901EBC5010855681CC5B2E2
:1009F000802DF6DB601CC4B2082CF0DBFFF7ADFFE6
:100A000030BDF0B5144600267F2801DC3F2900DD0B
:100A1000F0BD0B46CF1701EB5777FF10C7F1070763
:100A2000FAB2CF1701EB5777FF10A1EBC707FDB262
:100A3000C5F107070123BB40DEB24CB1B64B03EB57
:100A4000C0039B5C3343B44F07EBC007BB5408E0C3
:100A5000B14B03EBC0039B5CB343AF4F07EBC00745
:100A6000BB5400BFD4E72DE9F04F80460C46154635
:100A70001E46A346A5F12000C5B200273EE00C2E7D
:100A800007D105EB4500A54901EB800010F8079060
:100A900004E0A34800EB051010F807904FF0000A9F
:100AA00026E009F0800028B121464046099AFFF768
:100AB000A8FF09E0099808B9012000E000200246DB
:100AC00021464046FFF79DFF4FEA49604FEA106913
:100AD000601CC4B2A4EB0B00B04205D15C4608F127
:100AE000010000F0FF0806E00AF1010000F0FF0A33
:100AF000BAF1080FD5DB00BF781CC7B2B742BEDB26
:100B0000BDE8F08F10B50246012000E050430B0015
:100B1000A1F10104E1B2F9D110BD2DE9FF4F81B07F
:100B2000074691461E460E9D4FF0000A002439E00C
:100B3000301B401EC1B20A20FFF7E4FFB9FBF0F002
:100B40000A21B0FBF1F201FB1208BAF1000F16D135
:100B5000701EA04213DDB8F1000F0ED10120AB468C
:100B600005EBDB71491001FB04710090C8B22B4604
:100B700020220299FFF777FF12E04FF0010A0120CF
:100B8000AB4605EBDB71491001FB04710090C8B264
:100B900008F13001CAB22B460299FFF764FF00BF8B
:100BA000601CC4B2B442C3DB05B0BDE8F08F78B5B9
:100BB00005460E46144618E07A2D03DD002506F1A1
:100BC0001000C6B23A2E04DD002005460646FFF7A7
:100BD00003FF0120009022780C2331462846FFF7BE
:100BE00042FF05F10800C5B2641C20780028E3D15B
:100BF00078BD10B54B48806940F0080049498861CC
:100C00004948006849490840474908600846006863
:100C100047490843444908604248806940F004005D
:100C2000404988614348006820F0704041490860AD
:100C30000846006840F00050086000203549083937
:100C400008606420FFF756FB01203B49C1F88C0186
:100C50000021AE20FFF75AFE0021D520FFF756FEF7
:100C600000215020FFF752FE0021A820FFF74EFE82
:100C700000213F20FFF74AFE0021D320FFF746FE68
:100C800000210846FFF742FE00214020FFF73EFE0C
:100C900000218D20FFF73AFE00211420FFF736FED9
:100CA00000212020FFF732FE00210220FFF72EFE58
:100CB0000021A120FFF72AFE0021C020FFF726FE19
:100CC0000021DA20FFF722FE00211220FFF71EFE8E
:100CD00000218120FFF71AFE0021EF20FFF716FE0A
:100CE0000021D920FFF712FE0021F120FFF70EFEB0
:100CF0000021DB20FFF70AFE00213020FFF706FE6F
:100D00000021A420FFF702FE0021A62016E000002B
:100D1000BC0121429481214264020020D682000855
:100D20004A87000800100240000C0140FF0F00FF3E
:100D3000002022000408014000802142FFF7E6FD68
:100D40000021AF20FFF7E2FDFFF746FE10BD0000D7
:100D5000002000E0401C0A28FCDB70470146EB48FD
:100D6000006820F01F00E94A106010460068084340
:100D70001060E6482C38006840F48000E34A2C3AC2
:100D8000106000BFE1483438006800F0020000281D
:100D9000F8D0DE481830006880B2704710B50023E4
:100DA00000240120DA4908600020DA49C1F89C01DA
:100DB000FFF7CEFF0120D649143108600020D54945
:100DC000C1F88801FFF7C4FF0120D1490860002065
:100DD000D049C1F89C01FFF7BBFF002315E00020BC
:100DE000CB490860FFF7B4FF0320FFF7B7FF0011FE
:100DF000C94921F81400601CC4B20120C549C1F8DA
:100E00008801FFF7A5FF581CC3B2802BE7DB10BD9C
:100E1000C248806940F00400C0498861C048006849
:100E200020F07060BE490860BC48806940F40070E2
:100E3000BA4988610846C06840F40070C860084636
:100E4000C06820F40070C8600846406820F4404044
:100E500048600846406840F400404860AB4830387D
:100E60000068B0490840A949303908600846006860
:100E700008600846006820F480700860081D00685B
:100E800020F00200091D08600846006820F4602078
:100E900008600846006840F4602008600846006862
:100EA00040F4801008600846006820F40060086084
:100EB00096480838006820F47000944908390860A2
:100EC000084600680020086090482438006820F038
:100ED00070608E49243908600846006840F4E010CC
:100EE00008608A482C38006840F0010087492C3996
:100EF00008600846006840F00800086000BF8348AA
:100F00002C38006800F008000028F8D17F482C3801
:100F1000006840F004007D492C39086000BF7B4820
:100F20002C38006800F004000028F8D170472DE943
:100F3000F04F87B00620FFF711FF019006F0BCFAD2
:100F400080464FF06632784B06F0CAFA0022774BA3
:100F5000CDE9020106F0C4FA0022754BCDE9040187
:100F600006F0BEFA06460022724B06F007F9044668
:100F70000022714B06F002F9824606F057FA0690FD
:100F8000069807B0BDE8F08F70B5FF20FFF74EFB65
:100F9000002519E0FFF702FF002400BF11E05E48C2
:100FA00030F81400FF2806D15B4830F81400401ECA
:100FB000594921F81400584911F81400FFF736FB7D
:100FC000641C802CEBDB6D1C642DE3DB70BD10B565
:100FD0005248806940F004005049886150480068D8
:100FE00020F470404E4908600846006853490840A4
:100FF0004B49086008460068514908434849086061
:101000004648806940F40070444988610846C068D9
:1010100040F40070C8600846C06820F40070C860E2
:101020000846406820F4404048600846406840F464
:10103000004048603548303800683A490840334934
:10104000303908600846006808600846006820F4E7
:1010500080700860081D006820F00200091D08600B
:101060000846006820F4602008600846006840F4E4
:10107000602008600846006840F480100860084658
:10108000006820F40060086020480838006820F4F8
:1010900070001E4908390860084600680020086092
:1010A0001A482438006820F4704018492439086030
:1010B0000846006840F46060086014482C380068F6
:1010C00040F0010011492C3908600846006840F0E2
:1010D0000800086000BF0D482C38006800F00800C8
:1010E0000028F8D109482C38006840F0040007496E
:1010F0002C39086000BF05482C38006800F0040057
:101100000028F8D10120FFF7F5F810BD3424014084
:1011100088012142000021426401002000100240A9
:1011200000080140FFFFF00066660A40000026400C
:10113000000059400000F03F0000B040FFF0FF0FFA
:101140000002002070B505460C462A48C06940F0F0
:1011500002002849C86128480580001F04802648ED
:101160002038008840F001002349203908800846D3
:10117000008840F0400008801F482C38008840F06C
:1011800001001D492C39088001231D220321184626
:10119000FFF7E8F870BD10B50120184908600F206E
:1011A000FFF78CF800201649C1F884011548007833
:1011B00000F08000E8B11348007800F03F001249C9
:1011C00008600846008800040860084600680F4967
:1011D000098808440C49086008460068AA21484369
:1011E0004FF47A71B0FBF1F007490860002005491F
:1011F000088010BD001002402C0400408481214270
:10120000008021425A000020300000205C000020B5
:101210003648806940F008003449886134480068E5
:1012200080B23349086008460068324908433049B3
:101230000860704700B502460B46FFF7E9FF2B48F0
:10124000806940F40060294988610846806940F05F
:1012500004008861284800684FF20F01884326493E
:101260000860084600684BF20B01084322490860F9
:1012700022480280001F038020481038008840F474
:10128000C0401E4910390880081F008840F06000E7
:10129000091F0880081D008840F40060091D0880AF
:1012A000081F008840F00800091F088013480C3808
:1012B000008840F4805011490C39088008460088A5
:1012C00040F0010008800D481830008840F40040CC
:1012D0000A4918310880802008492C3908800846BE
:1012E000008840F00100088000BD000000100240AE
:1012F000040C014000002222040801402C2C014073
:1013000010B58448C06940F001008249C8610846B0
:10131000806940F0040088617F48006820F0FF0089
:101320007D4908600846006840F044000860C80431
:10133000808940F00100C90488810846808940F016
:101340004000888101231C2203211846FFF70AF878
:1013500000204FF0804108854FF6FF7088850846D1
:10136000008820F4407008800846008820F0600063
:1013700008800846008B40F0010008830846008B77
:1013800040F4807008830846008C20F00200088436
:101390000846008C20F0200008840846008B40F0AE
:1013A000300008830846008940F0030008810846A1
:1013B000008840F00100088010BD10B55548C06994
:1013C00040F004005349C8610846806940F00800B5
:1013D00088615248006820F07F4050490860084604
:1013E000006840F0884008604D48008840F00100E7
:1013F0004B4908800846008840F0400008800123DF
:101400001E2203211846FEF7ADFF002044491C317F
:1014100008804FF6FF70091D088041480C3800888D
:1014200020F440703E490C3908800846008820F0BE
:10143000600008803A480C30008840F001003849CC
:101440000C3108800846008840F4807008803448D9
:101450001430008820F00200314914310880084619
:10146000008820F0200008802D480C30008840F0D3
:1014700030002B490C3108802948001F008840F0BB
:1014800003002749091F088025480C38008840F0D0
:10149000010023490C39088010BD0146022904D0FF
:1014A00003290BD0042919D10FE04FF08042928C10
:1014B00010B200224FF080439A8411E0194A12883A
:1014C00010B20022174B1A800AE0154A183212880F
:1014D00010B20022124B18331A8001E0002000BF26
:1014E00000BF70470E48001D00880D48001D008891
:1014F00020F001000A49091D088070474FF0804024
:10150000008A4FF08040008A20F001004FF08041B7
:10151000088270470010024000080140000C0140A2
:101520000C08004024040040F748806940F008009F
:10153000F5498861F548006820F0FF00F34908602C
:101540000846006840F033000860704710B5EF4867
:10155000006820F0F000ED4908600846006840F09F
:10156000300008600120EA490860EA48D0F8240108
:1015700008B9002010BD0120E549091F0860FEF7E9
:101580009DFE0020E349C1F8A401E14880380068CD
:1015900008B10020EEE70120FEF790FE0020DC49B4
:1015A000091F08600120E5E710B5D848006820F061
:1015B000F000D64908600846006840F03000086036
:1015C0000020D349091F0860D249C1F8A4010120B5
:1015D000FEF774FE0120CE49091F0860CD49C1F80D
:1015E000A401FEF76BFE10BD10B50024C7480068CB
:1015F00020F0F000C54908600846006840F080000F
:1016000008600120C2490860FEF758FE0120C14968
:10161000C1F8A001FEF752FE0AE0601CC4B2322CF1
:1016200003DDFFF7C1FF002010BD0120FEF746FEDD
:10163000B748803800680028EFD1B549091F086015
:101640000120F1E710B50020B149091F0860AF483B
:10165000006820F0F000AD4908600846006840F0DE
:10166000300008600020AB49C1F8A4010120FEF75A
:1016700025FE0120A649091F0860FEF71FFE002075
:10168000A449C1F8A00110BD10B50020A049091F50
:1016900008609E48006820F0F0009C4908600846F9
:1016A000006840F03000086001209A49C1F8A401A8
:1016B000FEF704FE01209649091F0860FEF7FEFDB3
:1016C00000209449C1F8A00110BD70B504468F48B0
:1016D000006820F0F0008D4908600846006840F07E
:1016E0003000086000208A49091F0860002516E0C4
:1016F000E009874908606006040E0120FEF7DEFD60
:1017000001208449C1F8A001FEF7D8FD00208049DE
:10171000091F08600120FEF7D1FD681CC5B2082D25
:10172000E6DB70BD2DE9F04105460E4617469846AA
:10173000FFF70CFF10B90120BDE8F0816906080E23
:10174000FFF7C3FFFFF750FF18B9FFF72DFF012088
:10175000F2E73046FFF7B9FFFFF746FF00240BE042
:1017600018F80400FFF7B1FFFFF73EFF18B9FFF7C5
:101770001BFF0020E0E7641CBC42F1DBFFF714FF15
:101780000020D9E770B5054600246048006820F0C5
:10179000F0005E4908600846006840F0800008607C
:1017A000002617E000205A49091F08600220FEF7B2
:1017B00085FD01205749C1F8A0016006040E544878
:1017C0008038006808B1601CC4B20220FEF776FDC4
:1017D000701CC6B2082EE5DB15B1FFF733FF01E040
:1017E000FFF752FF204670BD2DE9F04106460F4637
:1017F00014461D46FFF7AAFE10B90120BDE8F0818E
:101800007106080EFFF761FFFFF7EEFE18B9FFF74C
:10181000CBFE0120F2E73846FFF757FFFFF7E4FE63
:10182000FFF794FE012101EB4601C8B2FFF74DFF1F
:10183000FFF7DAFE0DE0012C04D10020FFF7A2FF34
:10184000287003E00120FFF79DFF28706D1C601ECB
:10185000C4B2002CEFD1FFF7A7FE0020CEE770B591
:1018600005460E460024FFF771FE2846FFF72DFFC0
:10187000641CFFF7B9FE3046FFF727FF641CFFF733
:10188000B3FEFFF763FE691CC8B2FFF71EFF641CBE
:10189000FFF7AAFE0020FFF775FF0446FFF784FE5E
:1018A000204670BD2DE9F0410746884615461E4684
:1018B0000024FFF74BFE3846FFF707FFFFF794FEC3
:1018C0004046FFF702FFFFF78FFEFFF73FFE791C50
:1018D000C8B2FFF7FAFEFFF787FE00BF0DE0681EF3
:1018E000A04204D00120FFF74DFF305503E0002057
:1018F000FFF748FF3055601CC4B2AC42EFDBFFF786
:1019000053FE2046BDE8F08100100240040C014067
:10191000A4812142008021422DE9F04180460D46FC
:1019200016461F460024FFF711FE4046FFF7CDFE86
:10193000FFF75AFE2846FFF7C8FEFFF755FE00BF27
:1019400006E0385DFFF7C1FEFFF74EFE601CC4B233
:10195000B442F6DBFFF728FE0120BDE8F08170B548
:1019600005460E46144631462846FFF778FF20709C
:10197000012070BD37B504460D4602AB0122294651
:101980002046FFF7C9FF3EBD2DE9F84307468846CC
:1019900014461D46089E6A4641463846FFF7DFFF5B
:1019A00028B3601CFF2101FA00F0C4F108012944AA
:1019B000491EFF220A41104300F0FF09C5F108004B
:1019C00006FA00F0C6B2C4F1070006419DF8000017
:1019D00000EA090000909DF80000304300909DF857
:1019E000002041463846FFF7C5FFBDE8F8830020D8
:1019F000FBE7F8B506460F4614461D466A463946CB
:101A00003046FFF7ACFF2DB10120A0409DF800103B
:101A1000084305E00120A0409DF8001021EA0000E5
:101A2000C0B200909DF8002039463046FFF7A2FF73
:101A3000F8BD00002DE9F05F05460E46300106F0C6
:101A40000DFA8146CB4905FB01F006F007FA824604
:101A5000494606F0B9F80746384606F0C7F984B299
:101A6000204606F0FBF98346394606F03CFB8246E9
:101A70004FF0834106F03AFA814606F0B7F9804606
:101A80004FF6FF7000EA041404EB080084B2BA4871
:101A9000806940F00800B84988610846C06940F490
:101AA0008020C861B548006820F47F40B3490860D1
:101AB0000846006840F40B400860B04808300068F1
:101AC00040F48060AD4908310860AB48006940F4DB
:101AD0008020A94908610846006920F48020086137
:101AE000A7480480001D008842F20C010843A44965
:101AF000091D08800846008840F480700880084668
:101B0000008840F020000880022327220121184687
:101B1000FEF728FCBDE8F09F99480838008800F0DF
:101B2000200000287AD09648001F00889549086058
:101B30000846007894490870084600789349097867
:101B4000884212D1904840789049497888420CD117
:101B50008D4880788D498978884206D100208C494B
:101B600008708949087048708870874800788949EA
:101B70000978884213D18448407886494978884258
:101B80000DD18148807883498978884207D1012026
:101B90007F49087000207C49087048708870794837
:101BA0000068592802D102207B49087075480068F6
:101BB000582802D1012078490870724800680A2824
:101BC00065DD704800685A2809D100207349087003
:101BD00073490870734908707349087057E0694881
:101BE000006841280AD101206C49087000206C4926
:101BF00008706C4908706C49087048E061480068DA
:101C000045280CD1002065490870012064490870FE
:101C10000020644908706449087038E0A8E0594819
:101C20000068422807D057480068432803D0554829
:101C3000006844280AD100205849087058490870A3
:101C40005849087001205849087020E04D48006844
:101C5000462807D04B480068472803D04948006809
:101C600048280BD100204D4908704D4908700120CB
:101C70004C49087000204C49087008E00020474992
:101C800008704749087047490870474908703D483F
:101C900000680A2865DA01203F4908703948006861
:101CA00048B900203D4908703D4908703D49087019
:101CB0003D49087055E033480068012809D137498B
:101CC0000870002036490870364908703649087097
:101CD00047E02C48006805280BD100202F490870E8
:101CE00001202F49087000202E4908702E490870E5
:101CF00037E024480068022807D0224800680328FB
:101D000003D02048006804280AD100202349087025
:101D1000234908702349087001202349087020E0F6
:101D200018480068062807D016480068072803D01E
:101D30001448006808280BD1002018490870184979
:101D4000087001201749087000201749087008E042
:101D5000002012490870124908701249087012498F
:101D6000087009484078084988700846007848702B
:101D70007047000040420F0000100240040C014078
:101D80000848004070000020610000206C00002026
:101D9000060000206900002005000020010000204E
:101DA000020000200300002004000020014600295A
:101DB00001DA484200E00846704700B503460A468B
:101DC000002B07DD0020FD4908600120FC49C1F817
:101DD000B80106E00120F94908600020F849C1F87F
:101DE000B8011846FFF7E2FFF6490880002A08DD2F
:101DF0000020F249083908600120F149C1F8B0011A
:101E000007E00120ED49083908600020EC49C1F8DD
:101E1000B0011046FFF7CAFFEA490C31088000BD47
:101E200070B505460E46E849284606F02BF808D35B
:101E3000E649284606F026F903D3E548007801284C
:101E40000ED101240020DD49091F0860DC49C1F8DA
:101E5000BC01DA4908390860D949C1F8B00100E08D
:101E60000024204670BD41F6F420DA4909780129A2
:101E700004D1D94909686431D74A1160D749097832
:101E8000012904D1D64909686439D54A1160D2497B
:101E900009684242914202DA4142CF4A1160CE497A
:101EA0000968814201DDCC490860CD490968424298
:101EB000914202DA4142CA4A1160C9490968814225
:101EC00001DDC749086070472DE9F84F04460D460B
:101ED000DFF81083DFF81093A4F1400005F0A6FFAF
:101EE00007464946284606F001F887F0004B414670
:101EF0000090584605F0FAFF8246009906F0FEF879
:101F00000646304605F056FFBDE8F88F2DE9FC5F28
:101F1000B6480190B6480090B648B7490860B7493E
:101F20000968B74A12681144084605F07FFFB549B1
:101F30000860B548006805F0ADFD0646B34AB44BED
:101F400005F0CEFA044605F037F8AF490860AD4811
:101F5000006805F09FFD8046AC4AAE4B05F0C0FA24
:101F600004460D46A848006805F094FD0646224642
:101F70002B4605F053F8824605F01EF8A24908608A
:101F800008460168A448006805F0B0FDA249086051
:101F900099480168A048006806F0B0F89E490860BA
:101FA0009E499D48006806F06DF802D29B489A4908
:101FB00008609B499848006805F064FF02D2984881
:101FC0009549086094480099006805F08FFF044621
:101FD0008D480199006805F089FF0546214605F006
:101FE00085FD904908609048016890480068FFF7B7
:101FF00017FF012803D076480078012802D100207D
:10200000854908608748006805F0D4FEBDE8FC9F5C
:102010002DE9F84F05460C46854E4FF07E57854911
:10202000284606F06BF800903946204605F05EFF22
:1020300082463046009905F059FF8346514605F027
:1020400055FD814605F0B6FE80464046BDE8F88F56
:1020500070B53220FEF7B0FB0546012D07D15C4874
:10206000007808B9012000E0002059490870022DCD
:1020700007D17148007808B9012000E000206E49BE
:102080000870FEF708FC0446012C07D16B48007865
:1020900008B9012000E000206849087070BD00B553
:1020A000674800886749088005206749087014E080
:1020B00063486549097830F8110062490988884207
:1020C00006DB5F486049097830F811005D490880F7
:1020D0005D480078401C5C4908705B4800787B28AC
:1020E000E6DB5748008859490880052056490870A2
:1020F00014E053485449097830F8110053490988CD
:10210000884206DC4E485049097830F811004F49A2
:1021100008804D480078401C4B4908704A480078B8
:102120007B28E6DB47490988484A1288881800EB73
:10213000D071C1F34701464A117005204249087029
:1021400092E03F484049097830F811004049097849
:1021500088427FDD3A493C480078401C31F8100045
:102160003B49097888427ADD354937480078801C38
:1021700031F8100036490978884270DD304932481C
:102180000078C01C31F8100031490978884266DABD
:102190002B492D480078001D31F810002C49097892
:1021A00088425CDA264928480078401D31F8100042
:1021B00027490978884252DA23484CE0BC81214201
:1021C00000802142342C0140000020C20000204247
:1021D0000600002001000020100000200200002066
:1021E000140000200000F0418FC2F53D0000A04225
:1021F000CDCCCC3E0000F0C29000002008000020B2
:102200000C000020880000208C0000209A999999E9
:102210009999E93F9999C93F9400002000E02B4625
:1022200000E02BC6840000201C00002020000020BD
:10223000000096430000A040070000203600002068
:10224000640100209E00002098000020A0000020D3
:102250003D00002003E00078E949087009E0E94802
:102260000078401CE7490870E64800787628FFF6B9
:1022700068AF00BF7620E449087044E0E348E249D3
:10228000097830F81100E2490978884236DADF49E6
:10229000DD480078401C31F81000DD49097888429B
:1022A0002CDADA49D8480078801C31F81000D84977
:1022B0000978884222DAD549D3480078C01C31F821
:1022C0001000D3490978884218DDD049CE480078FB
:1022D000001D31F81000CE49097888420EDDCB4947
:1022E000C9480078401D31F81000C9490978884272
:1022F00004DDC5480078C749087008E0C248007886
:10230000401EC1490870C04800780528B6DC00BFEF
:10231000C0490978BA4A1278881800EBD071C1F325
:102320004701BD4A117011460978BC4A1278881AD3
:10233000FFF73CFD462803DDB8480078B649087031
:10234000B5480078B549087000BD2DE9F04F89B057
:10235000814603F0F2FCB2490860B9F1010F1ED1C9
:1023600003F05AFBAF48006880F00040AE490860B7
:10237000AE49B1F90010484205F058FDAC4908607B
:10238000AA49B1F9040005F051FDAA490860AA491B
:10239000B1F9040005F04AFDA8490860B2E0442103
:1023A000D020FFF75CFA80464321D020FFF757FA90
:1023B00008EB0027384605F039FD04464821D020B7
:1023C000FFF74DFA80464721D020FFF748FA08EB87
:1023D0000027384605F02AFD06463E21D020FFF7AB
:1023E0003EFA80463D21D020FFF739FA08EB00275E
:1023F000384605F01BFD82464021D020FFF72FFA1A
:1024000080463F21D020FFF72AFA08EB0027384604
:1024100005F00CFD05464FF08E41204605F032FEDA
:1024200005D24FF08F41204605F068FE04464FF07C
:102430008E41304605F026FE05D24FF08F413046E2
:1024400005F05CFE06464FF08E41504605F01AFE40
:1024500005D24FF08F41504605F050FE82464FF0B6
:102460008E41284605F00EFE05D24FF08F412846DA
:1024700005F044FE05466E480460284605F00AFB58
:10248000CDE90001504605F005FB0746DDE90023D4
:1024900004F0ACFC00226A4BCDE9020105F020F803
:1024A000684A694BCDE9040104F068FECDE90601F4
:1024B00004F082FD8346204605F0ECFA4FF06632C8
:1024C000624BCDE9060104F059FE074604F074FDA5
:1024D00004465F480078022804D12146584602F09D
:1024E000D3FE07E05A480078032803D12146584616
:1024F00002F0E1FF574800684B4908604D4806600C
:102500004E48056009B0BDE8F08F10B50020524973
:1025100008805248007808B9012000E000204F49A7
:1025200008704F48007801280BD14E480078401CB5
:10253000C0B24C4908700A2803D1002008704849ED
:10254000087046480078012805D1FEF727FCFEF701
:10255000EEFC454908604148007800284FD1022030
:10256000FEF79BFF414908600420FEF796FF4049B3
:10257000086037480078FFF7E8FE6420FEF7E2F8CD
:10258000FFF78DFDFFF764FD2948016826480068C4
:10259000FFF73EFD37490860354801683348006859
:1025A000FFF7B4FC34490860224801681A480078F3
:1025B000FFF78AFC314908602E4800682E490968F7
:1025C00008442E490968401A2D49086029480068C6
:1025D00029490968084429490968084429490860C3
:1025E000FFF741FC204801680F480068FFF718FC1E
:1025F00028B92448016822480068FFF7DEFB10BDB7
:102600009A0000209800002099000020640100201A
:102610003D0000209B0000203C0000209C0000208A
:102620001800002038010020200000202401002094
:1026300024000020280000202A010020380000206B
:1026400000806640F1D4C853FB21094066663040E3
:1026500000000020D4000020100400408000002072
:1026600035000020340000201C000020080000205D
:102670000C00002074000020780000207C00002066
:10268000100000201400002038B50446FB4890F8E4
:102690002400C0B114B10220009001E0002000909D
:1026A000F64A1268D17BF54A526810786B460122CF
:1026B000FFF738F810B14FF0FF3038BD9DF800102B
:1026C000EE48417423E0ED48807A10B94FF0FF30B6
:1026D000F3E724B1E948407C08B10020EDE714B1EC
:1026E0000120009001E000200090E44A1268D17BB4
:1026F000E24A526810786B460122FFF713F810B1D6
:102700004FF0FF30D9E79DF80010DC4841740020FD
:10271000D3E738B5002419E0D8480068C07AA04251
:1027200004D0D6480068407DA04200D10CE0D349D7
:10273000496808786B4601222146FFF755F810B129
:102740004FF0FF3038BD00BF601CC4B2CB484068BA
:102750000079A042E0DC0020F4E770B504460D46A5
:10276000C6480068C07AA04204D0C4480068407DD2
:10277000A04202D14FF0FF3070BDC04840680079E0
:10278000A04202DC4FF0FF30F6E7BC494968087808
:102790002B4601222146FFF727F8EDE738B504461E
:1027A000B64890F82300A04201D1002038BD14B1F2
:1027B0003020009001E000200090B048807C20B1E3
:1027C0009DF8000040F002000090AC4890F8220014
:1027D00020B19DF8000040F080000090A74A1268E8
:1027E000117DA64A526810786B460122FEF79AFFC7
:1027F00010B14FF0FF30D9E7A04880F82340002007
:10280000D4E738B5044604F0700010B10120009000
:1028100005E014B10020009001E040200090974AAC
:102820001268917C954A526810786B460122FEF737
:1028300079FF20B1002191488172481E38BD9DF872
:10284000000020F040018D4801730020009004F04A
:10285000400020B99DF8000040F00400009004F012
:10286000200020B99DF8000040F00200009004F024
:10287000100020B99DF8000040F00100009004F025
:10288000080020B99DF8000040F0380000907B4A15
:102890001268D17C794A526810786B460122FEF7A3
:1028A00041FF20B1002175488172481EC6E724B15E
:1028B000082C02D00020FFF771FF704884720021BD
:1028C00001753220FDF716FD0020B7E738B5044644
:1028D0006A48807CA04201D1002038BD002C46D03F
:1028E000664A12681179654A526810786B4601226F
:1028F000FEF77AFF10B14FF0FF30EEE79DF80000D1
:1029000020F0200000905D4A126811795B4A5268FD
:1029100010786B460122FEF705FF10B14FF0FF3033
:10292000DBE70320FDF7E6FC02200090534890F817
:10293000220020B19DF8000040F0800000904F4838
:1029400090F8230020B19DF8000040F03000009086
:102950004A4A1268117D494A526810786B46012232
:10296000FEF7E0FE002851D04FF0FF30B5E7434AB4
:1029700012681179414A526810786B460122FEF7BD
:1029800033FF10B14FF0FF30A7E73C48807A00F0EA
:10299000010028B19DF8000040F02000009004E004
:1029A0009DF8000020F020000090344A1268117950
:1029B000324A526810786B460122FEF7B3FE10B11E
:1029C0004FF0FF3089E70320FDF794FC2B4890F887
:1029D000220010B18020009001E0002000902748E4
:1029E00090F8230020B19DF8000040F030000090E6
:1029F000224A1268117D214A526810786B460122E2
:102A0000FEF790FE10B14FF0FF3066E71B4884746C
:102A1000002062E708B51948807A10B94FF0FF30FE
:102A200008BD00200090154A1268D17B134A5268F5
:102A300010786B460122FEF775FE10B14FF0FF30A3
:102A4000EEE70E4A126851790C4A526810786B46CC
:102A50000122FEF767FE10B14FF0FF30E0E7074AB2
:102A600012681179054A526810786B460122FEF708
:102A700059FE28B14FF0FF30D2E70000A40000203B
:102A8000F74890F82400002850D00C200090F44A19
:102A900012681179F24A526810786B460122FEF7EB
:102AA00041FE10B14FF0FF30BAE7C0200090EC4873
:102AB000807A00F0010020B19DF8000040F0200075
:102AC0000090E74A12681179E54A526810786B461F
:102AD0000122FEF727FE10B14FF0FF30A0E7E048DB
:102AE000407C10B10220009001E000200090DC4A00
:102AF0001268D17BDA4A526810786B460122FEF7E1
:102B000011FE10B14FF0FF308AE700200090D44A48
:102B100012685179D24A526810786B460122FEF74A
:102B200001FE002852D04FF0FF3079E704200090DA
:102B3000CB4A12681179CA4A526810786B46012252
:102B4000FEF7F0FD10B14FF0FF3069E7C448807C1C
:102B500020B9C348807A00F0010010B940200090ED
:102B600001E060200090BE4A12681179BC4A5268A8
:102B700010786B460122FEF7D5FD10B14FF0FF3003
:102B80004EE7B748407C10B10120009001E00020E2
:102B90000090B34A1268D17BB14A526810786B46F4
:102BA0000122FEF7BFFD10B14FF0FF3038E7AC4A0D
:102BB00012685179AA4A52681078A94B1033012241
:102BC000FEF7B0FD10B14FF0FF3029E7002027E7F6
:102BD00070B50446002624F00104A14890F82400B2
:102BE00008B1002070BD9E48807A10B94FF0FF30C8
:102BF000F8E79B48057C807A20409949087408468C
:102C0000007CA04202D04FF0FF3600E0002614B94D
:102C10009348007D18B10120FFF736FD02E0002047
:102C2000FFF732FD3CB1FFF7F5FE20B18C4805748B
:102C30004FF0FF30D6E73046D4E738B50446884831
:102C4000807A10B94FF0FF3038BDBC2C02DB012078
:102C5000009015E0622C02DB0220009010E02A2C8C
:102C600002DB032000900BE0142C02DB0420009018
:102C700006E00A2C02DB0520009001E0062000900F
:102C80007748C07A9DF80010884201D10020DBE728
:102C9000734A12689178724A526810786B46012222
:102CA000FEF740FD10B14FF0FF30CDE79DF800106A
:102CB0006B48C1720020C7E738B50446282C02DDF6
:102CC0004FF0FF3038BDDCB90020FFF767FD002072
:102CD0008DF8000007208DF80100614A1268917C90
:102CE0005F4A526810786B460222FEF71BFD10B156
:102CF0004FF0FF30E6E70021594801750020E1E779
:102D00000120FFF74BFD20208DF80000012C06D19B
:102D100000208DF801000520FFF78FFF17E0052C3C
:102D200006DC01208DF801000520FFF786FF0EE08C
:102D3000142C06DC02208DF801000A20FFF77DFF2D
:102D400005E003208DF801001420FFF776FF9DF8C1
:102D50000100072101EB8010C0B28DF80100404A4C
:102D60001268917C3E4A526810786B460222FEF748
:102D7000D9FC10B14FF0FF30A4E708213848817228
:102D800000210173012101750020FFF721FF0020C0
:102D900098E738B504463248807A10B94FF0FF30D2
:102DA00038BD2F4890F8240010B14FF0FF30F7E7FE
:102DB0002B48007D50B134B1282C04DCE0B2FFF781
:102DC0007BFF0020ECE70020FFF776FF042C01DA00
:102DD000042404E0B4F57A7F01DD4FF47A744FF4F3
:102DE0007A7090FBF4F0401EC0B200901C4A12684A
:102DF00051781B4A526810786B460122FEF792FC0C
:102E000010B14FF0FF30CBE79DF80000401C4FF4AD
:102E10007A7191FBF0F081B21148C1810146C989F4
:102E20004810FFF70AFF0020BAE738B504460C48FF
:102E3000807A10B94FF0FF3038BD022C06D0042C38
:102E400007D0082C08D0102C0FD10BE000200090E8
:102E50000EE0082000900BE01020009008E0000039
:102E6000A40000201820009002E04FF0FF30E3E7BC
:102E700000BFF948407A9DF80010B0EBE10F01D196
:102E80000020D9E7F44A1268D179F34A52681078E1
:102E90006B460122FEF746FC10B14FF0FF30CBE746
:102EA0009DF80000C110EC4841720020C4E738B51D
:102EB0000446E948807A10B94FF0FF3038BDFA2C4B
:102EC00009D0B4F5FA7F09D0B4F57A7F09D0B4F50A
:102ED000FA6F0CD108E0002000900BE00820009071
:102EE00008E01020009005E01820009002E04FF06C
:102EF000FF30E3E700BFD848007A9DF80010B0EB40
:102F0000E10F01D10020D9E7D34A12689179D24A62
:102F1000526810786B460122FEF704FC10B14FF0A6
:102F2000FF30CBE79DF80000C010CB4908720020AD
:102F3000C4E71CB580208DF80000C74A1268917C58
:102F4000C54A526810786B460122FEF7EBFB10B1C0
:102F50004FF0FF301CBD6420FDF7CCF900208DF848
:102F60000000BD4A1268917CBB4A526810786B46DB
:102F70000122FEF7D7FB10B14FF0FF30EAE7B64A67
:102F80001268917DB44A526810786B460622FEF7AB
:102F90002BFC10B14FF0FF30DCE79DF80500C007B7
:102FA000400F9DF8031001F0010140EA41009DF837
:102FB000011001F0010140EA010494B1012C03D198
:102FC0000121A548C17431E0022C03D10021A2489F
:102FD000C1742BE02146A1A003F00EFA4FF0FF30A0
:102FE000B8E79D4A1268D1789B4A526810786B46C0
:102FF0000122FEF7F9FB10B14FF0FF30AAE79DF870
:10300000000000F00F042CB99E4803F0F5F94FF0D2
:10301000FF309FE7042C06D19BA003F0EDF90121BE
:103020008D48C17402E000218B48C174FF218A4899
:103030008172FF2088490872FF2187484172C1725E
:103040004FF6FF71C181FF21017481740121017369
:1030500080F82210002180F8231041750175163088
:10306000016041608160163880F8241080F82510D6
:10307000C1844FF4FA60FFF71AFF10B14FF0FF3030
:1030800068E70220FFF7D1FE10B14FF0FF3061E793
:103090002A20FFF7D2FD10B14FF0FF305AE732205F
:1030A000FFF777FE10B14FF0FF3053E70020FFF736
:1030B0008FFD10B14FF0FF304CE70020FFF706FC0A
:1030C00010B14FF0FF3045E70020FFF79AFB0020DA
:1030D00040E770477CB504460D465F48807A00F0B3
:1030E000700010B94FF0FF307CBD5B4A1268117B55
:1030F000594A526810786B460622FEF775FB10B1EC
:103100004FF0FF30F0E79DF801009DF8001040EA15
:10311000012000B220809DF803009DF8021040EAD3
:10312000012000B260809DF805009DF8041040EA7F
:10313000012000B2A08015B12846FFF7CAFF002089
:10314000D2E77CB504460D464348807A00F008007B
:1031500010B94FF0FF307CBD3F4A1268517B3E4AA8
:10316000526810786B460622FEF73EFB10B14FF016
:10317000FF30F0E79DF801009DF8001040EA0120C3
:1031800000B220809DF803009DF8021040EA012063
:1031900000B260809DF805009DF8041040EA01200F
:1031A00000B2A08015B12846FFF793FF0020D2E7B8
:1031B0002DE9FE4F05460C462748807A18B94FF096
:1031C000FF30BDE8FE8F244A1268917B224A526884
:1031D000107802AB0222FEF707FB10B14FF0FF3070
:1031E000EFE79DF809009DF8081040EA012006B2BB
:1031F00014B12046FFF76DFF17494968C88804F0ED
:103200002DFE154901904968B1F9080004F00EFE41
:103210008346304604F00AFE5946009004F06EFFE3
:103220008246019904F0D0FC81461F4904F05EFCFF
:1032300080464FF08F4104F059FE074604F0BAFD76
:1032400028600020BDE710B588B004461CB94FF0D7
:10325000FF3008B010BD29E0A4000020556E737542
:1032600070706F7274656420736F667477617265D5
:103270002070726F64756374207265762025642EE9
:103280000A000000789A000848616C662073656E39
:103290007369746976697479207061727420666FDD
:1032A000756E642E0D0A000000000C42206830B9D3
:1032B000606820B9A06810B9002008B010BDFA49B4
:1032C0004968087806AB03221146FEF78DFA10B163
:1032D0004FF0FF30F1E79DF81800082101EB2010B6
:1032E00000F00F00ADF800009DF8190001EB201070
:1032F00000F00F00ADF802009DF81A0001EB20105D
:1033000000F00F00ADF8040020684100BDF9000096
:10331000403091FBF0F000B2ADF810006068410061
:10332000BDF90200403091FBF0F000B2ADF81200A0
:10333000A0684100BDF90400403091FBF0F000B2FC
:10334000ADF81400D8494968087806AB0622114642
:10335000FEF74AFA10B14FF0FF30AEE79DF81900C2
:103360009DF8181040EA012000B2ADF808009DF861
:103370001B009DF81A1040EA012000B2ADF80A00C7
:103380009DF81D009DF81C1040EA012000B2ADF828
:103390000C00BDF81000BDF80810084400B2ADF8EC
:1033A0001000BDF81200BDF80A10084400B2ADF8D4
:1033B0001200BDF81400BDF80C10084400B2ADF8BE
:1033C0001400BDF81000000A8DF81800BDF81000B8
:1033D000C0B28DF81900BDF81200000A8DF81A006D
:1033E000BDF81200C0B28DF81B00BDF81400000A31
:1033F0008DF81C00BDF81400C0B28DF81D00AA495C
:103400004968087806AB06221146FEF78BF910B121
:103410004FF0FF3051E700204FE70146A248007A05
:1034200030B1012807D0022809D003280FD10AE0C3
:10343000FA2008800EE04FF4FA7008800AE04FF49A
:103440007A70088006E04FF4FA60088002E00020FD
:10345000088000BF00BF0020704701469248407AB4
:1034600030B1012807D0022808D003280CD108E089
:10347000022008700BE00420087008E008200870A3
:1034800005E01020087002E04FF0FF30704700BFE9
:103490008548C07C18B108784006000E08700020EE
:1034A000F4E701468048C07A082817D2DFE800F028
:1034B0001704070A0D101318BC20088013E06220BF
:1034C000088010E02A2008800DE0142008800AE01F
:1034D0000A20088007E00520088004E000BF00BF44
:1034E0000020088000BF00BF0020704701466E48E2
:1034F00090F8240010B14FF0FF3070476A48C0893F
:1035000008800020F9E7014600200880401E70472F
:1035100001464FF0FF30704701466348007A30B1F2
:10352000012807D0022808D003280CD108E05F4802
:1035300008600BE05E48086008E05E48086005E04F
:103540005D48086002E04FF0FF30704700BF002088
:10355000FBE701465448407A30B1012808D00228E0
:103560000AD0032810D10BE04FF4804008800EE011
:1035700041F69C7008800AE04FF48050088006E015
:103580004FF40060088002E04FF0FF30704700BF4A
:103590004548C07C10B10888401008800020F5E73D
:1035A00001464148007C08700020704701463E48B3
:1035B000807A10B10120087001E00020087000201E
:1035C000704738B504463848807A10B94FF0FF305C
:1035D00038BD354A1268117C334A526810786B4600
:1035E0000222FEF701F910B14FF0FF30F0E79DF82D
:1035F00001009DF8001040EA012000B22080002068
:10360000E6E72DE9FE4F0746884692461D46DDF85F
:1036100030B000260024244890F8240010B1601E29
:10362000BDE8FE8F002028701F48807A10B94FF047
:10363000FF30F5E71C48007C10B94FF0FF30EFE792
:103640001948007C00F0400008B1B01CC6B2164812
:10365000007C00F0200008B1B01CC6B21248007C0B
:1036600000F0100008B1B01CC6B20F48007C00F09A
:10367000080008B1B01DC6B20B4A1268917A0A4A16
:10368000526810786B460222FEF7AEF810B14FF088
:10369000FF30C5E79DF801009DF8001040EA0129C0
:1036A000B1450BDA0020BBE7A40000200000034373
:1036B000000083423333034233338341FC48406884
:1036C0004088B9EB600F17DDF94A1268517CF84A5F
:1036D000526810786B460122FEF786F810B14FF061
:1036E000FF309DE79DF8000000F0100020B1FFF7CB
:1036F00091F96FF0010093E75046FFF7EAFCEC4ABE
:103700001268D17AEA4A526810786B463246FEF760
:103710006BF810B14FF0FF3082E799FBF6F0401ED6
:103720008BF8000000202870B4422AD0E048007CCA
:1037300000F0080028B3601C1DF800001DF80410FC
:1037400040EA012000B2A8F80000E01C1DF80010BB
:10375000A01C1DF8000041EA002000B2A8F80200F9
:10376000601D1DF80010201D1DF8000041EA00201A
:1037700000B2A8F80400287840F008002870A01DC6
:1037800084B2B44213D0CA48007C00F0400070B14B
:10379000601C1DF800001DF8041040EA012000B272
:1037A0003880287840F040002870A01C84B2B442D1
:1037B00013D0BF48007C00F0200070B1601C1DF8E1
:1037C00000001DF8041040EA012000B2788028783B
:1037D00040F020002870A01C84B2B44213D0B4483A
:1037E000007C00F0100070B1601C1DF800001DF896
:1037F000041040EA012000B2B880287840F01000A0
:103800002870A01C84B200200AE7F8B504460F46D1
:103810001646A74890F8240010B94FF0FF30F8BDC5
:10382000A348807A10B94FF0FF30F8E7A04A126839
:10383000917A9F4A526810786B460222FDF7D4FFB6
:1038400010B14FF0FF30EAE79DF801009DF800103D
:1038500040EA0125A54203DA00203070401EDEE771
:10386000934840684088B5EB600F17DD904A1268B6
:10387000517C8F4A526810786B460122FDF7B4FFE5
:1038800010B14FF0FF30CAE79DF8000000F01000C3
:1038900020B1FFF7BFF86FF00100C0E7E2B2844B40
:1038A0001B68D97A824B5B6818783B46FDF79CFF12
:1038B00010B14FF0FF30B2E795FBF4F0401E3070CE
:1038C0000020ACE701467A4880F8221000207047BB
:1038D0007CB5054676494968087801AB04220D217C
:1038E000FDF782FF08B107207CBD9DF80700C0F3FB
:1038F00001109DF8041001F0E00140EAE1008DF8AC
:1039000000009DF80700C0F381009DF8051001F04C
:10391000E00140EAE1008DF801009DF8070000F0A9
:1039200003009DF8061001F0E00140EAE1008DF887
:10393000020000241CE01DF8040018B9002045F81E
:10394000240013E05B4845F8240006E055F8240005
:10395000594904F0CBFA45F824001DF80400401E34
:10396000C0B20DF804000028F0D100BF601CC4B242
:10397000032CE0DB0020B7E72DE9FE4F06460F469B
:1039800000256846FFF7A4FF002442E056F8240013
:1039900057F82410A0EB010ABAF1000F01DB5146E1
:1039A00001E0CAF10001084604F040FA83464FF0F6
:1039B0008F4104F009F980465DF82400002104F0ED
:1039C000C5F916D05DF82410404604F0FDF8824693
:1039D0004FF07E5104F092FB814629F0004A3748AF
:1039E000416A504604F04EFB12D20120A04005432C
:1039F0000EE03248C169404604F044FA05D32F482E
:103A0000016A404604F03EFB02D20120A04005437B
:103A1000641C032CBADB2846BDE8FE8F2DE9FC5F51
:103A200006460F46002522494968087801AB032263
:103A30000D21FDF7D9FE10B10720BDE8FC9F9DF8D0
:103A4000040000F01F008DF804009DF8050000F050
:103A50001F008DF805009DF8060000F01F008DF88E
:103A60000600002462E056F8240057F82410A0EB6A
:103A7000010BBBF1000F01DB594601E0CBF1000166
:103A8000084604F0D3F94FF08F41009004F09CF801
:103A9000814601A8005DC0B30849086804F0DEF95A
:103AA00083465946064804F08FF880460FE0000030
:103AB000A40000207B14AE3E1D5A843F648D000894
:103AC00000B04C45FE49404604F010FA804601A87B
:103AD000005D401EC0B201A908550028F2D1414640
:103AE000484604F071F883464FF07E5104F006FB1F
:103AF00082462AF0004BF3488169584604F0C2FA26
:103B000013D20120A04005430FE0FFE7ED48016913
:103B1000484604F0B7F905D3EA484169484604F03D
:103B2000B1FA02D20120A0400543641C032C9ADBA9
:103B3000284682E72DE9F04F87B005460C469146AE
:103B400001208DF8100000208DF81100DE4A126867
:103B5000917CDD4A5268107804AB0222FDF7E2FD49
:103B600020B14FF0FF3007B0BDE8F08FC820FCF760
:103B7000C1FB00208DF81000D34A1268D17BD24AD5
:103B80005268107804AB0122FDF7CCFD10B14FF064
:103B9000FF30E8E7CC4A12685179CB4A5268107876
:103BA00004AB0122FDF7BEFD10B14FF0FF30DAE7A4
:103BB000C54A1268917CC44A5268107804AB01224D
:103BC000FDF7B0FD10B14FF0FF30CCE7BE4A1268F0
:103BD000D17DBD4A5268107804AB0122FDF7A2FDE9
:103BE00010B14FF0FF30BEE7B74A12681179B64AFC
:103BF0005268107804AB0122FDF794FD10B14FF02C
:103C0000FF30B0E70C208DF81000AF4A1268117930
:103C1000AD4A5268107804AB0122FDF783FD10B164
:103C20004FF0FF309FE70F20FCF764FBA648806A47
:103C3000407A8DF81000A44A12689178A24A52681E
:103C4000107804AB0122FDF76DFD10B14FF0FF308D
:103C500089E79D48806A007A8DF810009A4A1268B8
:103C60005178994A5268107804AB0122FDF75AFD49
:103C700010B14FF0FF3076E7B9F1000F07D092484E
:103C8000806A807A40F0E0008DF8100004E08E48F1
:103C9000806A807A8DF810008B4A126891798A4A7E
:103CA0005268107804AB0122FDF73CFD10B14FF0D3
:103CB000FF3058E7B9F1000F07D08348806AC07A17
:103CC00040F0E0008DF8100003E07E48C07A8DF8E7
:103CD00010007D4A1268D1797B4A5268107804AB93
:103CE0000122FDF71FFD10B14FF0FF303BE7B9F1A6
:103CF000000F02D0C820FCF7FDFA40208DF810001C
:103D0000714A12681179704A5268107804AB012226
:103D1000FDF708FD10B14FF0FF3024E778208DF853
:103D20001000694A12685179674A5268107804ABEA
:103D30000122FDF7F7FC10B14FF0FF3013E76149A6
:103D40008889FCF7D7FA00208DF810005E4A1268C7
:103D500051795D4A5268107804AB0122FDF7E2FC0C
:103D600010B14FF0FF30FEE6574A1268917A564A7A
:103D70005268107804AB0222FDF736FD10B14FF007
:103D8000FF30F0E69DF811009DF8101040EA012B7D
:103D90000C209BFBF0F0C6B20020A8606860286091
:103DA000A06060602060824665E0474A1268D17A70
:103DB000454A5268107804AB0C22FDF715FD10B18E
:103DC0004FF0FF30CFE69DF811009DF8101040EA4B
:103DD000012000B2ADF808009DF813009DF8121004
:103DE00040EA012000B2ADF80A009DF815009DF8E8
:103DF000141040EA012000B2ADF80C00BDF9081023
:103E0000206808442060BDF90A10606808446060BA
:103E1000BDF90C10A0680844A0609DF817009DF83B
:103E2000161040EA012000B2ADF800009DF819001C
:103E30009DF8181040EA012000B2ADF802009DF88C
:103E40001B009DF81A1040EA012000B2ADF80400F2
:103E5000BDF90010286808442860BDF902106868A0
:103E600008446860BDF90410A8680844A8600AF115
:103E7000010000F0FF0AB24597DB1248D0F800C0FD
:103E80002868C117090441EA10410704624600236B
:103E9000384602F08CFA32460023CDE9020102F0E6
:103EA00086FA28600748D0F800C06868C11709047E
:103EB00041EA1041070462460023384606E000004C
:103EC00054E3853F648D0008A400002002F06FFADF
:103ED00032460023CDE9020102F069FA6860FE482B
:103EE000D0F800C0A868C117090441EA10410704CE
:103EF00062460023384602F05AFA32460023CDE9E2
:103F0000020102F054FAA860F348D0F804C0216816
:103F1000C817000440EA11480F04624600233846DF
:103F2000414602F044FA32460023CDE9020102F094
:103F30003EFA2060E848D0F804C06068C117090460
:103F400041EA1041070462460023384602F02FFA86
:103F500032460023CDE9020102F029FA6060DE4812
:103F6000D0F804C0A068C117090441EA1041070451
:103F700062460023384602F01AFA32460023CDE9A1
:103F8000020102F014FAA060A068002804DDA06815
:103F9000A0F58030A06003E0A06800F58030A0604C
:103FA0000020E0E538B50446CC4890F82400A04253
:103FB00001D1002038BD24B3C84890F8250010B9BD
:103FC0004FF0FF30F6E70020FEF75EFB0020FEF723
:103FD0007DFCC249C88CFEF7DCFE00200090BF4982
:103FE000496808786B4601222321FDF79BFB0121DC
:103FF000BA4880F824100120FEF746FBFEF70AFDC0
:1040000013E00020FEF740FBB448007C0090B34969
:10401000496808786B4601222321FDF783FB0021C4
:10402000AE4880F82410FEF7F5FC0020C2E72DE929
:10403000F04F8DB083460F4602200C90A74890F8B1
:10404000240020B10020FFF7ADFF012600E000268C
:1040500003A8FFF7E2F905A8FFF7FFF901A8FFF7AA
:1040600020FA02A8FFF742FA9C4890F80AA004A898
:10407000FFF796FA002407E0002239465846FFF77A
:1040800059FD00B902E0641C022CF5DB00BF022CD4
:1040900001D1002528E0002407E0012206A909A893
:1040A000FFF748FD00B902E0641C022CF5DB00BFFD
:1040B000022C01D1002517E006A93846FFF75CFC69
:1040C00000F0FF0809A95846FFF7A8FC00F0FF0917
:1040D0000025B9F1000F01D145F00105B8F1000F3D
:1040E00001D145F0020500BFFF207C490872FF2185
:1040F0007A484172C1724FF6FF71C181FF2181720E
:10410000017401210173BDF80C00FEF7D0FE9DF88B
:104110001400FEF78AFEBDF80400FEF78EFDBDF820
:104120000800FEF736FE5046FEF76BFB9DF81000C8
:10413000FEF74EFD16B10120FFF734FF28460DB003
:10414000BDE8F08FF8B504460D46164616B94FF097
:10415000FF30F8BD6148807A10B94FF0FF30F8E7C2
:1041600020128DF80000E0B28DF801009DF80100EA
:1041700028445A4949684989884202DD4FF0FF3096
:10418000E7E7564A1268117E544A526810786B4627
:104190000222FDF7C7FA10B14FF0FF30D9E7EAB2BB
:1041A0004E4B1B68597D4D4B5B6818783346FDF7C5
:1041B000B9FA10B14FF0FF30CBE70020C9E7F8B5EE
:1041C00004460D46164616B94FF0FF30F8BD434879
:1041D000807A10B94FF0FF30F8E720128DF8000018
:1041E000E0B28DF801009DF8010028443B49496880
:1041F0004989884202DD4FF0FF30E7E7374A12680D
:10420000117E364A526810786B460222FDF78AFA10
:1042100010B14FF0FF30D9E7EAB2304B1B68597D3F
:104220002E4B5B6818783346FDF7DEFA10B14FF07D
:10423000FF30CBE70020C9E72DE9F04385B0054604
:104240000E4690469946254890F8250020B14FF03B
:10425000FF3005B0BDE8F08316B94FF0FF30F8E746
:10426000002423E0281B102801DD102000E0281B7B
:1042700087B2321939462046FFF764FF10B14FF07C
:10428000FF30E6E701AA39462046FFF798FF10B154
:104290004FF0FF30DDE730193A4601A902F026F968
:1042A00010B16FF00100D4E7E01984B2AC42D9DB61
:1042B0004FEA28208DF8000008F0FF008DF801007B
:1042C000064A1268917E054A526810786B460222AF
:1042D000FDF728FA38B103E0648D0008A40000203F
:1042E0004FF0FF30B5E701218A4880F82510A0F88B
:1042F00026900020ADE70146864890F8240008701B
:104300000020704702464FF0FF30704701464FF0E3
:10431000FF307047F8B505460F461446002C70D0A4
:10432000B5F5FF5F01DDFF2605E0202D01DA01264E
:1043300001E0C5F3471607B90127282C02DD4FF02D
:10434000FF30F8BD7348407D28BB724890F82400C8
:1043500038B10020FFF726FE01216E4880F82010BA
:1043600003E000216B4880F820106A481630FFF700
:1043700054F868481830FFF770F866481A30FFF7AD
:1043800090F864481C30FFF7B1F86248817A817771
:104390001F30FFF705F90020FEF776F90020FEF741
:1043A0008BFC00208DF800005A4A12689178594A17
:1043B000526810786B460122FDF7B4F910B14FF046
:1043C000FF30BEE740208DF80000524A1268D17BD2
:1043D000504A526810786B460122FDF7A3F900B1EC
:1043E00065E08DF800608DF801704A4A1268117A14
:1043F000484A526810786B460222FDF793F908B1DB
:1044000055E047E00520FBF775FF4248407A072159
:1044100001EBC000C0B28DF800003E4A1268D179AD
:104420003C4A526810786B460122FDF77BF900B1D7
:104430003DE020208DF80000012C03D100208DF8F4
:1044400001000EE0052C03DC01208DF8010008E0DE
:10445000142C03DC02208DF8010002E003208DF80B
:1044600001009DF80100072101EB8010C0B28DF81A
:104470000100284A1268917C264A526810786B46DF
:104480000222FDF74FF900B111E0012121484175E9
:10449000002056E71F4A1632002103E0505C00B1AD
:1044A00005E0491C0C29F9D34FF0FF3049E7FF2004
:1044B00018490872FF2117484172C1724FF6FF7107
:1044C000C181FF2181720174012101730146887F3E
:1044D000FEF797F90F49C88AFEF7E9FC0D49087EF7
:1044E000FEF7A3FC0B49488BFEF7A7FB0949888B15
:1044F000FEF74FFC0749C87FFEF76AFB054890F8B6
:10450000200010B10120FFF74DFD00210148417549
:10451000002016E7A400002010B5C8234FF48062E5
:10452000F74940F6F630FFF787FE10BD10B586B0AC
:104530000446F4A000680390F3A000680290F3A082
:1045400000680190F2A00068009004F0030003A945
:10455000085C8DF8140003A8C4F3C101405C8DF819
:10456000150003A8C4F38111405C8DF8160004F017
:10457000030002A9085C8DF8100002A8C4F3C10171
:10458000405C8DF8110002A8C4F38111405C8DF8E5
:10459000120005AA032140F22640FFF7D3FD18B10F
:1045A0004FF0FF3006B010BD04AA032140F22A40AC
:1045B000FFF7C8FD10B14FF0FF30F3E70198059009
:1045C0000098049004F0040058B19DF8140040F0E5
:1045D00001008DF814009DF8100040F001008DF8E6
:1045E000100004F0200058B19DF8150040F00100C3
:1045F0008DF815009DF8110040F001008DF81100B4
:1046000004F4807058B19DF8160040F001008DF858
:1046100016009DF8120040F001008DF8120005AA66
:1046200003214FF48860FFF78DFD10B14FF0FF308C
:10463000B8E704AA032140F23140FFF783FD10B12F
:104640004FF0FF30AEE7B34804810020AAE71FB562
:104650000446B048007A00F0030054F820000190AE
:10466000AC48007A00F0040010B10198404201907B
:10467000A848007AC0F3C10054F820000290A54871
:10468000007A00F0200010B1029840420290A14848
:10469000007AC0F3811054F8200003909D480089EF
:1046A00000F4807010B10398404203909A49019839
:1046B00080FB0101800F40EA810001909649029839
:1046C00080FB0110820042EA9170029092490398A7
:1046D00080FB0110820042EA917003900198000E65
:1046E0008DF800000198000C8DF801000198000A77
:1046F0008DF802000198C0B28DF803006A460421CB
:104700004FF47470FFF71EFD18B14FF0FF3004B086
:1047100010BD0298000E8DF800000298000C8DF874
:1047200001000298000A8DF802000298C0B28DF8CC
:1047300003006A4604214FF47570FFF703FD10B1C2
:104740004FF0FF30E3E70398000E8DF80000039868
:10475000000C8DF801000398000A8DF80200039800
:10476000C0B28DF803006A4604214FF47670FFF75B
:10477000E9FCCCE770B588B0064601A8FEF7E9FE73
:10478000BDF804000021C90341EA5045C403614853
:10479000007A00F0030056F8200005905D48007A8A
:1047A00000F0040010B10598404205905948007A85
:1047B000C0F3C10056F8200006905648007A00F079
:1047C000200010B10698404206905248007AC0F38B
:1047D000811056F8200007904E48008900F4807040
:1047E00010B10798404207900598C117A0FB042319
:1047F00001FB043100FB0510810041EA9270059035
:104800000698C117A0FB042301FB043100FB05102F
:10481000810041EA927006900798C117A0FB04231B
:1048200001FB043100FB0510810041EA9270079002
:104830000598000E8DF808000598000C8DF8090009
:104840000598000A8DF80A000598C0B28DF80B0093
:104850000698000E8DF80C000698000C8DF80D00DF
:104860000698000A8DF80E000698C0B28DF80F0069
:104870000798000E8DF810000798000C8DF81100B5
:104880000798000A8DF812000798C0B28DF813003F
:1048900002AA0C214FF42570FFF754FC08B070BD3C
:1048A00030B585B004461DA207CA02AB07C3C82CA9
:1048B00003DD4FF0FF3005B030BDC82090FBF4F0B1
:1048C000401E85B2280A8DF80000E8B28DF801007C
:1048D0006A46022140F21620FFF734FC10B14FF077
:1048E000FF30E8E702AA0C2140F6C120FFF72AFCBE
:1048F00010B14FF0FF30DEE7064884810020DAE790
:104900008C8D00084CCD6C000CC92C0036567600FE
:10491000264666006406002009E3CA02FEF2ABC424
:10492000AAF1DFDFBBAFDFDF0146FC4880890880EA
:10493000002070472DE9FC4706460F4606F00700A9
:1049400010B1B7F5C86F03DD4FF0FF30BDE8FC874D
:10495000384603F083FA8146F14903F035F9804681
:104960006846FEF77AFD9DF80000022806D004286C
:1049700016D0082826D0102848D135E04FF08D41B8
:10498000404603F0B3FA814603F030FA84B2E549B9
:10499000404603F0ABFA814603F028FA85B238E0CE
:1049A0004FF08C41404603F0A1FA814603F01EFA15
:1049B00084B2DD49404603F099FA814603F016FAC5
:1049C00085B226E04FF08B41404603F08FFA8146D6
:1049D00003F00CFA84B2D549404603F087FA8146C9
:1049E00003F004FA85B214E04FF08A41404603F028
:1049F0007DFA814603F0FAF984B2CD49404603F0CE
:104A000075FA814603F0F2F985B202E04FF0FF300B
:104A10009CE700BF20128DF80400E0B28DF805007D
:104A200028128DF80600E8B28DF8070006F00100A4
:104A3000A0B101AA02214FF4EA70FFF783FB10B185
:104A40004FF0FF3082E70DF1060202214FF4927021
:104A5000FFF778FB10B14FF0FF3077E706F0020068
:104A6000A0B101AA02214FF4EC70FFF76BFB10B16B
:104A70004FF0FF306AE70DF1060202214FF4947007
:104A8000FFF760FB10B14FF0FF305FE706F0040066
:104A9000A0B101AA02214FF4EE70FFF753FB10B151
:104AA0004FF0FF3052E70DF1060202214FF49670ED
:104AB000FFF748FB10B14FF0FF3047E7002045E714
:104AC00038B504460020009004F0010020B19DF8A4
:104AD000000040F03000009004F0020020B19DF88A
:104AE000000040F00C00009004F0040020B19DF89C
:104AF000000040F0030000906A4601214FF4A470CA
:104B0000FFF720FB38BD38B50446012C01DA01243B
:104B100002E0042C00DD0424601EC0B200906A464E
:104B2000012140F24F10FFF70DFB38BD38B50446A8
:104B3000052094FBF0F085B228128DF80000E8B251
:104B40008DF801006A4602214FF4EF70FFF7FAFA80
:104B500038BD38B50446052094FBF0F085B2281224
:104B60008DF80000E8B28DF801006A4602214FF48A
:104B7000ED70FFF7E7FA38BDF8B505460E464FF47D
:104B80007A7095FBF0F000FB06F4200E8DF8000023
:104B9000200C8DF80100200A8DF80200E0B28DF89B
:104BA00003006A4604214FF4AE70FFF7CBFAF8BD5C
:104BB00038B50446052094FBF0F084B220128DF83D
:104BC0000000E0B28DF801006A4602214FF4AD709A
:104BD000FFF7B8FA38BD38B50446052094FBF0F06D
:104BE00084B220128DF80000E0B28DF801006A4610
:104BF00002214FF4AC70FFF7A5FA38BD38B5044672
:104C000014B94FF0FF3038BD6A4604214FF4587094
:104C1000FFF7D5FA10B14FF0FF30F4E79DF8000030
:104C200000069DF8011040EA01409DF8021040EA9C
:104C300001209DF80310084320600020E3E738B509
:104C40000446200E8DF80000200C8DF80100200A8B
:104C50008DF80200E0B28DF803006A4604214FF49B
:104C60005870FFF76FFA38BD38B5044614B94FF0E5
:104C7000FF3038BD6A4604214FF47170FFF79FFA88
:104C800010B14FF0FF30F4E79DF8000000069DF8EA
:104C9000011040EA01409DF8021040EA01209DF811
:104CA0000310084300EB8000800020600020E0E754
:104CB00038B504461420B4FBF0F4200E8DF8000043
:104CC000200C8DF80100200A8DF80200E0B28DF86A
:104CD00003006A4604214FF47170FFF733FA38BDC0
:104CE00038B5044664B120208DF8000028208DF8E6
:104CF000010030208DF8020038208DF8030004E018
:104D0000A3220421684601F01DFC6A46042140F6F6
:104D10009E20FFF717FAFDF77DFE38BD64060020E0
:104D200000004843000040460000C04500004045E8
:104D30000000C04438B5044664B1C0208DF80000BE
:104D4000C2208DF80100C4208DF80200C6208DF825
:104D5000030004E08B220421684601F0F3FB6A465D
:104D6000042140F69820FFF7EDF9FDF753FE38BD1A
:104D70003EB504466CB1FDA1D1E900208968CDE9BA
:104D8000002002916A4609214FF49760FFF7DAF993
:104D90003EBDF9A2D2E900109268CDE9010200916E
:104DA0006A4609214FF49760FFF7CCF9F0E73EB56A
:104DB000044602208DF80000CA208DF80100E3208F
:104DC0008DF8020009208DF803006A46042168204E
:104DD000FFF7B8F9A3208DF8000004F0400048B1B7
:104DE000C0208DF80100C8208DF80200C2208DF887
:104DF000030006E0A3208DF801008DF802008DF875
:104E0000030004F4C07048B1C4208DF80400CC2025
:104E10008DF80500C6208DF8060006E0A3208DF869
:104E200004008DF805008DF80600A3208DF807001A
:104E30008DF808008DF809006A460A2140F6A7207F
:104E4000FFF780F904F0030018B120208DF800006E
:104E500002E0D8208DF800006A46012140F6B62015
:104E6000FFF770F904F0200018B10120FFF780FF70
:104E700002E00020FFF77CFF04F4C07008B304F4E4
:104E8000807060B1B2208DF800008B208DF8010099
:104E9000B6208DF802009B208DF803000BE0B020B7
:104EA0008DF8000080208DF80100B4208DF80200FC
:104EB00090208DF803006A46042140F6A220FFF7F7
:104EC00041F904F0010020B3F8208DF800006A4693
:104ED00001214FF40B60FFF735F9FA210720FFF7A6
:104EE00029FD0720FFF7ECFD0120FFF70CFE6420F1
:104EF000FFF71CFE4FF4FA70FFF72BFEC821A14804
:104F0000FFF73AFE2820FFF753FE0A20FFF763FE63
:104F100008E0D8208DF800006A4601214FF40B60AC
:104F2000FFF710F904F0020018B1D9208DF8000045
:104F300002E0D8208DF800006A46012140F23D7061
:104F4000FFF700F904F0040018B10120FFF7F2FEAA
:104F500002E00020FFF7EEFE04F0100018B101207F
:104F6000FFF7BEFE02E00020FFF7BAFE44F00800A3
:104F700085494881FDF74EFD00208349887304F080
:104F8000400018B10846807B801D887304F4C0700F
:104F900020B17D48807B801D7B49887304F014001C
:104FA00020B17948807B10307749887304F0030082
:104FB00020B17548807B001D7349887300203EBD79
:104FC0000146714840890880002070472DE9F04172
:104FD0000446E07800F0C006E07800F03F05607815
:104FE00000F0010098B1EF102846E91705EB517168
:104FF000C910A5EBC101491C01F0FF086248006817
:1050000020B16148414602683846904700BF607849
:1050100000F0080030B15C48406818B1B0115A4A3D
:10502000516888470020BDE8F08110B586B004467D
:1050300056A207CA03AB07C357A207CA8DE80700E9
:10504000012C09D0022C0ED103AA0B2140F682209C
:10505000FFF778F806B010BD6A460B2140F68220B3
:10506000FFF770F8F6E74FF0FF30F3E72DE9F04F68
:105070008DB00746884615469946DDE9166B002433
:10508000002030804049887B5A4605A9FEF7BDFBC9
:1050900018B1601E0DB0BDE8F08F3B48807A00F07B
:1050A0001400002861D09DF8140000069DF815102A
:1050B00040EA01409DF8161040EA01209DF81710C3
:1050C000084328609DF8180000069DF8191040EA72
:1050D00001409DF81A1040EA01209DF81B1008437A
:1050E00068609DF81C0000069DF81D1040EA014014
:1050F0009DF81E1040EA01209DF81F100843A8608B
:105100009DF8200000069DF8211040EA01409DF81E
:10511000221040EA01209DF823100843E86004F1C2
:105120001000C4B22868001401906868001402904E
:10513000A86800140390E8680014049001984043A4
:10514000029901FB0100039901FB0100049901FB95
:10515000010ABAF1706F02DBBAF1885F22DDFDF758
:1051600059FC00203080401E94E721E0B8AAB38D9E
:10517000B4980D355D000000B8AAAAAAB088C3C5CE
:10518000C700000009E3CA0264060020D8B1B9F3E1
:105190008BA391B609B4D900DAB1B9F38BA391B658
:1051A000DAB4DA00B6F9000040F48070308000BF55
:1051B0003448807A00F0400020B305A9601C085CE8
:1051C000095D40EA012000B2A8F8000005A9E01C32
:1051D000095C05AAA01C105C41EA002000B2A8F8F6
:1051E000020005A9601D095C201D105C41EA002039
:1051F00000B2A8F80400A01DC4B2B6F9000040F047
:10520000080030801F48408900F4C07008B305A929
:10521000601C085C095D40EA012000B2388005A9E5
:10522000E01C095C05AAA01C105C41EA002000B249
:10523000788005A9601D095C201D105C41EA0020F2
:1052400000B2B880A01DC4B2B6F9000040F07000F2
:1052500030800C48807A00F0030018B105A90819C5
:10526000FFF7B4FE4846FDF734FF002012E7014681
:105270000448016000207047014602484160002058
:1052800070470000640600202DE9F04105460C46F9
:10529000AA480168204602F031FF0746A848016885
:1052A000384602F023FE0646A6480168304602F062
:1052B0001DFCA4490860A4484168A448006802F0A5
:1052C0001DFF0646A0488168304602F017FFA0493E
:1052D00008609D48C06880F0004048609A48C068F7
:1052E00080F0004088609B480068C8600868944966
:1052F000096802F0FBFD064693480168304602F05B
:10530000F5FB91490860924948688D49096802F0A7
:10531000EDFD06468C484168304602F0E7FB8A49BD
:1053200048608B4988688649096802F0DFFD0646B7
:1053300085488168304602F0D9FB834988608449FA
:10534000C8687F49096802F0D1FD06467E48C168F9
:10535000304602F0CBFB7C49C8607A480168284699
:1053600002F0CCFE7C4908607C48007802F076FDB3
:10537000064675480168304602F0B8FD7849086075
:105380007648007802F06AFD06466F48816830462C
:1053900002F0ACFD734908607048007802F05EFDD1
:1053A00007466F480168384602F0A0FD06466E4881
:1053B0000168304602F09AFB6C49086008460168B3
:1053C0006748006802F000FC6949086067480168A6
:1053D0006448006802F0F8FB6649086060480068AD
:1053E000654908605D48007802F038FD0646564879
:1053F0004168304602F07AFD604908605E48016805
:105400005B48006802F072FD06464F48016830466E
:1054100002F069FE4C490860584801685448006829
:1054200002F064FD064648484168304602F05BFEE3
:1054300045494860504801684E48006802F056FDF2
:10544000064641488168304602F04DFE3E4988607C
:105450004A4801684748006802F048FD06463A4855
:10546000C168304602F03FFE3749C8603A480168DB
:105470003F48006802F03AFD06463248016830466F
:1054800002F034FB2F49086033480168394800684E
:1054900002F02CFD064629480168304602F026FB42
:1054A0002649086008460168204602F027FE344974
:1054B0000860BDE8F0812DE9F04F8BB083468A4645
:1054C000504602F0E7FA80462E4A2F4B02F008F8C9
:1054D000CDE902011B48006802F0DCFACDE90001C9
:1054E000DDE9022301F09AFD04460D4627480168D4
:1054F0004FF07E5002F002FE804602F0CBFA0646E4
:1055000022462B4601F0ECFFCDE906011F48016859
:10551000584602F0EBFC044602F0BCFACDE9040167
:10552000DDE9062301F07AFDCDE9080101F044FD33
:10553000044908600BB0BDE8F08F0000F0000020C7
:10554000E8000020D400002014010020DC0000202E
:1055500074060020E0000020F4000020EC00002091
:10556000F8000020FC000020E400002000010020E2
:1055700004010020080100200C010020100100207F
:10558000D80000207B14AE47E17A843FD000002091
:10559000014691F90020002A01DD00201EE091F96A
:1055A0000020002A01DA042018E091F90120002AE5
:1055B00001DD012012E091F90120002A01DA052025
:1055C0000CE091F90220002A01DD022006E091F9A9
:1055D0000220002A01DA062000E00720704770B59B
:1055E00005462846FFF7D4FF0446E81CFFF7D0FF26
:1055F00044EAC00084B2A81DFFF7CAFF44EA801045
:1056000084B2204670BD70B588B002A905A8FEF727
:105610000EFD0446072C3FD101A8FDF77DFF05983C
:1056200002F004FC0646019902F060FC054602F017
:10563000C1FB0590069802F0F9FB0646019902F0BD
:1056400055FC054602F0B6FB0690079802F0EEFB0B
:105650000646019902F04AFC054602F0ABFB0790B2
:1056600005A8FEF7F4FF6846FDF773FFBDF80010CC
:10567000029848430290BDF80010039848430390F5
:10568000BDF8001004984843049002A8FFF772F890
:10569000FEA000F0B1FE00BF08B070BD2DE9F043E0
:1056A00004460D46DDE907670021012041E0DFF8EF
:1056B00000C43CF81080A0F1010CDFF8F49329F845
:1056C0001C8009F1160C3CF81090A0F1010CDFF8D9
:1056D000E08308F1160828F81C9008F1160C3CF835
:1056E0001090A0F1010C08F1160828F81C9008F1A0
:1056F000160C3CF81090A0F1010C08F1160828F8DF
:105700001C9008F1160C3CF81090A0F1010C08F167
:10571000160828F81C9008F1160C3CF81090A0F11F
:10572000010C08F1160828F81C9000F1010C0CF08F
:10573000FF000A28BBDBDFF878C3ACF81240ACF8F6
:105740002850ACF83E20ACF85430ACF86A60ACF8A5
:1057500080700021002008E0DFF854C33CF910C03D
:10576000614400F1010C0CF0FF000A28F4DB4FF05B
:105770000A0C91FBFCFC0FFA8CFCDFF83483A8F8D0
:1057800014C0002100200AE0DFF824C30CF1160C3D
:105790003CF910C0614400F1010C0CF0FF000A2834
:1057A000F2DB4FF00A0C91FBFCFC0FFA8CF8DFF8EF
:1057B00000C3ACF82A80002100200AE0DFF8F0C224
:1057C0000CF12C0C3CF910C0614400F1010C0CF000
:1057D000FF000A28F2DB4FF00A0C91FBFCFC0FFAE9
:1057E0008CF8DFF8CCC2ACF84080002100200AE041
:1057F000DFF8BCC20CF1420C3CF910C0614400F16E
:10580000010C0CF0FF000A28F2DB4FF00A0C91FBB0
:10581000FCFC0FFA8CF8DFF898C2ACF85680002137
:1058200000200AE0DFF888C20CF1580C3CF910C0E7
:10583000614400F1010C0CF0FF000A28F2DB4FF08C
:105840000A0C91FBFCFC0FFA8CF8DFF864C2ACF890
:105850006C80002100200AE0DFF854C20CF16E0CCD
:105860003CF910C0614400F1010C0CF0FF000A2863
:10587000F2DB4FF00A0C91FBFCFC0FFA8CF8DFF81E
:1058800030C2ACF88280BDE8F08338B5044603230B
:1058900002226B21D0200094FCF776F838BD38B591
:1058A0000446022304221B21D0200094FCF76CF84C
:1058B00038BD38B50446022304221C21D0200094B0
:1058C000FCF762F838BD10B50446234606226B216A
:1058D000D020FCF78EF810BD10B5764B0122752153
:1058E000D020FBF7DFFF7348007810BD10B5FFF73D
:1058F000F3FF682801D1012010BD0020FCE710B59E
:105900000446234605226A21D020FCF772F810BD18
:1059100010B50446234601223721D020FCF769F850
:1059200010BD10B50220FFF7B0FF0320FFF7B7FF4F
:105930000020FFF7BEFF0020FFF7C5FF0020FFF7A4
:10594000DEFF0020FFF7E4FF10BD38B50020009017
:105950006B46012275216820FBF746FF012056495E
:10596000087056A000F048FD9DF8000068280ED091
:1059700000BF5B48006800F4E0605A490843001D1E
:1059800057490860BFF3408F00BF00BFFEE7FDF737
:10599000D0FA00283CD17820FCF733FF10B947A09B
:1059A00000F02AFD7820FDF713F910B94EA000F0A1
:1059B00023FDC820FDF7EDF910B955A000F01CFD3E
:1059C000FEF7AAFD10B95CA000F016FD6748FFF7CE
:1059D00006FE0446FEF7AAFD10B965A000F00CFD16
:1059E00040F27310FFF7E3F910B96BA000F004FD6B
:1059F000C820FEF755FF10B971A000F0FDFCFFF7BD
:105A000002FE0120FEF7CEFA10B976A000F0F4FCF9
:105A100000202949087038BD2DE9F04F8DB00AA843
:105A200079490BAB06AACDE9001078497848FFF711
:105A30001DFB7548008800F48070002824D006986B
:105A400002F0F4F904464FF09D4102F0BDF87149AF
:105A50000860079802F0EAF904464FF09D4102F011
:105A6000B3F86D490860089802F0E0F904464FF079
:105A70009D4102F0A9F869490860099802F0D6F939
:105A800004464FF09D41CBE054E10000736574740F
:105A9000696E6720626961732073756363657366FD
:105AA000756C6C79202E2E2E2E2E2E0D0A000000E5
:105AB0009206002084060020070000206D70755FAC
:105AC0007365745F73656E736F7220636F6D706C56
:105AD000657465202E2E2E2E2E2E0D0A000000003D
