:020000040000FA
:10100000201C0020171400001D48000029150000B6
:1010100027140000291400002B1400000000000019
:10102000939D939B00000000330100002D140000ED
:101030002F1400000000000073140000B94D0000E0
:101040000933000035140000351400003514000089
:10105000351400003514000035140000351400006C
:10106000351400003514000035140000351400005C
:10107000351400003514000035140000351400004C
:10108000351400003514000035140000351400003C
:10109000351400003514000035140000351400002C
:1010A000351400003514000035140000351400001C
:1010B000351400003514000035140000494E0000BE
:1010C00035140000694E000035140000351400008E
:1010D00035140000351400003514000035140000EC
:1010E00035140000351400003514000035140000DC
:1010F00035140000351400003514000035140000CC
:101100008148000035140000BD480000351400007F
:1011100035140000351400003514000035140000AB
:10112000351400003514000035140000351400009B
:1011300035140000B94900003514000035140000D2
:10114000351400003514000035140000351400007B
:10115000351400003514000035140000351400006B
:10116000351400003514000035140000351400005B
:10117000351400003514000035140000351400004B
:10140000DFF80CD001F048FC0048004741800000A4
:10141000201C00207047084880470848804708483B
:101420000047FEE7FEE7FEE7FEE7FEE7FEE7FEE732
:10143000FEE7FEE7FEE70000054E00001514000081
:1014400001140000EFF3108072B6704780F310882B
:1014500070473A4A1368012B04D04FF00103136020
:10146000374A1060374A116037484FF080510160A9
:101470007047EFF3108272B63048016821B34FF025
:10148000000101602E48016891B1EFF309811EF05F
:10149000100F08BF21ED108B21E9F00F4FF0000471
:1014A0001EF0100F08BF012441F8044D00680160D0
:1014B00024490968096808C9B1E8F00F002B18BF72
:1014C000B1EC108B81F3098882F310884EF0100E76
:1014D000002B18BF2EF0100E4EF0040E7047194965
:1014E0000860EFF3148222F0040282F31488144996
:1014F0004FF00000086011494FF0010008601348E8
:101500004FF47F01D0F8002041EA020101600E484B
:101510004FF0805101600E480068006800BF80F302
:10152000088862B6704700BFEFF3098000B507F086
:10153000C9FE5DF804EB4EF0040E7047C4020020B3
:10154000BC020020C002002004ED00E020ED00E01D
:1015500008ED00E001804280436070472DE9F34FC1
:1015600084B0049840680090486801900498B0F8EE
:1015700000E04588DFEDFE0A00200290B0EE600A30
:10158000AE4506D108884988884204BF7146864521
:1015900004D06FF0020006B0BDE8F08F01985FEA5A
:1015A000010C18BFB7EE001A3DD000BFBEEB0C0116
:1015B00017D0B1F1004F80F01F82002911DD021F0A
:1015C00011F0010F1CBFC2ED010A121D4B1006D015
:1015D000C2ED010AC2ED020A08325B1EF8D100EB2F
:1015E0008100BCF10102A0EC011A19D0B2F1004F48
:1015F00080F00882002A13DD031F12F0010F1CBFC8
:10160000C3ED010A1B1D511008D000BFC3ED010A34
:10161000C3ED020A491E03F10803F7D100EB820073
:10162000BCF1010CC2D14FF000080395002D14BF8E
:10163000B0EE602A002000F0BF8100BF009908FBD7
:1016400005F001EB800B0199DBED002A01EB800036
:101650000346F0EE421AC64552D9AEEB0802ABEB98
:10166000850112F0010F17D001EB850191ED000A01
:10167000B5EEC00AF1EE10FA07DDB4EEE10AF1EEC4
:1016800010FA09DDF0EE401A06E0B1EE400AF4EE81
:10169000C01AF1EE10FAF5D3521031D001EB850CDF
:1016A0009CED000AB5EEC00AF1EE10FA05DDB4EECD
:1016B000E10AF1EE10FA09DD06E0B1EE400AF4EEBF
:1016C000C01AF1EE10FA01D2F0EE401A01EBC5019A
:1016D00091ED000AB5EEC00AF1EE10FA05DDB4EEA8
:1016E000E10AF1EE10FA09DD06E0B1EE400AF4EE8F
:1016F000C01AF1EE10FA01D2F0EE401A521ECDD10E
:10170000F5EEC01AF1EE10FA00F07381F5EEC02A82
:101710000126F1EE10FA0099D4BFB1EE620AB0EEE4
:10172000620AB4EE610AF1EE10FA1CBFAEEB0802D9
:10173000B2F1010C47D005FB08F201EB820292EDF9
:10174000001A00BFB0EE410A05FB06F4B5EEC00A70
:1017500000EB8404F1EE10FACCBFF0EE400AF1EE9B
:10176000400AF4EE610AF1EE10FA28D1B5EB080C4C
:1017700011D0BCF1004F7DD2BCF1000F0BDD00BFDA
:1017800092ED000AD1ED000ABCF1010CE2EC010A75
:10179000A1EC010AF4D129000ED0B1F1004F6AD2B8
:1017A000002909DD94ED000AD0ED000A491EE4ECA1
:1017B000010AA0EC010AF5D1012002900BE0761C91
:1017C000BCF1010CBED10298012804D0F5EEC02A6C
:1017D000F1EE10FA7ED09BED000AB5EB08009A46B8
:1017E0005946064622D0B0F1004F74D200281DDDC4
:1017F000091F10F0010F06D0F0EE400A80EEA01A8B
:1018000081ED011A091D401010D000BFD1ED010A71
:10181000401E80EE801A81ED011A91ED021AC1EE90
:10182000000AC1ED020A01F10801EFD1280026D01B
:10183000B0F1004F7ED2002821DDAAF1040110F0A2
:10184000010F06D0D1ED010A80EE801A81ED011A58
:10185000091D401013D000BFD1ED010A401E80EEDB
:10186000801A81ED011AD1ED020A80EE801A81ED15
:10187000021A01E0CBE0D6E001F10801ECD1DDE98C
:1018800000124FF000095FEA0E0773D0C14504BF94
:1018900001EB860102EB850274D091ED000ADC4673
:1018A0005046331E35D01C46B6F1004F7ED2002C78
:1018B0002FDD0B1FABF1040C16F0010F0FD0F0EE73
:1018C000400ADCED011AB0EE601A00EEE11A83ED79
:1018D000011A01E08DE0B1E01B1D0CF1040C741045
:1018E00015D000BFD3ED010A9CED011A40EE410A6C
:1018F000C3ED010AD3ED020A9CED021A0CF1080CAB
:1019000040EE410AC3ED020A0833641EEAD101EB3E
:1019100086012B0036D0B3F1004F72D2002B31DD9F
:10192000A2F1040CAAF1040013F0010F0CD0DCEDBD
:10193000010A00E08BE090ED011A001D40EE410A23
:10194000CCED010A0CF1040C5C1019D0DCED010A9D
:1019500090ED011A40EE410ACCED010ADCED020ADD
:1019600090ED021A083040EE410ACCED020A03E085
:10197000000000000DE005E0641E0CF1080CE5D14C
:1019800002EB830201EB88017F1E09F101097FF45C
:101990007DAF009808F10108001D00900398401EDB
:1019A00003907FF44BAE0299012900E058E004BF98
:1019B00006B0BDE8F08F00BFB5EEC00AF1EE10FA38
:1019C0007FF4E9AD04990EFB05F3002B4A684FF054
:1019D00000010BD902EB810C9CED000AB5EEC00AA8
:1019E000F1EE10FA02D1491C8B42F3D88B427FF4FE
:1019F000D2AD6FF00400CEE5E0EC010A491EFBD148
:101A0000EFE538E0E0EC010A521EFBD108E692ED6A
:101A1000000AD1ED000ABCF1010CE2EC010AA1ECD4
:101A2000010AF4D1B7E694ED000AD0ED000A491E90
:101A3000E4EC010AA0EC010AF5D1BDE6D1ED000A03
:101A4000401E80EE801AA1EC011AF7D1EEE6D3ED2C
:101A5000000A401E80EE801AA3EC011AF7D10EE7AF
:101A6000BCEC011AD1ED000A5B1E40EE410AE1EC2C
:101A7000010AF5D14DE7B0EC011AD2ED000A5B1E68
:101A800040EE410AE2EC010AF5D17BE72DE9F04F87
:101A900082B0466853680193058847884B880020C8
:101AA00000900888874201BFB2F800C0654552889F
:101AB00093421EBF6FF0020002B0BDE8F08F9FEDB1
:101AC000412A4FEA970EC7F3400B00BFDDE9000241
:101AD00002EB800A4A6898464FF00009B0EE420ACD
:101AE000B4465FEA0E0025D092ED001ADCED001A34
:101AF00002EB8302DCED010A01EE810A92ED001A8D
:101B000002EB8302401ED2ED001A02EB830200EECC
:101B1000810A9CED021ADCED030A00040CF1100CA2
:101B2000000C01EE210A92ED001A02EB830200EE96
:101B3000810AD9D117F0030026D0ACF10404A2EB3E
:101B4000830210F0010F08D002EB8302D4ED010AEA
:101B500092ED001A241D00EE810A5FEA0B0013D0FB
:101B600002EB830CD4ED010A9CED001A02EBC302D8
:101B7000401E00EE810AD4ED020A92ED001A04F133
:101B8000080400EE810AEBD109F10100AAEC010A78
:101B90001FFA80F9486800EB8902A8F101001FFADA
:101BA00080F8B8F1000F99D1009806EB8706184429
:101BB00080B20090681E05042D0C87D102B0002071
:101BC000BDE8F08F000000002DE9F04F0288476863
:101BD000B0F802804888D1F8049082B04FF0000A33
:101BE0001646824207BF098888456FF0020002B09E
:101BF00018BFBDE8F08F4FEA980B02EB420001904E
:101C0000C8F34000CDF8000009EB8A01BBF1000FDA
:101C100033D0019801EB820C01EB80043B46E64691
:101C200001EBC2054FEA0B0093ED000A401E81ED67
:101C3000000A93ED010A01EB02118CED000A93ED0D
:101C4000020A0CEB021C85ED000A93ED030A05EB7A
:101C5000021584ED000A04EB021403F11003E3D132
:101C60000EEB820000EB820000EB8201ABF1010081
:101C7000504307EB0B1701EB001118F0030C21D0B8
:101C80003B1FA1EB82011CF0010F06D093ED010A6E
:101C900001EB82011B1D81ED000A009880B100BF9D
:101CA00093ED010A01EB820401EBC20184ED000A0D
:101CB00093ED020A401E81ED000A03F10803EFD103
:101CC00007EB8C070AF101001FFA80FA701E060468
:101CD000360C99D102B00020BDE8F08F9FED220AAA
:101CE0008B0812D090ED002A90ED011AD0ED020A77
:101CF00030EE020AD0ED031A10305B1E30EE010AFE
:101D000030EE200A30EE210AECD111F003031AD094
:101D1000B3F1004F20D2002B15DD001F13F0010F8F
:101D200004D0D0ED010A001D30EE800A5B080AD015
:101D3000D0ED010A30EE800AD0ED020A08305B1EB9
:101D400030EE800AF4D100EE901AF8EE600A80EED0
:101D5000201A82ED001A7047F0EC010A5B1E30EE8B
:101D6000800AF9D1EFE700000000000010B49FEDF9
:101D70004B2A0129F0EE420AB0EE600A65D08B08CA
:101D800026D0B3F1004F64D2002BC4BF84461C465A
:101D90001EDD00BF9CED001A641E01EE010A71EE0B
:101DA000201ADCED010A30EEA11A00EEA00ADCEDEB
:101DB000020A70EE811A9CED031A00EEA00A0CF1E3
:101DC000100C71EE210A01EE010AE3D100EB0310C1
:101DD00011F003030CD0B3F1004F56D2002B07DDF6
:101DE000B0EC011A5B1E01EE010A70EE810AF7D118
:101DF00001EE101AF7EE001AB8EE411A71EE612AE0
:101E000080EE221A00EE101AF8EE402A80EEA20AA6
:101E100000EE901AF8EE600A70EEE11A00EE901AE9
:101E2000F8EE602AC2EEA10A20EE000A20EE800A37
:101E300031EE400AB5EEC00AF1EE10FAA1BFF1EEA4
:101E4000C00AC2ED000A10BC704782ED002A10BC27
:101E5000704790ED001A01EE010A70EE811AD0ED84
:101E6000010A31EEA01A00EEA00AD0ED020A71EECE
:101E7000201A90ED031A00EEA00A103071EE810ACC
:101E80005B1E01EE010AE4D1A2E7B0EC011A5B1E71
:101E900001EE010A70EE810AF7D1A9E70000000007
:101EA00040EA01039B0703D009E008C9121F08C0DC
:101EB000042AFAD203E011F8013B00F8013B521E5C
:101EC000F9D27047D2B201E000F8012B491EFBD2D3
:101ED00070470022F6E710B513460A460446194635
:101EE000FFF7F0FF204610BDCAB2401E10F8011FD8
:101EF0008A4202D00029F9D100207047421C10F814
:101F0000011B0029FBD1801A704710B5002200E0A8
:101F1000521C835C8C5CA34201D1002BF8D1D8B257
:101F2000E1B2401A10BD30B505460020034600E07E
:101F30005B1C934205D2EC5CC85C201A01D1002CDA
:101F4000F6D130BD0FB400B58DB010A909900B903B
:101F500000914FF0FF300A9000200C900548069049
:101F6000054807906A4609A80F9900F047FD0DB093
:101F70005DF814FB192A0000372A00002DE9FF5FE5
:101F80001D464FF0FF3BD5E9014691465F464FF0B5
:101F90000008A9697F1C01988847296A82468847FA
:101FA0000028F6D1BAF1FF3F0CD024F4C064002E13
:101FB00019DD600614D5BAF12B0F09D0BAF12D0F37
:101FC0000ED103E0584604B0BDE8F09F44F48064AD
:101FD000A9697F1C01988847761E8246002E02DD83
:101FE000BAF1300F03D0B9F1000F26D032E0A96961
:101FF000761E44F400747F1C019888478246002EA8
:1020000005DDBAF1780F06D0BAF1580F03D0B9F157
:10201000000F10D01EE0B9F1000F02D0B9F1100F7F
:1020200018D1A969761E24F400747F1C0198884792
:102030008246102002E0082000E00A20814609E0E4
:1020400008FB0908A969761E44F400747F1C0198F6
:1020500088478246002E05DD4946504600F0B9FC0F
:102060000028EDDAE96901988847A00502D46FF0ED
:102070000100A8E7E00725D1600613D5600502D569
:10208000C8F1000000E0404629680A1D2A6009687E
:10209000220501D5087015E0220701D5088011E05E
:1020A00008600FE02868011D29600068210502D53D
:1020B00080F8008006E0210702D5A0F8008001E04A
:1020C000C0F8008038467EE72DE9FF5FD2E901A71E
:1020D0004FF00008916999461446DDF838B046463D
:1020E00001988847054659EA0B0005D009E0A16927
:1020F000761C019888470546216A284688470028AB
:10210000F5D1681C03D05FEACA7005D015E04FF026
:10211000FF3004B0BDE8F09F2068011D2160D0F8B9
:1021200000800AE05FEACA7001D108F8015BA1698A
:10213000761C7F1E019888470546002F1ADD681C13
:1021400018D0B9F1000F0DD0E81705EBD06042119F
:1021500020F01F0059F822102A1A01209040014255
:10216000E0D107E0BBF1000FDCD1216A28468847A7
:102170000028D7D0E16901988847BBF1000F07D14B
:10218000002E05DD5FEACA7002D1002188F8001038
:10219000A068B84203DDBBF1000F03D017B16FF0A8
:1021A0000100B6E73046B4E72DE9FF4F087883B069
:1021B0009946FF2805D0491C2D2804D00024002072
:1021C00008E000200BE00124F9E700EB800003EBBE
:1021D0004000491C0B78FF2BF7D104B1404200238B
:1021E0000293147819461D462D2C01D02B2C04D1B6
:1021F000521C2D2C13D000240294AA461478FF2CD4
:102200000FD00A25A3FB057801FB05814FF0000CD8
:1022100003FB0C11521CE3194AEB0101EEE7012408
:10222000EAE7814453EA010002D019F5C87F06DAD3
:1022300003980021C0E9001107B0BDE8F08F002528
:10224000AE4E2F46DFF8B882184600F0E8FCCDE924
:102250000001B9F1000002DAC9F1000400E004460F
:102260000023A74A1AEB030B42EB045A12E0E007E3
:1022700007D02A4633463846414600F025FA07463D
:1022800088462A4633461046194600F01DFA054690
:102290000E466410002CEAD1DDE90001B9F1000F0F
:1022A0005A46534606DA00F081FA3A46434600F0B1
:1022B0007DFA05E000F008FA3A46434600F004FAD9
:1022C000029A0AB181F00041039AC2E90001B3E722
:1022D0002DE9FF4F1F468DB0D7E901464FF0FF387B
:1022E0002E2045464FF000090B90B9696D1C0E98E1
:1022F0008847396A824688470028F6D1BAF1FF3FFD
:102300000AD024F4D064002E11DDBAF12B0F08D0CE
:10231000BAF12D0F0BD102E0404611B08DE744F425
:102320008064B9696D1C0E9888478246761E69469E
:10233000600501D52D2000E02B208DF8000001F173
:10234000010B0DF1200809E0B9696D1C0E98884752
:1023500082460F9844F40074761E0560002E02DD5C
:10236000BAF1300FF0D00B998A453ED144F0800489
:1023700006E00F99681CA9F1010944F40074086093
:10238000B9696D1C761E0E98884782463028F0D0B9
:102390002BE00B998A4505D1200603D444F0800434
:1023A000761E18E0504603F001FC08B30DF113014E
:1023B000761E44F400748B4508D2AAF130000BF865
:1023C000010B200607D5A9F1010003E0200602D485
:1023D00009F101008146A00502D50F99681C08602B
:1023E000B9696D1C0E9888478246002ED1DC53E0F7
:1023F000002E51DDBAF1650F02D0BAF1450F4BD175
:10240000A00549D5B9696D1C24F44074761E0E9858
:1024100088478246002E0CDD2B2804D0BAF12D0F00
:1024200007D144F48074B9696D1C0E9888478246C0
:10243000761EE00501D52D2100E02B2108F8011BB7
:10244000CDF82C8021E00DF12901761E44F40074B2
:1024500088450CD2AAF1300010F0FF0088F8000087
:1024600002D10B99884509D908F1010806E0E00579
:1024700001D5244801E042F20F708146B9696D1C14
:102480000E98884782460F980560002E04DD50465E
:1024900003F08CFB0028D6D1F9690E988847FF20FD
:1024A0008BF8000088F800000020069007904B464B
:1024B0006A4608A906A8FFF777FEA00502D46FF0C8
:1024C00001002AE714F0240F0AD0E00714D1DDE957
:1024D00006123868031D3B600068C0E900120BE07B
:1024E000DDE9060100F0E4F90146E00704D13868AF
:1024F000021D3A600068016028460EE700001440A3
:102500000000F03FF1D8FFFF2DE9F05F93460F4642
:1025100080460446002602F027FED0F8009082464E
:1025200014F8015B2DB100F047FA0068405DC00768
:10253000F6D12B2D02D02D2D1AD0641E0021CAF801
:1025400000105A463946204600F086FA014627B167
:102550003868A04201D1C7F80080DAF800000228EC
:1025600009D0CAF80090700505D54842BDE8F09F33
:1025700046F48066E2E70846F8E72DE9FE4F80461C
:1025800081EA0300C00F0C46009021F0004123F0C7
:102590000045B8EB0200A94105D2404621469046CD
:1025A0001C460B46024623F00040104347D0270D3F
:1025B000C7F30A00C3F30A510290401A0190402861
:1025C0006BDAC3F3130040F4801B0098924620B1ED
:1025D0000023D2EB030A63EB0B0B01985946C0F1C1
:1025E0004002504600F0C7F906460D46504659468F
:1025F000019A00F0CFF910EB08006141002487EA4E
:10260000115284EAE7731A4340D0009A62B3019AE8
:10261000012A4FEA075215DC001B61EB02014FF063
:10262000004202EA0752CDE90042001C41F5801148
:1026300032462B4600F0A5FA03B0BDE8F08F4046C5
:102640002146F9E7001B61EB0201001C41F58013F4
:1026500000185B412018A2F5001747EB030140EA80
:10266000D570B6196D4111E06D084FEA360645EA9E
:10267000C0754FEA0752001B61EB0201001C41F5D7
:10268000801149084FEA30000019514132462B466B
:1026900003B0BDE8F04F00F065BA00980122400099
:1026A0000023D0EB020263EBE073009821464FEA6F
:1026B000E074B8EB000061EB0401E9E783F000434C
:1026C0005BE781F0004158E72DE9FE4F81EA030402
:1026D00004F0004421F0004100944FF0000B23F07F
:1026E000004350EA01045ED052EA03045BD0C3F316
:1026F0000A54C1F30A552C44A4F2F3340194A0FB0C
:102700000254C1F3130141F48011C3F3130343F4E2
:10271000801301FB024400FB034E840A970A44EA3B
:10272000815447EA8357A4FB076802958D0A05FB8D
:1027300007854FEA932C04FB0C542705029D4FEAB2
:10274000065847EA1637B5EB08056EEB070C870EFF
:10275000920E47EA811742EA8312A7FB0201B6EB09
:102760000B0164EB00042B0D43EA0C335E1844EBC1
:102770001C50DA465146E7FB0201C5F313044FEA49
:102780000B3343EA14534FEA0432019C43EA060335
:10279000A4F10C040294009CCDE900B400F0F1F91E
:1027A00003B0BDE8F08F00200146F9E72DE9F04DB8
:1027B00081EA030404F0004B21F0004514464FF079
:1027C000000A23F0004150EA050220D054EA010239
:1027D0001DD0C5F30A570246C5F31303C1F3130016
:1027E000C1F30A5640F4801543F48013A7EB0608A2
:1027F000101BD64608F2FD3873EB050002D308F132
:10280000010801E092185B41B8F1000F03DA0020E3
:102810000146BDE8F08D00204FF480110646844645
:102820000EE0171B73EB050705D3121B63EB0503C3
:1028300006434CEA010C49084FEA300092185B410C
:1028400050EA0107EDD152EA030012D082EA0400F7
:1028500083EA0501084305D0101BAB4106D20122D3
:10286000002306E000224FF0004302E06FF0010277
:1028700053101AEB06004CEB085110EB0A0041EB29
:102880000B01BDE8F04D00F06DB900F0004230F0F2
:1028900000400AD0C10D01F56071C0F3160042EA94
:1028A0000151C2084007114370470020014670479C
:1028B00001F0004330B421F0004150EA010206D09B
:1028C0000A0DA2F56072C1F31301002A02DC30BCCC
:1028D00000207047440F44EAC104C100E01830BC36
:1028E00000EBC25000F007B930B50B46014600209E
:1028F0002022012409E021FA02F59D4205D303FAC2
:1029000002F5491B04FA02F52844151EA2F1010242
:10291000F1DC30BD2DE9F05F0546002092469B4674
:1029200088460646814640241BE0284641464746E5
:10293000224600F0C3F953465A46C01A914110D3BB
:1029400011461846224600F016F82D1A67EB0108CA
:102950004F4622460120002100F00DF817EB000938
:102960004E41201EA4F10104DFDC484631462A46D0
:102970004346BDE8F09F202A04DB203A00FA02F12A
:10298000002070479140C2F1200320FA03F319435D
:1029900090407047202A06DBCB17203A41FA02F01C
:1029A00043EAE07306E041FA02F3D040C2F12002AC
:1029B000914008431946704700487047F0B5000041
:1029C00010B50446FFF7F8FF0068005D00F0010055
:1029D00010BD3A2800D2303820F02002412A01D31D
:1029E000A2F13700884201D34FF0FF30704700005A
:1029F000026811441378016018467047D160044999
:102A000051610449116200211161114600F066B95B
:102A1000F1290000C1290000426842B1016811F8A3
:102A2000013B23B1521EC0E9001218467047012134
:102A3000C160881E704742685AB1C368016843B9D3
:102A400083688B4205D0491E521CC0E90012002049
:102A500070474FF0FF3070472DE9F05F82460078F5
:102A6000002715468B460AF10104B946302801D0EB
:102A70009DB113E014F8010B0127782803D05828E2
:102A800001D045B10AE00DB1102D07D10027102566
:102A900014F8010B02E0082500E00A250026B046E4
:102AA0000EE005FB080005FB06F1012701EB1046CF
:102AB0001FFA80F8B6F5803F00D3B94614F8010B31
:102AC0002946FFF786FF0028EBDABBF1000F05D09F
:102AD0000FB1641E00E05446CBF80040B9F1000F7E
:102AE00006D002F041FB02210160C81EBDE8F09F44
:102AF00048EA0640FAE70029A8BF7047401C490091
:102B000008BF20F00100704710B4B0FA80FC00FA52
:102B10000CF050EA010404BF10BC704749B1CCF17D
:102B2000200421FA04F411FA0CF118BF0121214309
:102B30000843A3EB0C01CB1D4FEA00614FEA1020C4
:102B400042BF002010BC704700EBC3501044002966
:102B5000A4BF10BC7047401C490008BF20F0010012
:102B600010BC704710B5141E73F1000408DA401C45
:102B700041F1000192185B411A4301D120F001009C
:102B800010BD2DE9F04D92469B4611B1B1FA81F28C
:102B900002E0B0FA80F220329046FFF7ECFE0446E5
:102BA0000F4640EA0A0041EA0B0153465A460843E1
:102BB00013D0114653EA010019D0C8F14002504623
:102BC00000F07CF805460E46504659464246FFF74F
:102BD000D2FE084305D0012004E020463946BDE876
:102BE000F08D0020054346EAE0762C4337430A98EF
:102BF0006305E40AA0EB08000022FD0A44EA4754FA
:102C00000A3002D500200146E9E7010510196941A3
:102C1000DDE9084500196941BDE8F04DA2E70EB5B0
:102C200040F2334202920022CDE900221346FFF720
:102C3000A8FF03B000BDC1F30A52C1F3130140F273
:102C4000FF3341F480119A4202DA002001467047B6
:102C500040F233439A42A2F2334202DC524200F085
:102C60002DB8FFF788BE000030B5041E71F10004D6
:102C700004DB4FF00044404264EB0101141E73F189
:102C8000000405DB1C464FF00043524263EB040393
:102C9000994208BF904230BD064C074D06E0E068FF
:102CA00040F0010394E8070098471034AC42F6D393
:102CB000FEF7AAFBE0B8000000B90000202A04DB00
:102CC000203A21FA02F00021704721FA02F3D040A5
:102CD000C2F1200291400843194670472DE9F34F95
:102CE0008BB04FF0000801F10C000C464FF0010BC7
:102CF00046460DF1080A019062690121019890474A
:102D0000051E2DD0252D2CD0216A8847C0B16269BF
:102D1000012101989047216A88470028F7D1411E78
:102D200062690198904700E0761CA1690B9888477A
:102D3000216A88470028F7D1E1690B988847DBE7CB
:102D4000A1690B9888470746A84201D1761CD3E7B2
:102D5000E1690B9888477F1C02D1B8F1000F6FD052
:102D600046E1002762693D463946019890472A2886
:102D700004D162690121019890470125DFF884920E
:102D80006269012101989047A0F130010A290AD215
:102D90004F45E5DC07EB870100EB4107303FDFD40F
:102DA00045F01005ECE7E90601D46FF000476C2808
:102DB0000AD04C2814D0682815D06A280DD0742861
:102DC0001CD07A281AD01DE0626901210198904731
:102DD0006C2802D045F0040514E045F002050DE032
:102DE00045F020050AE062690121019890476828B2
:102DF00002D045F0080505E045F40065626901214F
:102E000001989047C4E9015765283DD019DC58283E
:102E10007AD00CDC452837D004DC252826D0412880
:102E200031D131E046282FD047282CD12CE05B2827
:102E300077D0612828D063287CD0642823D15AE039
:102E4000D0E06F2848D008DC66281DD067281BD04A
:102E5000692821D06E2816D127E0702845D0732824
:102E600068D0752847D078280DD14DE0A1690B981E
:102E70008847054625283FF469AFE1690B988847E4
:102E80006D1C3FF46AAFB3E023466A466FF0010061
:102E90000B99FFF71DFA9EE045F040006060A8071F
:102EA00023464FF0000236D43EE0E8077FF447AFF8
:102EB0002068011D21600068290501D506701BE707
:102EC000290701D5068017E7A90703D5F117C0E93F
:102ED000006111E706600FE745F040006060A80759
:102EE00023464FF0080216D41EE040F60E0125EAF4
:102EF0000100606016E045F040006060A8072346CE
:102F00004FF00A0207D40FE045F040006060A807C8
:102F100008D5234610226FF001000B99AFF3008013
:102F200059E007E0234610226FF001000B99FFF7EC
:102F300025F850E04FF000094F464B46632802D079
:102F40005B2806D040E0E80601D40120A0600127FC
:102F50003AE062690121019890475E2805D14FF05F
:102F600001096269494601989047216939B90021F0
:102F70000A46534643F82120491C0829FADBB0B31E
:102F8000216969B9C11700EBD16253110AEB8301C2
:102F900022F01F02821A01200B68904003430B604D
:102FA00062690121019890475D28E8D1B9F1000FCD
:102FB00009D00020514651F82020D24341F820206A
:102FC000401C0828F7DB02AB224600976FF0010097
:102FD0000B99FFF779F800280CDA401C08D1BBF1F7
:102FE000000F05D04FF0FF300DB0BDE8F08FFFE7C8
:102FF0004046F9E7E90701D108F1010806444FF01E
:10300000000B79E6CCCCCC0C70B58C1810F8015BB9
:1030100015F0070301D110F8013B2A1106D110F871
:10302000012B03E010F8016B01F8016B5B1EF9D175
:103030002B0705D40023521E0DD401F8013BFAE7FB
:1030400010F8013BCB1A921C03E013F8015B01F866
:10305000015B521EF9D5A142D8D3002070BD0000FB
:1030600010B5086800221146401CFFF74DFAC4B2A3
:103070000548224650F8241004A002F051F82046DA
:1030800004F084FD002010BD200100206163632056
:1030900062616E642077696474682073657420745B
:1030A0006F202573487A28256429000010B5086828
:1030B00000221146401CFFF727FAC4B2032C12D895
:1030C0000A4880F88040204604F070FD08482246F7
:1030D00050F8241007A002F023F821460DA008F0B4
:1030E000D3F8002010BD012010BD0000DC0F00202F
:1030F000E00000206163632072616E676520736584
:103100007420746F3A2025732047282564290D0AFE
:10311000000000004152414E4745000070B508686C
:1031200000221146401CFFF7EFF904460C49A0F5B8
:103130001660884212D80B4D0020214628720AA042
:1031400001F0EEFF21460BA008F09EF8214600207A
:1031500001F008FF01202872002070BD012070BD21
:10316000207B1E001C0D0020424155443D25640D6E
:103170000A0000004241554400000000F0B5544CE4
:103180004FF0FF3161640026524A53494FF48035B5
:103190000C2803D00D2801D00E283DD1636823F4FC
:1031A000403363604D4FA0233B70A66134234B70C6
:1031B00080230B708B799B07FCD50E2807D18B7968
:1031C000C3F38103022BFAD16564454B13600C28CD
:1031D00001D00D2820D18B79DB06FCD420230B7085
:1031E000CB7823F0E003CB700C2802D00D280CD153
:1031F00005E0CB7843F06003CB703A4B04E0CB782A
:1032000043F04003CB70384B13608B7913F00C0FF5
:10321000FBD14FF08273636430B1012804D00228DF
:1032200002D0032832D04DE0636823F4403363605A
:103230002E4B1E6846F440261E6007230B70CB7889
:1032400023F0E003CB7088B1012808D0022815D103
:10325000C87840F08000C870656425480DE0C878E3
:1032600040F0A000C8706564224806E0C87840F0CD
:10327000E000C87020486064204810608879C0066B
:10328000FCD5887910F00C0FFBD11BE0087820F0FA
:10329000020008700E72487840F003004870087809
:1032A00040F0020008708879C007FCD04720087001
:1032B0008879C0F381000128FAD1114810604FF4D9
:1032C000403060640F49012008700020F0BD00000C
:1032D00000800440000000200040064000500640EE
:1032E0000048E80180A4BF07000E270700700440D3
:1032F00000366E01006CDC020000030100D8B80546
:1033000000093D00A001002070B506480025C577E2
:10331000054CA06807F0B8F9257004490120486001
:1033200070BD000000800040580100200010FE43E6
:1033300030B53149CA6B42F00202CA630A6C42F0EE
:1033400002020A642D4A0178937E01F003042343AC
:103350009376027902F03F03294A0A4413701378E6
:1033600023F04003137000234C0126492144CB80F5
:1033700008248C8304698C6004890569B4FBF5F426
:10338000C4F30E04CC8204890569B4FBF5F4C4F3DC
:103390000E04CC83C4680C60C47A14B1048A8C8097
:1033A00000E08B80CC88057C6D082D02C5F30225DA
:1033B00044EA0524CC80C47A1CB1CC8A6442CC6037
:1033C00000E0CB6084690C61047D14B1848B8C8235
:1033D00000E08B82CC88057FC5F342052C43CC806E
:1033E000007D18B1C88A4042886100E08B61107886
:1033F00040F08000107030BD00800440008000402C
:10340000001002400090004030B50F4B01241B56C5
:1034100003F01F05AC405B099B0003F1E023C3F8F8
:103420000041430109481844838B23F0040383833C
:10343000002907D1818B12B141F0020101E021F096
:103440000201818330BD0000F8B30000009000400D
:10345000024A02EB401001607047000000900040FB
:1034600042010348C1F30E011044C182C183704779
:1034700000900040024900F003000877C8767047CA
:103480000080004001F0A2BC10B507F039F8BDE89B
:10349000104006F0A9BE08B500210091814202D279
:1034A00000BF491CF9E708BD10B5086800221146A5
:1034B000401CFFF729F8034900B1012008720020E1
:1034C00010BD00001C0D002010B5012003F0D4FE3B
:1034D000002010BD10B503A001F022FE03F0C6FFCE
:1034E000002010BD666163746F72792063616C693E
:1034F00062726174696F6E20666F72206163632E01
:103500002E2E0D0A0000000010B502A001F008FEEA
:10351000002010BD666163746F72792063616C690D
:1035200062726174696F6E20666F722067796F2EA8
:103530002E2E0D0A0000000010B5B0F1805F01D3FF
:1035400040F4000006490922CA71020C8A71020A7D
:103550004A71087172B600F0B5F862B610BD00008D
:10356000000002402DE9F04791460C46B0F1805F23
:1035700001D340F40000DFF870800546062088F88B
:103580000700042600272AE0290C404688F8061088
:10359000290A88F8051088F80450E17888F80B109B
:1035A000A17888F80A10617888F80910217888F8DD
:1035B0000810082E07D1E179C173A179817361796F
:1035C0004173217901733544344472B600F07AF8BE
:1035D00062B610B10120BDE8F087B81987B24F4537
:1035E000D2D30020F7E70000000002403EB5086893
:1035F00002AB6A4625A1FEF7A5FC022843D19DED4A
:10360000020AB5EEC00AF1EE10FA3CDB10EE100A29
:103610002049884237DA01241FA1684606F0A0FC41
:103620001E4D28B11EA1684606F09AFC90B128E014
:103630000298FFF72AF941EC100B694653EC102B66
:1036400018A001F06DFD9DED020A85ED080A03F05A
:1036500007FE10E00298FFF718F941EC100B6946DD
:1036600053EC102B0FA001F05BFD9DED020A85EDE0
:10367000090A03F0FBFD0024282208490FA007F0E7
:1036800063FD20463EBD01203EBD00003D25337355
:103690002C256600CDCCCC3D414343001C0D0020C1
:1036A0004D4147006F70743A25732C206761696E35
:1036B0003A25302E34660D0A000000005354415460
:1036C0004500000010B5074C302020700649481F07
:1036D000016020468847207810F0310000D001209A
:1036E00010BD000000000240A901002010B50868CC
:1036F00000221146401CFEF707FFC4B205482246CF
:1037000050F8241004A001F00BFD204604F06AFAE2
:10371000002010BD0001002067796F2062616E6497
:103720002077696474682073657420746F20257332
:10373000487A28256429000070B5144606460D46CF
:10374000092A11D2DFE802F005071710191010102E
:103750001900FF2200E00022304601F0F3FA0022B7
:103760002946304600F06CF801222946304601F027
:10377000C5FA304670BD0122EEE7FF22304601F067
:10378000E1FA042C06D000222946304600F00EF85B
:103790000122E5E70122F7E7034A52F82000006919
:1037A000C84000F00100704750B3000010B5074C4E
:1037B00001238B4054F820001AB14168194341603D
:1037C00010BD81681943816010BD000050B3000036
:1037D00070B51A4D55F8204054F8216026F4702633
:1037E00044F821600BB3A5F11C0301241B5603F020
:1037F0001F06B4405B099B0003F1E023C3F80041BE
:1038000022B1012A09D0022A0FD110E055F8200078
:1038100050F8212042F4102205E055F8200050F81D
:10382000212042F4202240F82120002070BD55F8CC
:10383000200050F8212042F43022F4E764B3000065
:1038400010B5064C01238B4054F82000012A416931
:1038500002D09943416110BD1943FBE750B300000A
:1038600010B5086800221146401CFEF74DFEC4B298
:10387000032C12D80A4880F88140204604F0C1F990
:103880000848224650F8241007A001F049FC2146C0
:103890000DA007F0F9FC002010BD012010BD0000B4
:1038A000DC0F0020F000002067796F2072616E67E6
:1038B000652073657420746F3A20257320647073DB
:1038C000282564290D0A00004752414E4745000053
:1038D00001460748074A0229006800D1536C0129B4
:1038E00005D1516CC1F30361491CB0FBF1F0704785
:1038F000000000200080044001480078704700006C
:1039000000F007400349086ECA6D896D5040484079
:10391000704700000080044008B5054B69461878E0
:1039200001F0C0FA0028F9D19DF8000008BD0000A0
:103930009401002010B5104C0022A1682068FFF708
:1039400035FFD4E900010022FFF730FF0120FFF727
:10395000A2FD0122A1682068FFF728FF0120FFF7E0
:103960009AFD0022A1682068FFF720FFBDE8104003
:103970000120FFF790BD0000BC1300202DE9FF4798
:103980008246DDE90C7648064FEA1069984602AC9B
:10399000504600F003F94946504600F0CFF805467E
:1039A00006E014F8011B504600F0C8F82844C5B2E0
:1039B000B8F10108F5D2504600F0F0F809F1010025
:1039C000C1B2504600F0BAF82844C4B207E000F093
:1039D0003FF807F8010B16B15046FFF7ABFF761E14
:1039E0005046F4D200F084F8504600F0FDF804B0E0
:1039F0002046BDE8F0872DE9FF478146DDE90C68E8
:103A00004806040E1F4602AD484600F0C7F821469E
:103A1000484600F093F8044606E015F8011B4846B6
:103A200000F08CF82044C4B27F1EF6D206E016F8EF
:103A3000011B484600F082F82044C4B2B8F10108E6
:103A4000F5D2484600F0D0F804B02046BDE8F08733
:103A500070B5164C00260825D4E900013246FFF760
:103A6000EFFE13E0FFF7A2FE0120FFF714FD012295
:103A7000A1682068FFF79AFE0120FFF70CFDD4E94A
:103A80000001FFF789FE66F35F00C6B26D1EA168F4
:103A90002068EDB24FF00002E4D2FFF787FED4E9D0
:103AA00000010122FFF7CCFE304670BDBC130020A0
:103AB00070B515460E46044604222946FFF73CFE23
:103AC000042231462046FFF737FE012231462046C8
:103AD00001F038F901222946204601F033F9034B61
:103AE00000209D60C3E9004670BD0000BC130020AB
:103AF00010B5114C0022A1682068FFF757FE012085
:103B0000FFF7C9FCD4E900010122FFF74FFE0120B5
:103B1000FFF7C1FC0122A1682068FFF747FE0120E2
:103B2000FFF7B9FC0022A1682068FFF73FFEBDE85F
:103B300010400120FFF7AFBCBC130020F8B50646CB
:103B400008200C468DF80000134D1AE0200601D520
:103B5000012200E00022D5E90001FFF727FE600600
:103B6000040E0120FFF797FC0122A9682868FFF7DF
:103B70001DFE0120FFF78FFC0022A9682868FFF7CF
:103B800015FE9DF80020501E8DF80000DED2304654
:103B9000BDE8F84000F048B8BC13002010B5114C47
:103BA0000122D4E90001FFF74BFED4E90001012214
:103BB000FFF7FCFD0122A1682068FFF7F7FD012057
:103BC000FFF769FCD4E900010022FFF7EFFD0120B7
:103BD000FFF761FC0022A1682068FFF7E7FD0120E4
:103BE00010BD0000BC13002010B50E4C0022A168CF
:103BF0002068FFF7DBFDD4E900010022FFF7D6FDC6
:103C00000120FFF748FC0122A1682068FFF7CEFDE4
:103C1000D4E900010122FFF7C9FDBDE810400120F1
:103C2000FFF739BCBC13002070B5154C0022D4E955
:103C30000001FFF705FE0022A1682068FFF7B6FD2E
:103C40000120FFF728FC0122A1682068FFF7AEFDE4
:103C50000120FFF720FCD4E90001FFF79DFDC5B26C
:103C60000022A1682068FFF7A1FDD4E9000101222C
:103C7000FFF7E6FD0DB1012070BD002070BD000012
:103C8000BC13002010B50C460868FEF737F958B190
:103C9000206800221146401CFEF736FC014606A0B3
:103CA00007F0F2FA002010BD03A007F043FAC1B2FA
:103CB00002A001F035FAF5E74944000025640D0A39
:103CC000000000002DE9FC410C4606F025FC6421B3
:103CD000B0FBF1F580A12068FEF717F97F4F28B1FE
:103CE0007FA12068FEF711F9002821D17DA10720CE
:103CF000CDE9000100230322DB217DA001F010FAB1
:103D000082A001F00DFA8A487A688AA150F8223020
:103D10008AA001F005FA8DA007F00CFAC2B28CA1BE
:103D20008CA001F0FDF98EA18EA0FA6901F0F8F9DE
:103D30008FA12068FEF7E9F88F4E00281BD18FA1D4
:103D400088A0D6F8882001F0EBF9386AFEF79DFDCF
:103D500041EC100B8DA153EC102B92A001F0E0F977
:103D6000786AFEF792FD41EC100B92A153EC102BF8
:103D70008CA001F0D5F995A12068FEF7C6F80028BF
:103D80002FD1FFF7A5FD024692A176A001F0C8F958
:103D9000FFF7B8FD024692A192A001F0C1F9944844
:103DA00094A14378027895A001F0BAF93C2195FBE3
:103DB000F1F001FB10574FF4616095FBF0F200FB4E
:103DC000125292FBF1F395FBF0F290A191A00097B3
:103DD00001F0A6F9FFF790FD024692A195A001F02F
:103DE0009FF997A12068FEF790F8002825D1964DFD
:103DF00096A15CA0EA6C01F093F996A159A02A6DF6
:103E000001F08EF916F8802F94A152A001F088F9E4
:103E1000727895A14FA001F083F9327995A14DA058
:103E200001F07EF9B27896A14AA001F079F9F27812
:103E300095A148A0803E01F073F995A12068FEF796
:103E400064F800283DD194A001F06AF94A48143082
:103E500004F01CFB93A001F063F947482C3004F0F8
:103E600015FB93A001F05CF94348443004F00EFBCD
:103E700056F88C2F91A137A001F052F991A135A0ED
:103E8000726801F04DF991A007F046F910EE100AA2
:103E9000FEF7FBFC41EC100B8EA153EC102B90A015
:103EA00001F03EF992A007F037F910EE100AFEF784
:103EB000ECFC41EC100B90A153EC102B88A001F00E
:103EC0002FF994A12068FEF720F810B9934801F06B
:103ED00075FE2820BDE8FC81000000001C0D0020BC
:103EE0003D4C0000417072203230203230313900B8
:103EF0000D0A484925642025642E25642E2564205A
:103F00006275696C642025730D0A00003230303709
:103F1000202D203230313720436F70797269676805
:103F200074206279204869504E55430D0A00000004
:103F3000400100206D6F646500000000252D3136C2
:103F4000732564282573290D0A00000049440000E8
:103F500069640000252D31367325640D0A000000C8
:103F60006F647200252D3136732564487A0D0A007E
:103F70003D465553494F4E00DC0F0020667573696E
:103F80006F6E5F667265713A000000006163635F87
:103F9000636F7272656374696F6E5F6761696E3AB1
:103FA00000000000252D31367325302E34660D0AB1
:103FB000000000006D61675F636F72726563746912
:103FC0006F6E5F6761696E3A000000003D435055B7
:103FD00000000000636F726520636C6F636B00000C
:103FE00075696400252D313673253038580D0A0067
:103FF000340000206370752000000000252D31364C
:104000007325642E256425250D0A000074696D65ED
:1040100000000000252D31367325643A25643A25C9
:10402000640D0A00726573657420636175736520A1
:1040300000000000252D313673307825580D0A0018
:104040003D53454E534F5200B40B002067796F200B
:104050006F6472006D6167206F647200616363203A
:1040600072616E676500000067796F2072616E672C
:10407000650000006D61672072616E676500000079
:1040800067796F20627700006163632062770000C8
:104090003D43414C0000000066635F6163633A0D7D
:1040A0000A00000072635F67796F3A0D0A00000032
:1040B00066635F6D61673A0D0A0000007263675FB7
:1040C000636E74006873695F636E74004D4E4F5287
:1040D0004D00000063616C5F6D5F6E6F726D00007C
:1040E000252D31367325302E32660D0A0000000072
:1040F0004D49434E0000000063616C5F6D61676E67
:10410000657469635F696E636C696E6174696F6E13
:10411000000000003D53595354454D000C0200204F
:1041200010B5086800221146401CFEF7EDF903495E
:1041300000B1012081F8BE00002010BDDC0F00207E
:1041400070B5086800221146401CFEF7DDF9084DE5
:10415000044628226860294606A006F0F5FF21469D
:1041600006A000F0DDFF686806F0E8FD002070BDE5
:104170001C0D002053544154450000004D4F444550
:104180003D25640D0A00000010B52DED108BB0EE3A
:1041900043CAB0EE44BAB5EEC0CAF0EE63BAB0EEB0
:1041A000628AF0EE429AF0EE61AAB0EE41AAF0EE19
:1041B000608AB0EE409AF1EE10FA84B01CD1F5EEB0
:1041C000C0BAF1EE10FA17D1B5EEC0BAF1EE10FA9E
:1041D00012D104B0F0EE482AB0EE692AF0EE6A1A65
:1041E000B0EE4A1AF0EE680AB0EE490ABDEC108B48
:1041F000BDE8104000F0CEB9F5EEC0AAF6EE00CA58
:10420000F1EE10FAE14C09D1F5EEC09AF1EE10FA98
:1042100004D1B5EEC08AF1EE10FA7CD02AEEAA0ADB
:1042200009EEA90A08EE080A03F07AFE6AEE80DABF
:1042300029EE80EA68EE00EA2CEE0C0A0BEEAB0ADF
:104240000BEE0B0A03F06CFE6CEE00AA6BEE809A8C
:104250002BEE008A94ED000AD4ED000A20EE202A0D
:104260008DED032A94ED000AD4ED010A94ED011AB4
:1042700094ED032A20EE20FA94ED000AD4ED020A10
:1042800020EE20DA94ED000AD4ED030A60EE200A55
:1042900094ED010A60EE011A94ED010A94ED021A00
:1042A00020EE010A94ED011A21EE02CA94ED021AE1
:1042B00094ED022A61EE02FA94ED021A94ED032ABB
:1042C00061EE02BA94ED031A94ED032A21EE02BACC
:1042D0003CEEEF1A31EE4B2A8DED022A22EE2A1A1D
:1042E00030EE602A30EE200A7CEEE10A8DED012AE4
:1042F00009EE821A3CEE0D2ACDED000A20EE2A0AC4
:1043000070EECB0A08EE021AB0EE002A09EEA00AFF
:1043100021EE021A00E0ADE07BEECF0A08EE200AA3
:10432000F0EE000A20EE200A61EE010A40EE000ADB
:10433000B0EE600A01F04AFA3CEE4D1A7BEE8F0AAD
:104340009DED032A3DEE0C4A61EE2A1A32EE6C2AEC
:1043500049EEA01ADDED000A32EE0B3A9DED022A7D
:1043600070EEEF3AF0EE000A62EE002A9DED012AAF
:1043700048EE231A22EE002A24EE000A61EEA00A7B
:104380007FEE2B1A00EEA30A00EEA12A40EE812A4E
:104390006EEE030A69EE803A4EEEE10A6DEEA11A66
:1043A00048EE423A4EEE411A70EEA30A6EEE813AA2
:1043B0002AEE821A4DEEC33A28EE223A09EEE21AAC
:1043C0000AEEC03A31EE811AD4ED051A33EE830AB3
:1043D000F5EEC01AF1EE10FA38DD94ED092AF7EE89
:1043E000001AC1EE822A94ED052A22EE203A94EDBD
:1043F000062A03EE222A84ED062A94ED092AC1EE4C
:10440000822A94ED052A22EE003A94ED072A03EE63
:10441000222A84ED072AD4ED092A81EEA22AD4EDBE
:10442000051A61EE812AD4ED081A42EE821AC4ED13
:10443000081AD4ED061A39EE219AD4ED071A78EE4F
:10444000A18AD4ED081A3AEE21AA07E0DFED501A4E
:10445000C4ED061AC4ED071AC4ED081AD4ED041A07
:1044600001EEA09AD4ED040A40EE808A94ED040A8D
:1044700000EE01AAD4ED090AB7EE001AD4ED091A2C
:1044800081EE200AD4ED033AD4ED002AC1EE210AD0
:10449000D4ED091A20EE2C0A20EE090A81EE212A19
:1044A000D4ED021A60EEAC0A60EEA80A22EE2C1AD5
:1044B00094ED012A22EE403A21EE0A1A01EEE03A8A
:1044C00003EEC13AD4ED003A33EE233A84ED003ADC
:1044D00022EE803AD4ED033A01EE813A03EEE03A5F
:1044E000D4ED013A33EE233A84ED013A22EEA03ABC
:1044F000D4ED033A02EE413A22EE811A02EE201A7E
:1045000003EE803AD4ED023A01EEC01A33EE233ABC
:1045100084ED023A94ED030A31EE000A84ED030AB9
:1045200094ED000AD4ED000A94ED011A20EE200A61
:10453000D4ED010A00EE810AD4ED020A94ED021ACC
:1045400000EE810AD4ED030A94ED031A00EE810A0D
:1045500003F0E6FCD4ED000A60EE800AC4ED000A28
:10456000D4ED010A60EE800AC4ED010AD4ED020A1E
:1045700060EE800AC4ED020AD4ED030A20EE800A40
:1045800084ED030A04B0BDEC108B10BDB003002015
:104590000000000010B59F4C2DED0A8BB0EE61BA03
:1045A000F0EE629AB5EEC0BAB0EE42AAB0EE418A21
:1045B000F0EE608AB0EE409AF6EE00BAB7EE00CAAE
:1045C000F1EE10FA09D1B5EEC0AAF1EE10FA04D15D
:1045D000F5EEC09AF1EE10FA7DD02BEE0B0A0AEE42
:1045E0000A0A09EEA90A03F09BFC2BEE002A6AEEE8
:1045F000002A69EE801A94ED010AD4ED030A94EDC5
:10460000033AF0EE6BAA20EE201A94ED000AD4EDE6
:10461000020A00EE601A94ED000AD4ED010A60EE81
:10462000200A94ED020A40EE030A94ED000A94ED8C
:10463000003A50EE03AA94ED030A94ED033A40EEDB
:1046400003AA22EEAA0A01EEE00A62EE200A61EE57
:10465000811A42EEC10A42EE6A1A94ED051AB5EECD
:10466000C01AF1EE10FA37DD94ED091A8CEE012A2A
:1046700094ED051A61EE002A94ED061A02EE821AF4
:1046800084ED061A94ED091A8CEE012A94ED051AB0
:1046900061EE212A94ED071A02EE821A84ED071AC0
:1046A00094ED091A8CEE012A94ED051A61EE202A88
:1046B00094ED081A02EE821A84ED081A94ED061A97
:1046C00039EE019A94ED071A78EE818A94ED081A72
:1046D00038EE018A08E013E09FED4F1A84ED061AC8
:1046E00084ED071A84ED081A94ED041A01EE009A7D
:1046F00094ED040A40EE218A94ED040A00EE208A2B
:10470000D4ED090A94ED091A94ED012A8CEE200AE1
:10471000D4ED033AD4ED002ACCEE010A94ED091A47
:1047200020EE2B0A20EE090A22EE403ACCEE011AC6
:1047300060EEAB0A60EEA80A21EEAB1AD4ED021AC5
:1047400001EEE03A21EE081A03EEC13AD4ED003A48
:1047500033EE233A84ED003A22EE803AD4ED033A68
:1047600001EE813A03EEE03AD4ED013A33EE233A1A
:1047700084ED013A22EEA03AD4ED033A02EE413A3A
:1047800022EE811A02EE201A03EE803AD4ED023AAC
:1047900001EEC01A33EE233A84ED023A94ED030A97
:1047A00031EE000A84ED030A94ED000AD4ED000A0C
:1047B00094ED011A20EE200AD4ED010A00EE810AE0
:1047C000D4ED020A94ED021A00EE810AD4ED030A38
:1047D00094ED031A00EE810A03F0A2FBD4ED000A67
:1047E00060EE800AC4ED000AD4ED010A60EE800A92
:1047F000C4ED010AD4ED020A60EE800AC4ED020A9B
:10480000D4ED030A20EE800A84ED030ABDEC0A8B86
:1048100010BD0000B00300200000000010B500F043
:1048200001F810BD7047000010B50868002211465D
:10483000401CFDF769FE0446B0F57A7F15D83CB1FF
:104840000B4890FBF4F1002000F04EF8012100E04D
:104850000021002000F06CF8064828220146C461BF
:1048600005A006F071FC002010BD012010BD000065
:1048700040420F001C0D00205354415445000000DD
:104880000B48D0F80C11002910D0D0F80C1141F0D1
:104890000101C0F80C1107480178002906D106492A
:1048A000097A002902D0406805F09EBA70470000DE
:1048B00000700340580100201C0D00200848D0F86B
:1048C0002C1100290AD0D0F82C1141F00101C0F8B8
:1048D0002C1104481021406804F05CBC70470000B3
:1048E000007003406C01002070B504460C480D4672
:1048F000C16B41F40001C1630120FEF7E9FF0949E2
:10490000B0FBF1F1084801600848026822F0020299
:1049100002606943E0B2BDE8704000F039B80000C1
:104920000080044040420F00B801002000700340A6
:10493000144AD36B43F40003D363134A02EB00120F
:10494000C1B1D2F80C1141F00101C2F80C11D2F83A
:10495000081141F00201C2F808110C490856012162
:1049600000F01F0291404009800000F1E020C0F8F3
:10497000001105E0D2F8080120F00200C2F8080199
:1049800000207047008004400070034008B400001D
:10499000020108481044D0F8082122F00102C0F8B2
:1049A0000821C0F80011D0F8081141F00101C0F849
:1049B00008117047007003400C4810B550F8A01F54
:1049C0000B4C2160216801602068400703D502215B
:1049D000606804F0DFFB2068000705D56068BDE86B
:1049E0001040202104F0D6BB10BD000000B00440F0
:1049F0000C000020044A00B503460146107800F080
:104A0000A7FA184600BD000094010020BFF34F8FA5
:104A100004480168044A01F4E06111430160BFF3F6
:104A20004F8FFEE70CED00E00400FA0500B589B0F9
:104A300005AA06A8CDE90002086807AB08AA16A1D6
:104A4000FDF780FA042802D0012009B000BD9DEDD9
:104A5000080A02A8B8EEC00A8DED020A9DED070A09
:104A6000B8EEC00A8DED030A9DED060AB8EEC00A45
:104A70008DED040A06F060FA9DED050ADFED0A0AE5
:104A800002A9B8EEC00A094860EE201A91EC030AA8
:104A900003F0F7FD0020D8E73D25642C25642C2584
:104AA000642C25640000000035FA8E3CE00F0020E5
:104AB000F8B508683D21FDF717FA204E05000CD027
:104AC00000241FA000F02CFB6A4622A1681CFDF701
:104AD00039FAC0B2012813D01EE01AA000F020FB62
:104AE00000243519687A48B103F0CEF801466A7A95
:104AF00019A000F015FB641C102CF2D30020F8BDA7
:104B000037199DF80000787203F0BEF801467A7AF2
:104B100011A000F005FB641C2C21681CFDF7E4F9D2
:104B2000050001D00F2CCFD931190020487228225E
:104B300002490DA006F008FBE0E700001C0D002074
:104B40006E6577207061636B6574206974656D7341
:104B50003A0D0A0025580000252D3130735B30785E
:104B6000253032585D0D0A00535441544500000071
:104B70002DE9F3410F4600986E4600F007052148E5
:104B800050F825400120FEF7A3FEDFF878C0034669
:104B900005EB45000CF1040C5CF820100CEB8000D8
:104BA0000A684068024301200A60206020681649B4
:104BB000084320600021284600F05AF8206820F4BD
:104BC000804020603A460021284602F0C7F94FF0A5
:104BD000FF30E062206820F001002060002409E03E
:104BE000C0F34421C0F382122144C0F3C20000F09C
:104BF00085F8641C3068C0F38431A142F0DC28469B
:104C0000BDE8FC8198B30000003C3F8008B500235C
:104C10000A461946009300F001F808BDF0B5134D9F
:104C2000059E55F82040E76A47F00047E7620EB15D
:104C3000002401E04FF000444FF0E04606EA017125
:104C40000C43012199404FF47C1303EA01410C43CA
:104C500091B20C4355F820104C6355F82000C16AFE
:104C60000029FCDA806B80B2F0BD000098B3000030
:104C70001D4A52F82000026842F001020260C26838
:104C800022F0F042C260C26842F06052C26031B1AC
:104C9000012908D002291BD003290CD11CE0C168CE
:104CA00021F0C06106E0C16821F08061C160C16887
:104CB00041F00071C160C16821F08071C160C168BC
:104CC0000A4A1143C160016821F001010160704787
:104CD000C16841F0C061EDE7C16841F08061C16029
:104CE000C16821F00071E5E798B3000000115000A1
:104CF000014A5160106070478401002070B5104D6A
:104D000000EB400355F8234005EB830326685B68FE
:104D10001E43266005F13C0454F8203053F821501E
:104D200025F4E06543F8215054F8200050F8213074
:104D30004FF4E06404EA0222134340F8213070BDCE
:104D4000F8B2000070B51B4D00EB400355F823404E
:104D500005EB830326685B681E4305F13C03266070
:104D600042B1012A15D053F8200050F8212022F03A
:104D700002021CE053F8202052F8214044F00204C3
:104D800042F8214053F8200050F8212022F001027F
:104D90000DE053F8202052F8214044F0020442F87C
:104DA000214053F8200050F8212042F0010240F841
:104DB000212070BDF8B2000010B504F063FB05F0CF
:104DC000B1FBBDE8104004F071BB000000B54FF02E
:104DD000E020016941F0040101616FF07F41416110
:104DE0000020FEF775FD064A0449B0FBF2F04FF4CF
:104DF0007A7208605043486000BD00007C010020CA
:104E000040420F000748016841F470010160064804
:104E10004CF22051C1814DF62811C1814FF4E97146
:104E20000180704788ED00E00020054010B50121A9
:104E300003A004F0EBFE08B104F0D6FF282010BD5B
:104E40006F64725F73656D0008B56946002000F0FD
:104E500029F8002805D103489DF80010006804F0E7
:104E6000EFFC08BD3C00002008B56946012000F0B9
:104E700019F8002803D19DF8001000F069F808BD6A
:104E800001B50749009800F0070051F82000002103
:104E9000017041708170C17081718172084608BDD6
:104EA00098010020094A52F820000279920603D5A1
:104EB000C0790870002070470179090703D501798E
:104EC00041F00801017101207047000098010020A5
:104ED00073B51A4B00986D4600F0070606EB4600C6
:104EE00053F8202003EB80001468406804431460EA
:104EF000009800F0070000F035F8002409E0C0F346
:104F00004421C0F382122144C0F3C200FFF7F6FE31
:104F1000641C2868C0F38431A142F0DC084C20787E
:104F200038B10848084906700848FFF7E1FE00203C
:104F30002070287800F007007CBD00007CB30000E2
:104F40008C0100209401002019390000F54900006F
:104F5000034A52F8200002791206FCD5C17170474D
:104F60009801002070B5064615480D4650F82640B9
:104F7000304600F027F8E17821F00C01E1702901BA
:104F8000B0FBF1F2217821F01F0121702178C2F3EA
:104F900004231943217062704000B0FBF5F05142C8
:104FA00000EB4110A17A21F01F01A172A17A00F05B
:104FB0001F000143A172E07840F00C00E07070BD6A
:104FC0009801002020B1012802D00120FEF780BC0A
:104FD0000020FBE7F0B50746124815000E4650F8D2
:104FE000274002D1384600F01FF84EB1012E0FD0F5
:104FF00025B101223146384600F016F80020F0BDF8
:10500000E07A15B140F0800006E020F0800007E073
:10501000E07A1DB140F02000E072EAE720F02000C5
:10502000E072EBE79801002070B51D4D00EB4003E6
:1050300055F8234005EB830326685B681E43194B34
:1050400026602C1F53F820302056012400F01F0545
:10505000AC404009800000F1E020C0F8004121B1DF
:1050600001290AD0022918D10FE0D87812B140F0F6
:10507000800011E020F080000EE0D87812B140F0FE
:10508000200009E020F0200006E0D87812B140F0BE
:10509000100001E020F01000D870002070BD00006A
:1050A0007CB300009801002010B5FEF72BFC0146F0
:1050B00002A000F035F8002010BD0000307825581F
:1050C0000D0A000070B5044640F2D11500F01CF83E
:1050D0000349200C8880CC800020C8820D8070BDE0
:1050E0000020054072B607484AF2026181814BF206
:1050F0008041818162B6002000BF401C1428FBD390
:10510000704700000020054072B604484CF2205160
:10511000C1814DF62811C18162B67047002005405B
:105120000FB4054B10B503A9044A029800F0DAFD4C
:1051300010BC5DF814FB00002177000090010020F6
:105140004100080218BF04200A0E18BF40F00100F9
:105150004FF07F4232EA010108BF40F0020001280F
:1051600008BF05207047000000487047EC0300208E
:1051700010B54FF00E402DED028BB0EE408A18EEC8
:10518000104A00EB4400B0F1506F4AD84FF0FC4099
:10519000B0EB440F22D2B0EEC80AF7EE000A30EEB0
:1051A000C00AF6EE000A60EE208A18EE900A05F0BA
:1051B00013FE01EE100A14F0004F1DBFDFED2D0AA3
:1051C0009FED2D0AB1EE411ADFED2C0A08BF9FEDCD
:1051D0002C0AF8EE001A21EE218A05E0DFED290AFB
:1051E00068EE088AB0EE600A9FED271ADFED271AF5
:1051F00030EE080A48EE811A9FED251A08EEA11A32
:10520000DFED241A48EE811A9FED231A08EEA11A49
:1052100068EE281ABDEC028B01EE810A30EE200AFE
:1052200010BD4FF0E440B0EB440F0CD918EE100A5B
:10523000FFF786FF042808BF00F0F4FAB0EE480A32
:10524000BDEC028B10BD4FF07F40B0EB440F07D296
:10525000B0EE480ABDEC028BBDE8104000F0D3BAB6
:10526000012000F0C3FBBDEC028BBDE8104000F054
:10527000D1BA00000000C9BF22AAFDB90000C93F91
:1052800022AAFD390000000024FE1C3DC78AD83C3C
:105290001E67383D1B93993DAFAA2A3E10EE100AB7
:1052A00010B510EE901A4FF0684202EB40032DED5E
:1052B000028BB3F1654F3CBF02EB4102B2F1654F87
:1052C0007CD200BFC0F3C753C1F3C7529A1A1B2A3E
:1052D00009DD10F0004F14BF9FED6E0A9FED6E0ABE
:1052E000BDEC028B10BD12F11A0F1BDA11F0004F4A
:1052F00009D010F0004F0CBF9FED680A9FED680ABF
:10530000BDEC028B10BD80EE208A18EE100AFFF76C
:1053100017FF042808BF00F085FAB0EE480ABDEC7C
:10532000028B10BD4200B2EB410F37D910F0004F95
:1053300019BFDFED5C1A9FED5C1ADFED5C1A9FED83
:105340005C1AB0EE602A0A46F1EE400A80F0004195
:10535000B0EE420A10460A1A5200B2F1807F34D2EF
:10536000484010F0004FDFED532A9FED533A1DBF28
:10537000BEEE002A71EEE21A31EE431AB6EE002AB2
:1053800004BF71EEA21A31EE031AF0EE402A42EE8B
:10539000602A40EE020A82EEA02A18E011F0004FC7
:1053A00004BF9FED461AF0EE411AD4D010F0004F22
:1053B0001CBFDFED431A9FED431A00E026E004BF57
:1053C000DFED411A9FED411AC5E780EE202A22EE5B
:1053D000020ADFED3F0ADFED3F2ABDEC028B40EE13
:1053E000202ADFED3D0A40EE220ADFED3C2A40EEA6
:1053F000202ADFED3B0A40EE220A22EE000A00EEF0
:10540000201A31EE020A30EE210A10BD4FF07F4221
:10541000B2EB400F28BFB2EB410F05D2BDEC028BBF
:10542000BDE8104000F0F2B940EA01035B0008BF9C
:1054300041F0FF410BD0B2EB400F08BFB2EB410F80
:1054400008D120F0804000EE100A21F0804100EEEB
:10545000901A37E7B2EB400F12BF5FEA410240F00B
:10546000FF4001F000413FF42DAF4A0092EA4003B3
:105470003FF528AF002AACBF9FED1A1A9FED1A1A0C
:1054800020EE010A60EE810A10EE100A10EE901A6A
:1054900018E70000DB0FC9BFDB0FC93FDB0F494036
:1054A000DB0F49C00000C9BF22AAFDB90000C93FF7
:1054B00022AAFD390060ED3EC30ACE37000000008D
:1054C000000049C022AA7DBA0000494022AA7D3AC4
:1054D0002DAD65BD8FB8D53D0FB511BE61C84C3E31
:1054E000A8AAAABE0000804F0000802F10EE101A5C
:1054F00008B5444A6846B2EB410F28D94FF0E64060
:10550000B0EB410F94BF00204FF0FF3000900098A7
:10551000002861DB60EE000A10F0010F45D010F0AA
:10552000020FDFED391A9FED391A00EEE11ADFEDB7
:10553000381A40EE811A21EEA01AF0EE400A40EE31
:10554000010A08BFF1EE600AB0EE600A08BD314BF7
:1055500021F0004293423CD911F0004FDFED2E0ABA
:1055600020EE201ADFED2D0A19BF31EE601A71EE20
:10557000200A31EE201A71EE600ABDEEE01A11EE3B
:10558000100A9FED271A00F0030000EEC10A9FEDFC
:10559000251A009000EEC10A9FED231A00EEC10A01
:1055A0009FED221A00EEC10AB1E79FED211A9FED8F
:1055B000210A10F0020F00EE810A9FED1F1A00EE83
:1055C000801AB7EE000A00EE810A18BFB1EE400A59
:1055D00008BD00F02FF99AE710EE100A4000B0F174
:1055E0007F4F3CBFB7EE000A08BD07D14FF0010066
:1055F00000F0FCF9BDE8084000F00CB9BDE8084037
:1056000000F001B9B61F927E336D4C39DA82083C46
:10561000A0AA2ABE490E494683F9223F0000004B4A
:105620000000C93F00A0FD390020A2331A61342CCC
:10563000B93AB2BACA9F2A3DDDFFFFBE00B510EEEF
:10564000101A2DED028B81B0524A6846B2EB410F21
:105650002ED94FF0E640B0EB410F94BF00204FF041
:10566000FF3000900098B0EE408A00286ADB10F00E
:10567000010F4BD068EE080A9FED471A9FED470ACD
:1056800000EE810A9FED461A10F0020F00EE801A1C
:10569000B7EE000A00EE810A02BF01B0BDEC028B3A
:1056A00000BD00BF01B0B1EE400ABDEC028B00BDF1
:1056B0003C4B21F00042934241D911F0004FDFED05
:1056C0003A0A20EE201ADFED390A19BF31EE601ACE
:1056D00071EE200A31EE201A71EE600ABDEEE01A7A
:1056E00011EE100A9FED321A00F0030000EEC10A1D
:1056F0009FED301A009000EEC10A9FED2F1A00EEC8
:10570000C10A9FED2E1A00EEC10AABE728EE080A87
:105710009FED2B1ADFED2B0A10F0020F40EE410A2D
:105720009FED291A00EE201A61EE000AB0EE480A39
:1057300008EE200AB6D101B0BDEC028B00BD00F02E
:1057400079F88FE718EE100A4000B0F17F4F0DD2C4
:1057500018EE100AFFF7F4FC042808BF00F062F806
:10576000B0EE480A01B0BDEC028B00BD09D10120AA
:1057700000F03CF901B0BDEC028B5DF804EB00F0E9
:1057800049B801B0B0EE480ABDEC028B5DF804EBFD
:1057900000F039B8B61F927EB93AB2BACA9F2A3D14
:1057A000DDFFFFBE490E494683F9223F0000004B52
:1057B0000000C93F00A0FD390020A2331A61342C3B
:1057C000336D4C39DA82083CA0AA2ABE10B52DED03
:1057D000028BB1EEC08A18EE100A20F00040C0F132
:1057E000FF40C00F0AD010EE100A20F00040C0F1B8
:1057F000FF40C00F04BF012000F0F8F8B0EE480AE7
:10580000BDEC028B10BD30EE000A704730EE200A6E
:1058100070470000DFED020A80EEA00A704700002A
:10582000000000009FED020A20EE000A7047000011
:10583000000000102DE9F0014FF07F42B2EB410F64
:105840009FBF4FF0FF310160BDE8F00170474FF09E
:10585000004242EA0123C1F3C752783A551112F0CF
:105860001F0C434CCCF120067C44C1F3C752A2F17B
:1058700078024FEA621204EB820254F8254008BF16
:10588000D2E9015612D0556804FA0CF425FA06F74D
:105890003C43976805FA0CF527FA06F8D26807FA30
:1058A0000CFCF24045EA08054CEA0206A4FB034C56
:1058B000A5FB0352A6FB03631D449D4234BF012692
:1058C00000261319334416B1934202D903E09342E0
:1058D00001D2012200E00022624402F1200C920673
:1058E000DC0C42EA443200EE102A5B03DFED210AB1
:1058F000F8EEC01A00EE103A4FEA9C1C11F0004F6F
:10590000B8EE400AC0F800C020EE201A00EE105A8F
:10591000DFED190AB8EE400A20EE200A71EE810A86
:1059200070EE800A10EE902A02F500626FF30B020F
:1059300000EE902A70EEE11A31EEC11ADFED101A76
:1059400030EE411A9FED0D0A20EE800A01EE210A89
:105950009FED0C1A00EE810A04BFBDE8F00170470C
:10596000CCF180510160BDE8F001B1EE400A704712
:10597000E05C0000000000360000802C22AAFD2917
:10598000DB0FC92F0000C92F002807D00E4910F0E7
:10599000FF0F04D051FA80F00078401C704710F4DB
:1059A0007F4F04D0C0F30720085C0930704710F423
:1059B0007F0F04D0C0F30740085C1130704701EB43
:1059C000106000781930704727B4000002E008C862
:1059D000121F08C1002AFAD170477047002001E069
:1059E00001C1121F002AFBD1704700000149086065
:1059F00070470000EC0300202DE9FF5F82B000211A
:105A0000DDE90430020DDDF840B0034318D044F660
:105A10001050A2F2FF3242431514119801281FD0F2
:105A2000A5EB0B00401C5FEA000A4FF000064E4F4A
:105A3000DFF83891B046504615D5CAF1000413E09E
:105A4000119801244AA3012801D16FEA0B010298A1
:105A5000119AC0E90031C0E9024206B0BDE8F09FEA
:105A6000CBF10000DFE704460021404A491842EB31
:105A70000450CDE9001012E0E00707D032463B4663
:105A800040464946FCF720FE8046894632463B4662
:105A900010461946FCF718FE06460F466410002C07
:105AA000EAD1DDE90401DDE90023BAF1000F06DAED
:105AB000FCF70AFE42464B46FCF706FE05E0FCF703
:105AC00075FE42464B46FCF771FE04460E46002228
:105AD000284BFDF7C9F803D84FF0FF30014607E027
:105AE0000022254B20463146FCF747FDFDF7A3F881
:105AF000102409E0002C0ADB0A220023FCF70AFF2D
:105B0000039B30321A55641E50EA0102F2D1641C24
:105B1000039AC4F111031444119A012A03D00122FB
:105B200008430DD10AE0084304D000204FF0110BC8
:105B3000119072E7A3EB0B056D1E0DE05B4504DDD4
:105B40004FF0000205F1010504E003DA4FF0000216
:105B5000A5F10105002AECD002981199C0E90231A3
:105B6000C0E9004579E70000000014400000F03F64
:105B7000300000000000F0430000E03F10B5044694
:105B8000D0EC031A05F015FA0C34D4EC031ABDE876
:105B9000104005F000BA000003480168814201D0BE
:105BA00001207047002070479802002030380A28F2
:105BB00001D2012070470020704700007CB50646E6
:105BC0001E4803F0B1FC1E4803F0AEFC356830E01F
:105BD000A5F10C0495F829302246082119A003F0FC
:105BE000A3FC94F83400012805D0022805D030B178
:105BF000042806D008E017A004E019A002E01BA0CA
:105C000000E01DA003F090FCA06A014600E0491CE2
:105C10000A78232AFBD0236BA26CCDE90023A28D46
:105C2000091A531AE169401A811816A003F07CFC86
:105C30002D68B542CCD100207CBD00003CB60000F0
:105C4000F4B50000252D382E2A7320307825303207
:105C50007800000020726561647920200000000057
:105C60002073757370656E640000000020696E69B2
:105C7000742020200000000020636C6F73652020DA
:105C8000000000002030782530387820307825302A
:105C900038782030782530387820307825303878BA
:105CA00020253033640A00004FF0FF31403003F00C
:105CB000F1BE000030B54289524222F00302524246
:105CC000D31702EB937294100022054B04E0058970
:105CD00002EB9505521C5955A242F8D330BD000085
:105CE0009C1900202DE9FF4F95B09B46894606463A
:105CF00000250FE2252877D100242746F84A012104
:105D0000059400E0044316F8013F203B01FA03F03C
:105D10001042F7D130782A2811D06FF02F03307855
:105D2000A0F13002092A16D8059A44F0020402EBC9
:105D3000820203EB42021044761C0590EFE759F80B
:105D4000042B0592002A03DA504244F400540590D3
:105D500044F00204761C30782E2816D116F8010F74
:105D600044F004042A280DD06FF02F023078A0F1FF
:105D70003003092B09D807EB870302EB4303C7184D
:105D8000761CF3E759F8047B761C30786C280FD02A
:105D900006DC4C2817D068280DD06A2814D104E0FE
:105DA000742810D07A280FD10DE044F400140AE0D2
:105DB00044F4801401E044F440147278824202D129
:105DC00004F58014761C761C307866280BD013DC22
:105DD000582877D009DC002875D04528F6D0462809
:105DE000F4D047281AD19DE118E0632835D0642803
:105DF00079D0652812D195E1702873D008DC672826
:105E0000F1D069286FD06E280DD06F2806D1B5E08B
:105E100073282CD0752875D0782874D05A461799D5
:105E200090476D1C75E1C4F30250022809D0032885
:105E30000DD0D9F8001004280DD00D6009F1040927
:105E400067E1D9F80010EA17C1E90052F6E7D9F87E
:105E500000100D80F2E70D70F0E719F8041B8DF8C3
:105E6000001000208DF80100EA46012003E059F8F7
:105E700004AB4FF0FF3061074FF0000102D40DE09A
:105E800008F101018846B9420FDA8045F8DB1AF8BB
:105E900008100029F4D108E008F101018846814288
:105EA000FADB1AF808100029F6D105985B46A0EB3A
:105EB000080721463846179A00F094FA284400EB68
:105EC000080507E04DE029E10DE01AF8010B5A46FC
:105ED00017999047B8F10108F7D25B46214638463A
:105EE000179A13E142E00A220092C4F302524FF0E3
:105EF000000A022A08D059F804CB032A4FEAEC71B1
:105F00000AD00DE029E02AE009F1070121F007029B
:105F1000F2E802C1914609E00FFA8CFC4FEAEC71FD
:105F2000042A03D14FFA8CFC4FEAEC71002907DAFE
:105F30000A460021DCF1000C61EB02012D2202E097
:105F4000220504D52B228DF80420012203E0E2076C
:105F500001D02022F7E7904659E00A2102E0102202
:105F60000DE010214FF0000A00910BE010224FF0DD
:105F7000000A44F004040827009203E008224FF0CE
:105F8000000A0092C4F30252022A05D059F804CB49
:105F90000021032A08D009E009F1070121F00702D6
:105FA000F2E802C1914605E01FFA8CFC042A01D1F7
:105FB0000CF0FF0C4FF00008220728D5702806D0FF
:105FC000009B83F0100353EA0A0305D00EE0402241
:105FD0008DF80420012208E05CEA010206D030229C
:105FE0008DF804208DF8050002229046009B83F076
:105FF000080353EA0A030AD15CEA010201D16207ED
:1060000005D530228DF804204FF001087F1E582856
:1060100004D034A003900EA802900DE036A0F9E75A
:1060200053466046009AFCF775FC84460398825CF0
:106030000298401E029002705CEA0100F0D10298C2
:1060400006A9081A00F1200A600702D524F480345A
:1060500000E00127574502DDA7EB0A0000E0002021
:1060600000EB0A01009005984144401A0590E003B6
:1060700006D45B462146179A059800F0B3F905440B
:10608000002706E001A85A46C05D179990476D1C8D
:106090007F1C4745F6DBE0030CD55B462146179A8B
:1060A000059800F09FF9054404E030205A461799FE
:1060B00090476D1C0099481E00900029F5DC08E00F
:1060C000029802995A460078491C02911799904704
:1060D0006D1CBAF10001AAF1010AF1DC65E10000D2
:1060E00009280100303132333435363738396162AE
:1060F0006364656600000000303132333435363772
:1061000038394142434445460000000000F058F948
:106110000544761C307800287FF4ECAD19B0284691
:10612000BDE8F08F620700D4062709F1070222F0CC
:10613000070CFCE80223E14603F000485FEA080C84
:1061400002D00FF2702C0DE05FEA045C02D50FF272
:10615000682C07E05FEAC47C02D00FF2602C01E0FB
:10616000AFF2700C4FF0FF3823F00043CDF850C071
:1061700065280CD006DC452809D046281DD04728C4
:106180003DD13DE0662818D067287ED138E0002157
:10619000112F01DB112000E0781CCDE9000106A9D8
:1061A0000EA8FFF729FCDDE90F010E9A03910021EB
:1061B000009207F1010A04914DE04FF00040009772
:1061C000CDE9011006A90EA8FFF716FCDDE90F02C4
:1061D00003920E9B11990022DDF80CA0009304920B
:1061E00011B9791C00EB010AB7EB0A0004D4C0F125
:1061F000FF3007F1010A0490AAEB0700019044E088
:10620000012F00DA01270021112F01DD112000E00C
:106210003846CDE9000106A90EA8FFF7EDFBDDE940
:106220000F010E9A0391002104910092BA462107B2
:106230000CD40399514500DA8A46BAF1010F05DD05
:10624000009AAAF10101515C302908D0B84202DA63
:1062500010F1040F06DA0121CDE9011015E0AAF1D1
:106260000101E9E7002805DC049901440491AAEB47
:10627000000102E0411C514500DD8A460499401AA4
:10628000401C01904FF000400290200704D4019878
:10629000504501DBCDF8048000208DF84F000298B6
:1062A0000DF14F07B0F1004F25D02B200E90029832
:1062B0004FF0020800280CDA404202902D200E9088
:1062C00007E00A210298FCF70FFB3031029007F833
:1062D000011DB8F10001A8F10108F2DC02980028C4
:1062E000EFD1791E0E980870307800F0200040F051
:1062F000450007F8020D12A8C01B00F1070814980A
:10630000007800B1012000EB0A01019801EBE07177
:1063100005984144401A401E0590E00306D45B46B0
:106320002146179A059800F05DF805441498007806
:1063300018B15A46179990476D1CE00324D55B4667
:106340002146179A059800F04DF805441CE0049882
:10635000002807DBDDE90301884203DD0098405C8B
:10636000179901E0179930205A469047049805F193
:106370000105401C04900198401E019004D12E207C
:106380005A46179990476D1CBAF10001AAF1010A0B
:10639000DDDC05E017F8010B5A46179990476D1C94
:1063A000B8F10001A8F10108F4DC5B462146179A18
:1063B0000598ABE62D0000002B0000002000000037
:1063C0002DE9F041044600251E461746880404D4F2
:1063D00005E039462020B0476D1C641EF9D52846DB
:1063E000BDE8F0812DE9F041044600251E469046A7
:1063F000C80301D5302700E02027880404D505E034
:1064000041463846B0476D1C641EF9D52846BDE8A4
:10641000F08100002DE9FC4119460446DDE908370A
:10642000DDE90A65143040600060A362C4E9082118
:10643000BAB2A285232118461C3403F0A4FA218A9B
:10644000E0680F4B4218D4E90101121F02F0BCFFB3
:106450002060A6766676A5620020E56260612076FF
:10646000E06520661C3C009023460190054A1946D1
:1064700004F14C0004F0E9F80020BDE8FC810000C4
:1064800021A200004BA4000010B5029C24F00104DE
:106490004472C0E907120021C0E9093100EBC102D2
:1064A0001432491C526012600129F7DB10BD10B58F
:1064B000002200EBC201521CF1E90534012A5C60A4
:1064C000D1E90034236049600960F2DB10BD0000AF
:1064D0004289038901481844FBF7E2BCFC180020FC
:1064E00070B505460E46082003F07EF8041E09D05C
:1064F000668025807543A80003F076F86060002868
:1065000000D0204670BD10B5FFF7EAFF040004D0AC
:10651000B7EE000A00F00CF8204610BD10B5044696
:10652000406802F09DFE2046BDE8104002F098BE93
:106530000021B7EE000A05E0426802EB8102491C27
:1065400082ED000A428803885A438A42F4DC70478D
:1065500030B500230BE002FB04344D6805EB8404E6
:1065600094ED000A00EB83045B1C84ED000A4C8868
:106570009C42F0DC30BD30B500230BE000EB83051E
:1065800002FB043495ED000A4D685B1C05EB8404A6
:1065900084ED000A4C889C42F0DC30BD08B5002236
:1065A000102114A003F09EF8144D1421A86005F1E9
:1065B0000C0000F029F8124803F0B6FE0026114C3A
:1065C0004FF0FF38012742466946A86803F0AEF84D
:1065D000002211461046FEF7FDFC67640098C0B229
:1065E00000F018F86664002101220846FEF7F2FC6C
:1065F000E9E700006D625F61740000003400002074
:10660000D96700000020FE43014AC2E90201704739
:10661000C80200202DE9F8433B4E32787AB14FF0A2
:106620000008012A0FD03146384F4968022A15D098
:10663000032A0ED10D281ED00A281CD044E0412880
:1066400007D1012015E0542805D086F80080C6F84F
:106650000480BDE8F88302203070F8E70D2807D0E9
:106660000A2805D0402903D07854491C7160F0E70E
:1066700003203070EDE707F80180002421E03D2180
:106680002248FBF731FC28B13D212048FBF72CFCC8
:10669000C51B00E07568B06850F83400FBF72EFCAD
:1066A000A84205D3B06850F83400FBF727FC054634
:1066B000B0682A46154950F83400FBF734FC30B175
:1066C000641CF0688442DAD386F80080C1E7B068C1
:1066D00050F83400FBF712FC38440090B06869466B
:1066E00000EBC40042680120904710B1012805D199
:1066F00001E007A000E008A0FEF712FD40210348DA
:10670000FBF7E7FBE0E70000C80200203C17002091
:106710004F4B0D0A000000004552520D0A000000C8
:1067200010B5082802D0402825D10DE013481822C2
:106730000446FBF7B5FB204601F0A8FE18222146CF
:106740000FA004F001FD16E00C481822303004467A
:10675000FBF7A6FB182221460AA004F0F5FC074C23
:1067600009A0143C94ED260A04F086FD94ED250A58
:1067700007A004F081FD002010BD0000F00F0020F4
:106780004643410046434D004D49434E0000000042
:106790004D4E4F524D000000014909688968084775
:1067A00074010020014B1B681B681847740100200E
:1067B000014908607047000074010020024A5268D5
:1067C000002A00D01047704774010020014948603A
:1067D0007047000074010020F8B5214D002668685C
:1067E000A8B902F051FC03F097FE044608E068687F
:1067F000401C686000960098401C00906428FAD302
:1068000003F08AFE001B0A28F1D302F011FD0024D8
:1068100003F082FE074606E0641C00960098401CC8
:1068200000906428FAD303F077FEC01B0A28F3D344
:10683000686884420FD2011B64225143B1FBF0F21D
:106840002A70B1FBF0F200FB121164225143B1FB3C
:10685000F0F06870F8BD6C602E706E70F8BD0000CE
:1068600034000020F0B50388002641F221070CE037
:106870008C5D002583EA04235C001B0400D57C406A
:106880006D1C2346082DF7D3761C9642F0D3038067
:10689000F0BD00002DED028B00228EB01146FEA04F
:1068A00003F080FAFE4D0024012368602246FD4972
:1068B000FDA0009403F0A2FEA86040F20310ADF822
:1068C0001440049001268DF81640F8488DF80C40CD
:1068D0008DF817600990069407968DF8204003A85C
:1068E0000A96FCF725FD002101220846FCF78CFDE5
:1068F000002101220846FEF76DFBED4CED49E069F1
:1069000030B1B1FBF0F10020FDF7EEFF01210AE00C
:106910000020FDF7E9FFE848D0F80C1141F0010133
:10692000C0F80C1100210020FEF702F8B3462672D1
:10693000E24E06F168009FEDE28ADFF87493E14FC2
:10694000F2EE048A09F12809A246A84600904FF009
:10695000FF31D8F8040003F06DFAD549DAA22831E6
:10696000301D02F00FF9A521D84801F001FB0025E8
:106970000AEB0504607A00287ED08A281CD103F037
:10698000CBFD6421B0FBF1F20B92B0FBF1F201FB05
:106990001200CF49012248430C9004F10901CB4871
:1069A00001F0C8FA04220BA9C84801F0C3FA042276
:1069B0000CA9C64801F0BEFA607A60280BD104F138
:1069C00009010122C14801F0B5FABC4920229C31DD
:1069D000BE4801F0AFFA607A702816D104F10901BF
:1069E0000122BA4801F0A6FA0C22B848009901F039
:1069F000A1FAB2490C225C31B44801F09BFAAF49CC
:106A00000C227431B14801F095FA607A90280AD1CD
:106A100004F109010122AD4801F08CFA0122A449D8
:106A2000AA4801F087FA607AA0282AD197ED000AD7
:106A300004F10901012220EE080ABDEEC00A10EEA1
:106A4000100AADF8040097ED010A20EE080ABDEE29
:106A5000C00A10EE100AADF8060097ED020A20EE0B
:106A6000080ABDEEC00A10EE100AADF808009748FB
:106A700001F060FA062200E040E201A9934801F02B
:106A800059FA607AA12828D196ED1A0A04F1090171
:106A9000012220EE080ABDEEC00A10EE100AADF881
:106AA000040096ED1B0A20EE080ABDEEC00A10EEA7
:106AB000100AADF8060096ED1C0A20EE080ABDEE9D
:106AC000C00A10EE100AADF80800804801F032FA52
:106AD000062201A97D4801F02DFA607AA22828D16A
:106AE00097ED0C0A04F10901012220EE080ABDEE1F
:106AF000C00A10EE100AADF8040097ED0D0A20EE62
:106B0000080ABDEEC00A10EE100AADF8060097EDB7
:106B10000E0A20EE080ABDEEC00A10EE100AADF80B
:106B200008006A4801F006FA062201A9674801F048
:106B300001FA607AA62824D1301D009900F0FCFDEE
:106B4000F0EE481A04F020FABDEEC00A04F1090183
:106B5000012210EE100ABDEEE00AADF8040010EEBE
:106B6000100ABDEEC10AADF8060010EE100AADF82D
:106B70000800564801F0DEF9062201A9534801F049
:106B8000D9F9607AA52824D1301D009900F0D4FDF0
:106B9000F0EE481A04F0F8F9BDEEC00A04F109015C
:106BA000012210EE100ABDEEE00AADF8040010EE6E
:106BB000100ABDEEC10AADF8060010EE100AADF8DD
:106BC0000800424801F0B6F9062201A93F4801F049
:106BD000B1F9607AB02828D197ED030A04F10901D0
:106BE000012220EE280ABDEEC00A10EE100AADF810
:106BF000040097ED040A20EE280ABDEEC00A10EE4C
:106C0000100AADF8060097ED050A20EE280ABDEE41
:106C1000C00A10EE100AADF808002C4801F08AF9FD
:106C2000062201A9294801F085F9607AB12828D106
:106C300096ED170A04F10901012220EE280ABDEEA3
:106C4000C00A10EE100AADF8040096ED180A20EE06
:106C5000280ABDEEC00A10EE100AADF8060096ED47
:106C6000190A20EE280ABDEEC00A10EE100AADF88F
:106C70000800164801F05EF9062201A9134801F048
:106C800059F9607AB22848D197ED090A20EE280A0E
:106C9000BDEEC00A1EE000006F64725F73656D0098
:106CA00058010020A1AE00007435000007A0064086
:106CB0001C0D002040420F0000700340DC0F00203C
:106CC00000007A44B40B00205A595800080C0020E8
:106CD000285C8F0210EE100A04F10901ADF80400DF
:106CE00097ED0A0A012220EE280ABDEEC00A10EE36
:106CF000100AADF8060097ED0B0A20EE280ABDEE4B
:106D0000C00A10EE100AADF80800894801F012F927
:106D1000062201A9864801F00DF9607AC02822D127
:106D200097ED060A04F109010122BDEEC00A10EE3A
:106D3000100AADF8040097ED070ABDEEC00A10EE88
:106D4000100AADF8060097ED080ABDEEC00A10EE75
:106D5000100AADF80800764801F0ECF8062201A907
