:020000040800F2
:100000003030002099010008E9030008450300088A
:10001000E50300080502000863090008000000006D
:1000200000000000000000000000000001010008C6
:1000300009020008000000004501000875060008DC
:10004000B3010008B3010008B3010008B3010008C0
:10005000B3010008B3010008B3010008B3010008B0
:10006000B3010008B3010008B3010008B3010008A0
:10007000B3010008B3010008B3010008B301000890
:10008000B3010008B3010008B3010008B301000880
:10009000B3010008B3010008B3010008B301000870
:1000A000B3010008B3010008B3010008B301000860
:1000B000B3010008E5060008B3010008B301000819
:1000C000B3010008B3010008B3010008B301000840
:1000D000B301000841070008B3010008B30100089C
:1000E000B3010008B3010008B3010008DFF80CD029
:1000F00000F076F800480047E109000830300020A1
:10010000224B19680868B0E8F00F80F30988BFF344
:100110006F8F4FF0000080F311884EF00D0E704786
:100120000000000006480068006880F3088862B696
:1001300061B6BFF34F8FBFF36F8F00DF00BF00BF0B
:1001400008ED00E0EFF30980BFF36F8F0F4B1A68E3
:1001500020E9F00F106008B54FF0500080F31188CF
:10016000BFF34F8FBFF36F8F01F07AFB4FF00000AA
:1001700080F31188BDE8084019680868B0E8F00FFE
:1001800080F30988BFF36F8F704700BF44000020E1
:10019000EFF3058070470000064880470648004797
:1001A000FEE7FEE7FEE7FEE7FEE7FEE7FEE7FEE727
:1001B000FEE7FEE785060008ED00000840EA0103BF
:1001C0009B0703D009E008C9121F08C0042AFAD20D
:1001D00003E011F8013B00F8013B521EF9D27047D1
:1001E000064C074D06E0E06840F0010394E8070084
:1001F00098471034AC42F6D3FFF77CFF6821000823
:100200008821000800BFFEE7704710B54FF440702A
:1002100000F024F900F0B6FB4FF4E13001F012F9E0
:1002200000F0B8F800F090F810BD2DE9F04102465A
:1002300000250026002000230024002791F803C099
:100240000CF00F0591F803C00CF0100CBCF1000F7E
:1002500003D091F802C04CEA050591F800C0BCF14A
:10026000000F31D0146800202BE04FF0010C0CFA85
:1002700000F3B1F800C00CEA03069E4220D18300CF
:100280004FF00F0C0CFA03F7BC4305FA03FC4CEAE1
:10029000040491F803C0BCF1280F06D14FF0010C03
:1002A0000CFA00FCC2F814C00AE091F803C0BCF1DB
:1002B000480F05D14FF0010C0CFA00FCC2F810C039
:1002C000401C0828D1D31460B1F800C0BCF1FF0F66
:1002D00034DD546800202EE000F1080C4FF00108D6
:1002E00008FA0CF3B1F800C00CEA03069E4221D1D3
:1002F00083004FF00F0C0CFA03F7BC4305FA03FC24
:100300004CEA040491F803C0BCF1280F05D100F1B8
:10031000080C08FA0CF8C2F8148091F803C0BCF17C
:10032000480F07D100F1080C4FF0010808FA0CF84B
:10033000C2F81080401C0828CED35460BDE8F0817C
:100340000161704700BFFEE708B501210C2000F0F5
:100350008FF83020ADF8000048208DF80300694682
:100360000A48FFF762FF10210848FFF7E9FF202144
:100370000648FFF7E5FF0120ADF8000028208DF8C2
:10038000030069460248FFF750FF08BD000C01401A
:100390000008014008B50121182000F069F810207C
:1003A0008DF803004002ADF8000003208DF8020034
:1003B00069460A48FFF739FF0120ADF80000694699
:1003C0000748FFF732FF4FF400510448FFF7B8FF2A
:1003D00001210348FFF7B4FF08BD000000100140F1
:1003E000000C014000BFFEE77047000070B500211F
:1003F00000230F22C47804B3154C246804F4E0648D
:10040000C4F5E064210AC1F10403CA40447804FA47
:1004100003F184781440214309010E4C0678A1555C
:10042000047804F01F050124AC4005786D11AD007F
:1004300005F1E025C5F8004109E0047804F01F0546
:100440000124AC40044D0678761145F8264070BD75
:100450000CED00E000E400E080E100E0024901432F
:10046000024A1160704700000000FA050CED00E040
:1004700029B1064A92690243044B9A6104E0034A97
:1004800092698243014B9A6170470000001002405C
:1004900030B500210022002400232D4D6D6805F0A9
:1004A0000C0121B1042905D0082923D105E0294DEB
:1004B000056022E0274D05601FE0254D6D6805F4BD
:1004C0007012234D6D6805F48034022505EB9242CD
:1004D0001CB9214D554305600BE01D4D6D6805F4B9
:1004E00000351DB11C4D5543056002E0194D5543C3
:1004F000056002E0174D056000BF00BF144D6D6838
:1005000005F0F0010909154D6B5C0568DD4045609B
:100510000F4D6D6805F4E061090A104D6B5C45688C
:10052000DD4085600A4D6D6805F46051C90A0B4DC8
:100530006B5C4568DD40C560054D6D6805F4404164
:10054000890B074D6B5CC568B5FBF3F5056130BDE4
:100550000010024000127A0000093D001E00002039
:100560002E00002010B500F001F810BD0CB50020E1
:10057000019000903348006840F4803031490860B1
:1005800000BF3048006800F4003000900198401C23
:100590000190009818B90198B0F5A06FF1D12948E1
:1005A000006800F4003010B10120009001E000204C
:1005B00000900098012843D12348006840F01000C3
:1005C000214908600846006820F0030008600846DA
:1005D000006840F0020008601A4840681949486005
:1005E0000846406848600846406840F480604860BB
:1005F0000846406820F47C1048600846406840F493
:10060000E81048600846006840F08070086000BF4D
:100610000C48006800F000700028F9D009484068D4
:1006200020F00300074948600846406840F0020097
:10063000486000BF0348406800F00C000828F9D16A
:100640000CBD00000010024000200240042808D128
:100650004FF0E021096941F004014FF0E0221161FF
:1006600007E04FF0E021096921F004014FF0E0229A
:100670001161704710B501F087FB012801D001F02E
:1006800039F910BD10B51348006840F00100114958
:10069000086008464068104908400E49486008460E
:1006A00000680E4908400B4908600846006820F4BD
:1006B000802008600846406820F4FE0048604FF43F
:1006C0001F008860FFF74EFF4FF00060044908608C
:1006D00010BD0000001002400000FFF8FFFFF6FE12
:1006E00008ED00E010B50121094800F018F80128D4
:1006F00008D1084802684068521C40F100000549D2
:100700000A6048600121024800F006F810BD0000B0
:100710000004004038000020CA430282704730B510
:100720000246002000230024158A05EA010395896A
:1007300005EA010413B10CB1012000E0002030BD36
:1007400010B540F225511D4800F04AF810B31B487F
:1007500000F002F9C4B21A48008800F40040C8B999
:100760001748008800F4804060B10A2C03D00020B4
:100770001349088020E01248008840F400401049E6
:10078000088019E00D2C06D10D48008840F4804007
:100790000B49088010E00A480088C0F30D000949A1
:1007A0000C5407480088401C05490880084600880A
:1007B000312801DD0020088010BD00000038014014
:1007C0001C000020B000002021B1828942F40052B8
:1007D000828104E082894DF6FF731A40828170475E
:1007E00070B50246002400230025002040F66A165A
:1007F000B14200D100BFC1F3421501F01F03012631
:1008000006FA03F3012D02D19689334006E0022D4A
:1008100002D1168A334001E0968A33400C12012639
:1008200006FA04F41688344013B10CB1012000E03C
:10083000002070BDF0B503460024002600250020EE
:1008400040F66A17B94200D100BF1846C1F34214FE
:1008500001F01F06012707FA06F5012C01D10C3023
:1008600004E0022C01D1103000E014301AB1076806
:100870002F43076002E00768AF430760F0BD000048
:100880002DE9F04786B005460E460024A24600BF7B
:10089000A1460027B08900B100BF2F462C8A4CF634
:1008A000FF700440F08804432C82AC894EF6F310AC
:1008B0000440B08831890843718908430443AC81FE
:1008C000AC8A4FF6FF400440B0890443AC8201A8D3
:1008D000FFF7DEFD1F48874202D1DDF810A001E0DE
:1008E000DDF80CA0A88900F4004040B10AEBCA0072
:1008F00000EB0A1031684900B0FBF1F807E00AEBA1
:10090000CA0000EB0A1031688900B0FBF1F86420DE
:10091000B8FBF0F004012009642101FB1089A889CB
:1009200000F4004040B1322000EBC900B0FBF1F010
:1009300000F00700044308E0322000EB09106421B6
:10094000B0FBF1F000F00F0004432C8106B0BDE8CD
:10095000F08700000038014001468888C0F3080095
:10096000704700BFFEE702E008C8121F08C1002A56
:10097000FAD170477047002001E001C1121F002A20
:10098000FBD1704710B50420FFF760FE10480068E7
:100990001049B0FBF1F0104908700D4800680D498E
:1009A000B0FBF1F44FF47A70444301200B49088006
:1009B0004FF0E020006940F002004FF0E0210861B4
:1009C00008464461006940F00100086110BD000064
:1009D0000000002040420F001400002016000020FC
:1009E000FFF713FC00F018FD00F0FAFE00BFFEE771
:1009F0002DE9F04105460E461C4807681C48006872
:100A0000001D00F071FD50B91948006890F82C10D5
:100A10000120884017490968814316480160681C15
:100A200038B936B112480168091D134800F09AFD23
:100A30001AE07C190E4800684460BC4207D20C489A
:100A40000168091D0D48006800F072FD0CE00848BF
:100A50000168091D0A48006800F06AFD094800683D
:100A6000844201D207480460BDE8F08158000020AC
:100A7000440000205C000020F40300204C00002013
:100A8000480000207400002010B5044600F076FDF8
:100A900023480068401C224908602248006840B989
:100AA000204804600846006801280DD100F0B8F91C
:100AB0000AE01D48006838B91A480068C06AE16A4F
:100AC000884201D81748046018480068401C17493C
:100AD000086094F82C1001208840154909680843E3
:100AE00013490860E16A01EB8101124A02EB8100BF
:100AF000211D00F037FD00F053FD0B48006868B180
:100B000008480068C06AE16A884207D24FF0805006
:100B100009490860BFF34F8FBFF36F8F10BD00000E
:100B200054000020440000206000002070000020DD
:100B30005C0000202401002004ED00E010B500F06E
:100B40001DFD10480068D0B90F4800F0E1FC0F48C7
:100B500000F0DEFC0C480E4908600C480D490860A6
:100B600000221021052000F0DFFE0649086008463B
:100B7000006820B108A10348006800F059FD00F0AA
:100B80000FFD10BD88000020080400201C04002078
:100B90008000002084000020546D7251000000008D
:100BA00010B516E000F0EAFC0C48C068C468201DCF
:100BB00000F09AFC0A480068401E0949086009488C
:100BC0000068401E0749086000F0EAFC204600F07B
:100BD0005FF8044800680028E4D110BDE00300205D
:100BE000540000205000002070B504460D46206CD3
:100BF00070B1216CE0680144E160D4E902108842E0
:100C000001D32168E1602846226CE168FFF7D6FA3B
:100C100070BD2DE9F04104460F4615464FF000081F
:100C2000A66B206C48B9206800282CD1A06801F080
:100C30004FF980460020A06025E07DB93946226C3E
:100C40006068FFF7BBFA216C606808446060D4E913
:100C50000101884217D32068606014E03946226C95
:100C6000E068FFF7ABFA216CE068411AE1602168A7
:100C7000E068884203D2216CA068411AE160022D2D
:100C800001D106B1761E701CA0634046BDE8F0811C
:100C900010B50446206B00F093FC204600F090FC59
:100CA00010BD00000146084A126812680AB9012204
:100CB00000E000220A600A6822B9034A1268D2687A
:100CC000106800E0002070478000002030B54FF42D
:100CD0002053174800F007042CB1C01D20F0070076
:100CE000134C041B1B1B0246124C22600024114DA6
:100CF0006C60D018083820F007000F4C20600024EA
:100D00000D4D2D686C600C4D2D682C601146441AF9
:100D10004C60094C24680C60084D4C682C60084DF0
:100D20004C682C604FF00044064D2C6030BD000034
:100D300030040020940000209C000020A40000202B
:100D4000A0000020A800002000BFFFF729FF0648F0
:100D500000680128F9D94FF0805004490860BFF3BA
:100D60004F8FBFF36F8FF0E72401002004ED00E008
:100D70002DE9F04106460D4617469846069C0DB9EA
:100D8000246000E02760E66325640121204600F02E
:100D9000E9FD0020A064BDE8F0812DE9FF5F8046F9
:100DA0000F469146DDE90E6A109CA9F10100216B06
:100DB00001EB800B2BF0070B002507E0795D04F1B8
:100DC00034004155785D00B902E06D1C102DF5D35B
:100DD00000BF002143200155202E00D31F26E662CC
:100DE00066640020A064201D00F09FFB04F1180041
:100DF00000F09BFB2461C6F12000A061646200202A
:100E0000E06484F8500041465846039A00F0E4FA42
:100E10002060BAF1000F01D0CAF80040BDE8FF9F82
:100E200010B5002407E004EB84010F4A02EB8100B7
:100E300000F06EFB641C202CF5D30C4800F068FB1E
:100E40000B4800F065FB0B4800F062FB0A4800F01D
:100E50005FFB0A4800F05CFB04480949086004484D
:100E60000849086010BD000024010020A4030020F0
:100E7000B8030020CC030020E0030020F40300208E
:100E8000480000204C00002010B50146164800E044
:100E9000006803688B42FBD30246436813448B42CD
:100EA00004D143684C682344436001460A464B68BA
:100EB00013440468A34211D10C4C03682468A34274
:100EC00008D04B680468646823444B6003681B685F
:100ED0000B6005E0054B1B680B6001E003680B60CD
:100EE000884200D0016010BD940000209C000020CA
:100EF0002DE9F04104460D4616461F464FF0000806
:100F000065602461B5420CD8F01BA169884202D308
:100F10004FF0010811E0211D0948006800F008FBAE
:100F20000BE0BE4204D2BD4202D34FF0010804E000
:100F3000211D0448006800F0FBFA4046BDE8F0813E
:100F4000840000208000002070B5054600F016FBEC
:100F5000A86B08B9012400E0002400F021FB204622
:100F600070BD70B5054600F009FBA86BE96B8842BF
:100F700001D1012400E0002400F012FB204670BDE6
:100F80002DE9F3410D460098846C0027A06BE16BBE
:100F900088421BD294F945602A4669462046FFF7ED
:100FA00038FE0746701C60B9606A08B9012000E08D
:100FB000002050B904F1240000F0CCFF28B1012733
:100FC00003E0701C40B284F8450000BF3846BDE81D
:100FD000FC810000F8B505460E4610480068C06860
:100FE000C468201D00F080FAE069012811D1A069D1
:100FF00041192B4632462046FFF77AFF48B10020C0
:1010000003462A4601460090204601F077F807463D
:1010100000BF2046616A8847F8BD000080000020BC
:10102000F0B587B056E00398002805DA04AED6E99B
:101030000020B168904700BF039800284ADB059C58
:10104000606908B9012000E0002010B9201D00F0FF
:101050004BFA02A800F09EF8054603980A2837D2FA
:10106000DFE800F00905072527320608262800BF1B
:1010700000BF00BF00BF0498A269811803462A463A
:101080002046FFF735FF88B12046616A8847E0694E
:1010900001280BD1002000900498A1694218002378
:1010A0001946204601F02AF8074600BF11E000BFAC
:1010B0000FE000BF0498A061A06941192B462A46A1
:1010C0002046FFF715FF04E0204600F079FA00E023
:1010D00000BF00BF002203A90348006800F074FDB0
:1010E0000028A0D107B0F0BD88000020F8B5054663
:1010F0000C4600F0ADFB684600F04CF80646009840
:1011000020BB44B9B54206D800F064FF31462846FA
:10111000FFF760FF1CE03CB10E480068006808B9AA
:10112000012000E000200446A91B22460A4800686E
:1011300000F094FA00F04EFF50B94FF0805007498C
:101140000860BFF34F8FBFF36F8F01E000F042FFE5
:10115000F8BD0000840000208800002004ED00E0BD
:101160000A490968096809B9012100E0002121B193
:101170004FF0FF31064A116006E004490968C9686A
:10118000C868034A416811607047000048000020A9
:101190007400002070B5044600F006FE05460748BE
:1011A0000068854204D200F00BF80120206001E0C5
:1011B0000020206001480560284670BD9000002096
:1011C0002DE9F84326E01D480068C06805681B4803
:1011D0000068C068C468201D00F086F92046616A76
:1011E0008847E069012815D1A0694619AE4207D9A0
:1011F00066602461211D1148006800F099F909E03A
:10120000002003462A4601460090204600F076FF63
:10121000804600BF09480068006808B9012000E066
:1012200000200028CFD0054807680548006803491A
:10123000086003480760BDE8F883000080000020D4
:101240008400002000BF502080F31188BFF34F8F2F
:10125000BFF36F8F00BF00BFFEE708B500BF684651
:10126000FFF720FD044620460099FFF73FFFFFF7F8
:10127000D7FEF4E770B5044600F080F994F94550C4
:101280001AE0A06C38B100212046FFF779FE88B142
:1012900000F07CFA0EE0606A08B9012000E000204E
:1012A00038B904F1240000F055FE18B100F06EFAD0
:1012B00000E003E0681E45B2002DE2DC00BFFF2025
:1012C00084F8450000F06CF900F058F994F94450A6
:1012D00010E0206908B9012000E0002048B904F1BD
:1012E000100000F037FE08B100F050FA681E45B259
:1012F00000E001E0002DECDC00BFFF2084F844009A
:1013000000F04EF970BD00002DE9F04105464FF0A8
:10131000000800F09DFA2B48006808B9FFF7D6FCDA
:10132000294800682840002847D145B1083505F014
:10133000070020B105F00700C0F108000544002DAA
:101340003BD022480068854237D8214E3046046899
:1013500001E0264624686068A84202D2206800287E
:10136000F7D118480068844227D0306800F1080897
:10137000206830606068401B102807D967196068D2
:10138000401B786065603846FFF77EFD0F49606856
:101390000968081A0D490860084600680D4909687F
:1013A000884203D2094800680A4908600649606813
:1013B0000968084360600020206000F00BFE404692
:1013C000BDE8F0819C000020A8000020A0000020C3
:1013D00094000020A4000020001F4FF080730360E1
:1013E000001F21F001030360001F034B036014384A
:1013F00002602038704700004512000810B504460E
:1014000000F0BCF80348006800F04EF900F0C8F89E
:1014100010BD0000400000201CB50548012100233C
:101420008022CDE9001003A1054800F07DFC1CBD21
:101430004000002073746172745F7461736B00000C
:10144000FD13000810B586B00446012144F20400E3
:10145000FFF70EF84FF40070ADF8140003208DF87C
:10146000160018208DF8170005A91D48FEF7DDFEAF
:101470004FF48060ADF8140004208DF8170005A922
:101480001748FEF7D2FE25208DF8000007208DF8C2
:10149000010000208DF8020001208DF8030068464D
:1014A000FEF7A4FF01940020ADF80800ADF80A0093
:1014B000ADF80C00ADF810000C20ADF80E0001A93D
:1014C0000848FFF7DDF9012240F225510548FFF7F2
:1014D000B1F901210348FFF777F906B010BD00000C
:1014E000000801400038014001460A69D1E9013095
:1014F0009860D1E9010358605068884201D188683A
:101500005060002008611068401E1060106870472D
:1015100000F1080141604FF0FF31816000F10801E6
:10152000C1600161002101607047002101617047C5
:1015300010B502460B685C1C0CB9106907E002F19B
:10154000080000E04068446824689C42FAD9446876
:101550004C604C68A160886041600A611468641C3A
:10156000146010BD42684A6093688B60936859604C
:101570009160086103685B1C0360704700BF5020E6
:1015800080F31188BFF34F8FBFF36F8F00BF034805
:101590000068401C0149086070470000AC00002052
:1015A00006480068401E054908600846006820B9E2
:1015B000002080F3118800BF00BF7047AC000020FE
:1015C00070B506463546D6B1083D2C460C496068D4
:1015D0000968084098B1206888B9094960680968B5
:1015E0008843606000F034F906496068096808447F
:1015F000044908602046FFF747FC00F0EBFC70BD93
:10160000A8000020A000002000204FF0E021086189
:101610008861064800684FF47A71B0FBF1F0401E13
:101620004FF0E0214861072008617047000000206A
:10163000024600200BE0084B53F8303033B9064B1C
:1016400043F8301003EBC0035A6002E0401C082846
:10165000F1D300BF70470000E40000202DE9F04105
:1016600005460E4617462C46FFF788FF94F94400BE
:10167000401C10B9002084F8440094F94500401C37
:1016800010B9002084F84500FFF78AFFA06B28B945
:101690003A46314604F1240000F08EF82046FFF768
:1016A000E9FDBDE8F081000070B50546FFF766FF73
:1016B00015B92748006800E028460446201DFFF7BA
:1016C00013FF78B9E06A00EB8000224951F820004E
:1016D00040B994F82C10012088401F4909688143C3
:1016E0001D480160A06A18B104F11800FFF7FCFE64
:1016F0001A480068401C194908601548006884426F
:1017000009D1211D1648FFF72DFF16480068401C1F
:101710001449086009E014480068401E1249086036
:101720002046FFF7B5FAFFF71BFDFFF739FF0F481B
:10173000006858B106480068844207D14FF08050D5
:101740000B490860BFF34F8FBFF36F8F70BD000070
:1017500044000020240100205C00002070000020D4
:10176000E003002050000020540000206000002012
:1017700004ED00E00349096801600349096841601C
:10178000704700006C000020580000200120014933
:10179000086070476800002070B505460C46054893
:1017A000016818312846FFF7C3FE01212046FFF7E4
:1017B0001FF970BD4400002070B506460D46144662
:1017C0000648016818313046FFF7CCFE0CB14FF0E7
:1017D000FF3521462846FFF70BF970BD4400002075
:1017E0001CB5144800210B468222CDE9001012A13D
:1017F000134800F099FA0446012C02D100F05EFC77
:101800000446012C14D100BF502080F31188BFF38F
:101810004F8FBFF36F8F00BF4FF0FF300949086053
:1018200001200949086000200849086000F048F8D4
:101830001CBD00007800002049444C450000000019
:10184000490D0008740000206000002058000020AE
:1018500002480068401C0149086070477C00002075
:101860001248006818B10120114908601DE00020ED
:101870000F4908600F480068B0FA80F0C0F11F01FE
:1018800001EB81020C4B03EB82004268526842601C
:1018900000F108024368934202D1426852684260F4
:1018A0004268D268054B1A6000BF70477C00002078
:1018B000680000205C00002024010020440000207B
:1018C00010B50A48006840F47000084908600846EE
:1018D000006840F070400860FFF796FE0020044961
:1018E0000860FEF71FFC002010BD000020ED00E0A6
:1018F000AC00002010B500BF502080F31188BFF36A
:101900004F8FBFF36F8F00BF00F054FA18B14FF044
:1019100080500449086000BF002080F3118800BF98
:1019200010BD000004ED00E02DE9F84307460D4628
:1019300090460DB9002601E007FB05F606F14C00C4
:10194000FFF7E2FC04464CB1A14609F14C094346BD
:101950004A46294638460094FFF70AFA2046BDE871
:10196000F883000070B505460E462C46FFF706FECC
:10197000D4E90F12206801FB0200A0600020A063E0
:1019800020686060E06B401E226C216800FB021141
:10199000E160FF2084F8440084F845009EB9206986
:1019A00008B9012000E00020A8B904F1100000F0FF
:1019B000D1FA80B14FF0805009490860BFF34F8FD2
:1019C000BFF36F8F07E004F11000FFF7A1FD04F1F2
:1019D0002400FFF79DFDFFF7E3FD012070BD00002F
:1019E00004ED00E02DE9FF4782B0074688461D461A
:1019F0004FF000093C4600BFFFF7C0FDA06BE16B54
:101A0000884201D3022D3FD1D4F838A02A4641465E
:101A10002046FFF7FEF80646A06C90B1022D02D1D9
:101A2000BAF1000F2AD129462046FFF7A9FA28B3B8
:101A30004FF080503C490860BFF34F8FBFF36F8F6A
:101A40001CE0606A08B9012000E0002068B904F1D8
:101A5000240000F07FFA88B14FF0805032490860CE
:101A6000BFF34F8FBFF36F8F08E03EB14FF0805050
:101A70002D490860BFF34F8FBFF36F8FFFF790FDC5
:101A8000012006B0BDE8F087049818B9FFF788FD7B
:101A90000020F6E7B9F1000F04D16846FFF76AFEAF
:101AA0004FF00109FFF77CFDFFF7D2FEFFF766FD5F
:101AB00094F94400401C10B9002084F8440094F9C3
:101AC0004500401C10B9002084F84500FFF768FD70
:101AD00004A9684600F0FAF8F8B92046FFF741FA81
:101AE000A8B104F110000499FFF756FE2046FFF755
:101AF000C1FB00F06FFA00287FF47EAF4FF08050FA
:101B000009490860BFF34F8FBFF36F8F74E720461A
:101B1000FFF7B0FB00F05EFA6EE72046FFF7AAFB86
:101B200000F058FA0020ACE704ED00E02DE9F05F8A
:101B300006468A4615461F46344600BF5021EFF33D
:101B4000118081F31188BFF34F8FBFF36F8F00BFF8
:101B50008146A06BE16B884201D3022F2BD194F90F
:101B600045B03A4651462046FFF753F80BF10100C5
:101B7000C8B9A06C40B139462046FFF701FAB8B1A8
:101B8000B5B10120286013E0606A08B9012000E0C7
:101B9000002068B904F1240000F0DCF940B13DB147
:101BA0000120286004E00BF1010040B284F84500F8
:101BB0004FF0010801E04FF0000800BF89F31188E1
:101BC00000BF4046BDE8F09F2DE9F74183B00546D0
:101BD0000F464FF000082C4600BFFFF7CFFCA66B66
:101BE000F6B139462046FEF7FFFF701EA06320695C
:101BF00008B9012000E0002060B904F1100000F0F5
:101C0000A9F938B14FF080502F490860BFF34F8FCA
:101C1000BFF36F8FFFF7C4FC012006B0BDE8F08171
:101C2000059818B9FFF7BCFC0020F6E7B8F1000FE3
:101C300004D101A8FFF79EFD4FF00108FFF7B0FCAB
:101C4000FFF706FEFFF79AFC94F94400401C10B918
:101C5000002084F8440094F94500401C10B900208D
:101C600084F84500FFF79CFC05A901A800F02EF8B8
:101C7000F0B92046FFF768F9A0B104F124000599F6
:101C8000FFF78AFD2046FFF7F5FA00F0A3F90028D8
:101C9000A3D14FF080500C490860BFF34F8FBFF3C2
:101CA0006F8F9AE72046FFF7E5FA00F093F994E783
:101CB0002046FFF7DFFA00F08DF92046FFF744F9E0
:101CC00000288AD00020A8E704ED00E070B50646A1
:101CD0000C46FFF753FC124802687068131A20681C
:101CE000401C08B9002517E00E4930680968884291
:101CF00004D07068904201D801250DE02068984218
:101D000007D92068C01A20603046FFF733FD002550
:101D100002E0002020600125FFF742FC284670BD4C
:101D2000580000206C0000202DE9FF4F85B0804650
:101D300089461746DDE912ABB800FFF7E5FA06461B
:101D400056B15420FFF7E0FA04460CB1266304E0D4
:101D50003046FFF735FC00E000247CB10020CDE9DF
:101D600000ABCDE902403A4649464046089BFFF7A2
:101D700014F82046FEF788FE012501E04FF0FF35FC
:101D8000284609B0BDE8F08F0549096809B9012066
:101D900005E00449096809B9022000E00020704705
:101DA000600000207C0000200149086870470000A6
:101DB000580000202DE9F04100273A48006800282B
:101DC00063D139480068451C374805608DB93748EC
:101DD000D0F8008036480068344908603448C0F8BC
:101DE000008034480068401C32490860FFF7B8F9A9
:101DF00000BF3148006885423BD300BF2B480068D4
:101E0000006808B9012000E0002020B14FF0FF3049
:101E1000294908602CE025480068C068C4686668E5
:101E2000B54202D22448066022E0201DFFF75CFB89
:101E3000A06A18B104F11800FFF756FB94F82C10B3
:101E4000012088401D49096808431C490860E16A6F
:101E500001EB81011A4A02EB8100211DFFF782FB91
:101E60001849E06A0968C96A8842C7D30127C5E7EB
:101E700000BF14480068C06A00EB8000104951F8A8
:101E80002000012800D9012704E00F480068401C09
:101E90000D4908600D48006800B101273846BDE8CB
:101EA000F08100007C000020580000204800002045
:101EB0004C0000206C000020740000205C0000201A
:101EC000240100204400002064000020680000205D
:101ED00070B505462C460026ADB3A06C401EA0642C
:101EE000616CE06A88422ED0A06C60BB201DFFF7B9
:101EF000FBFA78B9E06A00EB8000144951F8200041
:101F000040B994F82C100120884011490968814398
:101F10000F480160606CE062E06AC0F12000A061DF
:101F200094F82C10012088400949096808430849A1
:101F30000860E16A01EB8101044A02EB8100211D86
:101F4000FFF710FB0126304670BD00002401002081
:101F50005C00002070B50646F068C46804F1180003
:101F6000FFF7C2FA15480068A8B9201DFFF7BCFAB0
:101F700094F82C1001208840114909680843104941
:101F80000860E16A01EB81010E4A02EB8100211D2C
:101F9000FFF7E8FA04E004F118010B48FFF7E2FA52
:101FA0000A49E06A0968C96A884204D90125012002
:101FB0000749086000E00025284670BD7C0000202D
:101FC0005C00002024010020CC03002044000020FD
:101FD0006800002070B500240026FFF7CFFA2E48D5
:101FE0000068401E2C4908600846006800284FD150
:101FF0002A48006800284BD024E02948C068C468FB
:1020000004F11800FFF770FA201DFFF76DFA94F83D
:102010002C100120884023490968084321490860A1
:10202000E16A01EB8101204A02EB8100211DFFF7EB
:1020300099FA1E49E06A0968C96A884202D30120F8
:102040001B4908601648006808B9012000E000201C
:102050000028D2D00CB1FFF783F81648056865B1A7
:1020600000BFFFF7A7FE10B10120114908606D1EE7
:10207000002DF6D100200F4908600D48006838B1E6
:10208000012630070C490860BFF34F8FBFF36F8FF5
:10209000FFF786FA304670BD7C0000205400002017
:1020A000CC0300205C00002024010020440000201C
:1020B000680000206400002004ED00E01CB500244E
:1020C000FEF73CFD0848006858B108481F2100236E
:1020D0004FF48272CDE9001005A10748FFF724FEF6
:1020E000044620461CBD0000880000208C00002013
:1020F000546D7220537663005B1200082DE9FF4790
:1021000005460C4616461F46DDF830804FF00009A4
:102110001448006810B3009401960295062C15DA55
:10212000FFF732FE022808D10023424669460D48D7
:102130000068FFF757FC814610E000231A46694605
:1021400008480068FFF74EFC814607E000233A4646
:10215000694604480068FFF7E9FC8146484604B038
:10216000BDE8F087880000208821000800000020DA
:10217000B00000006609000838220008B000002006
:10218000802F00007609000800A24A040000000029
:102190000000000001020304060708090000000017
:1021A0000000000000000000000001020304010222
:1021B00003040607080902040608000000000000E6
:1021C000000000000000000000000000000000000F
:1021D00000000000000000000000000000000000FF
:1021E00000000000000000000000000000000000EF
:1021F00000000000000000000000000000000000DF
:1022000000000000000000000000000000000000CE
:1022100000000000000000000000000000000000BE
:1022200000000000000000000000000000000000AE
:0822300000000000AAAAAAAAFE
:040000050800019955
:00000001FF
