:03000000020701F3
:0C070100787FE4F6D8FD758121020368C2
:10060700706167652030006A302E76616C3D256425
:100617000074322E7478743D2225642525220070DB
:1006270061676520310074302E7478743D2225305F
:1006370032643A253032643A25303264220074320B
:100647002E7478743D22D0C7C6DACBC42200743327
:0A0657002E7478743D222564220001
:1006E200758920758DF7758BF7759850D28ED2ACBF
:0106F20022E5
:0E06F300C2ACC2998F993099FDC299D2AC2247
:060661007B017A00790E16
:0B06670090005CEBF0A3EAF0A3E9F0C8
:10067200E4FDFC90005CE0FBA3E0FAA3E0F98D82CC
:100682008C83120569FF600A1206F30DBD00010C8E
:0206920080E105
:010694002243
:0B070D007FFF1206F31206F30206F352
:1006BC00E4FDFCC3ED9FEE6480F8EC64809850156B
:1006CC00E4FBFA0BBB00010ABA03F8BBE8F50DBD5D
:0506DC0000010C80DEAE
:0106E10022F6
:10036800E490005AF0A3F0900000F0A37432F0A3D8
:10037800E4F0A37430F0900052E4F0A3740CF09011
:100388000050E4F0A3740FF0900006E4F0A37407A3
:10039800F0A3E4F0A37402F090000CE4F0A374104E
:1003A800F0E490000AF0A3F0900058F0A3F0900059
:1003B80004F0A3F053B1FD43B2021206E27F50FEEF
:1003C8001206BC12070D7BFF7A0679071206671220
:1003D800070D7FD07E071206BCD390005BE09464C3
:1003E80090005AE094004003020568A3E004F0700E
:1003F8000690005AE004F090000AE07004A3E0645C
:1004080064700302048C90000BE004F07006900006
:100418000AE004F0900059E004F07006900058E0FB
:1004280004F07F327E001206BC90005F74FFF0A3D8
:100438007406F0A3740EF090000AE0FFA3E09000A9
:1004480062CFF0A3EFF07B017A00790E12006812F8
:10045800066112070D90005F74FFF0A37406F0A305
:100468007418F0900058E0FFA3E0900062CFF0A36A
:10047800EFF07B017A00790E12006812066112070C
:100488000D0203E17BFF7A06792612066712070D33
:10049800E4900000F0A3F07FE87E031206BC900011
:1004A8005F74FFF0A37406F0A3742DF0900052E07F
:1004B800FFA3E0900062CFF0A3EFF0900002E0FF0E
:1004C800A3E0900064CFF0A3EFF0900000E0FFA35A
:1004D800E0900066CFF0A3EFF07B017A00790E126E
:1004E800006812066112070D7BFF7A06794512062D
:1004F8006712070D90005F74FFF0A37406F0A374F1
:1005080055F0900004E0FFA3E0900062CFF0A3EF65
:10051800F07B017A00790E12006812066112070D4D
:10052800900005E004F07006900004E004F09000EC
:1005380001E004F07006900000E004F0C3900001B0
:10054800E0943C900000E064809480500302049F93
:10055800E4900000F0A3F0900004F0A3F0020498E7
:010568002270
:10056900BB010CE58229F582E5833AF583E0225047
:1005790006E92582F8E622BBFE06E92582F8E22291
:0D058900E58229F582E5833AF583E49322AB
:10000300E508245FF582E43400F583E005082290D7
:10001300005C30070390005FE475F0011205C10234
:1000230005962000E97F2ED2008018EF540F24900C
:10003300D43440D4FF30040BEF24BFB41A00500370
:100043002461FFE50960021509050CE50C70020542
:100053000B30070E90005CE475F0011205C1EF024E
:1000630005AF0206957403D2078003E4C207F508BF
:1000730090005C1205D8E4F509F50BF50CE5096071
:10008300077F2012004680F5750AFFC201C200C235
:1000930002C203C205C206C208120012FF700D306D
:1000A30007057F00120057AF0CAE0B22B4255FC2C9
:1000B300D5C204120012FF24D0B40A00501A75F0FE
:1000C3000A780930D50508B6FF0106C6A426F6202E
:1000D300D5047002D20380D924CFB41A00EF5004A0
:1000E300C2E5D204020258D20180C6D20080C0D237
:1000F3000280BCD2D580BAD20580B47F20120046DC
:100103002002077401B5090040F1120003FF120039
:1001130046020080D208D2068095120003FB12002B
:1001230003FA120003F94A4B700679297A037BFF1D
:1001330020022EE509602A7E008E82758300120557
:100143006960060EEE650A70F0C2D5EBC0E0EAC046
:10015300E0E9C0E0EE12029FD0E0F9D0E0FAD0E08F
:10016300FB120596FF60AAEBC0E0EAC0E0E9C0E03D
:10017300120046D0E02401F9D0E03400FAD0E0FBCD
:10018300E50A0460DCD50AD980877BFF7A02799B74
:10019300D202809C791080027908C206C2088008C6
:1001A300D2D5790A8004790AC2D5E50A047002F52A
:1001B3000AE4FAFDFEFF120003FC7B082001131280
:1001C3000003FD7B1030000A120003FE120003FF40
:1001D3007B20EC3382D592D55013C3E43000069FC5
:1001E300FFE49EFEE42001039DFDE49CFCE4CBF8C8
:1001F300C201EC700CCFCECDCCE824F8F870F380BC
:1002030017C3EF33FFEE33FEED33FDEC33FCEB337B
:10021300FB994002FB0FD8E9EB300105F8D0E0C4AD
:1002230048B201C0E00AEC4D4E4F78207B0070C20B
:10023300EAB50A0040BCC0E01202A1D0F0D0E02031
:100243000104C4C0E0C4B201C0F012002FD0F0D545
:10025300F0EB0200801205E1011D5301975800EEF7
:100263004C00EA42019B4F01A34401A3490103430C
:0802730001A955018D46018D22
:10027B0045018D4703495000F22D00F62E01192B35
:10028B0000FA2301172003322A00B24800000111A3
:10029B003F3F3F00790AA2D5200314300509B9105E
:1002AB00020404B9080104A2D5200602500104205F
:1002BB0002689202B509005034C0E07F2030031968
:1002CB007F30A20272067205500F1202F8C202C2F0
:1002DB0006C205C2087F30800F300503E9C0E0126B
:1002EB000046300503D0E0F9D0E0B509CC30051756
:1002FB007F30B9100C1200467F583004077F78808E
:10030B0003B908031200463002057F2D0200467F19
:10031B00202008F87F2B2006F322920280CF286E34
:10032B00756C6C2900D2011200033001F8C2017800
:10033B000930D50108F60200B22D5043495812007E
:10034B00032403B405004001E490034493120037E7
:0D035B00743A120037D203750904020197AD
:10059600BB010689828A83E0225002E722BBFE0263
:0905A600E32289828A83E4932296
:1005AF00BB010689828A83F0225002F722BBFE012B
:0205BF00F32225
:1005C100F8E0FBA3A3E0F925F0F0E58215827002C3
:0705D1001583E0FA38F02267
:0905D800EBF0A3EAF0A3E9F02224
:1005E100D083D082F8E4937012740193700DA3A3A9
:1005F10093F8740193F5828883E4737402936860BD
:06060100EFA3A3A380DFBC
:10069500EFB40A07740D1206A0740A309811A899D0
:1006A500B8130CC2983098FDA899C298B811F630C5
:0706B50099FDC299F599229D
:00000001FF
