:020000040800F2
:1000000000040020D3010008C9030008CB03000846
:10001000CF030008D3030008D70300080000000046
:10002000000000000000000000000000DB030008EA
:10003000DD03000800000000DF030008E103000802
:10004000F3010008F3010008F3010008F3010008C0
:10005000F3010008F3010008F3010008F3010008B0
:10006000F3010008F3010008F3010008F3010008A0
:10007000F3010008F3010008F3010008F301000890
:10008000F3010008F3010008F3010008F301000880
:10009000F3010008F3010008F3010008F301000870
:1000A000F3010008F3010008F3010008F301000860
:1000B000F3010008F3010008F3010008F301000850
:1000C000F3010008F3010008F3010008F301000840
:1000D000F3010008F3010008F3010008F301000830
:1000E000F3010008F3010008F3010008F301000820
:1000F000F3010008F3010008F3010008F301000810
:10010000F3010008F3010008F3010008F3010008FF
:10011000F3010008F3010008F3010008F3010008EF
:10012000F3010008F3010008F3010008F3010008DF
:1001300000F002F800F03CF80AA090E8000C8244BD
:100140008344AAF10107DA4501D100F031F8AFF29A
:10015000090EBAE80F0013F0010F18BFFB1A43F0A5
:10016000010318476016000080160000103A24BFF3
:1001700078C878C1FAD8520724BF30C830C144BF0C
:1001800004680C607047000000230024002500264E
:10019000103A28BF78C1FBD8520728BF30C148BFEA
:1001A0000B6070471FB501F006FB1FBD10B510BDF9
:1001B00001F0C5FA1146FFF7F5FF00F02DF801F048
:1001C000E3FA03B4FFF7F2FF03BC01F0EDFA00001D
:1001D00070470B4880470B4981F308880A4800475D
:1001E000FEE7FEE7FEE7FEE7FEE7FEE7FEE7FEE7E7
:1001F000FEE7FEE705480649044A064B7047000043
:10020000D1010008780200203101000878000020A8
:10021000780200207800002010B501F062FA00F0AA
:100220007CF800F097F8002010BD000008B501210F
:10023000C80201F084F901210C2001F080F94FF48B
:100240004040ADF8000018208DF8030003208DF821
:1002500002006946584800F0DFFE08BD30B587B09F
:100260004CF250352C462046ADF814000020ADF875
:100270001000ADF81600ADF8120004A94F4800F0C8
:100280001CF97020ADF800000120ADF80200042038
:10029000ADF80400ADF806500220ADF808000820C3
:1002A000ADF80A004001ADF80C000020ADF80E00DA
:1002B0006946424800F051F90821404800F09AFC94
:1002C0007020ADF800000120ADF802000420ADF868
:1002D0000400ADF806400220ADF808000820ADF893
:1002E0000A004001ADF80C000020ADF80E00694690
:1002F000324800F078F90821304800F086FC0121EE
:100300002E4800F03EFC01212C4800F03BFB01216F
:100310002A4800F043FB07B030BD10B5FFF786FF59
:10032000FFF79CFF10BD002106E0002101E04A1C00
:10033000D1B20229FBDB401E0028F6D1704700B580
:10034000034604E04FF47A70FFF7EDFF5B1E002BCD
:10035000F8D100BD4FF47A7400252CE000250DE0A3
:10036000174804801748A0F83C4C4FF00100FFF7F5
:10037000E6FF04F10A0084B2681C85B241F28830BD
:100380008542EDDB4CF2503400250DE00C48048032
:100390000C48A0F83C4C4FF00200FFF7D0FFA4F14E
:1003A000640084B2681C85B2B5F5FA7FEEDB4FF4C9
:1003B0007A70FFF7C4FFD1E7000C0140002C014028
:1003C000382C014000200140704700BFFEE700BF0D
:1003D000FEE700BFFEE700BFFEE7704770477047CB
:1003E0007047000010B50446FB49601A8C4245D0A6
:1003F0000CDCB4F1804F1DD0F848201823D0B0F5A4
:10040000806F29D0B0F5006F54D12EE0B0F5806F29
:100410003DD0B0F58E3F03D0B0F5923F4AD13FE0DA
:100420000121C80201F0A5F800214FF4006001F09D
:10043000A0F840E00121084601F0A8F800210120C1
:1004400001F0A4F837E00121022001F09FF800211B
:10045000022001F09BF82EE00121042001F096F823
:100460000021042001F092F825E00121082001F08C
:100470008DF80021082001F089F81CE001211020EE
:1004800001F084F80021102001F080F813E0012130
:10049000202001F07BF80021202001F077F80AE00D
:1004A0000121480301F065F800214FF4005001F0EC
:1004B00060F800E000BF00BF10BD028802F08F02AC
:1004C0000280CA884B881A4303881A4302808A88AC
:1004D00082850A880285C24A904202D0C14A90426F
:1004E00001D10A7A028601228282704770B5002407
:1004F00000220023058C4FF6FE7635400584028CE1
:100500008388048B4FF68F752C400D882C43751E05
:100510002A400D892A434D882A43CD888586B04DCF
:10052000A84202D0AF4DA84213D14FF6F7752A402A
:100530004D892A434FF6FB752A408D882A4347F69A
:10054000FF652B4047F6FF552B408D892B43CD8906
:100550002B4383800483028470BD70B50024002285
:100560000023058C4FF6EF7635400584028C838896
:10057000048B48F6FF752C400D882D0644EA15447F
:100580004FF6DF752A400D892D0542EA15424D8848
:100590002D0542EA1542CD880587914DA84202D02B
:1005A000904DA8421BD14FF67F752A404D892D05ED
:1005B00042EA15424FF6BF752A408D882D0542EA62
:1005C000154247F6FF352B4047F2FF752B408D89CA
:1005D000AD0443EA1543CD89AD0443EA1543838056
:1005E0000483028470BD70B5002400220023058CB2
:1005F0004FF6FF6635400584028C8388848B4FF666
:100600008F752C400D882C434FF6FF552A400D89DD
:100610002D0642EA15424D882D0642EA1542CD8844
:1006200085876F4DA84202D06E4DA8421BD14FF274
:10063000FF752A404D892D0642EA15424FF6FF35D7
:100640002A408D882D0642EA154246F6FF752B405A
:1006500045F6FF752B408D892D0543EA1543CD895D
:100660002D0543EA154383808483028470BD70B5F1
:10067000002300220024058C4EF6FF7635400584C9
:10068000028C8488838B48F6FF752B400D882D06DD
:1006900043EA15434DF6FF752A400D892D0742EABE
:1006A00015424D882D0742EA1542CD88A0F84050EA
:1006B0004B4DA84202D04B4DA84205D1C4F30D04C6
:1006C0008D89AD0544EA154484808383028470BD1E
:1006D000828B4FF2FF331A408283828B0B0642EAF1
:1006E000134282837047F0B50C4615460021002264
:1006F0000026078C4EF6FF7C07EA0C070784818BE7
:10070000028C27073E0C40F6FF4739402F063F0C6E
:100710004FEA037C47EA1C4739434DF6FF773A40DE
:1007200046F480573A4381830284F0BD828B4FF6B2
:10073000F3731A408283828B0A4382837047F0B539
:100740000C461546002100220026078C4FF6FF6C50
:1007500007EA0C070784818B028C27063E0C4FF6B4
:100760000C7739401F0545EA174739434FF6FF57C5
:100770003A4046F480773A4381830284F0BD028B8D
:100780004FF2FF331A400283028B0B0642EA1342F8
:1007900002837047F0B50C46154600210022002662
:1007A000078C4FF6EF7C07EA0C070784018B028C5D
:1007B00027053E0C40F6FF4739401F0741EA174125
:1007C0002F0641EA17414FF6DF773A4046F010070F
:1007D0003A4301830284F0BD0010004000FCFFBFDB
:1007E000002C014000340140028B4FF6F3731A4095
:1007F0000283028B0A4302837047F0B50C4615460C
:1008000000210022068C4FF6FE773E400684018BC5
:10081000028C4FF60C7631401E0545EA16463143F0
:100820007E1E324044F00106324301830284F0BD53
:1008300070B505460C46208850B92389A288618886
:100840002846FFF7DAFFE1882846FFF7CDFF25E0CD
:10085000208804280AD12389A28861882846FFF7C6
:1008600099FFE1882846FFF78AFF17E020880828CB
:100870000AD12389A28861882846FFF760FFE188B2
:100880002846FFF753FF09E02389A288618828469C
:10089000FFF729FFE1882846FFF71AFF70BD2DE911
:1008A000F04105460C4600260127608808B902265B
:1008B00000E00026A088012801D1022700E00127DE
:1008C0002088A0B92389A28861882846FFF795FF70
:1008D000E1882846FFF788FF23893A4631462846B3
:1008E000FFF758FFE1882846FFF749FF13E0238907
:1008F000A28861882846FFF74DFFE1882846FFF768
:100900003EFF23893A4631462846FFF776FFE188C5
:100910002846FFF769FFBDE8F0810A884B881A4333
:100920008B881A43CB881A430B891A434B891A4385
:100930008B891A43A0F8442070474FF6FF718180DD
:1009400000210180C1804180017270470021018037
:1009500041808180C180018141818181C181704755
:10096000002101804180012181800021C18001811D
:1009700070470021018041808180C18001814181D7
:100980008181704721B1028842F00102028004E0B7
:10099000028840F2FE331A400280704731B1B0F84D
:1009A000442042F40042A0F8442005E0B0F844207E
:1009B000C2F30E02A0F84420704710B51AB1838923
:1009C0000B43838104E08389CC43A4B22340838119
:1009D00010BD8182704741EA0203A0F84830704799
:1009E00010B51AB183890B43838104E08389CC431A
:1009F000A4B22340838110BD01894FF6F8721140E3
:100A0000018170470A46002101894FF68F73194012
:100A100011430181704730B504460D4629462046F2
:100A2000FFF7F0FF208940F00700208130BD2DE95D
:100A3000F04104460D4616461F46602D06D13B4642
:100A4000012231462046FFF7A5FE05E03B46012284
:100A500031462046FFF7D1FE29462046FFF7D2FF58
:100A6000208940F007002081BDE8F08170B50C4678
:100A700000210189C9B244EA02051E0645EA16456D
:100A80002943018170BD2DE9F04105460E46174608
:100A90009846002443463A4631462846FFF7E6FF8B
:100AA0002C894FF6F8710C4044F007044FF68F7113
:100AB0000C4044F070042C81BDE8F081F0B5044690
:100AC0000D4616461F463B46324629462046FFF74E
:100AD000CDFF208940F480402081F0BD01858282D5
:100AE00070470A460021018840F28F3319401143B4
:100AF00001807047F0B50C4615461E4600210022C5
:100B000000230189028B038C4FF6F877394021438B
:100B10004FF6FC473A4040F201173A434FF6DD7773
:100B20003B40370545EA17473B4301810283038475
:100B3000F0BD0A460021018B4FF68F731940114317
:100B4000018370470A460021018B48F6FF73194064
:100B5000130641EA1341018370470A460021818B45
:100B60004FF68F7319401143818370470A46002165
:100B7000818B48F6FF731940130641EA13418183C4
:100B8000704721B1028842F08002028004E00288AE
:100B900040F27F331A400280704721B1828842F0D0
:100BA0000402828004E082884FF6FB731A40828040
:100BB000704721B1828842F00802828004E0828876
:100BC0004FF6F7731A408280704721B1828842F055
:100BD0000102828004E082884FF6FE731A40828010
:100BE00070470A460021018B4FF6F77319401143F5
:100BF000018370470A460021018B4FF2FF731940B1
:100C0000130641EA1341018370470A460021818B94
:100C10004FF6F77319401143818370470A4600214C
:100C2000818B4FF2FF731940130641EA1341818310
:100C300070470A460021018B4FF6FB7319401143A0
:100C4000018370470A460021018B4FF6FF3319409C
:100C5000130641EA1341018370470A460021818B44
:100C60004FF6FB7319401143818370470A460021F8
:100C7000818B4FF6FF331940130641EA13418183FC
:100C800070470A460021018B4FF67F7319401143CC
:100C9000018370470A460021018BC1F30E01130640
:100CA00041EA1341018370470A460021818B4FF6C8
:100CB0007F7319401143818370470A460021818B5D
:100CC000C1F30E01130641EA1341818370470A46BE
:100CD0000021018C4FF6FD731940114301847047C8
:100CE0000A460021018C4FF6F77319401143018425
:100CF00070470A460021018C4FF6DF731940130537
:100D000041EA1341018470470A460021018C4FF6E5
:100D10007F731940130541EA1341018470470A4665
:100D20000021018C4FF6FF531940130641EA13418D
:100D3000018470470A460021018C4FF2FF7319406D
:100D4000130641EA1341018470470A460021018CD1
:100D50004DF6FF731940130741EA134101847047B0
:100D600010B5048C01238B40DB439BB223400384EA
:100D7000038C02FA01F4A4B22343038410BD10B51E
:100D8000048C04238B40DB439BB223400384038CFD
:100D900002FA01F4A4B22343038410BD30B5048CDD
:100DA00001238B40DB439BB22340038409B1082914
:100DB00018D100F1180303EB61031B684FF68F7421
:100DC000234000F1180404EB6104236000F11803D0
:100DD00003EB61031B68134300F1180404EB610487
:100DE000236021E00B1F9CB200F1180303EB6403A6
:100DF0001B6848F6FF7423400C1FA5B200F11804CD
:100E000004EB650423600B1F9CB200F1180303EB95
:100E100064031B68140643EA14430C1FA5B200F1D7
:100E2000180404EB6504236030BD21B1028842F050
:100E30000202028004E0028840F2FD331A40028080
:100E4000704721B1028842F00402028004E0028867
:100E500040F2FB331A400280704721B1828842F091
:100E60008002828004E082884FF67F731A4082807D
:100E70007047028840F2F7331A40028002880A4322
:100E80000280704782884FF68F731A408280828872
:100E90000A438280704702894FF6F8731A40028134
:100EA00002890A430281704702894FF67F731A4014
:100EB000028102890A4302817047818470478185DB
:100EC0007047818670470187704781877047A0F817
:100ED000401070470288D2B2028002880A43028022
:100EE00070470146888E70470146088F704701465B
:100EF000888F70470146B1F8400070470146888CE2
:100F000070470146088D704702460020138A0B4245
:100F100001D0012000E000207047CA4302827047E0
:100F200030B50246002000230024158A05EA01039B
:100F3000958905EA010413B10CB1012000E00020FD
:100F400030BDCA430282704710B50446C549601AD5
:100F50008C422FD009DCC448201810D0B0F5806F27
:100F600016D0B0F5006F4AD11BE0B0F5806F2AD0E3
:100F7000B0F5006F30D0B0F5406F40D135E00121C1
:100F8000042000F0F6FA0021042000F0F2FA37E025
:100F90000121082000F0EDFA0021082000F0E9FA14
:100FA0002EE00121102000F0E4FA0021102000F0D2
:100FB000E0FA25E00121202000F0DBFA00212020CA
:100FC00000F0D7FA1CE00121402000F0D2FA002105
:100FD000402000F0CEFA13E00121802000F0C9FA91
:100FE0000021802000F0C5FA0AE00121080200F08B
:100FF000C0FA00214FF4807000F0BBFA00E000BF9F
:1010000000BF10BD10B50121084600F0B2FA002162
:10101000012000F0AEFA10BD2DE9F0410246002596
:101020000026002000230024002791F803C00CF0C4
:101030000F0591F803C01CF0100F03D091F802C007
:101040004CEA0505B1F800C01CF0FF0F31D0146860
:1010500000202BE04FF0010C0CFA00F3B1F800C0B7
:101060000CEA03069E4220D183004FF00F0C0CFACD
:1010700003F7BC4305FA03FC4CEA040491F803C0EF
:10108000BCF1280F06D14FF0010C0CFA00FCC2F89D
:1010900014C00AE091F803C0BCF1480F05D14FF02D
:1010A000010C0CFA00FCC2F810C0401C0828D1D377
:1010B0001460B1F800C0BCF1FF0F34DD54680020AB
:1010C0002EE000F1080C4FF0010808FA0CF3B1F81B
:1010D00000C00CEA03069E4221D183004FF00F0CA2
:1010E0000CFA03F7BC4305FA03FC4CEA040491F83C
:1010F00003C0BCF1280F05D100F1080C08FA0CF868
:10110000C2F8148091F803C0BCF1480F07D100F178
:10111000080C4FF0010808FA0CF8C2F81080401CC7
:101120000828CED35460BDE8F0814FF6FF710180EE
:10113000022181700421C17070470246002093682B
:101140000B4201D0012000E0002070470146886872
:1011500080B2704702460020D3680B4201D00120C4
:1011600000E0002070470146C86880B27047016106
:101170007047416170470AB1016100E04161704709
:10118000C16070474FF480320A438261816182619D
:1011900082698269704702460020344B18684FF616
:1011A0008073184040EA02100843304B18607047C3
:1011B0002F49C8617047F0B50A460023002400217A
:1011C00000252A4E7168C0F3034583B200F440162F
:1011D000B6F5401F08D121F07061244E766826F0E4
:1011E0007066224F7E6012E000F48016B6F5801F14
:1011F00006D1032606FA05F4A14341F0706106E02A
:10120000460D360103FA06F6B14341F0706122B192
:10121000460D360103FA06F63143144E7160F0BDF7
:1012200030B500228B071C0F0F2303FA04F20F4B7B
:1012300008338C1053F8243093430C4C08348D1031
:1012400044F8253023468C1053F824308C07240FA3
:1012500000FA04F42343054C08348D1044F825307B
:1012600030BD00000014014000F8FEBF0000014046
:1012700000002042DA48006840F00100D8490860C8
:1012800008464068D7490840D54948600846006884
:10129000D5490840D24908600846006820F48020FB
:1012A00008600846406820F4FE004860002088601E
:1012B0007047CB49096821F48031C94A1160114651
:1012C000096821F480211160B0F5803F03D0B0F5AA
:1012D000802F0ED106E0C249096841F48031C04A2E
:1012E000116007E0BE49096841F4A021BC4A1160C1
:1012F00000E000BF00BF704710B501460022002388
:1013000000204A11012A02D1B54C236806E0022AC6
:1013100002D1B34C236A01E0B14C636A01F01F02B1
:10132000012494401C4201D0012000E0002010BDA7
:1013300070B500240025002600BF3120FFF7DCFF38
:101340000646641C16B9B4F5A06FF6D13120FFF73C
:10135000D3FF08B1012500E00025284670BD0146F5
:1013600000209F4A106820F0F80040EAC100106099
:1013700070479E490860704702460020984B5868A5
:1013800020F47C1042EA01031843954B58607047E3
:1013900096490866704701460020914A506820F03F
:1013A00003000843506070478D48406800F00C000F
:1013B0007047014600208A4A506820F0F000084338
:1013C0005060704701460020854A506820F4E06074
:1013D00008435060704701460020814A506820F45D
:1013E000605040EAC1005060704729B17C4A527A8F
:1013F00002437B4B5A7206E0794A527AC343DBB20E
:101400001A40774B5A727047794908607047014615
:101410000020734A506820F44040084350607047F1
:101420000021744A11706E4A82F82010012802D0FF
:10143000042808D103E001216E4A117004E005215F
:101440006C4A117000E000BF00BF70476A49086035
:1014500070476349096A0143614A116270476749ED
:101460000860704730B500210022002400235C4D45
:101470006D6805F00C0121B1042905D0082923D19C
:1014800005E05F4D056022E05D4D05601FE0544DB5
:101490006D6805F47012022505EB9242504D6D689F
:1014A00005F480341CB9574D554305600BE04C4D95
:1014B0006D6815F4003F03D0524D5543056002E0BE
:1014C0004F4D5543056002E04D4D056000BF00BF24
:1014D000434D6D6805F0F00109094B4D6B5C0568E3
:1014E000DD4045603E4D6D6805F4E061090A464DFA
:1014F0006B5C4568DD408560394D6D6805F4605171
:10150000C90A414D6B5C4568DD40C560344D6D686E
:1015100005F44041890B3D4D6B5CC568B5FBF3F5A7
:10152000056130BD29B12E4A526902432C4B5A61E4
:1015300004E02B4A52698243294B5A61704729B112
:10154000274A92690243264B9A6104E0244A926931
:101550008243234B9A61704729B1214AD2690243E1
:101560001F4BDA6104E01E4AD26982431C4BDA61E8
:10157000704729B11A4AD2680243194BDA6004E075
:10158000174AD2688243164BDA60704729B1144A71
:1015900012690243124B1A6104E0114A1269824334
:1015A0000F4B1A6170471A49086070470F49C864A9
:1015B00070470B49C87170470948406A40F0807015
:1015C00007494862704701460020054A92680A426E
:1015D00001D0012000E00020704701498872704767
:1015E000001002400000FFF8FFFFF6FE000042423C
:1015F000D800424220100240800442423C04424251
:1016000000127A0000093D000000002010000020B8
:101610004004424200210020434A126842F48032D2
:10162000414B1A6000BF404A126802F40030491C66
:1016300010B9B1F5A06FF6D13B4A126812F4003F21
:1016400001D0012000E00020012843D1374A126870
:1016500042F01002354B1A601A46126822F003025B
:101660001A601A46126842F002021A602E4A526844
:101670002D4B5A601A4652685A601A46526842F414
:1016800080625A601A46526822F47C125A601A46E6
:10169000526842F4E8125A601A46126842F08072A8
:1016A0001A6000BF204A126812F0007FFAD01E4A6A
:1016B000526822F003021C4B5A601A46526842F0EC
:1016C00002025A6000BF184A526802F00C02082A4F
:1016D000F9D101E000BFFEE7704710B5FFF79AFFB0
:1016E00010BD10B51048006840F001000E490860B8
:1016F000084640680E4908400B49486008460068A3
:101700000C490840084908600846006820F4802019
:1017100008600846406820F4FE00486000208860A9
:10172000FFF7DBFF10BD0000001002400020024068
:101730000000FFF8FFFFF6FE7047704770477546E0
:1017400000F028F8AE4605006946534620F0070031
:10175000854618B020B5FEF74DFDBDE820404FF09E
:1017600000064FF000074FF000084FF0000B21F08B
:101770000701AC46ACE8C009ACE8C009ACE8C00958
:10178000ACE8C0098D4670470446AFF300802046A0
:10179000FEF717FD0048704714000020014870470D
:1017A000704700BF1800002001491820ABBEFEE7BB
:1017B00026000200704710B5FFF7F0FF4FF0000160
:1017C000016010BDE41700080000002014000000B4
:1017D0006C010008F81700081400002064020000E3
:1017E0008801000800000000010203040102030454
:0817F0000607080902040608BF
:0400000508000131BD
:00000001FF
