:0CFF000063001E01000000000000000073
:0300000002046493
:0C04640078FFE4F6D8FD758133020382B6
:0B047C00407924301912027800103F74
:030023000203E0F5
:1003E000C0E0C0D0C298859926E5247007852625EF
:1003F00005248017E524B4010885262775249680F6
:100400000AE524B464058526230524D0D0D0E03243
:08048700C2998F993099FD2202
:1000030075985075BA6075BEF075BF0275BD03E48F
:0C001300F5917592FDD2ACD2AFF524221D
:0C047000E4F584F58553A40F53A50F227A
:0602FA008F158D168B1715
:1003000078187C007D007BFF7A04797C7E007F0B6F
:100310001200F67F01E51514FEEFA806088002C35F
:1003200033D8FCFFE516C3940B4003E4F5167418AC
:100330002516F8E6FEE517700474802EFE7D80E435
:10034000FBC2A5C2A5EF5D24FF92A6D2A5D2A5ED62
:10035000C313FD0BBB08EA7D80E4FBC2A5C2A5EE7A
:100360005D24FF92A6D2A5D2A5EDC313FD0BBB0859
:10037000EAC2A7C2A7C2A7C2A7D2A7D2A7D2A7D2B2
:01038000A7D5
:010381002259
:08022E008F108E0F8D0E8C0D58
:10023600E47F0F7E27FDFCAB10AA0FA90EA80DD3F5
:100246001201EA4009E4F510F50FF50EF50DE47B11
:10025600E87A03F9F8AF10AE0FAD0EAC0D120158E7
:100266008F11AF10AE0FAD0EAC0DE47BE87A03F93B
:10027600F8120158AC00AD01AE02AF038F108E0F1D
:100286008D0E8C0DE47B64FAF9F81201588F12AFCB
:1002960010AE0FAD0EAC0DE47B64FAF9F8120158FE
:1002A600AC00AD01AE02AF038F108E0F8D0E8C0D1C
:1002B600E47B0AFAF9F81201588F13E47B0AFAF97B
:1002C600F8AF10AE0FAD0EAC0D120158AF038F1480
:1002D600E4FBAD117F011202FAE4FBAD127F0212BC
:1002E60002FAE4FBAD137F031202FAE4FBAD147FBE
:0402F600040202FA02
:08048F00E4F5247F5502048707
:080497007524647F5002048704
:10038200120470120003E4F525F52712048FE4F538
:1003920008E485250CF50BF50AF509AF0CAE0BAD9B
:1003A2000AAC0978081201FB8F0C8E0B8D0A8C099E
:1003B200E4FCFDFEE50C2527F50CEE350BF50BED07
:1003C200350AF50AEC3509F509AF0CAE0BAD0AFC9E
:0E03D20012022E0508E508C3946440B580AD04
:10044C00E4752B5AF52AF529F528782874FF120241
:07045C0010EC4D4E4F70F350
:010463002276
:10043300E4752FCC752E01F52DF52C782C74FF1255
:080443000210EC4D4E4F70F366
:01044B00228E
:100410007B50AF031BEF601AE47533CC753201F5E6
:1004200031F530783074FF120210EC4D4E4F60E21F
:0204300080F159
:0104320022A7
:10002600E709F608DFFA8046E709F208DFFA803EBC
:1000360088828C83E709F0A3DFFA8032E309F608A9
:10004600DFFA8078E309F208DFFA807088828C8311
:10005600E309F0A3DFFA806489828A83E0A3F608C5
:10006600DFFA805889828A83E0A3F208DFFA804C9F
:1000760080D280FA80C680D4806980F28033801076
:1000860080A680EA809A80A880DA80E280CA8033DF
:1000960089828A83ECFAE493A3C8C582C8CCC58357
:1000A600CCF0A3C8C582C8CCC583CCDFE9DEE78027
:1000B6000D89828A83E493A3F608DFF9ECFAA9F0A6
:1000C600EDFB2289828A83ECFAE0A3C8C582C8CCFC
:1000D600C583CCF0A3C8C582C8CCC583CCDFEADE15
:1000E600E880DB89828A83E493A3F208DFF980CC77
:1000F60088F0EF60010E4E60C388F0ED2402B40470
:100106000050B9F582EB2402B4040050AF23234516
:06011600822390007673C5
:10011C0075F008758200EF2FFFEE33FECD33CDCC9A
:10012C0033CCC58233C5829BED9AEC99E58298401D
:10013C000CF582EE9BFEED9AFDEC99FC0FD5F0D6FA
:10014C00E4CEFBE4CDFAE4CCF9A88222B800C1B924
:10015C000059BA002DEC8BF084CFCECDFCE5F0CB62
:10016C00F97818EF2FFFEE33FEED33FDEC33FCEB9B
:10017C0033FB10D703994004EB99FB0FD8E5E4F956
:10018C00FA227818EF2FFFEE33FEED33FDEC33FC43
:10019C00C933C910D7059BE99A4007EC9BFCE99A37
:1001AC00F90FD8E0E4C9FAE4CCFB2275F010EF2F7C
:1001BC00FFEE33FEED33FDCC33CCC833C810D7077C
:1001CC009BEC9AE899400AED9BFDEC9AFCE899F8B7
:0E01DC000FD5F0DAE4CDFBE4CCFAE4C8F9224A
:1001EA00EB9FF5F0EA9E42F0E99D42F0E89C45F06B
:0101FA0022E2
:1001FB00E8600FEFC333FFEE33FEED33FDEC33FC62
:03020B00D8F12205
:10020E007401FF3395E0FEFDFC080808E6CF2FF6DB
:10021E0018E6CE3EF618E6CD3DF618E6CC3CF622B4
:00000001FF
