:020000040800F2
:10000000880B002095010008990100089B01000859
:100010009D0100089F010008A101000800000000E8
:10002000000000000000000000000000A301000824
:10003000A501000800000000A7010008A9010008B0
:10004000AB010008AB010008AB010008AB010008E0
:10005000AB010008AB010008AB010008AB010008D0
:10006000AB010008AB010008AB010008AB010008C0
:10007000AB010008AB010008AB010008AB010008B0
:10008000AB010008AB010008AB010008AB010008A0
:10009000AB010008AB010008AB010008AB01000890
:1000A000AB010008AB010008AB010008AB01000880
:1000B00023140008AB010008AB010008AB010008E5
:1000C000AB010008AB010008AB010008AB01000860
:1000D000AB010008AB010008AB010008AB01000850
:1000E000AB010008AB010008AB01000800F002F80A
:1000F00000F03AF80AA090E8000C82448344AAF188
:100100000107DA4501D100F02FF8AFF2090EBAE885
:100110000F0013F0010F18BFFB1A43F0010318473B
:1001200084290000A4290000103A24BF78C878C1AF
:10013000FAD8520724BF30C830C144BF04680C60ED
:10014000704700000023002400250026103A28BF35
:1001500078C1FBD8520728BF30C148BF0B60704739
:100160001FB51FBD10B510BD01F0FBF91146FFF71B
:10017000F7FF00F02BF801F019FA03B4FFF7F2FFD4
:1001800003BC00F0FDF9000030BF72B662B680F328
:100190000888704708480047FEE7FEE7FEE7FEE7ED
:1001A000FEE7FEE7FEE7FEE7FEE7FEE70348044959
:1001B000044A054B70470000ED0000088805002048
:1001C000880B00208807002088070020092000F005
:1001D0007EF9482000F01EF8022000F063F900F0DC
:1001E0004DFA00F085FA00F0BAFC4FF4967000F07A
:1001F00049F84FF4FA31482000F0DCF900F099FE9C
:1002000041F61F41312000F0F3FF01E001F071F9E8
:10021000FCE700004FF0E021096921F004014FF0F4
:10022000E0221161C21700EB5272C2F3C702234BE6
:100230001A701946097801EB4102C2EBC1114FF661
:10024000FF7202EAC1011E4A1180704701461B4A33
:1002500012784A434FF0E0235A6100229A6101224A
:100260001A6100BF4FF0E022106900F001021AB1DC
:1002700000F48032002AF5D000224FF0E0231A610A
:100280009A61704701460E4A12884A434FF0E023B4
:100290005A6100229A6101221A6100BF4FF0E022E8
:1002A000106900F001021AB100F48032002AF5D082
:1002B00000224FF0E0231A619A617047020000208B
:1002C00004000020A34A0A400243A34B1A6070476F
:1002D0000146072323EA010212029F4B1B1D1868E7
:1002E0004FF6FF0318409D4B184310439A4B1B1DBC
:1002F000186070472DE9F0410746884614461D46B0
:100300002846FFF7E5FFC5F1040007FA00F60F20C5
:10031000284100EA0800064306F00F06E21704EB46
:10032000D2625211920002F1E022D2F8002121465D
:10033000E31704EBD3635B11A4EB431C012303FA23
:100340000CF31A432046E31704EBD3635B119B00C5
:1003500003F1E023C3F800218148005D40EA061064
:100360007F490855BDE8F08170B504460B46CE17AD
:1003700001EB9676C6F38700CE1701EB9676B610A2
:10038000A1EB8606B606350E764B9B6943F001035A
:10039000744EB3614FEAB63353F820300F26AE40A7
:1003A000B343714E46F82030334653F8203004FAF8
:1003B00005F61E436C4B43F820606C4B1B6801260E
:1003C0008E403343694E336002F0010343B1674B03
:1003D0000C331B6801268E403343644E0C36336069
:1003E00002F0020343B1614B08331E6801238B40C6
:1003F0001E435E4B08331E6070BD00B50020594996
:100400000861C8601420486100208861C8610846FE
:10041000006840F001000860084640685449084000
:100420005049486008460068524908404D490860F4
:100430000846006820F4802008600846406820F4E0
:10044000FE0048600020886000214FF00060FFF748
:1004500039FF00BD10B540480830006840F0040086
:100460003D49083108603F48C06940F080503D492F
:10047000C8614148406840F480703F494860084680
:10048000006840F0040008600846006840F0020080
:100490000860FFF779FE10BD3048001D2E49091D88
:1004A00008607047014649062E4A926942F00102EF
:1004B0002C4B9A612C4A083A526822F0E0622A4B8F
:1004C000083B5A601A4652680A435A60704730B572
:1004D00004460025FFF791FF2248006840F4803071
:1004E0002049086000BF1F480068400C0028FAD06F
:1004F0004FF480601B494860A01EC4B208464068A3
:1005000040EA844048600846406840F480304860D3
:100510001A48006840F03200184908601148006825
:1005200040F080700F49086000BF0E480068400E20
:100530000028FAD00B48406840F0020009494860A2
:1005400005E008484068C0F3870505F00305022D63
:10055000F7D130BD80FFFF1F08ED00E00000FA0575
:1005600000E400E0001002400800014000040140E7
:100570000000FFF8FFFFF6FE007000400020024080
:10058000014600BF704700BF384A128802F040029F
:10059000002AF9D0C2B2354B1B1D1A80704733496F
:1005A000091D088000BF3149098801F04001002978
:1005B000F9D070472DE9F05F05460E46300101F095
:1005C000DFFB81462A4905FB01F001F0D9FB824699
:1005D000494601F0F3FA0746384601F0B1FB84B210
:1005E000204601F0CDFB8346394601F0A9FC824646
:1005F0004FF0834101F0D8FB814601F0A1FB80461A
:100600004FF6FF7000EA041404EB080084B21948A6
:10061000806940F00400174988610846806940F409
:10062000804088611448006820F47F6012490860A7
:100630000846006840F40B6008600E48C06840F44B
:1006400080400C49C8600846C06820F48040C860FB
:10065000064808300480001D008842F20C0108435F
:1006600002490C310880BDE8F09F000000380140CD
:1006700040420F0000100240040801401748806902
:1006800040F00400154988611548006820F47F2077
:10069000134908600846006840F44C300860104870
:1006A0000C30006840F010000D490C3108607047B4
:1006B00018B900210B4A11600FE00B490968491C69
:1006C000094A1160814208D106490968C943074AAD
:1006D000C2F890110021044A1160704700100240D6
:1006E0000008014090012142080000200000214242
:1006F0005648806940F004005449886154480068B5
:1007000020F47000524908600846006840F4000078
:1007100008604F480C30006840F020004C490C3114
:100720000860704701464B48006828B94A4800886D
:10073000401C494A108002E00020474A108045488A
:10074000006828B94548007810B90120434A107064
:1007500043480078B0B941480078012807D14148A2
:100760000078401C3F4A107001203D4A10703D48FF
:100770000078022806D100203A4A10703A4A1080C8
:100780000220704733480068012804D10020334A12
:100790001070334A10703348007801281CD1324859
:1007A0000088401C304A10801046008888420ADDCC
:1007B00029480088884206DA00202A4A10702A4A0E
:1007C00010800120DDE724480088884204DD0020F5
:1007D000244A1070244A10800020D2E72348007871
:1007E00038B11C48006820B9002020490870012059
:1007F000704718480068012801D11C490870002082
:10080000F6E71B48008840B91248006828B9194823
:100810000088401C1749088002E000201549088024
:1008200014480088C82807DD0120114908800020ED
:1008300010490880012070470D480088012802D126
:1008400000200B4908800020F5E70000001002405E
:100850000008014014012142120000200C00002079
:100860000D0000200E0000201000002014000020C9
:10087000180000201600002010B50A461AB1012306
:10088000FE4C236002E00023FC4C2360002114E0B6
:100890000023FB4C236000F080031BB10123241FC5
:1008A000236003E00023F64C241F23600123F44C53
:1008B00023604306180E4B1CD9B20829E8DB01233C
:1008C000EE4C236010BD30B500241CE004F1B001F3
:1008D000C8B20021FFF7D0FF00210846FFF7CCFF88
:1008E00000211020FFF7C8FF002508E0E54901EBD3
:1008F000C501085D0121FFF7BFFF681CC5B2802D4F
:10090000F4DB601CC4B2082CE0DB30BD00B5002174
:100910008D20FFF7B1FF00211420FFF7ADFF00216C
:10092000AF20FFF7A9FF00BD00B500218D20FFF724
:10093000A3FF00211020FFF79FFF0021AE20FFF74B
:100940009BFF00BD30B500240CE0002506E0002030
:10095000CC4901EBC5010855681CC5B2802DF6DBFA
:10096000601CC4B2082CF0DBFFF7ADFF30BDF0B562
:10097000144600267F2801DC3F2900DDF0BD0B4630
:10098000CF1701EB5777FF10C7F10707FAB2CF1760
:1009900001EB5777FF10A1EBC707FDB2C5F10707C1
:1009A0000123BB40DEB24CB1B64B03EBC0039B5CF2
:1009B0003343B44F07EBC007BB5408E0B14B03EB24
:1009C000C0039B5CB343AF4F07EBC007BB5400BFF2
:1009D000D4E72DE9F04F80460C4615461E46A34647
:1009E000A5F12000C5B200273EE00C2E07D105EB93
:1009F0004500A54901EB800010F8079004E0A348EA
:100A000000EB051010F807904FF0000A26E009F0FF
:100A1000800028B121464046099AFFF7A8FF09E067
:100A2000099808B9012000E000200246214640460E
:100A3000FFF79DFF4FEA49604FEA1069601CC4B29E
:100A4000A4EB0B00B04205D15C4608F1010000F0B8
:100A5000FF0806E00AF1010000F0FF0ABAF1080FF2
:100A6000D5DB00BF781CC7B2B742BEDBBDE8F08F54
:100A700010B50246012000E050430B1EA1F1010415
:100A8000E1B2F9D110BD2DE9FF4F81B00746914683
:100A90001E460E9D4FF0000A002439E0301B401E18
:100AA000C1B20A20FFF7E4FFB9FBF0F00A21B0FB66
:100AB000F1F201FB1208BAF1000F16D1701EA0422C
:100AC00013DDB8F1000F0ED10120AB4605EBDB7151
:100AD000491001FB04710090C8B22B4620220299F4
:100AE000FFF777FF12E04FF0010A0120AB4605EB5C
:100AF000DB71491001FB04710090C8B208F13001AC
:100B0000CAB22B460299FFF764FF00BF601CC4B253
:100B1000B442C3DB05B0BDE8F08F78B505460E469C
:100B2000144618E07A2D03DD002506F11000C6B248
:100B30003A2E04DD002005460646FFF703FF01209C
:100B4000009022780C2331462846FFF742FF05F13A
:100B50000800C5B2641C20780028E3D178BD10B528
:100B60004B48806940F0080049498861494800685D
:100B70004949084047490860084600684749084312
:100B8000444908604248806940F004004049886157
:100B90004348006820F070404149086008460068FA
:100BA00040F0005008600020354908390860642092
:100BB000FFF768FB01203B49C1F88C010021AE2002
:100BC000FFF75AFE0021D520FFF756FE00215020E6
:100BD000FFF752FE0021A820FFF74EFE00213F2024
:100BE000FFF74AFE0021D320FFF746FE002108460A
:100BF000FFF742FE00214020FFF73EFE00218D203E
:100C0000FFF73AFE00211420FFF736FE00212020D6
:100C1000FFF732FE00210220FFF72EFE0021A12067
:100C2000FFF72AFE0021C020FFF726FE0021DA2070
:100C3000FFF722FE00211220FFF71EFE0021812077
:100C4000FFF71AFE0021EF20FFF716FE0021D92042
:100C5000FFF712FE0021F120FFF70EFE0021DB203E
:100C6000FFF70AFE00213020FFF706FE0021A42036
:100C7000FFF702FE0021A62016E00000BC01214281
:100C800094812142280100203E200008B22400085F
:100C900000100240000C0140FF0F00FF0020220066
:100CA0000408014000802142FFF7E6FD0021AF204B
:100CB000FFF7E2FDFFF746FE10BD0000002000E058
:100CC000401C0A28FCDB70470146FE48006820F003
:100CD0001F00FC4A10601046006808431060F94885
:100CE0002C38006840F48000F64A2C3A106000BFAF
:100CF000F4483438006800F002000028F8D0F148C9
:100D00001830006880B2704710B50023002401201D
:100D1000ED4908600020ED49C1F88C01FFF7CEFFD6
:100D20000120E949091D08600020E849C1F888014F
:100D3000FFF7C4FF0120E44908600020E349C1F83F
:100D40008C01FFF7BBFF002317E00020DE4908609D
:100D5000FFF7B4FFFFF7B2FF0820FFF7B5FF001160
:100D6000DB4921F81400601CC4B20120D749C1F846
:100D70008801FFF7A3FF581CC3B2802BE5DB10BD31
:100D8000D448806940F00800D2498861D2480068A0
:100D900020F00F00D0490860CE48806940F4007010
:100DA000CC4988610846C06840F40070C8600846B5
:100DB000C06820F40070C8600846406820F44040D5
:100DC00048600846406840F400404860BD483038FC
:100DD0000068C2490840BB493039086008460068CD
:100DE00008600846006820F480700860081D0068EC
:100DF00020F00200091D08600846006820F4602009
:100E000008600846006840F46020086008460068F2
:100E100040F4801008600846006820F40060086014
:100E2000A8480838006820F47000A649083908600E
:100E30000846006800200860A2482438006820F0B6
:100E4000F000A049243908600846006840F03800E6
:100E500008609C482C38006840F0010099492C3902
:100E600008600846006840F00800086000BF954828
:100E70002C38006800F008000028F8D191482C3880
:100E8000006840F004008F492C39086000BF8D488D
:100E90002C38006800F004000028F8D170472DE9D4
:100EA000F04F85B00920FFF70FFF019000F013FD10
:100EB0004FF066328A4BCDE9020100F01FFD8046FB
:100EC0000022884B00F01AFD06460022864B00F0F7
:100ED00015FD04460022854B00F076FB824600F0AB
:100EE000CBFC0490049805B0BDE8F08F70B5FF20EE
:100EF000FFF755FB002519E0FFF706FF002400BFB0
:100F000011E0734830F81400FF2806D1704830F81B
:100F10001400401E6E4921F814006D4911F81400A8
:100F2000FFF73DFB641C802CEBDB6D1C642DE3DBC9
:100F300070BD10B56748806940F00400654988615C
:100F40000846806940F0080088616348006820F026
:100F50000F00614908606648006820F47F406449DA
:100F600008600846006840F40850086059488069E5
:100F700040F40070574988610846C06840F400702A
:100F8000C8600846C06820F40070C8600846406821
:100F900020F4404048600846406840F40040486003
:100FA0004848303800684D490840464930390860A3
:100FB0000846006808600846006820F480700860F1
:100FC000081D006820F00200091D0860084600683E
:100FD00020F4602008600846006840F46020086043
:100FE0000846006840F4801008600846006820F455
:100FF0000060086033480838006820F47000314908
:101000000839086008460068002008602D48243828
:10101000006820F070602B49243908600846006899
:1010200040F0E060086027482C38006840F001007C
:1010300024492C3908600846006840F00800086020
:1010400000BF20482C38006800F008000028F8D1C4
:101050001C482C38006840F004001A492C390860FC
:1010600000BF18482C38006800F004000028F8D1B0
:101070000120FFF707F910BD10B51648806940F050
:101080000400144988610846806940F008008861BE
:101090001148006820F00F000F49086014480068EC
:1010A00020F47F40124908600A48806940F40070CB
:1010B000084988610846C06840F40070C860084666
:1010C000C06817E034240140880121420000214219
:1010D0002800002000100240000C0140FFFFF0003B
:1010E00066660A4000002640000059400000B040FB
:1010F0000008014020F40070C8600846406820F4F1
:10110000404048600846406840F400404860354828
:10111000006835490840334908600846006808609F
:101120000846006820F480700860081D006820F000
:101130000200091D08600846006820F4602008606D
:101140000846006840F4602008600846006840F4E3
:10115000801008600846006820F40060086021489C
:101160002830006820F470001E49283108600846C5
:101170000068002008601B480C3000681B490840CC
:1011800018490C3108600846006840F0E0600860CB
:101190001448001D006840F001001249091D086054
:1011A0000846006840F00800086000BF0D48001DB8
:1011B000006800F008000028F8D10A48001D006807
:1011C00040F004000749091D086000BF0548001DE4
:1011D000006800F004000028F8D10120FFF752F861
:1011E00010BD000004240140FFFFF000FF00FFF0ED
:1011F00070B505460C460F48C06940F001000D4926
:10120000C861880485850485808940F001008904CF
:1012100088810846808940F040008881084600881F
:1012200040F00100088001231C2219461846FFF7F0
:1012300061F870BD00100240894800888949088023
:1012400005208949088014E085488749098830F8D5
:10125000110084490988884206DB8148824909884F
:1012600030F811007F4908807F480088401C7E4983
:1012700008807D4800887B28E6DB794800887B4928
:10128000088005207849088014E075487649098867
:1012900030F8110075490988884206DC70487249A7
:1012A000098830F81100714908806F480088401C97
:1012B0006D4908806C4800887B28E6DB694909880D
:1012C0006A4A1288881800EBD071C1F34701684A56
:1012D000117005206449088044E06148624909882A
:1012E00030F8110062490978884236DD5C495E4871
:1012F0000088401C31F810005D49097888422CDDD7
:10130000574959480088801C31F81000584909781D
:10131000884222DD524954480088C01C31F8100030
:1013200053490978884218DA4D494F480088001D12
:1013300031F810004E49097888420EDA48494A4887
:101340000088401D31F8100049490978884204DAC4
:10135000454800884749088008E043480088401C09
:1013600041490880404800887628B6DB00BF7620D7
:101370004149088044E03A483F49098830F8110063
:101380003B490978884236DA35493B480088401C99
:1013900031F810003649097888422CDA304936484D
:1013A0000088801C31F8100031490978884222DA1F
:1013B0002B4931480088C01C31F810002C490978AD
:1013C000884218DD26492C480088001D31F810009D
:1013D0002749097888420EDD214927480088401DA9
:1013E00031F8100022490978884204DD224800883B
:1013F0002249088008E020480088401E1E490880D5
:101400001D4800880528B6DC00BF1C490988194A18
:101410001288881800EBD071C1F34701184A117087
:10142000704710B54FF08040008A00F00100B0B165
:101430004FF08040008A20F001004FF08041088288
:101440001048007808B9012000E000200D4908701C
:101450000846007808B1FFF757FCFFF7EDFE10BD16
:1014600028000020240000201C000020260000206E
:1014700001000020200000201E000020220000208B
:10148000000000201A0000202DE9F04106460D461C
:10149000174600243A4629463046FFF768FA3A468E
:1014A00029463046FFF763FA00BF07E02819C1B2AA
:1014B0003A463046FFF75BFA601CC4B2082CF5DBF5
:1014C000BDE8F08170B5002410E01B4830F814002E
:1014D0001A490978884201DA012500E000252A46E8
:1014E00000212046FFF7D0FF601CC4B2802CECDB4B
:1014F00070BD08B5FFF7E6FF11A228210020FFF715
:101500000CFB0C20042300900C4802782821462074
:10151000FFF7B9FA0DA232210020FFF7FEFA0C20E6
:10152000042300900B48027832213C20FFF7ABFAED
:10153000FFF7C9F908BD00002800002001000020C5
:101540005468726573686F6C640000004D69646470
:101550006C650000000000207047704770477047BE
:101560007047754600F02CF8AE46050069465346B4
:1015700020F00700854618B020B5FEF717FEBDE83D
:1015800020404FF000064FF000074FF000084FF0EA
:10159000000B21F00701AC46ACE8C009ACE8C0097B
:1015A000ACE8C009ACE8C0098D46704710B50446E8
:1015B000AFF300802046BDE81040FEF7DEBD00001E
:1015C00000487047280500202DE9C04130B4DFF8FD
:1015D000A0C23CEA111418BF3CEA131400F0EC80DE
:1015E00081EA03051CEA111444EAD57418BF1CEA09
:1015F000131500F0C780A4EB05044FF0004545EA41
:10160000C12145EAC32341EA505143EA525304F150
:101610007F74994204F500344FEAC0204FEAC22299
:1016200008BF904200F09C804FEA13650FF240160D
:10163000765D4FEA134506FB05F7C7F1807706FB99
:1016400007F74FEAD737A7FB03687642C8F580381B
:10165000A7FB06CE38BFA8F1010807FB08E64FF04C
:10166000000EA6FB028CE6FB03CEDCF1000CCEF1F3
:10167000004E38BFAEF1010EA6FB0C584FF000072C
:101680004FF00005E6FB0E87A1FB08C6A0FB07CEC6
:1016900016EB0E0645F10005E1FB076515F1E04E7E
:1016A0007EBFA4F580345FEA46066D4116F18007DF
:1016B00045F100054FEA17274FEA066647EA056736
:1016C000A6F1DE46B6F1805F4FEA15251FD93846F0
:1016D00024F0010C05EBC471BCF1FE6F01EB0C11A1
:1016E00002D8F0BCBDE8008124425CBF01F5801E39
:1016F0009EEAC47F02D4F0BCBDE80081244238D405
:10170000F0BCA1F1C041BDE8004100F0EFB94FEAE3
:10171000D22242EA43524FEAD323A7FB02864FEA82
:10172000D02040EA415007FB03661EEA0E0F4FEA45
:10173000D12105FB026658BFA6EB0056B6EB00565A
:101740004FEA520E4EEAC37E18EB0E0E56EB530EC6
:10175000BDD518EB02085E417F1C55F10005B6E7C8
:101760004FF480154FF000074FF000064FF00008CF
:10177000ADE7F0BC4FF0000001F1C04101F00041C5
:10178000BDE8008111EA0C1F0CEA131500D00CE033
:1017900013EA0C1F00F025804FF00000F0BC81EA36
:1017A000030101F00041BDE80081F0BCBDE800414B
:1017B00081EA030100F09AB9F0BCBDE8004170B5C0
:1017C00000F046F9097EFC3E00F007B881EA03010B
:1017D0004FF0000001F00041704781EA030100F082
:1017E00085B9F0BCBDE800414FF0000021497047C9
:1017F000FFFDFBF9F7F5F4F2F0EEEDEBE9E8E6E4D6
:10180000E3E1E0DEDDDBDAD8D7D5D4D3D1D0CFCD5C
:10181000CCCBCAC8C7C6C5C4C2C1C0BFBEBDBCBB95
:10182000BAB9B8B7B6B5B4B3B2B1B0AFAEADACAB90
:10183000AAA9A8A8A7A6A5A4A3A3A2A1A09F9F9E6A
:101840009D9C9C9B9A99999897979695959493931C
:10185000929191908F8F8E8E8D8C8C8B8B8A8989B3
:101860008888878786858584848383828281818036
:101870000000FF070000F87F4FEA41034FEA53538F
:10188000A3F58063D3F11E03C8BFD3F1210C0CDD97
:101890004FF0004242EAC12242EA505232FA03FCBF
:1018A0008CEAE17CACEBE1707047102BC4BF0020E8
:1018B000704703F5787CBCF1FF3F04D06FF0004225
:1018C00082EA2100704770B500F0C2F84992248086
:1018D00000207047F2E7B0FA80F310FA03F10AD063
:1018E000C3F11D0303F580634FEA41504FEA0352F1
:1018F00002EBD12170474FF000007047DFF848C17C
:1019000070B51CEA111E1EBF1CEA13159EEA0C0FCF
:1019100095EA0C0F00F06F8081EA030423EA4C1370
:101920004EEAD47E21EA4C1141F4801143F4801335
:10193000AE44A1FB024CA0FB0365AEF17F7E3619DD
:1019400055EB0C05A1FB034C4CF10003A0FB021C62
:1019500016EB0C06654153F10003094218BF46F02F
:10196000010613F4007F0BD14FEA03314FEA053033
:10197000340341EA155140EA16506FF003020AE0C1
:101980004FEAC3214FEAC520F40241EA555140EA2B
:1019900056506FF0020202EB2E4201EB025585EA2F
:1019A000CE710AD05FEA440C18BF24F0004450F115
:1019B000000041F1000120EAD47040F2FE7C624553
:1019C00000D270BDA84214BF4FF080444FF0404495
:1019D000002E08BF0024BEF1806FA8BFA1F1C04156
:1019E000BDE8704080F282804FF0000001F1C041FC
:1019F00001F0004170479EEA0C0F0CEA131518BF66
:101A000095EA0C0F06D04FF0000081EA030E0EF0AD
:101A1000004170BD00F01CF88900013E00F007B8DD
:101A200000F009B84FEA430C5FEA5C5C08D081EA39
:101A3000030100F05BB84FEA410C5FEA5C5CF6D151
:101A40004FF00000014970470000FF070000F87FD9
:101A50000EF1020E2EF0030E5EF8046B364205D432
:101A6000012A43EB030515F5001F12D8012841EBAD
:101A7000010C1CF5001F0CD80ED14FEAD17C15F5D6
:101A8000001F0CEB4C0C0CF1020C08BF4CEBD37C90
:101A900004E04FF0080C01E04FEAD37C0CEB4C055E
:101AA00026FA05F606F00706B6F1040C06D20EEB90
:101AB000860CBDE870404CF0010C6047DFE80CF08C
:101AC000090B02024FF000414FF00000A1F5002188
:101AD00070BD19461046012851EB010418BFD4F51A
:101AE000001484BF002001F0004170BD0808A0F57B
:101AF00000114FEA3101704790EA010F48BF81F0B1
:101B0000004100F12E82421A3CBF801A89184FEA28
:101B1000D0524FF07F4C1CEA410FA2EBD15318BFBB
:101B20009CEA026F00F03B804FF0004C4CEA002032
:101B30004CEA012121FA03FC10EB0C0C1ED202F13D
:101B4000FF325FEA1C2040EBC25038BF70471CF0E8
:101B50007F0F4FEA400C18BFBCF17F4F38BF704772
:101B6000C3F12003994008BF20F00100BCF17F4F72
:101B700038BF7047A0F1C04000F0DDB94FEA3C002B
:101B8000000A40EBC25028BF1CF0FF0F4FEA400C88
:101B9000E6D018BFBCF17F4F38BF7047EAE79CEA38
:101BA000026F05D010EA5C0F08BF00F000407047DC
:101BB00010B500F07AF900BF64FBBE3E4FF47F0C15
:101BC0001CEAD0121EBF1CEAD11392EA0C0F93EA52
:101BD0000C0F00F0858090EA010F48BF42F480723C
:101BE00040F4000C41F400002CF07F4120F07F40D5
:101BF00000B58142A2EB03020FF2081CACEB504E81
:101C0000C0F100009EF800E04FEA4E0E00FB0EFC13
:101C100038BF49004FEA2C1C02F5FA020CFB0EF308
:101C20004FEACE1E4FEA112C4FEAC1210EEB635E44
:101C300042EB22420EFB0CFC4FEA1C5300FB03114B
:101C40004FEA112C4FEA01310EFB0CFC4FEADC4C41
:101C500000FB0C11C14228BF09184CEB03335DF89F
:101C600004EB10EB410143EBC250B2F57C0F38BFDF
:101C7000704729D512F0F00F1CBF00F1C04000F0F2
:101C800000407047008182838485868788898B8C99
:101C90008D8E8F919293959697999A9C9D9FA0A2D5
:101CA000A3A5A7A8AAACAEB0B2B3B5B7B9BCBEC025
:101CB000C2C5C7C9CCCED1D4D7D9DCDFE2E6E9ECC6
:101CC000F0F3F7FAFE0000004FEA400C0CF1807CC4
:101CD000BCF17E4F28BF7047B0F1C04000F02BB977
:101CE00090EA010F0CEAD11348BF42F480726245BA
:101CF00038BF634507D213F47F0F16D080EA010086
:101D000000F00040704710B500F0CFF8097EFC3EAF
:101D100000F005B880EA010000F00040704780EA5A
:101D2000010000F0004000F006B912F47F0F04BF7C
:101D30000248704780EA010000F0FDB80000C07F53
:101D4000C10DD1F19E0206DB4FEA002343F00043B0
:101D500023FA02F07047004207D54FEA4001B1F183
:101D6000FE4F02D24FF00000704710B500F09DF812
:101D700049922480002070476FEA200070470000DD
:101D8000B0FA80F310FA03F2C3F19D030AD0D9052B
:101D900001EB1220530638BF704700F1010008BF65
:101DA00020F00100704700004FF47F0C1CEAD012B5
:101DB0001EBF1CEAD11392EA0C0F93EA0C0F00F03D
:101DC000478090EA010F48BF42F480724FF0004C08
:101DD0004CEA00204CEA012102EB0302A0FB0113B4
:101DE000A2F50002002918BF43F001035B0028BFE1
:101DF0004FEA330342EB22425FEA132C4CEBC25012
:101E00002EBFBCEB436FB2F57C0F70474FEA036CFB
:101E1000BCF1004F08BF20F00100B2F57C0F38BFC5
:101E200070470BD582F0FF0212F5803FC8BF7047A4
:101E300000F1C040D8BF00F00040704700F5000C32
:101E40005FEA4C0C48BF7047B0F1C04000F073B877
:101E500090EA010F0CEAD11348BF42F48072624548
:101E600038BF634504D280EA010000F000407047AB
:101E700010B500F01AF800BF8900013E00F007B865
:101E800000F009B85FEA410C5FEA1C6C08D080EAF8
:101E9000010000F050B85FEA400C5FEA1C6CF6D11C
:101EA0004FF00040A0F5800070470EF1020E2EF0BA
:101EB000030E5EF8044B244204D44FEA4102B2F10F
:101EC0007F4F11D84FEA4003B3F17F4F0CD80ED1AA
:101ED0004FEAD07CB2F17F4F0CEB4C0C0CF1020CB2
:101EE00008BF4CEBD17C04E04FF0080C01E04FEA56
:101EF000D17C0CEB4C0324FA03F404F00704B4F196
:101F0000040C06D20EEB840CBDE810404CF0010C22
:101F10006047DFE80CF0070802024FF00040A0F530
:101F2000800010BD0846420018BFD2F1807288BF01
:101F300000F0004010BDFF2141EAD050C0057047BD
:101F400080F0004090EA010F7FF5DDAD81F00041A7
:101F500000F007B890EA010F48BF81F000413FF55B
:101F6000D2AD421A04D882F00042A0EB0200114424
:101F70004FEAD0524FF07F4C1CEA410FA2EBD153F5
:101F800018BF9CEA026F4AD04FF0004C4CEA002088
:101F90004CEA012121FA03FCB0EB0C0C0FD412F037
:101FA000FE0F36D05FEA4C001DD5001240EBC25048
:101FB00038BF70471CF03F0F18BF70470BE0A2F10D
:101FC00001025FEA1C2040EBC25038BF70471CF092
:101FD0007F0F18BF7047C3F12003994014BF401E04
:101FE00020F00100704780084FEA122308BF7047B5
:101FF000B0FA80FCA2EB0C02CCF1280C60FA0CF0D9
:1020000093EA122F04BF00EBC25070474FEAC3702F
:102010007047130A5FEADC1008BF7047F6E79CEAD6
:10202000026F04D010EA5C0F08BF0020704710B5A3
:10203000FFF73BFF40DFF63E81F0004070470000B5
:1020400000000000000000000000000000003F4011
:1020500000000000000000003000400030004000A0
:10206000000009000BC03D000BC03D00090018C076
:1020700024407FE0224031800000180024C01B0073
:102080000D803240018003801C4027401C800740A7
:102090000040100060000000000000000000000090
:1020A000000000001F802040402000004020204011
:1020B0001F8000000000090006001F8006000900C4
:1020C0000000040004003F80040004000000001031
:1020D0000060000000000000000004000400040094
:1020E00004000400000000000040000000000000A8
:1020F0000000002001C006003800400000001F80E2
:102100002040204020401F800000000010403FC0C1
:1021100000400000000018C0214022402440184028
:10212000000010802040244024401B80000002005A
:102130000D0011003FC0014000003C8024402440BD
:102140002440238000001F8024402440344003802A
:1021500000003000200027C03800200000001B8055
:102160002440244024401B8000001C0022C0224048
:1021700022401F8000000000000008400000000016
:1021800000000000000004600000000000000000EB
:1021900004000A00110020804040090009000900E5
:1021A00009000900000000004040208011000A00E2
:1021B00004001800200023402400180000001F80A5
:1021C0002040274029401F400000004007C0390040
:1021D0000F0001C0004020403FC0244024401B802D
:1021E00000001F8020402040204030800000204020
:1021F0003FC0204020401F80000020403FC02440BE
:102200002E4030C0000020403FC024402E0030004F
:1022100000000F0010802040224033800200204048
:102220003FC0040004003FC02040204020403FC089
:102230002040204000000060202020203FC02000DF
:10224000200020403FC024400B0030C020402040F0
:102250003FC020400040004000C03FC03C0003C0E1
:102260003C003FC0000020403FC00C4023003FC066
:1022700020001F802040204020401F800000204080
:102280003FC024402400180000001F80214021404E
:1022900020E01FA0000020403FC02440260019C0BD
:1022A000004018C02440244022403180000030000B
:1022B00020403FC020403000000020003F80004010
:1022C00000403F80200020003E0001C00700380091
:1022D0002000380007C03C0007C038000000204044
:1022E00039C0060039C0204000002000384007C037
:1022F000384020000000304021C02640384020C037
:102300000000000000007FE04020402000000000AE
:1023100070000C00038000400000000040204020BE
:102320007FE00000000000002000400020000000CE
:10233000000000100010001000100010001000003D
:102340000000400000000000000000000280054086
:10235000054003C0004020003FC00440044003800B
:10236000000000000380044004400640000000001C
:102370000380044024403FC000400000038005402B
:10238000054003400000000004401FC024402440DA
:102390002000000002E005500550065004202040B7
:1023A0003FC00440040003C000400000044027C0B8
:1023B00000400000000000100010041027E00000A2
:1023C000000020403FC00140070004C004402040FE
:1023D00020403FC000400040000007C0040007C08C
:1023E000040003C00000044007C00440040003C010
:1023F00000400000038004400440038000000410FB
:1024000007F00450044003800000000003800440F3
:10241000045007F00010044007C00240040004000C
:102420000000000006400540054004C00000000018
:1024300004001F80044000400000040007800040AA
:10244000044007C000400400070004C001800600EB
:102450000400060001C0070001C00600000004409F
:1024600006C0010006C0044000000410071004E08C
:102470000180060004000000044005C0064004403E
:1024800000000000000004007BE04020000000008D
:1024900000000000FFF000000000000040207BE092
:1024A00004000000000040008000400020002000E8
:1024B00040000000000000000000000000000000DC
:1024C00000000000000000001FCC000C0000000015
:1024D00000000000080030006000080030006000CC
:1024E0000000022003FC1E20022003FC1E2002200C
:1024F000000000000E1811043FFF10840C7800004B
:1025000000000F0010840F3800C00778188400788E
:10251000000000780F8410C411240E9800E4008499
:1025200000080800680070000000000000000000C3
:10253000000000000000000007E01818200440021E
:102540000000000040022004181807E0000000000E
:1025500000000240024001800FF001800240024072
:1025600000000080008000800FF800800080008064
:1025700000000001000D000E00000000000000003F
:10258000000000000080008000800080008000804B
:1025900000800000000C000C0000000000000000A3
:1025A000000000000006001800600180060018000E
:1025B0002000000007F0080810041004080807F0C5
:1025C00000000000080408041FFC000400040000D0
:1025D000000000000E0C10141024104411840E0C86
:1025E000000000000C1810041104110412880C7073
:1025F0000000000000E00320042408241FFC002445
:10260000000000001F98108411041104108810703D
:102610000000000007F008881104110418880070F9
:10262000000000001C00100010FC13001C00100033
:10263000000000000E3811441084108411440E383C
:10264000000000000700088C10441044088807F0C0
:102650000000000000000000030C030C000000005C
:102660000000000000000001010600000000000062
:10267000000000000080014002200410080810043F
:10268000000002200220022002200220022002205C
:10269000000000001004080804100220014000801F
:1026A000000000000E001200100C106C10800F00D3
:1026B000000003E00C1813E4142417C4082807D002
:1026C00000000004003C03C41C40074000E4001C60
:1026D000000410041FFC1104110411040E88007082
:1026E000000003E00C1810041004100410081C1063
:1026F000000010041FFC100410041004080807F068
:10270000000010041FFC1104110417C41004081861
:10271000000010041FFC1104110017C01000080075
:10272000000003E00C181004100410441C78004052
:10273000000010041FFC10840080008010841FFC27
:1027400010040000100410041FFC1004100400000A
:10275000000000030001100110011FFE1000100016
:10276000000010041FFC110403801464181C1004E2
:10277000000010041FFC1004000400040004000CFE
:10278000000010041FFC1F0000FC1F001FFC1004B1
:10279000000010041FFC0C04030000E010181FFCD4
:1027A000100007F00808100410041004080807F0CF
:1027B000000010041FFC10841080108010800F0097
:1027C000000007F0081810241024101C080A07F253
:1027D000000010041FFC1104110011C011300E0C78
:1027E000000400000E1C11041084108410441C38D6
:1027F00000001800100010041FFC10041000180046
:10280000000010001FF810040004000410041FF85A
:10281000100010001E0011E0001C007013801C004E
:1028200010001FC0103C00E01F0000E0103C1FC063
:1028300000001004180C163401C001C01634180C26
:10284000100410001C00130400FC13041C001000F2
:1028500000000804101C1064108413041C041018D9
:1028600000000000000000007FFE40024002400225
:102870000000000030000C0003800060001C00031A
:10288000000000004002400240027FFE0000000005
:102890000000000000002000400040004000200038
:1028A0000000000100010001000100010001000121
:1028B0000001000040004000200000000000000077
:1028C000000000000098012401440144014400FC80
:1028D000000410001FFC008801040104008800703F
:1028E0000000000000700088010401040104008859
:1028F00000000000007000880104010411081FFCA2
:102900000004000000F8014401440144014400C8EF
:1029100000000000010401040FFC11041104110067
:102920001800000000D601290129012901C901066A
:10293000000010041FFC008401000100010400FCE1
:10294000000400000104190419FC00040004000044
:1029500000000000000300010101190119FE000040
:10296000000010041FFC0024004001B4010C01040D
:1029700000000000100410041FFC0004000400000C
:102980000000010401FC0104010001FC010401003C
:1029900000FC010401FC008401000100010400FCB2
:1029A0000004000000F8010401040104010400F81F
:1029B0000000010101FF008501040104008800708E
:1029C000000000000070008801040104010501FFFF
:1029D00000010104010401FC0084010401000180E4
:1029E0000000000000CC01240124012401240198EE
:1029F000000000000100010007F8010401040000CC
:102A00000000010001F8000400040004010801FCBA
:102A10000004010001800170000C001001600180C1
:102A2000010001F0010C003001C00030010C01F088
:102A3000010000000104018C00740170018C01048C
:102A40000000010101810171000E00180160018088
:102A5000010000000184010C013401440184010CD7
:102A60000000000000000000000001003EFC4002E9
:102A700040020000000000000000FFFF0000000016
:102A800000000000400240023EFC01000000000087
:102A90000000000060008000800040004000200036
:102AA00020000000C42A00080000002028000000C8
:102AB00028010008EC2A000828000020600B000014
:102AC00044010008000000000000000000000000B9
:102AD00000000000000000000100000000000000F5
:0C2AE000000000000000000000000000EA
:04000005080000ED02
:00000001FF
